{
	"contracts/blockmagic_hackaton/Dex_functionalities/Pair_v6_LP.sol": {
		"Pair": {
			"abi": [
				{
					"inputs": [
						{
							"internalType": "address",
							"name": "_token0",
							"type": "address"
						},
						{
							"internalType": "address",
							"name": "_token1",
							"type": "address"
						},
						{
							"internalType": "address",
							"name": "_priceFeed0",
							"type": "address"
						},
						{
							"internalType": "address",
							"name": "_priceFeed1",
							"type": "address"
						},
						{
							"internalType": "address",
							"name": "_lpToken",
							"type": "address"
						}
					],
					"stateMutability": "nonpayable",
					"type": "constructor"
				},
				{
					"anonymous": false,
					"inputs": [
						{
							"indexed": true,
							"internalType": "address",
							"name": "provider",
							"type": "address"
						},
						{
							"indexed": false,
							"internalType": "uint256",
							"name": "amount0",
							"type": "uint256"
						},
						{
							"indexed": false,
							"internalType": "uint256",
							"name": "amount1",
							"type": "uint256"
						},
						{
							"indexed": false,
							"internalType": "uint256",
							"name": "liquidity",
							"type": "uint256"
						},
						{
							"indexed": false,
							"internalType": "uint256",
							"name": "reserve0",
							"type": "uint256"
						},
						{
							"indexed": false,
							"internalType": "uint256",
							"name": "reserve1",
							"type": "uint256"
						}
					],
					"name": "LiquidityAdded",
					"type": "event"
				},
				{
					"anonymous": false,
					"inputs": [
						{
							"indexed": true,
							"internalType": "address",
							"name": "provider",
							"type": "address"
						},
						{
							"indexed": false,
							"internalType": "uint256",
							"name": "amount0",
							"type": "uint256"
						},
						{
							"indexed": false,
							"internalType": "uint256",
							"name": "amount1",
							"type": "uint256"
						},
						{
							"indexed": false,
							"internalType": "uint256",
							"name": "liquidity",
							"type": "uint256"
						},
						{
							"indexed": false,
							"internalType": "uint256",
							"name": "reserve0",
							"type": "uint256"
						},
						{
							"indexed": false,
							"internalType": "uint256",
							"name": "reserve1",
							"type": "uint256"
						}
					],
					"name": "LiquidityRemoved",
					"type": "event"
				},
				{
					"inputs": [
						{
							"internalType": "uint256",
							"name": "usdAmount",
							"type": "uint256"
						}
					],
					"name": "addLiquidityInUSD",
					"outputs": [],
					"stateMutability": "nonpayable",
					"type": "function"
				},
				{
					"inputs": [
						{
							"internalType": "uint256",
							"name": "amountIn",
							"type": "uint256"
						},
						{
							"internalType": "address",
							"name": "inputToken",
							"type": "address"
						}
					],
					"name": "getAmountOut",
					"outputs": [
						{
							"internalType": "uint256",
							"name": "amountOut",
							"type": "uint256"
						}
					],
					"stateMutability": "view",
					"type": "function"
				},
				{
					"inputs": [],
					"name": "getDAIperLinkMarketPrice",
					"outputs": [
						{
							"internalType": "uint256",
							"name": "",
							"type": "uint256"
						}
					],
					"stateMutability": "view",
					"type": "function"
				},
				{
					"inputs": [],
					"name": "getDAIperLinkOurDEXPrice",
					"outputs": [
						{
							"internalType": "uint256",
							"name": "",
							"type": "uint256"
						}
					],
					"stateMutability": "view",
					"type": "function"
				},
				{
					"inputs": [
						{
							"internalType": "address",
							"name": "user",
							"type": "address"
						}
					],
					"name": "getLPTokenDetails",
					"outputs": [
						{
							"internalType": "address",
							"name": "",
							"type": "address"
						},
						{
							"internalType": "uint256",
							"name": "",
							"type": "uint256"
						}
					],
					"stateMutability": "view",
					"type": "function"
				},
				{
					"inputs": [
						{
							"internalType": "address",
							"name": "inputToken",
							"type": "address"
						}
					],
					"name": "getPrice",
					"outputs": [
						{
							"internalType": "int256",
							"name": "",
							"type": "int256"
						}
					],
					"stateMutability": "view",
					"type": "function"
				},
				{
					"inputs": [],
					"name": "getPriceRatio",
					"outputs": [
						{
							"internalType": "int256",
							"name": "",
							"type": "int256"
						}
					],
					"stateMutability": "view",
					"type": "function"
				},
				{
					"inputs": [],
					"name": "getReserves",
					"outputs": [
						{
							"internalType": "uint256",
							"name": "",
							"type": "uint256"
						},
						{
							"internalType": "uint256",
							"name": "",
							"type": "uint256"
						}
					],
					"stateMutability": "view",
					"type": "function"
				},
				{
					"inputs": [],
					"name": "lpToken",
					"outputs": [
						{
							"internalType": "contract LPToken",
							"name": "",
							"type": "address"
						}
					],
					"stateMutability": "view",
					"type": "function"
				},
				{
					"inputs": [
						{
							"internalType": "uint256",
							"name": "usdAmount",
							"type": "uint256"
						}
					],
					"name": "removeLiquidityInUSD",
					"outputs": [],
					"stateMutability": "nonpayable",
					"type": "function"
				},
				{
					"inputs": [],
					"name": "reserve0",
					"outputs": [
						{
							"internalType": "uint256",
							"name": "",
							"type": "uint256"
						}
					],
					"stateMutability": "view",
					"type": "function"
				},
				{
					"inputs": [],
					"name": "reserve1",
					"outputs": [
						{
							"internalType": "uint256",
							"name": "",
							"type": "uint256"
						}
					],
					"stateMutability": "view",
					"type": "function"
				},
				{
					"inputs": [
						{
							"internalType": "uint256",
							"name": "usdAmount",
							"type": "uint256"
						},
						{
							"internalType": "address",
							"name": "inputToken",
							"type": "address"
						}
					],
					"name": "swapInUSD",
					"outputs": [],
					"stateMutability": "nonpayable",
					"type": "function"
				},
				{
					"inputs": [],
					"name": "token0",
					"outputs": [
						{
							"internalType": "address",
							"name": "",
							"type": "address"
						}
					],
					"stateMutability": "view",
					"type": "function"
				},
				{
					"inputs": [],
					"name": "token1",
					"outputs": [
						{
							"internalType": "address",
							"name": "",
							"type": "address"
						}
					],
					"stateMutability": "view",
					"type": "function"
				}
			],
			"devdoc": {
				"kind": "dev",
				"methods": {
					"addLiquidityInUSD(uint256)": {
						"details": "External function to add liquidity in USD equivalent without enforcing ratio.",
						"params": {
							"usdAmount": "Total USD value of liquidity to add."
						}
					},
					"constructor": {
						"details": "Constructor to initialize the pair contract with token addresses and price feeds.",
						"params": {
							"_lpToken": "Address of the LP token contract.",
							"_priceFeed0": "Address of the Chainlink price feed for token0/USD.",
							"_priceFeed1": "Address of the Chainlink price feed for token1/USD.",
							"_token0": "Address of token0.",
							"_token1": "Address of token1."
						}
					},
					"getDAIperLinkMarketPrice()": {
						"details": "View function to get the current market price ratio of token0 to token1 using Chainlink price feeds.",
						"returns": {
							"_0": "uint256 Market price ratio of token0 to token1."
						}
					},
					"getDAIperLinkOurDEXPrice()": {
						"details": "View function to get the price of token0 in terms of token1 using the AMM formula.",
						"returns": {
							"_0": "uint256 Price of token0 in terms of token1."
						}
					},
					"getLPTokenDetails(address)": {
						"details": "View function to get LP token details and balance for a specific address.",
						"params": {
							"user": "Address of the user to check."
						},
						"returns": {
							"_0": "(address, uint256) Address of the LP token and balance of the user."
						}
					},
					"getPrice(address)": {
						"details": "View function to get the current price of a token from the Chainlink price feed.",
						"params": {
							"inputToken": "Address of the token to get the price for."
						},
						"returns": {
							"_0": "int Current price of the token in USD."
						}
					},
					"getPriceRatio()": {
						"details": "View function to get the price ratio between token0 and token1.",
						"returns": {
							"_0": "int Price ratio of token0 to token1."
						}
					},
					"getReserves()": {
						"details": "View function to get the current reserves of the pool.",
						"returns": {
							"_0": "(uint256, uint256) Reserves of token0 and token1."
						}
					},
					"removeLiquidityInUSD(uint256)": {
						"details": "External function to remove liquidity in USD equivalent without enforcing ratio.",
						"params": {
							"usdAmount": "Total USD value of liquidity to remove."
						}
					},
					"swapInUSD(uint256,address)": {
						"details": "External function to swap tokens using USD value.",
						"params": {
							"inputToken": "Address of the input token.",
							"usdAmount": "Amount of USD to swap from inputToken to outputToken."
						}
					}
				},
				"version": 1
			},
			"evm": {
				"assembly": "    /* \"contracts/blockmagic_hackaton/Dex_functionalities/Pair_v6_LP.sol\":252:11276  contract Pair {... */\n  mstore(0x40, 0x80)\n    /* \"contracts/blockmagic_hackaton/Dex_functionalities/Pair_v6_LP.sol\":1455:1929  constructor(... */\n  callvalue\n  dup1\n  iszero\n  tag_1\n  jumpi\n  0x00\n  dup1\n  revert\ntag_1:\n  pop\n  mload(0x40)\n  sub(codesize, bytecodeSize)\n  dup1\n  bytecodeSize\n  dup4\n  codecopy\n  dup2\n  dup2\n  add\n  0x40\n  mstore\n  dup2\n  add\n  swap1\n  tag_2\n  swap2\n  swap1\n  tag_3\n  jump\t// in\ntag_2:\n    /* \"contracts/blockmagic_hackaton/Dex_functionalities/Pair_v6_LP.sol\":1733:1740  _token0 */\n  dup5\n    /* \"contracts/blockmagic_hackaton/Dex_functionalities/Pair_v6_LP.sol\":1724:1730  token0 */\n  0x00\n  dup1\n    /* \"contracts/blockmagic_hackaton/Dex_functionalities/Pair_v6_LP.sol\":1724:1740  token0 = _token0 */\n  0x0100\n  exp\n  dup2\n  sload\n  dup2\n  0xffffffffffffffffffffffffffffffffffffffff\n  mul\n  not\n  and\n  swap1\n  dup4\n  0xffffffffffffffffffffffffffffffffffffffff\n  and\n  mul\n  or\n  swap1\n  sstore\n  pop\n    /* \"contracts/blockmagic_hackaton/Dex_functionalities/Pair_v6_LP.sol\":1760:1767  _token1 */\n  dup4\n    /* \"contracts/blockmagic_hackaton/Dex_functionalities/Pair_v6_LP.sol\":1751:1757  token1 */\n  0x01\n  0x00\n    /* \"contracts/blockmagic_hackaton/Dex_functionalities/Pair_v6_LP.sol\":1751:1767  token1 = _token1 */\n  0x0100\n  exp\n  dup2\n  sload\n  dup2\n  0xffffffffffffffffffffffffffffffffffffffff\n  mul\n  not\n  and\n  swap1\n  dup4\n  0xffffffffffffffffffffffffffffffffffffffff\n  and\n  mul\n  or\n  swap1\n  sstore\n  pop\n    /* \"contracts/blockmagic_hackaton/Dex_functionalities/Pair_v6_LP.sol\":1813:1824  _priceFeed0 */\n  dup3\n    /* \"contracts/blockmagic_hackaton/Dex_functionalities/Pair_v6_LP.sol\":1778:1788  priceFeed0 */\n  0x05\n  0x00\n    /* \"contracts/blockmagic_hackaton/Dex_functionalities/Pair_v6_LP.sol\":1778:1825  priceFeed0 = AggregatorV3Interface(_priceFeed0) */\n  0x0100\n  exp\n  dup2\n  sload\n  dup2\n  0xffffffffffffffffffffffffffffffffffffffff\n  mul\n  not\n  and\n  swap1\n  dup4\n  0xffffffffffffffffffffffffffffffffffffffff\n  and\n  mul\n  or\n  swap1\n  sstore\n  pop\n    /* \"contracts/blockmagic_hackaton/Dex_functionalities/Pair_v6_LP.sol\":1871:1882  _priceFeed1 */\n  dup2\n    /* \"contracts/blockmagic_hackaton/Dex_functionalities/Pair_v6_LP.sol\":1836:1846  priceFeed1 */\n  0x06\n  0x00\n    /* \"contracts/blockmagic_hackaton/Dex_functionalities/Pair_v6_LP.sol\":1836:1883  priceFeed1 = AggregatorV3Interface(_priceFeed1) */\n  0x0100\n  exp\n  dup2\n  sload\n  dup2\n  0xffffffffffffffffffffffffffffffffffffffff\n  mul\n  not\n  and\n  swap1\n  dup4\n  0xffffffffffffffffffffffffffffffffffffffff\n  and\n  mul\n  or\n  swap1\n  sstore\n  pop\n    /* \"contracts/blockmagic_hackaton/Dex_functionalities/Pair_v6_LP.sol\":1912:1920  _lpToken */\n  dup1\n    /* \"contracts/blockmagic_hackaton/Dex_functionalities/Pair_v6_LP.sol\":1894:1901  lpToken */\n  0x02\n  0x00\n    /* \"contracts/blockmagic_hackaton/Dex_functionalities/Pair_v6_LP.sol\":1894:1921  lpToken = LPToken(_lpToken) */\n  0x0100\n  exp\n  dup2\n  sload\n  dup2\n  0xffffffffffffffffffffffffffffffffffffffff\n  mul\n  not\n  and\n  swap1\n  dup4\n  0xffffffffffffffffffffffffffffffffffffffff\n  and\n  mul\n  or\n  swap1\n  sstore\n  pop\n    /* \"contracts/blockmagic_hackaton/Dex_functionalities/Pair_v6_LP.sol\":1455:1929  constructor(... */\n  pop\n  pop\n  pop\n  pop\n  pop\n    /* \"contracts/blockmagic_hackaton/Dex_functionalities/Pair_v6_LP.sol\":252:11276  contract Pair {... */\n  jump(tag_6)\n    /* \"#utility.yul\":88:205   */\ntag_8:\n    /* \"#utility.yul\":197:198   */\n  0x00\n    /* \"#utility.yul\":194:195   */\n  dup1\n    /* \"#utility.yul\":187:199   */\n  revert\n    /* \"#utility.yul\":334:460   */\ntag_10:\n    /* \"#utility.yul\":371:378   */\n  0x00\n    /* \"#utility.yul\":411:453   */\n  0xffffffffffffffffffffffffffffffffffffffff\n    /* \"#utility.yul\":404:409   */\n  dup3\n    /* \"#utility.yul\":400:454   */\n  and\n    /* \"#utility.yul\":389:454   */\n  swap1\n  pop\n    /* \"#utility.yul\":334:460   */\n  swap2\n  swap1\n  pop\n  jump\t// out\n    /* \"#utility.yul\":466:562   */\ntag_11:\n    /* \"#utility.yul\":503:510   */\n  0x00\n    /* \"#utility.yul\":532:556   */\n  tag_20\n    /* \"#utility.yul\":550:555   */\n  dup3\n    /* \"#utility.yul\":532:556   */\n  tag_10\n  jump\t// in\ntag_20:\n    /* \"#utility.yul\":521:556   */\n  swap1\n  pop\n    /* \"#utility.yul\":466:562   */\n  swap2\n  swap1\n  pop\n  jump\t// out\n    /* \"#utility.yul\":568:690   */\ntag_12:\n    /* \"#utility.yul\":641:665   */\n  tag_22\n    /* \"#utility.yul\":659:664   */\n  dup2\n    /* \"#utility.yul\":641:665   */\n  tag_11\n  jump\t// in\ntag_22:\n    /* \"#utility.yul\":634:639   */\n  dup2\n    /* \"#utility.yul\":631:666   */\n  eq\n    /* \"#utility.yul\":621:684   */\n  tag_23\n  jumpi\n    /* \"#utility.yul\":680:681   */\n  0x00\n    /* \"#utility.yul\":677:678   */\n  dup1\n    /* \"#utility.yul\":670:682   */\n  revert\n    /* \"#utility.yul\":621:684   */\ntag_23:\n    /* \"#utility.yul\":568:690   */\n  pop\n  jump\t// out\n    /* \"#utility.yul\":696:839   */\ntag_13:\n    /* \"#utility.yul\":753:758   */\n  0x00\n    /* \"#utility.yul\":784:790   */\n  dup2\n    /* \"#utility.yul\":778:791   */\n  mload\n    /* \"#utility.yul\":769:791   */\n  swap1\n  pop\n    /* \"#utility.yul\":800:833   */\n  tag_25\n    /* \"#utility.yul\":827:832   */\n  dup2\n    /* \"#utility.yul\":800:833   */\n  tag_12\n  jump\t// in\ntag_25:\n    /* \"#utility.yul\":696:839   */\n  swap3\n  swap2\n  pop\n  pop\n  jump\t// out\n    /* \"#utility.yul\":845:1822   */\ntag_3:\n    /* \"#utility.yul\":951:957   */\n  0x00\n    /* \"#utility.yul\":959:965   */\n  dup1\n    /* \"#utility.yul\":967:973   */\n  0x00\n    /* \"#utility.yul\":975:981   */\n  dup1\n    /* \"#utility.yul\":983:989   */\n  0x00\n    /* \"#utility.yul\":1032:1035   */\n  0xa0\n    /* \"#utility.yul\":1020:1029   */\n  dup7\n    /* \"#utility.yul\":1011:1018   */\n  dup9\n    /* \"#utility.yul\":1007:1030   */\n  sub\n    /* \"#utility.yul\":1003:1036   */\n  slt\n    /* \"#utility.yul\":1000:1120   */\n  iszero\n  tag_27\n  jumpi\n    /* \"#utility.yul\":1039:1118   */\n  tag_28\n  tag_8\n  jump\t// in\ntag_28:\n    /* \"#utility.yul\":1000:1120   */\ntag_27:\n    /* \"#utility.yul\":1159:1160   */\n  0x00\n    /* \"#utility.yul\":1184:1248   */\n  tag_29\n    /* \"#utility.yul\":1240:1247   */\n  dup9\n    /* \"#utility.yul\":1231:1237   */\n  dup3\n    /* \"#utility.yul\":1220:1229   */\n  dup10\n    /* \"#utility.yul\":1216:1238   */\n  add\n    /* \"#utility.yul\":1184:1248   */\n  tag_13\n  jump\t// in\ntag_29:\n    /* \"#utility.yul\":1174:1248   */\n  swap6\n  pop\n    /* \"#utility.yul\":1130:1258   */\n  pop\n    /* \"#utility.yul\":1297:1299   */\n  0x20\n    /* \"#utility.yul\":1323:1387   */\n  tag_30\n    /* \"#utility.yul\":1379:1386   */\n  dup9\n    /* \"#utility.yul\":1370:1376   */\n  dup3\n    /* \"#utility.yul\":1359:1368   */\n  dup10\n    /* \"#utility.yul\":1355:1377   */\n  add\n    /* \"#utility.yul\":1323:1387   */\n  tag_13\n  jump\t// in\ntag_30:\n    /* \"#utility.yul\":1313:1387   */\n  swap5\n  pop\n    /* \"#utility.yul\":1268:1397   */\n  pop\n    /* \"#utility.yul\":1436:1438   */\n  0x40\n    /* \"#utility.yul\":1462:1526   */\n  tag_31\n    /* \"#utility.yul\":1518:1525   */\n  dup9\n    /* \"#utility.yul\":1509:1515   */\n  dup3\n    /* \"#utility.yul\":1498:1507   */\n  dup10\n    /* \"#utility.yul\":1494:1516   */\n  add\n    /* \"#utility.yul\":1462:1526   */\n  tag_13\n  jump\t// in\ntag_31:\n    /* \"#utility.yul\":1452:1526   */\n  swap4\n  pop\n    /* \"#utility.yul\":1407:1536   */\n  pop\n    /* \"#utility.yul\":1575:1577   */\n  0x60\n    /* \"#utility.yul\":1601:1665   */\n  tag_32\n    /* \"#utility.yul\":1657:1664   */\n  dup9\n    /* \"#utility.yul\":1648:1654   */\n  dup3\n    /* \"#utility.yul\":1637:1646   */\n  dup10\n    /* \"#utility.yul\":1633:1655   */\n  add\n    /* \"#utility.yul\":1601:1665   */\n  tag_13\n  jump\t// in\ntag_32:\n    /* \"#utility.yul\":1591:1665   */\n  swap3\n  pop\n    /* \"#utility.yul\":1546:1675   */\n  pop\n    /* \"#utility.yul\":1714:1717   */\n  0x80\n    /* \"#utility.yul\":1741:1805   */\n  tag_33\n    /* \"#utility.yul\":1797:1804   */\n  dup9\n    /* \"#utility.yul\":1788:1794   */\n  dup3\n    /* \"#utility.yul\":1777:1786   */\n  dup10\n    /* \"#utility.yul\":1773:1795   */\n  add\n    /* \"#utility.yul\":1741:1805   */\n  tag_13\n  jump\t// in\ntag_33:\n    /* \"#utility.yul\":1731:1805   */\n  swap2\n  pop\n    /* \"#utility.yul\":1685:1815   */\n  pop\n    /* \"#utility.yul\":845:1822   */\n  swap3\n  swap6\n  pop\n  swap3\n  swap6\n  swap1\n  swap4\n  pop\n  jump\t// out\n    /* \"contracts/blockmagic_hackaton/Dex_functionalities/Pair_v6_LP.sol\":252:11276  contract Pair {... */\ntag_6:\n  dataSize(sub_0)\n  dup1\n  dataOffset(sub_0)\n  0x00\n  codecopy\n  0x00\n  return\nstop\n\nsub_0: assembly {\n        /* \"contracts/blockmagic_hackaton/Dex_functionalities/Pair_v6_LP.sol\":252:11276  contract Pair {... */\n      mstore(0x40, 0x80)\n      callvalue\n      dup1\n      iszero\n      tag_1\n      jumpi\n      0x00\n      dup1\n      revert\n    tag_1:\n      pop\n      jumpi(tag_2, lt(calldatasize, 0x04))\n      shr(0xe0, calldataload(0x00))\n      dup1\n      0x5fcbd285\n      gt\n      tag_18\n      jumpi\n      dup1\n      0xbff46a4c\n      gt\n      tag_19\n      jumpi\n      dup1\n      0xbff46a4c\n      eq\n      tag_14\n      jumpi\n      dup1\n      0xd0e7e07e\n      eq\n      tag_15\n      jumpi\n      dup1\n      0xd21220a7\n      eq\n      tag_16\n      jumpi\n      dup1\n      0xf140a35a\n      eq\n      tag_17\n      jumpi\n      jump(tag_2)\n    tag_19:\n      dup1\n      0x5fcbd285\n      eq\n      tag_10\n      jumpi\n      dup1\n      0x64e7b85a\n      eq\n      tag_11\n      jumpi\n      dup1\n      0x729132f9\n      eq\n      tag_12\n      jumpi\n      dup1\n      0xa996944c\n      eq\n      tag_13\n      jumpi\n      jump(tag_2)\n    tag_18:\n      dup1\n      0x443cb4bc\n      gt\n      tag_20\n      jumpi\n      dup1\n      0x443cb4bc\n      eq\n      tag_6\n      jumpi\n      dup1\n      0x5444a39d\n      eq\n      tag_7\n      jumpi\n      dup1\n      0x54b2a769\n      eq\n      tag_8\n      jumpi\n      dup1\n      0x5a76f25e\n      eq\n      tag_9\n      jumpi\n      jump(tag_2)\n    tag_20:\n      dup1\n      0x0902f1ac\n      eq\n      tag_3\n      jumpi\n      dup1\n      0x0dfe1681\n      eq\n      tag_4\n      jumpi\n      dup1\n      0x41976e09\n      eq\n      tag_5\n      jumpi\n    tag_2:\n      0x00\n      dup1\n      revert\n        /* \"contracts/blockmagic_hackaton/Dex_functionalities/Pair_v6_LP.sol\":5495:5603  function getReserves() public view returns (uint256, uint256) {... */\n    tag_3:\n      tag_21\n      tag_22\n      jump\t// in\n    tag_21:\n      mload(0x40)\n      tag_23\n      swap3\n      swap2\n      swap1\n      tag_24\n      jump\t// in\n    tag_23:\n      mload(0x40)\n      dup1\n      swap2\n      sub\n      swap1\n      return\n        /* \"contracts/blockmagic_hackaton/Dex_functionalities/Pair_v6_LP.sol\":310:331  address public token0 */\n    tag_4:\n      tag_25\n      tag_26\n      jump\t// in\n    tag_25:\n      mload(0x40)\n      tag_27\n      swap2\n      swap1\n      tag_28\n      jump\t// in\n    tag_27:\n      mload(0x40)\n      dup1\n      swap2\n      sub\n      swap1\n      return\n        /* \"contracts/blockmagic_hackaton/Dex_functionalities/Pair_v6_LP.sol\":5847:6294  function getPrice(address inputToken) public view returns (int) {... */\n    tag_5:\n      tag_29\n      0x04\n      dup1\n      calldatasize\n      sub\n      dup2\n      add\n      swap1\n      tag_30\n      swap2\n      swap1\n      tag_31\n      jump\t// in\n    tag_30:\n      tag_32\n      jump\t// in\n    tag_29:\n      mload(0x40)\n      tag_33\n      swap2\n      swap1\n      tag_34\n      jump\t// in\n    tag_33:\n      mload(0x40)\n      dup1\n      swap2\n      sub\n      swap1\n      return\n        /* \"contracts/blockmagic_hackaton/Dex_functionalities/Pair_v6_LP.sol\":470:493  uint256 public reserve0 */\n    tag_6:\n      tag_35\n      tag_36\n      jump\t// in\n    tag_35:\n      mload(0x40)\n      tag_37\n      swap2\n      swap1\n      tag_38\n      jump\t// in\n    tag_37:\n      mload(0x40)\n      dup1\n      swap2\n      sub\n      swap1\n      return\n        /* \"contracts/blockmagic_hackaton/Dex_functionalities/Pair_v6_LP.sol\":4621:5335  function removeLiquidityInUSD(uint256 usdAmount) external {... */\n    tag_7:\n      tag_39\n      0x04\n      dup1\n      calldatasize\n      sub\n      dup2\n      add\n      swap1\n      tag_40\n      swap2\n      swap1\n      tag_41\n      jump\t// in\n    tag_40:\n      tag_42\n      jump\t// in\n    tag_39:\n      stop\n        /* \"contracts/blockmagic_hackaton/Dex_functionalities/Pair_v6_LP.sol\":6450:6747  function getPriceRatio() public view returns (int) {... */\n    tag_8:\n      tag_43\n      tag_44\n      jump\t// in\n    tag_43:\n      mload(0x40)\n      tag_45\n      swap2\n      swap1\n      tag_34\n      jump\t// in\n    tag_45:\n      mload(0x40)\n      dup1\n      swap2\n      sub\n      swap1\n      return\n        /* \"contracts/blockmagic_hackaton/Dex_functionalities/Pair_v6_LP.sol\":500:523  uint256 public reserve1 */\n    tag_9:\n      tag_46\n      tag_47\n      jump\t// in\n    tag_46:\n      mload(0x40)\n      tag_48\n      swap2\n      swap1\n      tag_38\n      jump\t// in\n    tag_48:\n      mload(0x40)\n      dup1\n      swap2\n      sub\n      swap1\n      return\n        /* \"contracts/blockmagic_hackaton/Dex_functionalities/Pair_v6_LP.sol\":366:388  LPToken public lpToken */\n    tag_10:\n      tag_49\n      tag_50\n      jump\t// in\n    tag_49:\n      mload(0x40)\n      tag_51\n      swap2\n      swap1\n      tag_52\n      jump\t// in\n    tag_51:\n      mload(0x40)\n      dup1\n      swap2\n      sub\n      swap1\n      return\n        /* \"contracts/blockmagic_hackaton/Dex_functionalities/Pair_v6_LP.sol\":3051:3625  function addLiquidityInUSD(uint256 usdAmount) external {... */\n    tag_11:\n      tag_53\n      0x04\n      dup1\n      calldatasize\n      sub\n      dup2\n      add\n      swap1\n      tag_54\n      swap2\n      swap1\n      tag_41\n      jump\t// in\n    tag_54:\n      tag_55\n      jump\t// in\n    tag_53:\n      stop\n        /* \"contracts/blockmagic_hackaton/Dex_functionalities/Pair_v6_LP.sol\":9298:9530  function getDAIperLinkOurDEXPrice() public view returns (uint256) {... */\n    tag_12:\n      tag_56\n      tag_57\n      jump\t// in\n    tag_56:\n      mload(0x40)\n      tag_58\n      swap2\n      swap1\n      tag_38\n      jump\t// in\n    tag_58:\n      mload(0x40)\n      dup1\n      swap2\n      sub\n      swap1\n      return\n        /* \"contracts/blockmagic_hackaton/Dex_functionalities/Pair_v6_LP.sol\":9734:10031  function getDAIperLinkMarketPrice() public view returns (uint256) {... */\n    tag_13:\n      tag_59\n      tag_60\n      jump\t// in\n    tag_59:\n      mload(0x40)\n      tag_61\n      swap2\n      swap1\n      tag_38\n      jump\t// in\n    tag_61:\n      mload(0x40)\n      dup1\n      swap2\n      sub\n      swap1\n      return\n        /* \"contracts/blockmagic_hackaton/Dex_functionalities/Pair_v6_LP.sol\":11088:11273  function getLPTokenDetails(address user) public view returns (address, uint256) {... */\n    tag_14:\n      tag_62\n      0x04\n      dup1\n      calldatasize\n      sub\n      dup2\n      add\n      swap1\n      tag_63\n      swap2\n      swap1\n      tag_31\n      jump\t// in\n    tag_63:\n      tag_64\n      jump\t// in\n    tag_62:\n      mload(0x40)\n      tag_65\n      swap3\n      swap2\n      swap1\n      tag_66\n      jump\t// in\n    tag_65:\n      mload(0x40)\n      dup1\n      swap2\n      sub\n      swap1\n      return\n        /* \"contracts/blockmagic_hackaton/Dex_functionalities/Pair_v6_LP.sol\":7813:9116  function swapInUSD(uint256 usdAmount, address inputToken) external {... */\n    tag_15:\n      tag_67\n      0x04\n      dup1\n      calldatasize\n      sub\n      dup2\n      add\n      swap1\n      tag_68\n      swap2\n      swap1\n      tag_69\n      jump\t// in\n    tag_68:\n      tag_70\n      jump\t// in\n    tag_67:\n      stop\n        /* \"contracts/blockmagic_hackaton/Dex_functionalities/Pair_v6_LP.sol\":338:359  address public token1 */\n    tag_16:\n      tag_71\n      tag_72\n      jump\t// in\n    tag_71:\n      mload(0x40)\n      tag_73\n      swap2\n      swap1\n      tag_28\n      jump\t// in\n    tag_73:\n      mload(0x40)\n      dup1\n      swap2\n      sub\n      swap1\n      return\n        /* \"contracts/blockmagic_hackaton/Dex_functionalities/Pair_v6_LP.sol\":7032:7591  function getAmountOut(uint256 amountIn, address inputToken) public view returns (uint256 amountOut) {... */\n    tag_17:\n      tag_74\n      0x04\n      dup1\n      calldatasize\n      sub\n      dup2\n      add\n      swap1\n      tag_75\n      swap2\n      swap1\n      tag_69\n      jump\t// in\n    tag_75:\n      tag_76\n      jump\t// in\n    tag_74:\n      mload(0x40)\n      tag_77\n      swap2\n      swap1\n      tag_38\n      jump\t// in\n    tag_77:\n      mload(0x40)\n      dup1\n      swap2\n      sub\n      swap1\n      return\n        /* \"contracts/blockmagic_hackaton/Dex_functionalities/Pair_v6_LP.sol\":5495:5603  function getReserves() public view returns (uint256, uint256) {... */\n    tag_22:\n        /* \"contracts/blockmagic_hackaton/Dex_functionalities/Pair_v6_LP.sol\":5539:5546  uint256 */\n      0x00\n        /* \"contracts/blockmagic_hackaton/Dex_functionalities/Pair_v6_LP.sol\":5548:5555  uint256 */\n      dup1\n        /* \"contracts/blockmagic_hackaton/Dex_functionalities/Pair_v6_LP.sol\":5576:5584  reserve0 */\n      sload(0x03)\n        /* \"contracts/blockmagic_hackaton/Dex_functionalities/Pair_v6_LP.sol\":5586:5594  reserve1 */\n      sload(0x04)\n        /* \"contracts/blockmagic_hackaton/Dex_functionalities/Pair_v6_LP.sol\":5568:5595  return (reserve0, reserve1) */\n      swap2\n      pop\n      swap2\n      pop\n        /* \"contracts/blockmagic_hackaton/Dex_functionalities/Pair_v6_LP.sol\":5495:5603  function getReserves() public view returns (uint256, uint256) {... */\n      swap1\n      swap2\n      jump\t// out\n        /* \"contracts/blockmagic_hackaton/Dex_functionalities/Pair_v6_LP.sol\":310:331  address public token0 */\n    tag_26:\n      0x00\n      dup1\n      sload\n      swap1\n      0x0100\n      exp\n      swap1\n      div\n      0xffffffffffffffffffffffffffffffffffffffff\n      and\n      dup2\n      jump\t// out\n        /* \"contracts/blockmagic_hackaton/Dex_functionalities/Pair_v6_LP.sol\":5847:6294  function getPrice(address inputToken) public view returns (int) {... */\n    tag_32:\n        /* \"contracts/blockmagic_hackaton/Dex_functionalities/Pair_v6_LP.sol\":5906:5909  int */\n      0x00\n        /* \"contracts/blockmagic_hackaton/Dex_functionalities/Pair_v6_LP.sol\":5944:5950  token0 */\n      dup1\n      0x00\n      swap1\n      sload\n      swap1\n      0x0100\n      exp\n      swap1\n      div\n      0xffffffffffffffffffffffffffffffffffffffff\n      and\n        /* \"contracts/blockmagic_hackaton/Dex_functionalities/Pair_v6_LP.sol\":5930:5950  inputToken == token0 */\n      0xffffffffffffffffffffffffffffffffffffffff\n      and\n        /* \"contracts/blockmagic_hackaton/Dex_functionalities/Pair_v6_LP.sol\":5930:5940  inputToken */\n      dup3\n        /* \"contracts/blockmagic_hackaton/Dex_functionalities/Pair_v6_LP.sol\":5930:5950  inputToken == token0 */\n      0xffffffffffffffffffffffffffffffffffffffff\n      and\n      eq\n        /* \"contracts/blockmagic_hackaton/Dex_functionalities/Pair_v6_LP.sol\":5930:5974  inputToken == token0 || inputToken == token1 */\n      dup1\n      tag_80\n      jumpi\n      pop\n        /* \"contracts/blockmagic_hackaton/Dex_functionalities/Pair_v6_LP.sol\":5968:5974  token1 */\n      0x01\n      0x00\n      swap1\n      sload\n      swap1\n      0x0100\n      exp\n      swap1\n      div\n      0xffffffffffffffffffffffffffffffffffffffff\n      and\n        /* \"contracts/blockmagic_hackaton/Dex_functionalities/Pair_v6_LP.sol\":5954:5974  inputToken == token1 */\n      0xffffffffffffffffffffffffffffffffffffffff\n      and\n        /* \"contracts/blockmagic_hackaton/Dex_functionalities/Pair_v6_LP.sol\":5954:5964  inputToken */\n      dup3\n        /* \"contracts/blockmagic_hackaton/Dex_functionalities/Pair_v6_LP.sol\":5954:5974  inputToken == token1 */\n      0xffffffffffffffffffffffffffffffffffffffff\n      and\n      eq\n        /* \"contracts/blockmagic_hackaton/Dex_functionalities/Pair_v6_LP.sol\":5930:5974  inputToken == token0 || inputToken == token1 */\n    tag_80:\n        /* \"contracts/blockmagic_hackaton/Dex_functionalities/Pair_v6_LP.sol\":5922:5998  require(inputToken == token0 || inputToken == token1, \"Invalid input token\") */\n      tag_81\n      jumpi\n      mload(0x40)\n      0x08c379a000000000000000000000000000000000000000000000000000000000\n      dup2\n      mstore\n      0x04\n      add\n      tag_82\n      swap1\n      tag_83\n      jump\t// in\n    tag_82:\n      mload(0x40)\n      dup1\n      swap2\n      sub\n      swap1\n      revert\n    tag_81:\n        /* \"contracts/blockmagic_hackaton/Dex_functionalities/Pair_v6_LP.sol\":6011:6020  int price */\n      0x00\n        /* \"contracts/blockmagic_hackaton/Dex_functionalities/Pair_v6_LP.sol\":6049:6055  token0 */\n      dup1\n      0x00\n      swap1\n      sload\n      swap1\n      0x0100\n      exp\n      swap1\n      div\n      0xffffffffffffffffffffffffffffffffffffffff\n      and\n        /* \"contracts/blockmagic_hackaton/Dex_functionalities/Pair_v6_LP.sol\":6035:6055  inputToken == token0 */\n      0xffffffffffffffffffffffffffffffffffffffff\n      and\n        /* \"contracts/blockmagic_hackaton/Dex_functionalities/Pair_v6_LP.sol\":6035:6045  inputToken */\n      dup4\n        /* \"contracts/blockmagic_hackaton/Dex_functionalities/Pair_v6_LP.sol\":6035:6055  inputToken == token0 */\n      0xffffffffffffffffffffffffffffffffffffffff\n      and\n      sub\n        /* \"contracts/blockmagic_hackaton/Dex_functionalities/Pair_v6_LP.sol\":6031:6201  if (inputToken == token0) {... */\n      tag_84\n      jumpi\n        /* \"contracts/blockmagic_hackaton/Dex_functionalities/Pair_v6_LP.sol\":6086:6096  priceFeed0 */\n      0x05\n      0x00\n      swap1\n      sload\n      swap1\n      0x0100\n      exp\n      swap1\n      div\n      0xffffffffffffffffffffffffffffffffffffffff\n      and\n        /* \"contracts/blockmagic_hackaton/Dex_functionalities/Pair_v6_LP.sol\":6086:6112  priceFeed0.latestRoundData */\n      0xffffffffffffffffffffffffffffffffffffffff\n      and\n      0xfeaf968c\n        /* \"contracts/blockmagic_hackaton/Dex_functionalities/Pair_v6_LP.sol\":6086:6114  priceFeed0.latestRoundData() */\n      mload(0x40)\n      dup2\n      0xffffffff\n      and\n      0xe0\n      shl\n      dup2\n      mstore\n      0x04\n      add\n      0xa0\n      mload(0x40)\n      dup1\n      dup4\n      sub\n      dup2\n      dup7\n      gas\n      staticcall\n      iszero\n      dup1\n      iszero\n      tag_86\n      jumpi\n      returndatasize\n      0x00\n      dup1\n      returndatacopy\n      revert(0x00, returndatasize)\n    tag_86:\n      pop\n      pop\n      pop\n      pop\n      mload(0x40)\n      returndatasize\n      not(0x1f)\n      0x1f\n      dup3\n      add\n      and\n      dup3\n      add\n      dup1\n      0x40\n      mstore\n      pop\n      dup2\n      add\n      swap1\n      tag_87\n      swap2\n      swap1\n      tag_88\n      jump\t// in\n    tag_87:\n        /* \"contracts/blockmagic_hackaton/Dex_functionalities/Pair_v6_LP.sol\":6072:6114  (,price,,,) = priceFeed0.latestRoundData() */\n      swap1\n      swap2\n      swap3\n      swap4\n      pop\n      swap1\n      swap2\n      pop\n      swap1\n      pop\n      pop\n      dup1\n      swap2\n      pop\n      pop\n        /* \"contracts/blockmagic_hackaton/Dex_functionalities/Pair_v6_LP.sol\":6031:6201  if (inputToken == token0) {... */\n      jump(tag_89)\n    tag_84:\n        /* \"contracts/blockmagic_hackaton/Dex_functionalities/Pair_v6_LP.sol\":6161:6171  priceFeed1 */\n      0x06\n      0x00\n      swap1\n      sload\n      swap1\n      0x0100\n      exp\n      swap1\n      div\n      0xffffffffffffffffffffffffffffffffffffffff\n      and\n        /* \"contracts/blockmagic_hackaton/Dex_functionalities/Pair_v6_LP.sol\":6161:6187  priceFeed1.latestRoundData */\n      0xffffffffffffffffffffffffffffffffffffffff\n      and\n      0xfeaf968c\n        /* \"contracts/blockmagic_hackaton/Dex_functionalities/Pair_v6_LP.sol\":6161:6189  priceFeed1.latestRoundData() */\n      mload(0x40)\n      dup2\n      0xffffffff\n      and\n      0xe0\n      shl\n      dup2\n      mstore\n      0x04\n      add\n      0xa0\n      mload(0x40)\n      dup1\n      dup4\n      sub\n      dup2\n      dup7\n      gas\n      staticcall\n      iszero\n      dup1\n      iszero\n      tag_91\n      jumpi\n      returndatasize\n      0x00\n      dup1\n      returndatacopy\n      revert(0x00, returndatasize)\n    tag_91:\n      pop\n      pop\n      pop\n      pop\n      mload(0x40)\n      returndatasize\n      not(0x1f)\n      0x1f\n      dup3\n      add\n      and\n      dup3\n      add\n      dup1\n      0x40\n      mstore\n      pop\n      dup2\n      add\n      swap1\n      tag_92\n      swap2\n      swap1\n      tag_88\n      jump\t// in\n    tag_92:\n        /* \"contracts/blockmagic_hackaton/Dex_functionalities/Pair_v6_LP.sol\":6147:6189  (,price,,,) = priceFeed1.latestRoundData() */\n      swap1\n      swap2\n      swap3\n      swap4\n      pop\n      swap1\n      swap2\n      pop\n      swap1\n      pop\n      pop\n      dup1\n      swap2\n      pop\n      pop\n        /* \"contracts/blockmagic_hackaton/Dex_functionalities/Pair_v6_LP.sol\":6031:6201  if (inputToken == token0) {... */\n    tag_89:\n        /* \"contracts/blockmagic_hackaton/Dex_functionalities/Pair_v6_LP.sol\":6226:6232  10**10 */\n      0x02540be400\n        /* \"contracts/blockmagic_hackaton/Dex_functionalities/Pair_v6_LP.sol\":6218:6223  price */\n      dup2\n        /* \"contracts/blockmagic_hackaton/Dex_functionalities/Pair_v6_LP.sol\":6218:6232  price * 10**10 */\n      tag_93\n      swap2\n      swap1\n      tag_94\n      jump\t// in\n    tag_93:\n        /* \"contracts/blockmagic_hackaton/Dex_functionalities/Pair_v6_LP.sol\":6211:6232  return price * 10**10 */\n      swap2\n      pop\n      pop\n        /* \"contracts/blockmagic_hackaton/Dex_functionalities/Pair_v6_LP.sol\":5847:6294  function getPrice(address inputToken) public view returns (int) {... */\n      swap2\n      swap1\n      pop\n      jump\t// out\n        /* \"contracts/blockmagic_hackaton/Dex_functionalities/Pair_v6_LP.sol\":470:493  uint256 public reserve0 */\n    tag_36:\n      sload(0x03)\n      dup2\n      jump\t// out\n        /* \"contracts/blockmagic_hackaton/Dex_functionalities/Pair_v6_LP.sol\":4621:5335  function removeLiquidityInUSD(uint256 usdAmount) external {... */\n    tag_42:\n        /* \"contracts/blockmagic_hackaton/Dex_functionalities/Pair_v6_LP.sol\":4755:4769  uint256 price0 */\n      0x00\n        /* \"contracts/blockmagic_hackaton/Dex_functionalities/Pair_v6_LP.sol\":4780:4796  getPrice(token0) */\n      tag_96\n        /* \"contracts/blockmagic_hackaton/Dex_functionalities/Pair_v6_LP.sol\":4789:4795  token0 */\n      0x00\n      dup1\n      sload\n      swap1\n      0x0100\n      exp\n      swap1\n      div\n      0xffffffffffffffffffffffffffffffffffffffff\n      and\n        /* \"contracts/blockmagic_hackaton/Dex_functionalities/Pair_v6_LP.sol\":4780:4788  getPrice */\n      tag_32\n        /* \"contracts/blockmagic_hackaton/Dex_functionalities/Pair_v6_LP.sol\":4780:4796  getPrice(token0) */\n      jump\t// in\n    tag_96:\n        /* \"contracts/blockmagic_hackaton/Dex_functionalities/Pair_v6_LP.sol\":4755:4797  uint256 price0 = uint256(getPrice(token0)) */\n      swap1\n      pop\n        /* \"contracts/blockmagic_hackaton/Dex_functionalities/Pair_v6_LP.sol\":4808:4822  uint256 price1 */\n      0x00\n        /* \"contracts/blockmagic_hackaton/Dex_functionalities/Pair_v6_LP.sol\":4833:4849  getPrice(token1) */\n      tag_97\n        /* \"contracts/blockmagic_hackaton/Dex_functionalities/Pair_v6_LP.sol\":4842:4848  token1 */\n      0x01\n      0x00\n      swap1\n      sload\n      swap1\n      0x0100\n      exp\n      swap1\n      div\n      0xffffffffffffffffffffffffffffffffffffffff\n      and\n        /* \"contracts/blockmagic_hackaton/Dex_functionalities/Pair_v6_LP.sol\":4833:4841  getPrice */\n      tag_32\n        /* \"contracts/blockmagic_hackaton/Dex_functionalities/Pair_v6_LP.sol\":4833:4849  getPrice(token1) */\n      jump\t// in\n    tag_97:\n        /* \"contracts/blockmagic_hackaton/Dex_functionalities/Pair_v6_LP.sol\":4808:4850  uint256 price1 = uint256(getPrice(token1)) */\n      swap1\n      pop\n        /* \"contracts/blockmagic_hackaton/Dex_functionalities/Pair_v6_LP.sol\":4958:4973  uint256 amount0 */\n      0x00\n        /* \"contracts/blockmagic_hackaton/Dex_functionalities/Pair_v6_LP.sol\":5004:5010  price0 */\n      dup3\n        /* \"contracts/blockmagic_hackaton/Dex_functionalities/Pair_v6_LP.sol\":5000:5001  2 */\n      0x02\n        /* \"contracts/blockmagic_hackaton/Dex_functionalities/Pair_v6_LP.sol\":5000:5010  2 * price0 */\n      tag_98\n      swap2\n      swap1\n      tag_99\n      jump\t// in\n    tag_98:\n        /* \"contracts/blockmagic_hackaton/Dex_functionalities/Pair_v6_LP.sol\":4989:4995  10**18 */\n      0x0de0b6b3a7640000\n        /* \"contracts/blockmagic_hackaton/Dex_functionalities/Pair_v6_LP.sol\":4977:4986  usdAmount */\n      dup6\n        /* \"contracts/blockmagic_hackaton/Dex_functionalities/Pair_v6_LP.sol\":4977:4995  usdAmount * 10**18 */\n      tag_100\n      swap2\n      swap1\n      tag_99\n      jump\t// in\n    tag_100:\n        /* \"contracts/blockmagic_hackaton/Dex_functionalities/Pair_v6_LP.sol\":4976:5011  (usdAmount * 10**18) / (2 * price0) */\n      tag_101\n      swap2\n      swap1\n      tag_102\n      jump\t// in\n    tag_101:\n        /* \"contracts/blockmagic_hackaton/Dex_functionalities/Pair_v6_LP.sol\":4958:5011  uint256 amount0 = (usdAmount * 10**18) / (2 * price0) */\n      swap1\n      pop\n        /* \"contracts/blockmagic_hackaton/Dex_functionalities/Pair_v6_LP.sol\":5022:5037  uint256 amount1 */\n      0x00\n        /* \"contracts/blockmagic_hackaton/Dex_functionalities/Pair_v6_LP.sol\":5068:5074  price1 */\n      dup3\n        /* \"contracts/blockmagic_hackaton/Dex_functionalities/Pair_v6_LP.sol\":5064:5065  2 */\n      0x02\n        /* \"contracts/blockmagic_hackaton/Dex_functionalities/Pair_v6_LP.sol\":5064:5074  2 * price1 */\n      tag_103\n      swap2\n      swap1\n      tag_99\n      jump\t// in\n    tag_103:\n        /* \"contracts/blockmagic_hackaton/Dex_functionalities/Pair_v6_LP.sol\":5053:5059  10**18 */\n      0x0de0b6b3a7640000\n        /* \"contracts/blockmagic_hackaton/Dex_functionalities/Pair_v6_LP.sol\":5041:5050  usdAmount */\n      dup7\n        /* \"contracts/blockmagic_hackaton/Dex_functionalities/Pair_v6_LP.sol\":5041:5059  usdAmount * 10**18 */\n      tag_104\n      swap2\n      swap1\n      tag_99\n      jump\t// in\n    tag_104:\n        /* \"contracts/blockmagic_hackaton/Dex_functionalities/Pair_v6_LP.sol\":5040:5075  (usdAmount * 10**18) / (2 * price1) */\n      tag_105\n      swap2\n      swap1\n      tag_102\n      jump\t// in\n    tag_105:\n        /* \"contracts/blockmagic_hackaton/Dex_functionalities/Pair_v6_LP.sol\":5022:5075  uint256 amount1 = (usdAmount * 10**18) / (2 * price1) */\n      swap1\n      pop\n        /* \"contracts/blockmagic_hackaton/Dex_functionalities/Pair_v6_LP.sol\":5134:5151  uint256 liquidity */\n      0x00\n        /* \"contracts/blockmagic_hackaton/Dex_functionalities/Pair_v6_LP.sol\":5154:5245  min(amount0 * lpToken.totalSupply() / reserve0, amount1 * lpToken.totalSupply() / reserve1) */\n      tag_106\n        /* \"contracts/blockmagic_hackaton/Dex_functionalities/Pair_v6_LP.sol\":5192:5200  reserve0 */\n      sload(0x03)\n        /* \"contracts/blockmagic_hackaton/Dex_functionalities/Pair_v6_LP.sol\":5168:5175  lpToken */\n      0x02\n      0x00\n      swap1\n      sload\n      swap1\n      0x0100\n      exp\n      swap1\n      div\n      0xffffffffffffffffffffffffffffffffffffffff\n      and\n        /* \"contracts/blockmagic_hackaton/Dex_functionalities/Pair_v6_LP.sol\":5168:5187  lpToken.totalSupply */\n      0xffffffffffffffffffffffffffffffffffffffff\n      and\n      0x18160ddd\n        /* \"contracts/blockmagic_hackaton/Dex_functionalities/Pair_v6_LP.sol\":5168:5189  lpToken.totalSupply() */\n      mload(0x40)\n      dup2\n      0xffffffff\n      and\n      0xe0\n      shl\n      dup2\n      mstore\n      0x04\n      add\n      0x20\n      mload(0x40)\n      dup1\n      dup4\n      sub\n      dup2\n      dup7\n      gas\n      staticcall\n      iszero\n      dup1\n      iszero\n      tag_108\n      jumpi\n      returndatasize\n      0x00\n      dup1\n      returndatacopy\n      revert(0x00, returndatasize)\n    tag_108:\n      pop\n      pop\n      pop\n      pop\n      mload(0x40)\n      returndatasize\n      not(0x1f)\n      0x1f\n      dup3\n      add\n      and\n      dup3\n      add\n      dup1\n      0x40\n      mstore\n      pop\n      dup2\n      add\n      swap1\n      tag_109\n      swap2\n      swap1\n      tag_110\n      jump\t// in\n    tag_109:\n        /* \"contracts/blockmagic_hackaton/Dex_functionalities/Pair_v6_LP.sol\":5158:5165  amount0 */\n      dup6\n        /* \"contracts/blockmagic_hackaton/Dex_functionalities/Pair_v6_LP.sol\":5158:5189  amount0 * lpToken.totalSupply() */\n      tag_111\n      swap2\n      swap1\n      tag_99\n      jump\t// in\n    tag_111:\n        /* \"contracts/blockmagic_hackaton/Dex_functionalities/Pair_v6_LP.sol\":5158:5200  amount0 * lpToken.totalSupply() / reserve0 */\n      tag_112\n      swap2\n      swap1\n      tag_102\n      jump\t// in\n    tag_112:\n        /* \"contracts/blockmagic_hackaton/Dex_functionalities/Pair_v6_LP.sol\":5236:5244  reserve1 */\n      sload(0x04)\n        /* \"contracts/blockmagic_hackaton/Dex_functionalities/Pair_v6_LP.sol\":5212:5219  lpToken */\n      0x02\n      0x00\n      swap1\n      sload\n      swap1\n      0x0100\n      exp\n      swap1\n      div\n      0xffffffffffffffffffffffffffffffffffffffff\n      and\n        /* \"contracts/blockmagic_hackaton/Dex_functionalities/Pair_v6_LP.sol\":5212:5231  lpToken.totalSupply */\n      0xffffffffffffffffffffffffffffffffffffffff\n      and\n      0x18160ddd\n        /* \"contracts/blockmagic_hackaton/Dex_functionalities/Pair_v6_LP.sol\":5212:5233  lpToken.totalSupply() */\n      mload(0x40)\n      dup2\n      0xffffffff\n      and\n      0xe0\n      shl\n      dup2\n      mstore\n      0x04\n      add\n      0x20\n      mload(0x40)\n      dup1\n      dup4\n      sub\n      dup2\n      dup7\n      gas\n      staticcall\n      iszero\n      dup1\n      iszero\n      tag_114\n      jumpi\n      returndatasize\n      0x00\n      dup1\n      returndatacopy\n      revert(0x00, returndatasize)\n    tag_114:\n      pop\n      pop\n      pop\n      pop\n      mload(0x40)\n      returndatasize\n      not(0x1f)\n      0x1f\n      dup3\n      add\n      and\n      dup3\n      add\n      dup1\n      0x40\n      mstore\n      pop\n      dup2\n      add\n      swap1\n      tag_115\n      swap2\n      swap1\n      tag_110\n      jump\t// in\n    tag_115:\n        /* \"contracts/blockmagic_hackaton/Dex_functionalities/Pair_v6_LP.sol\":5202:5209  amount1 */\n      dup6\n        /* \"contracts/blockmagic_hackaton/Dex_functionalities/Pair_v6_LP.sol\":5202:5233  amount1 * lpToken.totalSupply() */\n      tag_116\n      swap2\n      swap1\n      tag_99\n      jump\t// in\n    tag_116:\n        /* \"contracts/blockmagic_hackaton/Dex_functionalities/Pair_v6_LP.sol\":5202:5244  amount1 * lpToken.totalSupply() / reserve1 */\n      tag_117\n      swap2\n      swap1\n      tag_102\n      jump\t// in\n    tag_117:\n        /* \"contracts/blockmagic_hackaton/Dex_functionalities/Pair_v6_LP.sol\":5154:5157  min */\n      tag_118\n        /* \"contracts/blockmagic_hackaton/Dex_functionalities/Pair_v6_LP.sol\":5154:5245  min(amount0 * lpToken.totalSupply() / reserve0, amount1 * lpToken.totalSupply() / reserve1) */\n      jump\t// in\n    tag_106:\n        /* \"contracts/blockmagic_hackaton/Dex_functionalities/Pair_v6_LP.sol\":5134:5245  uint256 liquidity = min(amount0 * lpToken.totalSupply() / reserve0, amount1 * lpToken.totalSupply() / reserve1) */\n      swap1\n      pop\n        /* \"contracts/blockmagic_hackaton/Dex_functionalities/Pair_v6_LP.sol\":5301:5327  removeLiquidity(liquidity) */\n      tag_119\n        /* \"contracts/blockmagic_hackaton/Dex_functionalities/Pair_v6_LP.sol\":5317:5326  liquidity */\n      dup2\n        /* \"contracts/blockmagic_hackaton/Dex_functionalities/Pair_v6_LP.sol\":5301:5316  removeLiquidity */\n      tag_120\n        /* \"contracts/blockmagic_hackaton/Dex_functionalities/Pair_v6_LP.sol\":5301:5327  removeLiquidity(liquidity) */\n      jump\t// in\n    tag_119:\n        /* \"contracts/blockmagic_hackaton/Dex_functionalities/Pair_v6_LP.sol\":4679:5335  {... */\n      pop\n      pop\n      pop\n      pop\n      pop\n        /* \"contracts/blockmagic_hackaton/Dex_functionalities/Pair_v6_LP.sol\":4621:5335  function removeLiquidityInUSD(uint256 usdAmount) external {... */\n      pop\n      jump\t// out\n        /* \"contracts/blockmagic_hackaton/Dex_functionalities/Pair_v6_LP.sol\":6450:6747  function getPriceRatio() public view returns (int) {... */\n    tag_44:\n        /* \"contracts/blockmagic_hackaton/Dex_functionalities/Pair_v6_LP.sol\":6496:6499  int */\n      0x00\n        /* \"contracts/blockmagic_hackaton/Dex_functionalities/Pair_v6_LP.sol\":6514:6524  int price0 */\n      dup1\n        /* \"contracts/blockmagic_hackaton/Dex_functionalities/Pair_v6_LP.sol\":6531:6541  priceFeed0 */\n      0x05\n      0x00\n      swap1\n      sload\n      swap1\n      0x0100\n      exp\n      swap1\n      div\n      0xffffffffffffffffffffffffffffffffffffffff\n      and\n        /* \"contracts/blockmagic_hackaton/Dex_functionalities/Pair_v6_LP.sol\":6531:6557  priceFeed0.latestRoundData */\n      0xffffffffffffffffffffffffffffffffffffffff\n      and\n      0xfeaf968c\n        /* \"contracts/blockmagic_hackaton/Dex_functionalities/Pair_v6_LP.sol\":6531:6559  priceFeed0.latestRoundData() */\n      mload(0x40)\n      dup2\n      0xffffffff\n      and\n      0xe0\n      shl\n      dup2\n      mstore\n      0x04\n      add\n      0xa0\n      mload(0x40)\n      dup1\n      dup4\n      sub\n      dup2\n      dup7\n      gas\n      staticcall\n      iszero\n      dup1\n      iszero\n      tag_123\n      jumpi\n      returndatasize\n      0x00\n      dup1\n      returndatacopy\n      revert(0x00, returndatasize)\n    tag_123:\n      pop\n      pop\n      pop\n      pop\n      mload(0x40)\n      returndatasize\n      not(0x1f)\n      0x1f\n      dup3\n      add\n      and\n      dup3\n      add\n      dup1\n      0x40\n      mstore\n      pop\n      dup2\n      add\n      swap1\n      tag_124\n      swap2\n      swap1\n      tag_88\n      jump\t// in\n    tag_124:\n        /* \"contracts/blockmagic_hackaton/Dex_functionalities/Pair_v6_LP.sol\":6512:6559  (,int price0,,,) = priceFeed0.latestRoundData() */\n      pop\n      pop\n      pop\n      swap2\n      pop\n      pop\n        /* \"contracts/blockmagic_hackaton/Dex_functionalities/Pair_v6_LP.sol\":6572:6582  int price1 */\n      0x00\n        /* \"contracts/blockmagic_hackaton/Dex_functionalities/Pair_v6_LP.sol\":6589:6599  priceFeed1 */\n      0x06\n      0x00\n      swap1\n      sload\n      swap1\n      0x0100\n      exp\n      swap1\n      div\n      0xffffffffffffffffffffffffffffffffffffffff\n      and\n        /* \"contracts/blockmagic_hackaton/Dex_functionalities/Pair_v6_LP.sol\":6589:6615  priceFeed1.latestRoundData */\n      0xffffffffffffffffffffffffffffffffffffffff\n      and\n      0xfeaf968c\n        /* \"contracts/blockmagic_hackaton/Dex_functionalities/Pair_v6_LP.sol\":6589:6617  priceFeed1.latestRoundData() */\n      mload(0x40)\n      dup2\n      0xffffffff\n      and\n      0xe0\n      shl\n      dup2\n      mstore\n      0x04\n      add\n      0xa0\n      mload(0x40)\n      dup1\n      dup4\n      sub\n      dup2\n      dup7\n      gas\n      staticcall\n      iszero\n      dup1\n      iszero\n      tag_126\n      jumpi\n      returndatasize\n      0x00\n      dup1\n      returndatacopy\n      revert(0x00, returndatasize)\n    tag_126:\n      pop\n      pop\n      pop\n      pop\n      mload(0x40)\n      returndatasize\n      not(0x1f)\n      0x1f\n      dup3\n      add\n      and\n      dup3\n      add\n      dup1\n      0x40\n      mstore\n      pop\n      dup2\n      add\n      swap1\n      tag_127\n      swap2\n      swap1\n      tag_88\n      jump\t// in\n    tag_127:\n        /* \"contracts/blockmagic_hackaton/Dex_functionalities/Pair_v6_LP.sol\":6570:6617  (,int price1,,,) = priceFeed1.latestRoundData() */\n      pop\n      pop\n      pop\n      swap2\n      pop\n      pop\n        /* \"contracts/blockmagic_hackaton/Dex_functionalities/Pair_v6_LP.sol\":6677:6683  10**10 */\n      0x02540be400\n        /* \"contracts/blockmagic_hackaton/Dex_functionalities/Pair_v6_LP.sol\":6668:6674  price1 */\n      dup2\n        /* \"contracts/blockmagic_hackaton/Dex_functionalities/Pair_v6_LP.sol\":6668:6683  price1 * 10**10 */\n      tag_128\n      swap2\n      swap1\n      tag_94\n      jump\t// in\n    tag_128:\n        /* \"contracts/blockmagic_hackaton/Dex_functionalities/Pair_v6_LP.sol\":6656:6663  10 ** 8 */\n      0x05f5e100\n        /* \"contracts/blockmagic_hackaton/Dex_functionalities/Pair_v6_LP.sol\":6645:6651  10**10 */\n      0x02540be400\n        /* \"contracts/blockmagic_hackaton/Dex_functionalities/Pair_v6_LP.sol\":6636:6642  price0 */\n      dup5\n        /* \"contracts/blockmagic_hackaton/Dex_functionalities/Pair_v6_LP.sol\":6636:6651  price0 * 10**10 */\n      tag_129\n      swap2\n      swap1\n      tag_94\n      jump\t// in\n    tag_129:\n        /* \"contracts/blockmagic_hackaton/Dex_functionalities/Pair_v6_LP.sol\":6635:6664  (price0 * 10**10) * (10 ** 8) */\n      tag_130\n      swap2\n      swap1\n      tag_94\n      jump\t// in\n    tag_130:\n        /* \"contracts/blockmagic_hackaton/Dex_functionalities/Pair_v6_LP.sol\":6635:6684  (price0 * 10**10) * (10 ** 8) / (price1 * 10**10) */\n      tag_131\n      swap2\n      swap1\n      tag_132\n      jump\t// in\n    tag_131:\n        /* \"contracts/blockmagic_hackaton/Dex_functionalities/Pair_v6_LP.sol\":6628:6684  return (price0 * 10**10) * (10 ** 8) / (price1 * 10**10) */\n      swap3\n      pop\n      pop\n      pop\n        /* \"contracts/blockmagic_hackaton/Dex_functionalities/Pair_v6_LP.sol\":6450:6747  function getPriceRatio() public view returns (int) {... */\n      swap1\n      jump\t// out\n        /* \"contracts/blockmagic_hackaton/Dex_functionalities/Pair_v6_LP.sol\":500:523  uint256 public reserve1 */\n    tag_47:\n      sload(0x04)\n      dup2\n      jump\t// out\n        /* \"contracts/blockmagic_hackaton/Dex_functionalities/Pair_v6_LP.sol\":366:388  LPToken public lpToken */\n    tag_50:\n      0x02\n      0x00\n      swap1\n      sload\n      swap1\n      0x0100\n      exp\n      swap1\n      div\n      0xffffffffffffffffffffffffffffffffffffffff\n      and\n      dup2\n      jump\t// out\n        /* \"contracts/blockmagic_hackaton/Dex_functionalities/Pair_v6_LP.sol\":3051:3625  function addLiquidityInUSD(uint256 usdAmount) external {... */\n    tag_55:\n        /* \"contracts/blockmagic_hackaton/Dex_functionalities/Pair_v6_LP.sol\":3182:3196  uint256 price0 */\n      0x00\n        /* \"contracts/blockmagic_hackaton/Dex_functionalities/Pair_v6_LP.sol\":3207:3223  getPrice(token0) */\n      tag_134\n        /* \"contracts/blockmagic_hackaton/Dex_functionalities/Pair_v6_LP.sol\":3216:3222  token0 */\n      0x00\n      dup1\n      sload\n      swap1\n      0x0100\n      exp\n      swap1\n      div\n      0xffffffffffffffffffffffffffffffffffffffff\n      and\n        /* \"contracts/blockmagic_hackaton/Dex_functionalities/Pair_v6_LP.sol\":3207:3215  getPrice */\n      tag_32\n        /* \"contracts/blockmagic_hackaton/Dex_functionalities/Pair_v6_LP.sol\":3207:3223  getPrice(token0) */\n      jump\t// in\n    tag_134:\n        /* \"contracts/blockmagic_hackaton/Dex_functionalities/Pair_v6_LP.sol\":3182:3224  uint256 price0 = uint256(getPrice(token0)) */\n      swap1\n      pop\n        /* \"contracts/blockmagic_hackaton/Dex_functionalities/Pair_v6_LP.sol\":3235:3249  uint256 price1 */\n      0x00\n        /* \"contracts/blockmagic_hackaton/Dex_functionalities/Pair_v6_LP.sol\":3260:3276  getPrice(token1) */\n      tag_135\n        /* \"contracts/blockmagic_hackaton/Dex_functionalities/Pair_v6_LP.sol\":3269:3275  token1 */\n      0x01\n      0x00\n      swap1\n      sload\n      swap1\n      0x0100\n      exp\n      swap1\n      div\n      0xffffffffffffffffffffffffffffffffffffffff\n      and\n        /* \"contracts/blockmagic_hackaton/Dex_functionalities/Pair_v6_LP.sol\":3260:3268  getPrice */\n      tag_32\n        /* \"contracts/blockmagic_hackaton/Dex_functionalities/Pair_v6_LP.sol\":3260:3276  getPrice(token1) */\n      jump\t// in\n    tag_135:\n        /* \"contracts/blockmagic_hackaton/Dex_functionalities/Pair_v6_LP.sol\":3235:3277  uint256 price1 = uint256(getPrice(token1)) */\n      swap1\n      pop\n        /* \"contracts/blockmagic_hackaton/Dex_functionalities/Pair_v6_LP.sol\":3385:3400  uint256 amount0 */\n      0x00\n        /* \"contracts/blockmagic_hackaton/Dex_functionalities/Pair_v6_LP.sol\":3431:3437  price0 */\n      dup3\n        /* \"contracts/blockmagic_hackaton/Dex_functionalities/Pair_v6_LP.sol\":3427:3428  2 */\n      0x02\n        /* \"contracts/blockmagic_hackaton/Dex_functionalities/Pair_v6_LP.sol\":3427:3437  2 * price0 */\n      tag_136\n      swap2\n      swap1\n      tag_99\n      jump\t// in\n    tag_136:\n        /* \"contracts/blockmagic_hackaton/Dex_functionalities/Pair_v6_LP.sol\":3416:3422  10**18 */\n      0x0de0b6b3a7640000\n        /* \"contracts/blockmagic_hackaton/Dex_functionalities/Pair_v6_LP.sol\":3404:3413  usdAmount */\n      dup6\n        /* \"contracts/blockmagic_hackaton/Dex_functionalities/Pair_v6_LP.sol\":3404:3422  usdAmount * 10**18 */\n      tag_137\n      swap2\n      swap1\n      tag_99\n      jump\t// in\n    tag_137:\n        /* \"contracts/blockmagic_hackaton/Dex_functionalities/Pair_v6_LP.sol\":3403:3438  (usdAmount * 10**18) / (2 * price0) */\n      tag_138\n      swap2\n      swap1\n      tag_102\n      jump\t// in\n    tag_138:\n        /* \"contracts/blockmagic_hackaton/Dex_functionalities/Pair_v6_LP.sol\":3385:3438  uint256 amount0 = (usdAmount * 10**18) / (2 * price0) */\n      swap1\n      pop\n        /* \"contracts/blockmagic_hackaton/Dex_functionalities/Pair_v6_LP.sol\":3449:3464  uint256 amount1 */\n      0x00\n        /* \"contracts/blockmagic_hackaton/Dex_functionalities/Pair_v6_LP.sol\":3495:3501  price1 */\n      dup3\n        /* \"contracts/blockmagic_hackaton/Dex_functionalities/Pair_v6_LP.sol\":3491:3492  2 */\n      0x02\n        /* \"contracts/blockmagic_hackaton/Dex_functionalities/Pair_v6_LP.sol\":3491:3501  2 * price1 */\n      tag_139\n      swap2\n      swap1\n      tag_99\n      jump\t// in\n    tag_139:\n        /* \"contracts/blockmagic_hackaton/Dex_functionalities/Pair_v6_LP.sol\":3480:3486  10**18 */\n      0x0de0b6b3a7640000\n        /* \"contracts/blockmagic_hackaton/Dex_functionalities/Pair_v6_LP.sol\":3468:3477  usdAmount */\n      dup7\n        /* \"contracts/blockmagic_hackaton/Dex_functionalities/Pair_v6_LP.sol\":3468:3486  usdAmount * 10**18 */\n      tag_140\n      swap2\n      swap1\n      tag_99\n      jump\t// in\n    tag_140:\n        /* \"contracts/blockmagic_hackaton/Dex_functionalities/Pair_v6_LP.sol\":3467:3502  (usdAmount * 10**18) / (2 * price1) */\n      tag_141\n      swap2\n      swap1\n      tag_102\n      jump\t// in\n    tag_141:\n        /* \"contracts/blockmagic_hackaton/Dex_functionalities/Pair_v6_LP.sol\":3449:3502  uint256 amount1 = (usdAmount * 10**18) / (2 * price1) */\n      swap1\n      pop\n        /* \"contracts/blockmagic_hackaton/Dex_functionalities/Pair_v6_LP.sol\":3587:3617  addLiquidity(amount0, amount1) */\n      tag_142\n        /* \"contracts/blockmagic_hackaton/Dex_functionalities/Pair_v6_LP.sol\":3600:3607  amount0 */\n      dup3\n        /* \"contracts/blockmagic_hackaton/Dex_functionalities/Pair_v6_LP.sol\":3609:3616  amount1 */\n      dup3\n        /* \"contracts/blockmagic_hackaton/Dex_functionalities/Pair_v6_LP.sol\":3587:3599  addLiquidity */\n      tag_143\n        /* \"contracts/blockmagic_hackaton/Dex_functionalities/Pair_v6_LP.sol\":3587:3617  addLiquidity(amount0, amount1) */\n      jump\t// in\n    tag_142:\n        /* \"contracts/blockmagic_hackaton/Dex_functionalities/Pair_v6_LP.sol\":3106:3625  {... */\n      pop\n      pop\n      pop\n      pop\n        /* \"contracts/blockmagic_hackaton/Dex_functionalities/Pair_v6_LP.sol\":3051:3625  function addLiquidityInUSD(uint256 usdAmount) external {... */\n      pop\n      jump\t// out\n        /* \"contracts/blockmagic_hackaton/Dex_functionalities/Pair_v6_LP.sol\":9298:9530  function getDAIperLinkOurDEXPrice() public view returns (uint256) {... */\n    tag_57:\n        /* \"contracts/blockmagic_hackaton/Dex_functionalities/Pair_v6_LP.sol\":9355:9362  uint256 */\n      0x00\n        /* \"contracts/blockmagic_hackaton/Dex_functionalities/Pair_v6_LP.sol\":9394:9395  0 */\n      dup1\n        /* \"contracts/blockmagic_hackaton/Dex_functionalities/Pair_v6_LP.sol\":9383:9391  reserve0 */\n      sload(0x03)\n        /* \"contracts/blockmagic_hackaton/Dex_functionalities/Pair_v6_LP.sol\":9383:9395  reserve0 > 0 */\n      gt\n        /* \"contracts/blockmagic_hackaton/Dex_functionalities/Pair_v6_LP.sol\":9383:9411  reserve0 > 0 && reserve1 > 0 */\n      dup1\n      iszero\n      tag_145\n      jumpi\n      pop\n        /* \"contracts/blockmagic_hackaton/Dex_functionalities/Pair_v6_LP.sol\":9410:9411  0 */\n      0x00\n        /* \"contracts/blockmagic_hackaton/Dex_functionalities/Pair_v6_LP.sol\":9399:9407  reserve1 */\n      sload(0x04)\n        /* \"contracts/blockmagic_hackaton/Dex_functionalities/Pair_v6_LP.sol\":9399:9411  reserve1 > 0 */\n      gt\n        /* \"contracts/blockmagic_hackaton/Dex_functionalities/Pair_v6_LP.sol\":9383:9411  reserve0 > 0 && reserve1 > 0 */\n    tag_145:\n        /* \"contracts/blockmagic_hackaton/Dex_functionalities/Pair_v6_LP.sol\":9375:9436  require(reserve0 > 0 && reserve1 > 0, \"Reserves are not set\") */\n      tag_146\n      jumpi\n      mload(0x40)\n      0x08c379a000000000000000000000000000000000000000000000000000000000\n      dup2\n      mstore\n      0x04\n      add\n      tag_147\n      swap1\n      tag_148\n      jump\t// in\n    tag_147:\n      mload(0x40)\n      dup1\n      swap2\n      sub\n      swap1\n      revert\n    tag_146:\n        /* \"contracts/blockmagic_hackaton/Dex_functionalities/Pair_v6_LP.sol\":9476:9484  reserve0 */\n      sload(0x03)\n        /* \"contracts/blockmagic_hackaton/Dex_functionalities/Pair_v6_LP.sol\":9466:9472  10**18 */\n      0x0de0b6b3a7640000\n        /* \"contracts/blockmagic_hackaton/Dex_functionalities/Pair_v6_LP.sol\":9455:9463  reserve1 */\n      sload(0x04)\n        /* \"contracts/blockmagic_hackaton/Dex_functionalities/Pair_v6_LP.sol\":9455:9472  reserve1 * 10**18 */\n      tag_149\n      swap2\n      swap1\n      tag_99\n      jump\t// in\n    tag_149:\n        /* \"contracts/blockmagic_hackaton/Dex_functionalities/Pair_v6_LP.sol\":9454:9484  (reserve1 * 10**18) / reserve0 */\n      tag_150\n      swap2\n      swap1\n      tag_102\n      jump\t// in\n    tag_150:\n        /* \"contracts/blockmagic_hackaton/Dex_functionalities/Pair_v6_LP.sol\":9447:9484  return (reserve1 * 10**18) / reserve0 */\n      swap1\n      pop\n        /* \"contracts/blockmagic_hackaton/Dex_functionalities/Pair_v6_LP.sol\":9298:9530  function getDAIperLinkOurDEXPrice() public view returns (uint256) {... */\n      swap1\n      jump\t// out\n        /* \"contracts/blockmagic_hackaton/Dex_functionalities/Pair_v6_LP.sol\":9734:10031  function getDAIperLinkMarketPrice() public view returns (uint256) {... */\n    tag_60:\n        /* \"contracts/blockmagic_hackaton/Dex_functionalities/Pair_v6_LP.sol\":9791:9798  uint256 */\n      0x00\n        /* \"contracts/blockmagic_hackaton/Dex_functionalities/Pair_v6_LP.sol\":9813:9823  int price0 */\n      dup1\n        /* \"contracts/blockmagic_hackaton/Dex_functionalities/Pair_v6_LP.sol\":9830:9840  priceFeed0 */\n      0x05\n      0x00\n      swap1\n      sload\n      swap1\n      0x0100\n      exp\n      swap1\n      div\n      0xffffffffffffffffffffffffffffffffffffffff\n      and\n        /* \"contracts/blockmagic_hackaton/Dex_functionalities/Pair_v6_LP.sol\":9830:9856  priceFeed0.latestRoundData */\n      0xffffffffffffffffffffffffffffffffffffffff\n      and\n      0xfeaf968c\n        /* \"contracts/blockmagic_hackaton/Dex_functionalities/Pair_v6_LP.sol\":9830:9858  priceFeed0.latestRoundData() */\n      mload(0x40)\n      dup2\n      0xffffffff\n      and\n      0xe0\n      shl\n      dup2\n      mstore\n      0x04\n      add\n      0xa0\n      mload(0x40)\n      dup1\n      dup4\n      sub\n      dup2\n      dup7\n      gas\n      staticcall\n      iszero\n      dup1\n      iszero\n      tag_153\n      jumpi\n      returndatasize\n      0x00\n      dup1\n      returndatacopy\n      revert(0x00, returndatasize)\n    tag_153:\n      pop\n      pop\n      pop\n      pop\n      mload(0x40)\n      returndatasize\n      not(0x1f)\n      0x1f\n      dup3\n      add\n      and\n      dup3\n      add\n      dup1\n      0x40\n      mstore\n      pop\n      dup2\n      add\n      swap1\n      tag_154\n      swap2\n      swap1\n      tag_88\n      jump\t// in\n    tag_154:\n        /* \"contracts/blockmagic_hackaton/Dex_functionalities/Pair_v6_LP.sol\":9811:9858  (,int price0,,,) = priceFeed0.latestRoundData() */\n      pop\n      pop\n      pop\n      swap2\n      pop\n      pop\n        /* \"contracts/blockmagic_hackaton/Dex_functionalities/Pair_v6_LP.sol\":9871:9881  int price1 */\n      0x00\n        /* \"contracts/blockmagic_hackaton/Dex_functionalities/Pair_v6_LP.sol\":9888:9898  priceFeed1 */\n      0x06\n      0x00\n      swap1\n      sload\n      swap1\n      0x0100\n      exp\n      swap1\n      div\n      0xffffffffffffffffffffffffffffffffffffffff\n      and\n        /* \"contracts/blockmagic_hackaton/Dex_functionalities/Pair_v6_LP.sol\":9888:9914  priceFeed1.latestRoundData */\n      0xffffffffffffffffffffffffffffffffffffffff\n      and\n      0xfeaf968c\n        /* \"contracts/blockmagic_hackaton/Dex_functionalities/Pair_v6_LP.sol\":9888:9916  priceFeed1.latestRoundData() */\n      mload(0x40)\n      dup2\n      0xffffffff\n      and\n      0xe0\n      shl\n      dup2\n      mstore\n      0x04\n      add\n      0xa0\n      mload(0x40)\n      dup1\n      dup4\n      sub\n      dup2\n      dup7\n      gas\n      staticcall\n      iszero\n      dup1\n      iszero\n      tag_156\n      jumpi\n      returndatasize\n      0x00\n      dup1\n      returndatacopy\n      revert(0x00, returndatasize)\n    tag_156:\n      pop\n      pop\n      pop\n      pop\n      mload(0x40)\n      returndatasize\n      not(0x1f)\n      0x1f\n      dup3\n      add\n      and\n      dup3\n      add\n      dup1\n      0x40\n      mstore\n      pop\n      dup2\n      add\n      swap1\n      tag_157\n      swap2\n      swap1\n      tag_88\n      jump\t// in\n    tag_157:\n        /* \"contracts/blockmagic_hackaton/Dex_functionalities/Pair_v6_LP.sol\":9869:9916  (,int price1,,,) = priceFeed1.latestRoundData() */\n      pop\n      pop\n      pop\n      swap2\n      pop\n      pop\n        /* \"contracts/blockmagic_hackaton/Dex_functionalities/Pair_v6_LP.sol\":9971:9977  price1 */\n      dup1\n        /* \"contracts/blockmagic_hackaton/Dex_functionalities/Pair_v6_LP.sol\":9953:9959  10**18 */\n      0x0de0b6b3a7640000\n        /* \"contracts/blockmagic_hackaton/Dex_functionalities/Pair_v6_LP.sol\":9943:9949  price0 */\n      dup4\n        /* \"contracts/blockmagic_hackaton/Dex_functionalities/Pair_v6_LP.sol\":9935:9959  uint256(price0) * 10**18 */\n      tag_158\n      swap2\n      swap1\n      tag_99\n      jump\t// in\n    tag_158:\n        /* \"contracts/blockmagic_hackaton/Dex_functionalities/Pair_v6_LP.sol\":9934:9978  (uint256(price0) * 10**18) / uint256(price1) */\n      tag_159\n      swap2\n      swap1\n      tag_102\n      jump\t// in\n    tag_159:\n        /* \"contracts/blockmagic_hackaton/Dex_functionalities/Pair_v6_LP.sol\":9927:9978  return (uint256(price0) * 10**18) / uint256(price1) */\n      swap3\n      pop\n      pop\n      pop\n        /* \"contracts/blockmagic_hackaton/Dex_functionalities/Pair_v6_LP.sol\":9734:10031  function getDAIperLinkMarketPrice() public view returns (uint256) {... */\n      swap1\n      jump\t// out\n        /* \"contracts/blockmagic_hackaton/Dex_functionalities/Pair_v6_LP.sol\":11088:11273  function getLPTokenDetails(address user) public view returns (address, uint256) {... */\n    tag_64:\n        /* \"contracts/blockmagic_hackaton/Dex_functionalities/Pair_v6_LP.sol\":11150:11157  address */\n      0x00\n        /* \"contracts/blockmagic_hackaton/Dex_functionalities/Pair_v6_LP.sol\":11159:11166  uint256 */\n      dup1\n        /* \"contracts/blockmagic_hackaton/Dex_functionalities/Pair_v6_LP.sol\":11179:11194  uint256 balance */\n      0x00\n        /* \"contracts/blockmagic_hackaton/Dex_functionalities/Pair_v6_LP.sol\":11197:11204  lpToken */\n      0x02\n      0x00\n      swap1\n      sload\n      swap1\n      0x0100\n      exp\n      swap1\n      div\n      0xffffffffffffffffffffffffffffffffffffffff\n      and\n        /* \"contracts/blockmagic_hackaton/Dex_functionalities/Pair_v6_LP.sol\":11197:11214  lpToken.balanceOf */\n      0xffffffffffffffffffffffffffffffffffffffff\n      and\n      0x70a08231\n        /* \"contracts/blockmagic_hackaton/Dex_functionalities/Pair_v6_LP.sol\":11215:11219  user */\n      dup6\n        /* \"contracts/blockmagic_hackaton/Dex_functionalities/Pair_v6_LP.sol\":11197:11220  lpToken.balanceOf(user) */\n      mload(0x40)\n      dup3\n      0xffffffff\n      and\n      0xe0\n      shl\n      dup2\n      mstore\n      0x04\n      add\n      tag_161\n      swap2\n      swap1\n      tag_28\n      jump\t// in\n    tag_161:\n      0x20\n      mload(0x40)\n      dup1\n      dup4\n      sub\n      dup2\n      dup7\n      gas\n      staticcall\n      iszero\n      dup1\n      iszero\n      tag_163\n      jumpi\n      returndatasize\n      0x00\n      dup1\n      returndatacopy\n      revert(0x00, returndatasize)\n    tag_163:\n      pop\n      pop\n      pop\n      pop\n      mload(0x40)\n      returndatasize\n      not(0x1f)\n      0x1f\n      dup3\n      add\n      and\n      dup3\n      add\n      dup1\n      0x40\n      mstore\n      pop\n      dup2\n      add\n      swap1\n      tag_164\n      swap2\n      swap1\n      tag_110\n      jump\t// in\n    tag_164:\n        /* \"contracts/blockmagic_hackaton/Dex_functionalities/Pair_v6_LP.sol\":11179:11220  uint256 balance = lpToken.balanceOf(user) */\n      swap1\n      pop\n        /* \"contracts/blockmagic_hackaton/Dex_functionalities/Pair_v6_LP.sol\":11247:11254  lpToken */\n      0x02\n      0x00\n      swap1\n      sload\n      swap1\n      0x0100\n      exp\n      swap1\n      div\n      0xffffffffffffffffffffffffffffffffffffffff\n      and\n        /* \"contracts/blockmagic_hackaton/Dex_functionalities/Pair_v6_LP.sol\":11257:11264  balance */\n      dup2\n        /* \"contracts/blockmagic_hackaton/Dex_functionalities/Pair_v6_LP.sol\":11231:11265  return (address(lpToken), balance) */\n      swap3\n      pop\n      swap3\n      pop\n      pop\n        /* \"contracts/blockmagic_hackaton/Dex_functionalities/Pair_v6_LP.sol\":11088:11273  function getLPTokenDetails(address user) public view returns (address, uint256) {... */\n      swap2\n      pop\n      swap2\n      jump\t// out\n        /* \"contracts/blockmagic_hackaton/Dex_functionalities/Pair_v6_LP.sol\":7813:9116  function swapInUSD(uint256 usdAmount, address inputToken) external {... */\n    tag_70:\n        /* \"contracts/blockmagic_hackaton/Dex_functionalities/Pair_v6_LP.sol\":7913:7919  token0 */\n      0x00\n      dup1\n      sload\n      swap1\n      0x0100\n      exp\n      swap1\n      div\n      0xffffffffffffffffffffffffffffffffffffffff\n      and\n        /* \"contracts/blockmagic_hackaton/Dex_functionalities/Pair_v6_LP.sol\":7899:7919  inputToken == token0 */\n      0xffffffffffffffffffffffffffffffffffffffff\n      and\n        /* \"contracts/blockmagic_hackaton/Dex_functionalities/Pair_v6_LP.sol\":7899:7909  inputToken */\n      dup2\n        /* \"contracts/blockmagic_hackaton/Dex_functionalities/Pair_v6_LP.sol\":7899:7919  inputToken == token0 */\n      0xffffffffffffffffffffffffffffffffffffffff\n      and\n      eq\n        /* \"contracts/blockmagic_hackaton/Dex_functionalities/Pair_v6_LP.sol\":7899:7943  inputToken == token0 || inputToken == token1 */\n      dup1\n      tag_166\n      jumpi\n      pop\n        /* \"contracts/blockmagic_hackaton/Dex_functionalities/Pair_v6_LP.sol\":7937:7943  token1 */\n      0x01\n      0x00\n      swap1\n      sload\n      swap1\n      0x0100\n      exp\n      swap1\n      div\n      0xffffffffffffffffffffffffffffffffffffffff\n      and\n        /* \"contracts/blockmagic_hackaton/Dex_functionalities/Pair_v6_LP.sol\":7923:7943  inputToken == token1 */\n      0xffffffffffffffffffffffffffffffffffffffff\n      and\n        /* \"contracts/blockmagic_hackaton/Dex_functionalities/Pair_v6_LP.sol\":7923:7933  inputToken */\n      dup2\n        /* \"contracts/blockmagic_hackaton/Dex_functionalities/Pair_v6_LP.sol\":7923:7943  inputToken == token1 */\n      0xffffffffffffffffffffffffffffffffffffffff\n      and\n      eq\n        /* \"contracts/blockmagic_hackaton/Dex_functionalities/Pair_v6_LP.sol\":7899:7943  inputToken == token0 || inputToken == token1 */\n    tag_166:\n        /* \"contracts/blockmagic_hackaton/Dex_functionalities/Pair_v6_LP.sol\":7891:7967  require(inputToken == token0 || inputToken == token1, \"Invalid input token\") */\n      tag_167\n      jumpi\n      mload(0x40)\n      0x08c379a000000000000000000000000000000000000000000000000000000000\n      dup2\n      mstore\n      0x04\n      add\n      tag_168\n      swap1\n      tag_83\n      jump\t// in\n    tag_168:\n      mload(0x40)\n      dup1\n      swap2\n      sub\n      swap1\n      revert\n    tag_167:\n        /* \"contracts/blockmagic_hackaton/Dex_functionalities/Pair_v6_LP.sol\":8045:8059  uint256 price0 */\n      0x00\n        /* \"contracts/blockmagic_hackaton/Dex_functionalities/Pair_v6_LP.sol\":8070:8086  getPrice(token0) */\n      tag_169\n        /* \"contracts/blockmagic_hackaton/Dex_functionalities/Pair_v6_LP.sol\":8079:8085  token0 */\n      0x00\n      dup1\n      sload\n      swap1\n      0x0100\n      exp\n      swap1\n      div\n      0xffffffffffffffffffffffffffffffffffffffff\n      and\n        /* \"contracts/blockmagic_hackaton/Dex_functionalities/Pair_v6_LP.sol\":8070:8078  getPrice */\n      tag_32\n        /* \"contracts/blockmagic_hackaton/Dex_functionalities/Pair_v6_LP.sol\":8070:8086  getPrice(token0) */\n      jump\t// in\n    tag_169:\n        /* \"contracts/blockmagic_hackaton/Dex_functionalities/Pair_v6_LP.sol\":8045:8087  uint256 price0 = uint256(getPrice(token0)) */\n      swap1\n      pop\n        /* \"contracts/blockmagic_hackaton/Dex_functionalities/Pair_v6_LP.sol\":8098:8112  uint256 price1 */\n      0x00\n        /* \"contracts/blockmagic_hackaton/Dex_functionalities/Pair_v6_LP.sol\":8123:8139  getPrice(token1) */\n      tag_170\n        /* \"contracts/blockmagic_hackaton/Dex_functionalities/Pair_v6_LP.sol\":8132:8138  token1 */\n      0x01\n      0x00\n      swap1\n      sload\n      swap1\n      0x0100\n      exp\n      swap1\n      div\n      0xffffffffffffffffffffffffffffffffffffffff\n      and\n        /* \"contracts/blockmagic_hackaton/Dex_functionalities/Pair_v6_LP.sol\":8123:8131  getPrice */\n      tag_32\n        /* \"contracts/blockmagic_hackaton/Dex_functionalities/Pair_v6_LP.sol\":8123:8139  getPrice(token1) */\n      jump\t// in\n    tag_170:\n        /* \"contracts/blockmagic_hackaton/Dex_functionalities/Pair_v6_LP.sol\":8098:8140  uint256 price1 = uint256(getPrice(token1)) */\n      swap1\n      pop\n        /* \"contracts/blockmagic_hackaton/Dex_functionalities/Pair_v6_LP.sol\":8153:8171  bool isInputToken0 */\n      0x00\n        /* \"contracts/blockmagic_hackaton/Dex_functionalities/Pair_v6_LP.sol\":8189:8195  token0 */\n      dup1\n      0x00\n      swap1\n      sload\n      swap1\n      0x0100\n      exp\n      swap1\n      div\n      0xffffffffffffffffffffffffffffffffffffffff\n      and\n        /* \"contracts/blockmagic_hackaton/Dex_functionalities/Pair_v6_LP.sol\":8175:8195  inputToken == token0 */\n      0xffffffffffffffffffffffffffffffffffffffff\n      and\n        /* \"contracts/blockmagic_hackaton/Dex_functionalities/Pair_v6_LP.sol\":8175:8185  inputToken */\n      dup5\n        /* \"contracts/blockmagic_hackaton/Dex_functionalities/Pair_v6_LP.sol\":8175:8195  inputToken == token0 */\n      0xffffffffffffffffffffffffffffffffffffffff\n      and\n      eq\n        /* \"contracts/blockmagic_hackaton/Dex_functionalities/Pair_v6_LP.sol\":8153:8196  bool isInputToken0 = (inputToken == token0) */\n      swap1\n      pop\n        /* \"contracts/blockmagic_hackaton/Dex_functionalities/Pair_v6_LP.sol\":8207:8226  address outputToken */\n      0x00\n        /* \"contracts/blockmagic_hackaton/Dex_functionalities/Pair_v6_LP.sol\":8229:8242  isInputToken0 */\n      dup2\n        /* \"contracts/blockmagic_hackaton/Dex_functionalities/Pair_v6_LP.sol\":8229:8260  isInputToken0 ? token1 : token0 */\n      tag_171\n      jumpi\n        /* \"contracts/blockmagic_hackaton/Dex_functionalities/Pair_v6_LP.sol\":8254:8260  token0 */\n      0x00\n      dup1\n      sload\n      swap1\n      0x0100\n      exp\n      swap1\n      div\n      0xffffffffffffffffffffffffffffffffffffffff\n      and\n        /* \"contracts/blockmagic_hackaton/Dex_functionalities/Pair_v6_LP.sol\":8229:8260  isInputToken0 ? token1 : token0 */\n      jump(tag_172)\n    tag_171:\n        /* \"contracts/blockmagic_hackaton/Dex_functionalities/Pair_v6_LP.sol\":8245:8251  token1 */\n      0x01\n      0x00\n      swap1\n      sload\n      swap1\n      0x0100\n      exp\n      swap1\n      div\n      0xffffffffffffffffffffffffffffffffffffffff\n      and\n        /* \"contracts/blockmagic_hackaton/Dex_functionalities/Pair_v6_LP.sol\":8229:8260  isInputToken0 ? token1 : token0 */\n    tag_172:\n        /* \"contracts/blockmagic_hackaton/Dex_functionalities/Pair_v6_LP.sol\":8207:8260  address outputToken = isInputToken0 ? token1 : token0 */\n      swap1\n      pop\n        /* \"contracts/blockmagic_hackaton/Dex_functionalities/Pair_v6_LP.sol\":8271:8289  uint256 inputPrice */\n      0x00\n        /* \"contracts/blockmagic_hackaton/Dex_functionalities/Pair_v6_LP.sol\":8292:8305  isInputToken0 */\n      dup3\n        /* \"contracts/blockmagic_hackaton/Dex_functionalities/Pair_v6_LP.sol\":8292:8323  isInputToken0 ? price0 : price1 */\n      tag_173\n      jumpi\n        /* \"contracts/blockmagic_hackaton/Dex_functionalities/Pair_v6_LP.sol\":8317:8323  price1 */\n      dup4\n        /* \"contracts/blockmagic_hackaton/Dex_functionalities/Pair_v6_LP.sol\":8292:8323  isInputToken0 ? price0 : price1 */\n      jump(tag_174)\n    tag_173:\n        /* \"contracts/blockmagic_hackaton/Dex_functionalities/Pair_v6_LP.sol\":8308:8314  price0 */\n      dup5\n        /* \"contracts/blockmagic_hackaton/Dex_functionalities/Pair_v6_LP.sol\":8292:8323  isInputToken0 ? price0 : price1 */\n    tag_174:\n        /* \"contracts/blockmagic_hackaton/Dex_functionalities/Pair_v6_LP.sol\":8271:8323  uint256 inputPrice = isInputToken0 ? price0 : price1 */\n      swap1\n      pop\n        /* \"contracts/blockmagic_hackaton/Dex_functionalities/Pair_v6_LP.sol\":8408:8424  uint256 amountIn */\n      0x00\n        /* \"contracts/blockmagic_hackaton/Dex_functionalities/Pair_v6_LP.sol\":8450:8460  inputPrice */\n      dup2\n        /* \"contracts/blockmagic_hackaton/Dex_functionalities/Pair_v6_LP.sol\":8440:8446  10**18 */\n      0x0de0b6b3a7640000\n        /* \"contracts/blockmagic_hackaton/Dex_functionalities/Pair_v6_LP.sol\":8428:8437  usdAmount */\n      dup10\n        /* \"contracts/blockmagic_hackaton/Dex_functionalities/Pair_v6_LP.sol\":8428:8446  usdAmount * 10**18 */\n      tag_175\n      swap2\n      swap1\n      tag_99\n      jump\t// in\n    tag_175:\n        /* \"contracts/blockmagic_hackaton/Dex_functionalities/Pair_v6_LP.sol\":8427:8460  (usdAmount * 10**18) / inputPrice */\n      tag_176\n      swap2\n      swap1\n      tag_102\n      jump\t// in\n    tag_176:\n        /* \"contracts/blockmagic_hackaton/Dex_functionalities/Pair_v6_LP.sol\":8408:8460  uint256 amountIn = (usdAmount * 10**18) / inputPrice */\n      swap1\n      pop\n        /* \"contracts/blockmagic_hackaton/Dex_functionalities/Pair_v6_LP.sol\":8545:8562  uint256 amountOut */\n      0x00\n        /* \"contracts/blockmagic_hackaton/Dex_functionalities/Pair_v6_LP.sol\":8565:8599  getAmountOut(amountIn, inputToken) */\n      tag_177\n        /* \"contracts/blockmagic_hackaton/Dex_functionalities/Pair_v6_LP.sol\":8578:8586  amountIn */\n      dup3\n        /* \"contracts/blockmagic_hackaton/Dex_functionalities/Pair_v6_LP.sol\":8588:8598  inputToken */\n      dup10\n        /* \"contracts/blockmagic_hackaton/Dex_functionalities/Pair_v6_LP.sol\":8565:8577  getAmountOut */\n      tag_76\n        /* \"contracts/blockmagic_hackaton/Dex_functionalities/Pair_v6_LP.sol\":8565:8599  getAmountOut(amountIn, inputToken) */\n      jump\t// in\n    tag_177:\n        /* \"contracts/blockmagic_hackaton/Dex_functionalities/Pair_v6_LP.sol\":8545:8599  uint256 amountOut = getAmountOut(amountIn, inputToken) */\n      swap1\n      pop\n        /* \"contracts/blockmagic_hackaton/Dex_functionalities/Pair_v6_LP.sol\":8683:8693  inputToken */\n      dup8\n        /* \"contracts/blockmagic_hackaton/Dex_functionalities/Pair_v6_LP.sol\":8676:8707  IERC20(inputToken).transferFrom */\n      0xffffffffffffffffffffffffffffffffffffffff\n      and\n      0x23b872dd\n        /* \"contracts/blockmagic_hackaton/Dex_functionalities/Pair_v6_LP.sol\":8708:8718  msg.sender */\n      caller\n        /* \"contracts/blockmagic_hackaton/Dex_functionalities/Pair_v6_LP.sol\":8728:8732  this */\n      address\n        /* \"contracts/blockmagic_hackaton/Dex_functionalities/Pair_v6_LP.sol\":8735:8743  amountIn */\n      dup6\n        /* \"contracts/blockmagic_hackaton/Dex_functionalities/Pair_v6_LP.sol\":8676:8744  IERC20(inputToken).transferFrom(msg.sender, address(this), amountIn) */\n      mload(0x40)\n      dup5\n      0xffffffff\n      and\n      0xe0\n      shl\n      dup2\n      mstore\n      0x04\n      add\n      tag_178\n      swap4\n      swap3\n      swap2\n      swap1\n      tag_179\n      jump\t// in\n    tag_178:\n      0x20\n      mload(0x40)\n      dup1\n      dup4\n      sub\n      dup2\n      0x00\n      dup8\n      gas\n      call\n      iszero\n      dup1\n      iszero\n      tag_181\n      jumpi\n      returndatasize\n      0x00\n      dup1\n      returndatacopy\n      revert(0x00, returndatasize)\n    tag_181:\n      pop\n      pop\n      pop\n      pop\n      mload(0x40)\n      returndatasize\n      not(0x1f)\n      0x1f\n      dup3\n      add\n      and\n      dup3\n      add\n      dup1\n      0x40\n      mstore\n      pop\n      dup2\n      add\n      swap1\n      tag_182\n      swap2\n      swap1\n      tag_183\n      jump\t// in\n    tag_182:\n      pop\n        /* \"contracts/blockmagic_hackaton/Dex_functionalities/Pair_v6_LP.sol\":8829:8840  outputToken */\n      dup4\n        /* \"contracts/blockmagic_hackaton/Dex_functionalities/Pair_v6_LP.sol\":8822:8850  IERC20(outputToken).transfer */\n      0xffffffffffffffffffffffffffffffffffffffff\n      and\n      0xa9059cbb\n        /* \"contracts/blockmagic_hackaton/Dex_functionalities/Pair_v6_LP.sol\":8851:8861  msg.sender */\n      caller\n        /* \"contracts/blockmagic_hackaton/Dex_functionalities/Pair_v6_LP.sol\":8863:8872  amountOut */\n      dup4\n        /* \"contracts/blockmagic_hackaton/Dex_functionalities/Pair_v6_LP.sol\":8822:8873  IERC20(outputToken).transfer(msg.sender, amountOut) */\n      mload(0x40)\n      dup4\n      0xffffffff\n      and\n      0xe0\n      shl\n      dup2\n      mstore\n      0x04\n      add\n      tag_184\n      swap3\n      swap2\n      swap1\n      tag_66\n      jump\t// in\n    tag_184:\n      0x20\n      mload(0x40)\n      dup1\n      dup4\n      sub\n      dup2\n      0x00\n      dup8\n      gas\n      call\n      iszero\n      dup1\n      iszero\n      tag_186\n      jumpi\n      returndatasize\n      0x00\n      dup1\n      returndatacopy\n      revert(0x00, returndatasize)\n    tag_186:\n      pop\n      pop\n      pop\n      pop\n      mload(0x40)\n      returndatasize\n      not(0x1f)\n      0x1f\n      dup3\n      add\n      and\n      dup3\n      add\n      dup1\n      0x40\n      mstore\n      pop\n      dup2\n      add\n      swap1\n      tag_187\n      swap2\n      swap1\n      tag_183\n      jump\t// in\n    tag_187:\n      pop\n        /* \"contracts/blockmagic_hackaton/Dex_functionalities/Pair_v6_LP.sol\":8922:8935  isInputToken0 */\n      dup5\n        /* \"contracts/blockmagic_hackaton/Dex_functionalities/Pair_v6_LP.sol\":8918:9109  if (isInputToken0) {... */\n      iszero\n      tag_188\n      jumpi\n        /* \"contracts/blockmagic_hackaton/Dex_functionalities/Pair_v6_LP.sol\":8964:8972  amountIn */\n      dup2\n        /* \"contracts/blockmagic_hackaton/Dex_functionalities/Pair_v6_LP.sol\":8952:8960  reserve0 */\n      0x03\n      0x00\n        /* \"contracts/blockmagic_hackaton/Dex_functionalities/Pair_v6_LP.sol\":8952:8972  reserve0 += amountIn */\n      dup3\n      dup3\n      sload\n      tag_189\n      swap2\n      swap1\n      tag_190\n      jump\t// in\n    tag_189:\n      swap3\n      pop\n      pop\n      dup2\n      swap1\n      sstore\n      pop\n        /* \"contracts/blockmagic_hackaton/Dex_functionalities/Pair_v6_LP.sol\":8999:9008  amountOut */\n      dup1\n        /* \"contracts/blockmagic_hackaton/Dex_functionalities/Pair_v6_LP.sol\":8987:8995  reserve1 */\n      0x04\n      0x00\n        /* \"contracts/blockmagic_hackaton/Dex_functionalities/Pair_v6_LP.sol\":8987:9008  reserve1 -= amountOut */\n      dup3\n      dup3\n      sload\n      tag_191\n      swap2\n      swap1\n      tag_192\n      jump\t// in\n    tag_191:\n      swap3\n      pop\n      pop\n      dup2\n      swap1\n      sstore\n      pop\n        /* \"contracts/blockmagic_hackaton/Dex_functionalities/Pair_v6_LP.sol\":8918:9109  if (isInputToken0) {... */\n      jump(tag_193)\n    tag_188:\n        /* \"contracts/blockmagic_hackaton/Dex_functionalities/Pair_v6_LP.sol\":9053:9061  amountIn */\n      dup2\n        /* \"contracts/blockmagic_hackaton/Dex_functionalities/Pair_v6_LP.sol\":9041:9049  reserve1 */\n      0x04\n      0x00\n        /* \"contracts/blockmagic_hackaton/Dex_functionalities/Pair_v6_LP.sol\":9041:9061  reserve1 += amountIn */\n      dup3\n      dup3\n      sload\n      tag_194\n      swap2\n      swap1\n      tag_190\n      jump\t// in\n    tag_194:\n      swap3\n      pop\n      pop\n      dup2\n      swap1\n      sstore\n      pop\n        /* \"contracts/blockmagic_hackaton/Dex_functionalities/Pair_v6_LP.sol\":9088:9097  amountOut */\n      dup1\n        /* \"contracts/blockmagic_hackaton/Dex_functionalities/Pair_v6_LP.sol\":9076:9084  reserve0 */\n      0x03\n      0x00\n        /* \"contracts/blockmagic_hackaton/Dex_functionalities/Pair_v6_LP.sol\":9076:9097  reserve0 -= amountOut */\n      dup3\n      dup3\n      sload\n      tag_195\n      swap2\n      swap1\n      tag_192\n      jump\t// in\n    tag_195:\n      swap3\n      pop\n      pop\n      dup2\n      swap1\n      sstore\n      pop\n        /* \"contracts/blockmagic_hackaton/Dex_functionalities/Pair_v6_LP.sol\":8918:9109  if (isInputToken0) {... */\n    tag_193:\n        /* \"contracts/blockmagic_hackaton/Dex_functionalities/Pair_v6_LP.sol\":7880:9116  {... */\n      pop\n      pop\n      pop\n      pop\n      pop\n      pop\n      pop\n        /* \"contracts/blockmagic_hackaton/Dex_functionalities/Pair_v6_LP.sol\":7813:9116  function swapInUSD(uint256 usdAmount, address inputToken) external {... */\n      pop\n      pop\n      jump\t// out\n        /* \"contracts/blockmagic_hackaton/Dex_functionalities/Pair_v6_LP.sol\":338:359  address public token1 */\n    tag_72:\n      0x01\n      0x00\n      swap1\n      sload\n      swap1\n      0x0100\n      exp\n      swap1\n      div\n      0xffffffffffffffffffffffffffffffffffffffff\n      and\n      dup2\n      jump\t// out\n        /* \"contracts/blockmagic_hackaton/Dex_functionalities/Pair_v6_LP.sol\":7032:7591  function getAmountOut(uint256 amountIn, address inputToken) public view returns (uint256 amountOut) {... */\n    tag_76:\n        /* \"contracts/blockmagic_hackaton/Dex_functionalities/Pair_v6_LP.sol\":7113:7130  uint256 amountOut */\n      0x00\n        /* \"contracts/blockmagic_hackaton/Dex_functionalities/Pair_v6_LP.sol\":7165:7171  token0 */\n      dup1\n      0x00\n      swap1\n      sload\n      swap1\n      0x0100\n      exp\n      swap1\n      div\n      0xffffffffffffffffffffffffffffffffffffffff\n      and\n        /* \"contracts/blockmagic_hackaton/Dex_functionalities/Pair_v6_LP.sol\":7151:7171  inputToken == token0 */\n      0xffffffffffffffffffffffffffffffffffffffff\n      and\n        /* \"contracts/blockmagic_hackaton/Dex_functionalities/Pair_v6_LP.sol\":7151:7161  inputToken */\n      dup3\n        /* \"contracts/blockmagic_hackaton/Dex_functionalities/Pair_v6_LP.sol\":7151:7171  inputToken == token0 */\n      0xffffffffffffffffffffffffffffffffffffffff\n      and\n      eq\n        /* \"contracts/blockmagic_hackaton/Dex_functionalities/Pair_v6_LP.sol\":7151:7195  inputToken == token0 || inputToken == token1 */\n      dup1\n      tag_197\n      jumpi\n      pop\n        /* \"contracts/blockmagic_hackaton/Dex_functionalities/Pair_v6_LP.sol\":7189:7195  token1 */\n      0x01\n      0x00\n      swap1\n      sload\n      swap1\n      0x0100\n      exp\n      swap1\n      div\n      0xffffffffffffffffffffffffffffffffffffffff\n      and\n        /* \"contracts/blockmagic_hackaton/Dex_functionalities/Pair_v6_LP.sol\":7175:7195  inputToken == token1 */\n      0xffffffffffffffffffffffffffffffffffffffff\n      and\n        /* \"contracts/blockmagic_hackaton/Dex_functionalities/Pair_v6_LP.sol\":7175:7185  inputToken */\n      dup3\n        /* \"contracts/blockmagic_hackaton/Dex_functionalities/Pair_v6_LP.sol\":7175:7195  inputToken == token1 */\n      0xffffffffffffffffffffffffffffffffffffffff\n      and\n      eq\n        /* \"contracts/blockmagic_hackaton/Dex_functionalities/Pair_v6_LP.sol\":7151:7195  inputToken == token0 || inputToken == token1 */\n    tag_197:\n        /* \"contracts/blockmagic_hackaton/Dex_functionalities/Pair_v6_LP.sol\":7143:7219  require(inputToken == token0 || inputToken == token1, \"Invalid input token\") */\n      tag_198\n      jumpi\n      mload(0x40)\n      0x08c379a000000000000000000000000000000000000000000000000000000000\n      dup2\n      mstore\n      0x04\n      add\n      tag_199\n      swap1\n      tag_83\n      jump\t// in\n    tag_199:\n      mload(0x40)\n      dup1\n      swap2\n      sub\n      swap1\n      revert\n    tag_198:\n        /* \"contracts/blockmagic_hackaton/Dex_functionalities/Pair_v6_LP.sol\":7230:7248  bool isInputToken0 */\n      0x00\n        /* \"contracts/blockmagic_hackaton/Dex_functionalities/Pair_v6_LP.sol\":7266:7272  token0 */\n      dup1\n      0x00\n      swap1\n      sload\n      swap1\n      0x0100\n      exp\n      swap1\n      div\n      0xffffffffffffffffffffffffffffffffffffffff\n      and\n        /* \"contracts/blockmagic_hackaton/Dex_functionalities/Pair_v6_LP.sol\":7252:7272  inputToken == token0 */\n      0xffffffffffffffffffffffffffffffffffffffff\n      and\n        /* \"contracts/blockmagic_hackaton/Dex_functionalities/Pair_v6_LP.sol\":7252:7262  inputToken */\n      dup4\n        /* \"contracts/blockmagic_hackaton/Dex_functionalities/Pair_v6_LP.sol\":7252:7272  inputToken == token0 */\n      0xffffffffffffffffffffffffffffffffffffffff\n      and\n      eq\n        /* \"contracts/blockmagic_hackaton/Dex_functionalities/Pair_v6_LP.sol\":7230:7273  bool isInputToken0 = (inputToken == token0) */\n      swap1\n      pop\n        /* \"contracts/blockmagic_hackaton/Dex_functionalities/Pair_v6_LP.sol\":7284:7304  uint256 inputReserve */\n      0x00\n        /* \"contracts/blockmagic_hackaton/Dex_functionalities/Pair_v6_LP.sol\":7307:7320  isInputToken0 */\n      dup2\n        /* \"contracts/blockmagic_hackaton/Dex_functionalities/Pair_v6_LP.sol\":7307:7342  isInputToken0 ? reserve0 : reserve1 */\n      tag_200\n      jumpi\n        /* \"contracts/blockmagic_hackaton/Dex_functionalities/Pair_v6_LP.sol\":7334:7342  reserve1 */\n      sload(0x04)\n        /* \"contracts/blockmagic_hackaton/Dex_functionalities/Pair_v6_LP.sol\":7307:7342  isInputToken0 ? reserve0 : reserve1 */\n      jump(tag_201)\n    tag_200:\n        /* \"contracts/blockmagic_hackaton/Dex_functionalities/Pair_v6_LP.sol\":7323:7331  reserve0 */\n      sload(0x03)\n        /* \"contracts/blockmagic_hackaton/Dex_functionalities/Pair_v6_LP.sol\":7307:7342  isInputToken0 ? reserve0 : reserve1 */\n    tag_201:\n        /* \"contracts/blockmagic_hackaton/Dex_functionalities/Pair_v6_LP.sol\":7284:7342  uint256 inputReserve = isInputToken0 ? reserve0 : reserve1 */\n      swap1\n      pop\n        /* \"contracts/blockmagic_hackaton/Dex_functionalities/Pair_v6_LP.sol\":7353:7374  uint256 outputReserve */\n      0x00\n        /* \"contracts/blockmagic_hackaton/Dex_functionalities/Pair_v6_LP.sol\":7377:7390  isInputToken0 */\n      dup3\n        /* \"contracts/blockmagic_hackaton/Dex_functionalities/Pair_v6_LP.sol\":7377:7412  isInputToken0 ? reserve1 : reserve0 */\n      tag_202\n      jumpi\n        /* \"contracts/blockmagic_hackaton/Dex_functionalities/Pair_v6_LP.sol\":7404:7412  reserve0 */\n      sload(0x03)\n        /* \"contracts/blockmagic_hackaton/Dex_functionalities/Pair_v6_LP.sol\":7377:7412  isInputToken0 ? reserve1 : reserve0 */\n      jump(tag_203)\n    tag_202:\n        /* \"contracts/blockmagic_hackaton/Dex_functionalities/Pair_v6_LP.sol\":7393:7401  reserve1 */\n      sload(0x04)\n        /* \"contracts/blockmagic_hackaton/Dex_functionalities/Pair_v6_LP.sol\":7377:7412  isInputToken0 ? reserve1 : reserve0 */\n    tag_203:\n        /* \"contracts/blockmagic_hackaton/Dex_functionalities/Pair_v6_LP.sol\":7353:7412  uint256 outputReserve = isInputToken0 ? reserve1 : reserve0 */\n      swap1\n      pop\n        /* \"contracts/blockmagic_hackaton/Dex_functionalities/Pair_v6_LP.sol\":7423:7446  uint256 amountInWithFee */\n      0x00\n        /* \"contracts/blockmagic_hackaton/Dex_functionalities/Pair_v6_LP.sol\":7466:7470  1000 */\n      0x03e8\n        /* \"contracts/blockmagic_hackaton/Dex_functionalities/Pair_v6_LP.sol\":7460:7463  997 */\n      0x03e5\n        /* \"contracts/blockmagic_hackaton/Dex_functionalities/Pair_v6_LP.sol\":7449:7457  amountIn */\n      dup9\n        /* \"contracts/blockmagic_hackaton/Dex_functionalities/Pair_v6_LP.sol\":7449:7463  amountIn * 997 */\n      tag_204\n      swap2\n      swap1\n      tag_99\n      jump\t// in\n    tag_204:\n        /* \"contracts/blockmagic_hackaton/Dex_functionalities/Pair_v6_LP.sol\":7449:7470  amountIn * 997 / 1000 */\n      tag_205\n      swap2\n      swap1\n      tag_102\n      jump\t// in\n    tag_205:\n        /* \"contracts/blockmagic_hackaton/Dex_functionalities/Pair_v6_LP.sol\":7423:7470  uint256 amountInWithFee = amountIn * 997 / 1000 */\n      swap1\n      pop\n        /* \"contracts/blockmagic_hackaton/Dex_functionalities/Pair_v6_LP.sol\":7567:7582  amountInWithFee */\n      dup1\n        /* \"contracts/blockmagic_hackaton/Dex_functionalities/Pair_v6_LP.sol\":7552:7564  inputReserve */\n      dup4\n        /* \"contracts/blockmagic_hackaton/Dex_functionalities/Pair_v6_LP.sol\":7552:7582  inputReserve + amountInWithFee */\n      tag_206\n      swap2\n      swap1\n      tag_190\n      jump\t// in\n    tag_206:\n        /* \"contracts/blockmagic_hackaton/Dex_functionalities/Pair_v6_LP.sol\":7535:7548  outputReserve */\n      dup3\n        /* \"contracts/blockmagic_hackaton/Dex_functionalities/Pair_v6_LP.sol\":7517:7532  amountInWithFee */\n      dup3\n        /* \"contracts/blockmagic_hackaton/Dex_functionalities/Pair_v6_LP.sol\":7517:7548  amountInWithFee * outputReserve */\n      tag_207\n      swap2\n      swap1\n      tag_99\n      jump\t// in\n    tag_207:\n        /* \"contracts/blockmagic_hackaton/Dex_functionalities/Pair_v6_LP.sol\":7517:7583  amountInWithFee * outputReserve / (inputReserve + amountInWithFee) */\n      tag_208\n      swap2\n      swap1\n      tag_102\n      jump\t// in\n    tag_208:\n        /* \"contracts/blockmagic_hackaton/Dex_functionalities/Pair_v6_LP.sol\":7505:7583  amountOut = amountInWithFee * outputReserve / (inputReserve + amountInWithFee) */\n      swap5\n      pop\n        /* \"contracts/blockmagic_hackaton/Dex_functionalities/Pair_v6_LP.sol\":7132:7591  {... */\n      pop\n      pop\n      pop\n      pop\n        /* \"contracts/blockmagic_hackaton/Dex_functionalities/Pair_v6_LP.sol\":7032:7591  function getAmountOut(uint256 amountIn, address inputToken) public view returns (uint256 amountOut) {... */\n      swap3\n      swap2\n      pop\n      pop\n      jump\t// out\n        /* \"contracts/blockmagic_hackaton/Dex_functionalities/Pair_v6_LP.sol\":10745:10841  function min(uint x, uint y) internal pure returns (uint z) {... */\n    tag_118:\n        /* \"contracts/blockmagic_hackaton/Dex_functionalities/Pair_v6_LP.sol\":10797:10803  uint z */\n      0x00\n        /* \"contracts/blockmagic_hackaton/Dex_functionalities/Pair_v6_LP.sol\":10824:10825  y */\n      dup2\n        /* \"contracts/blockmagic_hackaton/Dex_functionalities/Pair_v6_LP.sol\":10820:10821  x */\n      dup4\n        /* \"contracts/blockmagic_hackaton/Dex_functionalities/Pair_v6_LP.sol\":10820:10825  x < y */\n      lt\n        /* \"contracts/blockmagic_hackaton/Dex_functionalities/Pair_v6_LP.sol\":10820:10833  x < y ? x : y */\n      tag_210\n      jumpi\n        /* \"contracts/blockmagic_hackaton/Dex_functionalities/Pair_v6_LP.sol\":10832:10833  y */\n      dup2\n        /* \"contracts/blockmagic_hackaton/Dex_functionalities/Pair_v6_LP.sol\":10820:10833  x < y ? x : y */\n      jump(tag_211)\n    tag_210:\n        /* \"contracts/blockmagic_hackaton/Dex_functionalities/Pair_v6_LP.sol\":10828:10829  x */\n      dup3\n        /* \"contracts/blockmagic_hackaton/Dex_functionalities/Pair_v6_LP.sol\":10820:10833  x < y ? x : y */\n    tag_211:\n        /* \"contracts/blockmagic_hackaton/Dex_functionalities/Pair_v6_LP.sol\":10816:10833  z = x < y ? x : y */\n      swap1\n      pop\n        /* \"contracts/blockmagic_hackaton/Dex_functionalities/Pair_v6_LP.sol\":10745:10841  function min(uint x, uint y) internal pure returns (uint z) {... */\n      swap3\n      swap2\n      pop\n      pop\n      jump\t// out\n        /* \"contracts/blockmagic_hackaton/Dex_functionalities/Pair_v6_LP.sol\":3769:4436  function removeLiquidity(uint256 liquidity) internal {... */\n    tag_120:\n        /* \"contracts/blockmagic_hackaton/Dex_functionalities/Pair_v6_LP.sol\":3853:3854  0 */\n      0x00\n        /* \"contracts/blockmagic_hackaton/Dex_functionalities/Pair_v6_LP.sol\":3841:3850  liquidity */\n      dup2\n        /* \"contracts/blockmagic_hackaton/Dex_functionalities/Pair_v6_LP.sol\":3841:3854  liquidity > 0 */\n      gt\n        /* \"contracts/blockmagic_hackaton/Dex_functionalities/Pair_v6_LP.sol\":3833:3881  require(liquidity > 0, \"Insufficient liquidity\") */\n      tag_213\n      jumpi\n      mload(0x40)\n      0x08c379a000000000000000000000000000000000000000000000000000000000\n      dup2\n      mstore\n      0x04\n      add\n      tag_214\n      swap1\n      tag_215\n      jump\t// in\n    tag_214:\n      mload(0x40)\n      dup1\n      swap2\n      sub\n      swap1\n      revert\n    tag_213:\n        /* \"contracts/blockmagic_hackaton/Dex_functionalities/Pair_v6_LP.sol\":3894:3909  uint256 amount0 */\n      0x00\n        /* \"contracts/blockmagic_hackaton/Dex_functionalities/Pair_v6_LP.sol\":3935:3942  lpToken */\n      0x02\n      0x00\n      swap1\n      sload\n      swap1\n      0x0100\n      exp\n      swap1\n      div\n      0xffffffffffffffffffffffffffffffffffffffff\n      and\n        /* \"contracts/blockmagic_hackaton/Dex_functionalities/Pair_v6_LP.sol\":3935:3954  lpToken.totalSupply */\n      0xffffffffffffffffffffffffffffffffffffffff\n      and\n      0x18160ddd\n        /* \"contracts/blockmagic_hackaton/Dex_functionalities/Pair_v6_LP.sol\":3935:3956  lpToken.totalSupply() */\n      mload(0x40)\n      dup2\n      0xffffffff\n      and\n      0xe0\n      shl\n      dup2\n      mstore\n      0x04\n      add\n      0x20\n      mload(0x40)\n      dup1\n      dup4\n      sub\n      dup2\n      dup7\n      gas\n      staticcall\n      iszero\n      dup1\n      iszero\n      tag_217\n      jumpi\n      returndatasize\n      0x00\n      dup1\n      returndatacopy\n      revert(0x00, returndatasize)\n    tag_217:\n      pop\n      pop\n      pop\n      pop\n      mload(0x40)\n      returndatasize\n      not(0x1f)\n      0x1f\n      dup3\n      add\n      and\n      dup3\n      add\n      dup1\n      0x40\n      mstore\n      pop\n      dup2\n      add\n      swap1\n      tag_218\n      swap2\n      swap1\n      tag_110\n      jump\t// in\n    tag_218:\n        /* \"contracts/blockmagic_hackaton/Dex_functionalities/Pair_v6_LP.sol\":3924:3932  reserve0 */\n      sload(0x03)\n        /* \"contracts/blockmagic_hackaton/Dex_functionalities/Pair_v6_LP.sol\":3912:3921  liquidity */\n      dup4\n        /* \"contracts/blockmagic_hackaton/Dex_functionalities/Pair_v6_LP.sol\":3912:3932  liquidity * reserve0 */\n      tag_219\n      swap2\n      swap1\n      tag_99\n      jump\t// in\n    tag_219:\n        /* \"contracts/blockmagic_hackaton/Dex_functionalities/Pair_v6_LP.sol\":3912:3956  liquidity * reserve0 / lpToken.totalSupply() */\n      tag_220\n      swap2\n      swap1\n      tag_102\n      jump\t// in\n    tag_220:\n        /* \"contracts/blockmagic_hackaton/Dex_functionalities/Pair_v6_LP.sol\":3894:3956  uint256 amount0 = liquidity * reserve0 / lpToken.totalSupply() */\n      swap1\n      pop\n        /* \"contracts/blockmagic_hackaton/Dex_functionalities/Pair_v6_LP.sol\":3967:3982  uint256 amount1 */\n      0x00\n        /* \"contracts/blockmagic_hackaton/Dex_functionalities/Pair_v6_LP.sol\":4008:4015  lpToken */\n      0x02\n      0x00\n      swap1\n      sload\n      swap1\n      0x0100\n      exp\n      swap1\n      div\n      0xffffffffffffffffffffffffffffffffffffffff\n      and\n        /* \"contracts/blockmagic_hackaton/Dex_functionalities/Pair_v6_LP.sol\":4008:4027  lpToken.totalSupply */\n      0xffffffffffffffffffffffffffffffffffffffff\n      and\n      0x18160ddd\n        /* \"contracts/blockmagic_hackaton/Dex_functionalities/Pair_v6_LP.sol\":4008:4029  lpToken.totalSupply() */\n      mload(0x40)\n      dup2\n      0xffffffff\n      and\n      0xe0\n      shl\n      dup2\n      mstore\n      0x04\n      add\n      0x20\n      mload(0x40)\n      dup1\n      dup4\n      sub\n      dup2\n      dup7\n      gas\n      staticcall\n      iszero\n      dup1\n      iszero\n      tag_222\n      jumpi\n      returndatasize\n      0x00\n      dup1\n      returndatacopy\n      revert(0x00, returndatasize)\n    tag_222:\n      pop\n      pop\n      pop\n      pop\n      mload(0x40)\n      returndatasize\n      not(0x1f)\n      0x1f\n      dup3\n      add\n      and\n      dup3\n      add\n      dup1\n      0x40\n      mstore\n      pop\n      dup2\n      add\n      swap1\n      tag_223\n      swap2\n      swap1\n      tag_110\n      jump\t// in\n    tag_223:\n        /* \"contracts/blockmagic_hackaton/Dex_functionalities/Pair_v6_LP.sol\":3997:4005  reserve1 */\n      sload(0x04)\n        /* \"contracts/blockmagic_hackaton/Dex_functionalities/Pair_v6_LP.sol\":3985:3994  liquidity */\n      dup5\n        /* \"contracts/blockmagic_hackaton/Dex_functionalities/Pair_v6_LP.sol\":3985:4005  liquidity * reserve1 */\n      tag_224\n      swap2\n      swap1\n      tag_99\n      jump\t// in\n    tag_224:\n        /* \"contracts/blockmagic_hackaton/Dex_functionalities/Pair_v6_LP.sol\":3985:4029  liquidity * reserve1 / lpToken.totalSupply() */\n      tag_225\n      swap2\n      swap1\n      tag_102\n      jump\t// in\n    tag_225:\n        /* \"contracts/blockmagic_hackaton/Dex_functionalities/Pair_v6_LP.sol\":3967:4029  uint256 amount1 = liquidity * reserve1 / lpToken.totalSupply() */\n      swap1\n      pop\n        /* \"contracts/blockmagic_hackaton/Dex_functionalities/Pair_v6_LP.sol\":4060:4061  0 */\n      0x00\n        /* \"contracts/blockmagic_hackaton/Dex_functionalities/Pair_v6_LP.sol\":4050:4057  amount0 */\n      dup3\n        /* \"contracts/blockmagic_hackaton/Dex_functionalities/Pair_v6_LP.sol\":4050:4061  amount0 > 0 */\n      gt\n        /* \"contracts/blockmagic_hackaton/Dex_functionalities/Pair_v6_LP.sol\":4050:4076  amount0 > 0 && amount1 > 0 */\n      dup1\n      iszero\n      tag_226\n      jumpi\n      pop\n        /* \"contracts/blockmagic_hackaton/Dex_functionalities/Pair_v6_LP.sol\":4075:4076  0 */\n      0x00\n        /* \"contracts/blockmagic_hackaton/Dex_functionalities/Pair_v6_LP.sol\":4065:4072  amount1 */\n      dup2\n        /* \"contracts/blockmagic_hackaton/Dex_functionalities/Pair_v6_LP.sol\":4065:4076  amount1 > 0 */\n      gt\n        /* \"contracts/blockmagic_hackaton/Dex_functionalities/Pair_v6_LP.sol\":4050:4076  amount0 > 0 && amount1 > 0 */\n    tag_226:\n        /* \"contracts/blockmagic_hackaton/Dex_functionalities/Pair_v6_LP.sol\":4042:4111  require(amount0 > 0 && amount1 > 0, \"Insufficient liquidity removed\") */\n      tag_227\n      jumpi\n      mload(0x40)\n      0x08c379a000000000000000000000000000000000000000000000000000000000\n      dup2\n      mstore\n      0x04\n      add\n      tag_228\n      swap1\n      tag_229\n      jump\t// in\n    tag_228:\n      mload(0x40)\n      dup1\n      swap2\n      sub\n      swap1\n      revert\n    tag_227:\n        /* \"contracts/blockmagic_hackaton/Dex_functionalities/Pair_v6_LP.sol\":4124:4131  lpToken */\n      0x02\n      0x00\n      swap1\n      sload\n      swap1\n      0x0100\n      exp\n      swap1\n      div\n      0xffffffffffffffffffffffffffffffffffffffff\n      and\n        /* \"contracts/blockmagic_hackaton/Dex_functionalities/Pair_v6_LP.sol\":4124:4136  lpToken.burn */\n      0xffffffffffffffffffffffffffffffffffffffff\n      and\n      0x9dc29fac\n        /* \"contracts/blockmagic_hackaton/Dex_functionalities/Pair_v6_LP.sol\":4137:4147  msg.sender */\n      caller\n        /* \"contracts/blockmagic_hackaton/Dex_functionalities/Pair_v6_LP.sol\":4149:4158  liquidity */\n      dup6\n        /* \"contracts/blockmagic_hackaton/Dex_functionalities/Pair_v6_LP.sol\":4124:4159  lpToken.burn(msg.sender, liquidity) */\n      mload(0x40)\n      dup4\n      0xffffffff\n      and\n      0xe0\n      shl\n      dup2\n      mstore\n      0x04\n      add\n      tag_230\n      swap3\n      swap2\n      swap1\n      tag_66\n      jump\t// in\n    tag_230:\n      0x00\n      mload(0x40)\n      dup1\n      dup4\n      sub\n      dup2\n      0x00\n      dup8\n      dup1\n      extcodesize\n      iszero\n      dup1\n      iszero\n      tag_231\n      jumpi\n      0x00\n      dup1\n      revert\n    tag_231:\n      pop\n      gas\n      call\n      iszero\n      dup1\n      iszero\n      tag_233\n      jumpi\n      returndatasize\n      0x00\n      dup1\n      returndatacopy\n      revert(0x00, returndatasize)\n    tag_233:\n      pop\n      pop\n      pop\n      pop\n        /* \"contracts/blockmagic_hackaton/Dex_functionalities/Pair_v6_LP.sol\":4179:4185  token0 */\n      0x00\n      dup1\n      sload\n      swap1\n      0x0100\n      exp\n      swap1\n      div\n      0xffffffffffffffffffffffffffffffffffffffff\n      and\n        /* \"contracts/blockmagic_hackaton/Dex_functionalities/Pair_v6_LP.sol\":4172:4195  IERC20(token0).transfer */\n      0xffffffffffffffffffffffffffffffffffffffff\n      and\n      0xa9059cbb\n        /* \"contracts/blockmagic_hackaton/Dex_functionalities/Pair_v6_LP.sol\":4196:4206  msg.sender */\n      caller\n        /* \"contracts/blockmagic_hackaton/Dex_functionalities/Pair_v6_LP.sol\":4208:4215  amount0 */\n      dup5\n        /* \"contracts/blockmagic_hackaton/Dex_functionalities/Pair_v6_LP.sol\":4172:4216  IERC20(token0).transfer(msg.sender, amount0) */\n      mload(0x40)\n      dup4\n      0xffffffff\n      and\n      0xe0\n      shl\n      dup2\n      mstore\n      0x04\n      add\n      tag_234\n      swap3\n      swap2\n      swap1\n      tag_66\n      jump\t// in\n    tag_234:\n      0x20\n      mload(0x40)\n      dup1\n      dup4\n      sub\n      dup2\n      0x00\n      dup8\n      gas\n      call\n      iszero\n      dup1\n      iszero\n      tag_236\n      jumpi\n      returndatasize\n      0x00\n      dup1\n      returndatacopy\n      revert(0x00, returndatasize)\n    tag_236:\n      pop\n      pop\n      pop\n      pop\n      mload(0x40)\n      returndatasize\n      not(0x1f)\n      0x1f\n      dup3\n      add\n      and\n      dup3\n      add\n      dup1\n      0x40\n      mstore\n      pop\n      dup2\n      add\n      swap1\n      tag_237\n      swap2\n      swap1\n      tag_183\n      jump\t// in\n    tag_237:\n      pop\n        /* \"contracts/blockmagic_hackaton/Dex_functionalities/Pair_v6_LP.sol\":4234:4240  token1 */\n      0x01\n      0x00\n      swap1\n      sload\n      swap1\n      0x0100\n      exp\n      swap1\n      div\n      0xffffffffffffffffffffffffffffffffffffffff\n      and\n        /* \"contracts/blockmagic_hackaton/Dex_functionalities/Pair_v6_LP.sol\":4227:4250  IERC20(token1).transfer */\n      0xffffffffffffffffffffffffffffffffffffffff\n      and\n      0xa9059cbb\n        /* \"contracts/blockmagic_hackaton/Dex_functionalities/Pair_v6_LP.sol\":4251:4261  msg.sender */\n      caller\n        /* \"contracts/blockmagic_hackaton/Dex_functionalities/Pair_v6_LP.sol\":4263:4270  amount1 */\n      dup4\n        /* \"contracts/blockmagic_hackaton/Dex_functionalities/Pair_v6_LP.sol\":4227:4271  IERC20(token1).transfer(msg.sender, amount1) */\n      mload(0x40)\n      dup4\n      0xffffffff\n      and\n      0xe0\n      shl\n      dup2\n      mstore\n      0x04\n      add\n      tag_238\n      swap3\n      swap2\n      swap1\n      tag_66\n      jump\t// in\n    tag_238:\n      0x20\n      mload(0x40)\n      dup1\n      dup4\n      sub\n      dup2\n      0x00\n      dup8\n      gas\n      call\n      iszero\n      dup1\n      iszero\n      tag_240\n      jumpi\n      returndatasize\n      0x00\n      dup1\n      returndatacopy\n      revert(0x00, returndatasize)\n    tag_240:\n      pop\n      pop\n      pop\n      pop\n      mload(0x40)\n      returndatasize\n      not(0x1f)\n      0x1f\n      dup3\n      add\n      and\n      dup3\n      add\n      dup1\n      0x40\n      mstore\n      pop\n      dup2\n      add\n      swap1\n      tag_241\n      swap2\n      swap1\n      tag_183\n      jump\t// in\n    tag_241:\n      pop\n        /* \"contracts/blockmagic_hackaton/Dex_functionalities/Pair_v6_LP.sol\":4296:4303  amount0 */\n      dup2\n        /* \"contracts/blockmagic_hackaton/Dex_functionalities/Pair_v6_LP.sol\":4284:4292  reserve0 */\n      0x03\n      0x00\n        /* \"contracts/blockmagic_hackaton/Dex_functionalities/Pair_v6_LP.sol\":4284:4303  reserve0 -= amount0 */\n      dup3\n      dup3\n      sload\n      tag_242\n      swap2\n      swap1\n      tag_192\n      jump\t// in\n    tag_242:\n      swap3\n      pop\n      pop\n      dup2\n      swap1\n      sstore\n      pop\n        /* \"contracts/blockmagic_hackaton/Dex_functionalities/Pair_v6_LP.sol\":4326:4333  amount1 */\n      dup1\n        /* \"contracts/blockmagic_hackaton/Dex_functionalities/Pair_v6_LP.sol\":4314:4322  reserve1 */\n      0x04\n      0x00\n        /* \"contracts/blockmagic_hackaton/Dex_functionalities/Pair_v6_LP.sol\":4314:4333  reserve1 -= amount1 */\n      dup3\n      dup3\n      sload\n      tag_243\n      swap2\n      swap1\n      tag_192\n      jump\t// in\n    tag_243:\n      swap3\n      pop\n      pop\n      dup2\n      swap1\n      sstore\n      pop\n        /* \"contracts/blockmagic_hackaton/Dex_functionalities/Pair_v6_LP.sol\":4368:4378  msg.sender */\n      caller\n        /* \"contracts/blockmagic_hackaton/Dex_functionalities/Pair_v6_LP.sol\":4351:4428  LiquidityRemoved(msg.sender, amount0, amount1, liquidity, reserve0, reserve1) */\n      0xffffffffffffffffffffffffffffffffffffffff\n      and\n      0x04f7e4f53152cb2cd0e424b2fc990199f0ed4255c7a97a848131f1eeff165f7b\n        /* \"contracts/blockmagic_hackaton/Dex_functionalities/Pair_v6_LP.sol\":4380:4387  amount0 */\n      dup4\n        /* \"contracts/blockmagic_hackaton/Dex_functionalities/Pair_v6_LP.sol\":4389:4396  amount1 */\n      dup4\n        /* \"contracts/blockmagic_hackaton/Dex_functionalities/Pair_v6_LP.sol\":4398:4407  liquidity */\n      dup7\n        /* \"contracts/blockmagic_hackaton/Dex_functionalities/Pair_v6_LP.sol\":4409:4417  reserve0 */\n      sload(0x03)\n        /* \"contracts/blockmagic_hackaton/Dex_functionalities/Pair_v6_LP.sol\":4419:4427  reserve1 */\n      sload(0x04)\n        /* \"contracts/blockmagic_hackaton/Dex_functionalities/Pair_v6_LP.sol\":4351:4428  LiquidityRemoved(msg.sender, amount0, amount1, liquidity, reserve0, reserve1) */\n      mload(0x40)\n      tag_244\n      swap6\n      swap5\n      swap4\n      swap3\n      swap2\n      swap1\n      tag_245\n      jump\t// in\n    tag_244:\n      mload(0x40)\n      dup1\n      swap2\n      sub\n      swap1\n      log2\n        /* \"contracts/blockmagic_hackaton/Dex_functionalities/Pair_v6_LP.sol\":3822:4436  {... */\n      pop\n      pop\n        /* \"contracts/blockmagic_hackaton/Dex_functionalities/Pair_v6_LP.sol\":3769:4436  function removeLiquidity(uint256 liquidity) internal {... */\n      pop\n      jump\t// out\n        /* \"contracts/blockmagic_hackaton/Dex_functionalities/Pair_v6_LP.sol\":2112:2872  function addLiquidity(uint256 amount0, uint256 amount1) internal {... */\n    tag_143:\n        /* \"contracts/blockmagic_hackaton/Dex_functionalities/Pair_v6_LP.sol\":2195:2201  token0 */\n      0x00\n      dup1\n      sload\n      swap1\n      0x0100\n      exp\n      swap1\n      div\n      0xffffffffffffffffffffffffffffffffffffffff\n      and\n        /* \"contracts/blockmagic_hackaton/Dex_functionalities/Pair_v6_LP.sol\":2188:2215  IERC20(token0).transferFrom */\n      0xffffffffffffffffffffffffffffffffffffffff\n      and\n      0x23b872dd\n        /* \"contracts/blockmagic_hackaton/Dex_functionalities/Pair_v6_LP.sol\":2216:2226  msg.sender */\n      caller\n        /* \"contracts/blockmagic_hackaton/Dex_functionalities/Pair_v6_LP.sol\":2236:2240  this */\n      address\n        /* \"contracts/blockmagic_hackaton/Dex_functionalities/Pair_v6_LP.sol\":2243:2250  amount0 */\n      dup6\n        /* \"contracts/blockmagic_hackaton/Dex_functionalities/Pair_v6_LP.sol\":2188:2251  IERC20(token0).transferFrom(msg.sender, address(this), amount0) */\n      mload(0x40)\n      dup5\n      0xffffffff\n      and\n      0xe0\n      shl\n      dup2\n      mstore\n      0x04\n      add\n      tag_247\n      swap4\n      swap3\n      swap2\n      swap1\n      tag_179\n      jump\t// in\n    tag_247:\n      0x20\n      mload(0x40)\n      dup1\n      dup4\n      sub\n      dup2\n      0x00\n      dup8\n      gas\n      call\n      iszero\n      dup1\n      iszero\n      tag_249\n      jumpi\n      returndatasize\n      0x00\n      dup1\n      returndatacopy\n      revert(0x00, returndatasize)\n    tag_249:\n      pop\n      pop\n      pop\n      pop\n      mload(0x40)\n      returndatasize\n      not(0x1f)\n      0x1f\n      dup3\n      add\n      and\n      dup3\n      add\n      dup1\n      0x40\n      mstore\n      pop\n      dup2\n      add\n      swap1\n      tag_250\n      swap2\n      swap1\n      tag_183\n      jump\t// in\n    tag_250:\n      pop\n        /* \"contracts/blockmagic_hackaton/Dex_functionalities/Pair_v6_LP.sol\":2269:2275  token1 */\n      0x01\n      0x00\n      swap1\n      sload\n      swap1\n      0x0100\n      exp\n      swap1\n      div\n      0xffffffffffffffffffffffffffffffffffffffff\n      and\n        /* \"contracts/blockmagic_hackaton/Dex_functionalities/Pair_v6_LP.sol\":2262:2289  IERC20(token1).transferFrom */\n      0xffffffffffffffffffffffffffffffffffffffff\n      and\n      0x23b872dd\n        /* \"contracts/blockmagic_hackaton/Dex_functionalities/Pair_v6_LP.sol\":2290:2300  msg.sender */\n      caller\n        /* \"contracts/blockmagic_hackaton/Dex_functionalities/Pair_v6_LP.sol\":2310:2314  this */\n      address\n        /* \"contracts/blockmagic_hackaton/Dex_functionalities/Pair_v6_LP.sol\":2317:2324  amount1 */\n      dup5\n        /* \"contracts/blockmagic_hackaton/Dex_functionalities/Pair_v6_LP.sol\":2262:2325  IERC20(token1).transferFrom(msg.sender, address(this), amount1) */\n      mload(0x40)\n      dup5\n      0xffffffff\n      and\n      0xe0\n      shl\n      dup2\n      mstore\n      0x04\n      add\n      tag_251\n      swap4\n      swap3\n      swap2\n      swap1\n      tag_179\n      jump\t// in\n    tag_251:\n      0x20\n      mload(0x40)\n      dup1\n      dup4\n      sub\n      dup2\n      0x00\n      dup8\n      gas\n      call\n      iszero\n      dup1\n      iszero\n      tag_253\n      jumpi\n      returndatasize\n      0x00\n      dup1\n      returndatacopy\n      revert(0x00, returndatasize)\n    tag_253:\n      pop\n      pop\n      pop\n      pop\n      mload(0x40)\n      returndatasize\n      not(0x1f)\n      0x1f\n      dup3\n      add\n      and\n      dup3\n      add\n      dup1\n      0x40\n      mstore\n      pop\n      dup2\n      add\n      swap1\n      tag_254\n      swap2\n      swap1\n      tag_183\n      jump\t// in\n    tag_254:\n      pop\n        /* \"contracts/blockmagic_hackaton/Dex_functionalities/Pair_v6_LP.sol\":2338:2355  uint256 liquidity */\n      0x00\n        /* \"contracts/blockmagic_hackaton/Dex_functionalities/Pair_v6_LP.sol\":2395:2396  0 */\n      dup1\n        /* \"contracts/blockmagic_hackaton/Dex_functionalities/Pair_v6_LP.sol\":2370:2377  lpToken */\n      0x02\n      0x00\n      swap1\n      sload\n      swap1\n      0x0100\n      exp\n      swap1\n      div\n      0xffffffffffffffffffffffffffffffffffffffff\n      and\n        /* \"contracts/blockmagic_hackaton/Dex_functionalities/Pair_v6_LP.sol\":2370:2389  lpToken.totalSupply */\n      0xffffffffffffffffffffffffffffffffffffffff\n      and\n      0x18160ddd\n        /* \"contracts/blockmagic_hackaton/Dex_functionalities/Pair_v6_LP.sol\":2370:2391  lpToken.totalSupply() */\n      mload(0x40)\n      dup2\n      0xffffffff\n      and\n      0xe0\n      shl\n      dup2\n      mstore\n      0x04\n      add\n      0x20\n      mload(0x40)\n      dup1\n      dup4\n      sub\n      dup2\n      dup7\n      gas\n      staticcall\n      iszero\n      dup1\n      iszero\n      tag_256\n      jumpi\n      returndatasize\n      0x00\n      dup1\n      returndatacopy\n      revert(0x00, returndatasize)\n    tag_256:\n      pop\n      pop\n      pop\n      pop\n      mload(0x40)\n      returndatasize\n      not(0x1f)\n      0x1f\n      dup3\n      add\n      and\n      dup3\n      add\n      dup1\n      0x40\n      mstore\n      pop\n      dup2\n      add\n      swap1\n      tag_257\n      swap2\n      swap1\n      tag_110\n      jump\t// in\n    tag_257:\n        /* \"contracts/blockmagic_hackaton/Dex_functionalities/Pair_v6_LP.sol\":2370:2396  lpToken.totalSupply() == 0 */\n      sub\n        /* \"contracts/blockmagic_hackaton/Dex_functionalities/Pair_v6_LP.sol\":2366:2596  if (lpToken.totalSupply() == 0) {... */\n      tag_258\n      jumpi\n        /* \"contracts/blockmagic_hackaton/Dex_functionalities/Pair_v6_LP.sol\":2425:2448  sqrt(amount0 * amount1) */\n      tag_259\n        /* \"contracts/blockmagic_hackaton/Dex_functionalities/Pair_v6_LP.sol\":2440:2447  amount1 */\n      dup3\n        /* \"contracts/blockmagic_hackaton/Dex_functionalities/Pair_v6_LP.sol\":2430:2437  amount0 */\n      dup5\n        /* \"contracts/blockmagic_hackaton/Dex_functionalities/Pair_v6_LP.sol\":2430:2447  amount0 * amount1 */\n      tag_260\n      swap2\n      swap1\n      tag_99\n      jump\t// in\n    tag_260:\n        /* \"contracts/blockmagic_hackaton/Dex_functionalities/Pair_v6_LP.sol\":2425:2429  sqrt */\n      tag_261\n        /* \"contracts/blockmagic_hackaton/Dex_functionalities/Pair_v6_LP.sol\":2425:2448  sqrt(amount0 * amount1) */\n      jump\t// in\n    tag_259:\n        /* \"contracts/blockmagic_hackaton/Dex_functionalities/Pair_v6_LP.sol\":2413:2448  liquidity = sqrt(amount0 * amount1) */\n      swap1\n      pop\n        /* \"contracts/blockmagic_hackaton/Dex_functionalities/Pair_v6_LP.sol\":2366:2596  if (lpToken.totalSupply() == 0) {... */\n      jump(tag_262)\n    tag_258:\n        /* \"contracts/blockmagic_hackaton/Dex_functionalities/Pair_v6_LP.sol\":2493:2584  min(amount0 * lpToken.totalSupply() / reserve0, amount1 * lpToken.totalSupply() / reserve1) */\n      tag_263\n        /* \"contracts/blockmagic_hackaton/Dex_functionalities/Pair_v6_LP.sol\":2531:2539  reserve0 */\n      sload(0x03)\n        /* \"contracts/blockmagic_hackaton/Dex_functionalities/Pair_v6_LP.sol\":2507:2514  lpToken */\n      0x02\n      0x00\n      swap1\n      sload\n      swap1\n      0x0100\n      exp\n      swap1\n      div\n      0xffffffffffffffffffffffffffffffffffffffff\n      and\n        /* \"contracts/blockmagic_hackaton/Dex_functionalities/Pair_v6_LP.sol\":2507:2526  lpToken.totalSupply */\n      0xffffffffffffffffffffffffffffffffffffffff\n      and\n      0x18160ddd\n        /* \"contracts/blockmagic_hackaton/Dex_functionalities/Pair_v6_LP.sol\":2507:2528  lpToken.totalSupply() */\n      mload(0x40)\n      dup2\n      0xffffffff\n      and\n      0xe0\n      shl\n      dup2\n      mstore\n      0x04\n      add\n      0x20\n      mload(0x40)\n      dup1\n      dup4\n      sub\n      dup2\n      dup7\n      gas\n      staticcall\n      iszero\n      dup1\n      iszero\n      tag_265\n      jumpi\n      returndatasize\n      0x00\n      dup1\n      returndatacopy\n      revert(0x00, returndatasize)\n    tag_265:\n      pop\n      pop\n      pop\n      pop\n      mload(0x40)\n      returndatasize\n      not(0x1f)\n      0x1f\n      dup3\n      add\n      and\n      dup3\n      add\n      dup1\n      0x40\n      mstore\n      pop\n      dup2\n      add\n      swap1\n      tag_266\n      swap2\n      swap1\n      tag_110\n      jump\t// in\n    tag_266:\n        /* \"contracts/blockmagic_hackaton/Dex_functionalities/Pair_v6_LP.sol\":2497:2504  amount0 */\n      dup6\n        /* \"contracts/blockmagic_hackaton/Dex_functionalities/Pair_v6_LP.sol\":2497:2528  amount0 * lpToken.totalSupply() */\n      tag_267\n      swap2\n      swap1\n      tag_99\n      jump\t// in\n    tag_267:\n        /* \"contracts/blockmagic_hackaton/Dex_functionalities/Pair_v6_LP.sol\":2497:2539  amount0 * lpToken.totalSupply() / reserve0 */\n      tag_268\n      swap2\n      swap1\n      tag_102\n      jump\t// in\n    tag_268:\n        /* \"contracts/blockmagic_hackaton/Dex_functionalities/Pair_v6_LP.sol\":2575:2583  reserve1 */\n      sload(0x04)\n        /* \"contracts/blockmagic_hackaton/Dex_functionalities/Pair_v6_LP.sol\":2551:2558  lpToken */\n      0x02\n      0x00\n      swap1\n      sload\n      swap1\n      0x0100\n      exp\n      swap1\n      div\n      0xffffffffffffffffffffffffffffffffffffffff\n      and\n        /* \"contracts/blockmagic_hackaton/Dex_functionalities/Pair_v6_LP.sol\":2551:2570  lpToken.totalSupply */\n      0xffffffffffffffffffffffffffffffffffffffff\n      and\n      0x18160ddd\n        /* \"contracts/blockmagic_hackaton/Dex_functionalities/Pair_v6_LP.sol\":2551:2572  lpToken.totalSupply() */\n      mload(0x40)\n      dup2\n      0xffffffff\n      and\n      0xe0\n      shl\n      dup2\n      mstore\n      0x04\n      add\n      0x20\n      mload(0x40)\n      dup1\n      dup4\n      sub\n      dup2\n      dup7\n      gas\n      staticcall\n      iszero\n      dup1\n      iszero\n      tag_270\n      jumpi\n      returndatasize\n      0x00\n      dup1\n      returndatacopy\n      revert(0x00, returndatasize)\n    tag_270:\n      pop\n      pop\n      pop\n      pop\n      mload(0x40)\n      returndatasize\n      not(0x1f)\n      0x1f\n      dup3\n      add\n      and\n      dup3\n      add\n      dup1\n      0x40\n      mstore\n      pop\n      dup2\n      add\n      swap1\n      tag_271\n      swap2\n      swap1\n      tag_110\n      jump\t// in\n    tag_271:\n        /* \"contracts/blockmagic_hackaton/Dex_functionalities/Pair_v6_LP.sol\":2541:2548  amount1 */\n      dup6\n        /* \"contracts/blockmagic_hackaton/Dex_functionalities/Pair_v6_LP.sol\":2541:2572  amount1 * lpToken.totalSupply() */\n      tag_272\n      swap2\n      swap1\n      tag_99\n      jump\t// in\n    tag_272:\n        /* \"contracts/blockmagic_hackaton/Dex_functionalities/Pair_v6_LP.sol\":2541:2583  amount1 * lpToken.totalSupply() / reserve1 */\n      tag_273\n      swap2\n      swap1\n      tag_102\n      jump\t// in\n    tag_273:\n        /* \"contracts/blockmagic_hackaton/Dex_functionalities/Pair_v6_LP.sol\":2493:2496  min */\n      tag_118\n        /* \"contracts/blockmagic_hackaton/Dex_functionalities/Pair_v6_LP.sol\":2493:2584  min(amount0 * lpToken.totalSupply() / reserve0, amount1 * lpToken.totalSupply() / reserve1) */\n      jump\t// in\n    tag_263:\n        /* \"contracts/blockmagic_hackaton/Dex_functionalities/Pair_v6_LP.sol\":2481:2584  liquidity = min(amount0 * lpToken.totalSupply() / reserve0, amount1 * lpToken.totalSupply() / reserve1) */\n      swap1\n      pop\n        /* \"contracts/blockmagic_hackaton/Dex_functionalities/Pair_v6_LP.sol\":2366:2596  if (lpToken.totalSupply() == 0) {... */\n    tag_262:\n        /* \"contracts/blockmagic_hackaton/Dex_functionalities/Pair_v6_LP.sol\":2628:2629  0 */\n      0x00\n        /* \"contracts/blockmagic_hackaton/Dex_functionalities/Pair_v6_LP.sol\":2616:2625  liquidity */\n      dup2\n        /* \"contracts/blockmagic_hackaton/Dex_functionalities/Pair_v6_LP.sol\":2616:2629  liquidity > 0 */\n      gt\n        /* \"contracts/blockmagic_hackaton/Dex_functionalities/Pair_v6_LP.sol\":2608:2665  require(liquidity > 0, \"Insufficient liquidity provided\") */\n      tag_274\n      jumpi\n      mload(0x40)\n      0x08c379a000000000000000000000000000000000000000000000000000000000\n      dup2\n      mstore\n      0x04\n      add\n      tag_275\n      swap1\n      tag_276\n      jump\t// in\n    tag_275:\n      mload(0x40)\n      dup1\n      swap2\n      sub\n      swap1\n      revert\n    tag_274:\n        /* \"contracts/blockmagic_hackaton/Dex_functionalities/Pair_v6_LP.sol\":2676:2683  lpToken */\n      0x02\n      0x00\n      swap1\n      sload\n      swap1\n      0x0100\n      exp\n      swap1\n      div\n      0xffffffffffffffffffffffffffffffffffffffff\n      and\n        /* \"contracts/blockmagic_hackaton/Dex_functionalities/Pair_v6_LP.sol\":2676:2688  lpToken.mint */\n      0xffffffffffffffffffffffffffffffffffffffff\n      and\n      0x40c10f19\n        /* \"contracts/blockmagic_hackaton/Dex_functionalities/Pair_v6_LP.sol\":2689:2699  msg.sender */\n      caller\n        /* \"contracts/blockmagic_hackaton/Dex_functionalities/Pair_v6_LP.sol\":2701:2710  liquidity */\n      dup4\n        /* \"contracts/blockmagic_hackaton/Dex_functionalities/Pair_v6_LP.sol\":2676:2711  lpToken.mint(msg.sender, liquidity) */\n      mload(0x40)\n      dup4\n      0xffffffff\n      and\n      0xe0\n      shl\n      dup2\n      mstore\n      0x04\n      add\n      tag_277\n      swap3\n      swap2\n      swap1\n      tag_66\n      jump\t// in\n    tag_277:\n      0x00\n      mload(0x40)\n      dup1\n      dup4\n      sub\n      dup2\n      0x00\n      dup8\n      dup1\n      extcodesize\n      iszero\n      dup1\n      iszero\n      tag_278\n      jumpi\n      0x00\n      dup1\n      revert\n    tag_278:\n      pop\n      gas\n      call\n      iszero\n      dup1\n      iszero\n      tag_280\n      jumpi\n      returndatasize\n      0x00\n      dup1\n      returndatacopy\n      revert(0x00, returndatasize)\n    tag_280:\n      pop\n      pop\n      pop\n      pop\n        /* \"contracts/blockmagic_hackaton/Dex_functionalities/Pair_v6_LP.sol\":2736:2743  amount0 */\n      dup3\n        /* \"contracts/blockmagic_hackaton/Dex_functionalities/Pair_v6_LP.sol\":2724:2732  reserve0 */\n      0x03\n      0x00\n        /* \"contracts/blockmagic_hackaton/Dex_functionalities/Pair_v6_LP.sol\":2724:2743  reserve0 += amount0 */\n      dup3\n      dup3\n      sload\n      tag_281\n      swap2\n      swap1\n      tag_190\n      jump\t// in\n    tag_281:\n      swap3\n      pop\n      pop\n      dup2\n      swap1\n      sstore\n      pop\n        /* \"contracts/blockmagic_hackaton/Dex_functionalities/Pair_v6_LP.sol\":2766:2773  amount1 */\n      dup2\n        /* \"contracts/blockmagic_hackaton/Dex_functionalities/Pair_v6_LP.sol\":2754:2762  reserve1 */\n      0x04\n      0x00\n        /* \"contracts/blockmagic_hackaton/Dex_functionalities/Pair_v6_LP.sol\":2754:2773  reserve1 += amount1 */\n      dup3\n      dup3\n      sload\n      tag_282\n      swap2\n      swap1\n      tag_190\n      jump\t// in\n    tag_282:\n      swap3\n      pop\n      pop\n      dup2\n      swap1\n      sstore\n      pop\n        /* \"contracts/blockmagic_hackaton/Dex_functionalities/Pair_v6_LP.sol\":2804:2814  msg.sender */\n      caller\n        /* \"contracts/blockmagic_hackaton/Dex_functionalities/Pair_v6_LP.sol\":2789:2864  LiquidityAdded(msg.sender, amount0, amount1, liquidity, reserve0, reserve1) */\n      0xffffffffffffffffffffffffffffffffffffffff\n      and\n      0x0103e5727ee41ce8741fbdf27e5e596deb21dbe5ae93901499306d10f28d1ef7\n        /* \"contracts/blockmagic_hackaton/Dex_functionalities/Pair_v6_LP.sol\":2816:2823  amount0 */\n      dup5\n        /* \"contracts/blockmagic_hackaton/Dex_functionalities/Pair_v6_LP.sol\":2825:2832  amount1 */\n      dup5\n        /* \"contracts/blockmagic_hackaton/Dex_functionalities/Pair_v6_LP.sol\":2834:2843  liquidity */\n      dup5\n        /* \"contracts/blockmagic_hackaton/Dex_functionalities/Pair_v6_LP.sol\":2845:2853  reserve0 */\n      sload(0x03)\n        /* \"contracts/blockmagic_hackaton/Dex_functionalities/Pair_v6_LP.sol\":2855:2863  reserve1 */\n      sload(0x04)\n        /* \"contracts/blockmagic_hackaton/Dex_functionalities/Pair_v6_LP.sol\":2789:2864  LiquidityAdded(msg.sender, amount0, amount1, liquidity, reserve0, reserve1) */\n      mload(0x40)\n      tag_283\n      swap6\n      swap5\n      swap4\n      swap3\n      swap2\n      swap1\n      tag_245\n      jump\t// in\n    tag_283:\n      mload(0x40)\n      dup1\n      swap2\n      sub\n      swap1\n      log2\n        /* \"contracts/blockmagic_hackaton/Dex_functionalities/Pair_v6_LP.sol\":2177:2872  {... */\n      pop\n        /* \"contracts/blockmagic_hackaton/Dex_functionalities/Pair_v6_LP.sol\":2112:2872  function addLiquidity(uint256 amount0, uint256 amount1) internal {... */\n      pop\n      pop\n      jump\t// out\n        /* \"contracts/blockmagic_hackaton/Dex_functionalities/Pair_v6_LP.sol\":10250:10553  function sqrt(uint y) internal pure returns (uint z) {... */\n    tag_261:\n        /* \"contracts/blockmagic_hackaton/Dex_functionalities/Pair_v6_LP.sol\":10295:10301  uint z */\n      0x00\n        /* \"contracts/blockmagic_hackaton/Dex_functionalities/Pair_v6_LP.sol\":10322:10323  3 */\n      0x03\n        /* \"contracts/blockmagic_hackaton/Dex_functionalities/Pair_v6_LP.sol\":10318:10319  y */\n      dup3\n        /* \"contracts/blockmagic_hackaton/Dex_functionalities/Pair_v6_LP.sol\":10318:10323  y > 3 */\n      gt\n        /* \"contracts/blockmagic_hackaton/Dex_functionalities/Pair_v6_LP.sol\":10314:10546  if (y > 3) {... */\n      iszero\n      tag_285\n      jumpi\n        /* \"contracts/blockmagic_hackaton/Dex_functionalities/Pair_v6_LP.sol\":10344:10345  y */\n      dup2\n        /* \"contracts/blockmagic_hackaton/Dex_functionalities/Pair_v6_LP.sol\":10340:10345  z = y */\n      swap1\n      pop\n        /* \"contracts/blockmagic_hackaton/Dex_functionalities/Pair_v6_LP.sol\":10360:10366  uint x */\n      0x00\n        /* \"contracts/blockmagic_hackaton/Dex_functionalities/Pair_v6_LP.sol\":10377:10378  1 */\n      0x01\n        /* \"contracts/blockmagic_hackaton/Dex_functionalities/Pair_v6_LP.sol\":10373:10374  2 */\n      0x02\n        /* \"contracts/blockmagic_hackaton/Dex_functionalities/Pair_v6_LP.sol\":10369:10370  y */\n      dup5\n        /* \"contracts/blockmagic_hackaton/Dex_functionalities/Pair_v6_LP.sol\":10369:10374  y / 2 */\n      tag_286\n      swap2\n      swap1\n      tag_102\n      jump\t// in\n    tag_286:\n        /* \"contracts/blockmagic_hackaton/Dex_functionalities/Pair_v6_LP.sol\":10369:10378  y / 2 + 1 */\n      tag_287\n      swap2\n      swap1\n      tag_190\n      jump\t// in\n    tag_287:\n        /* \"contracts/blockmagic_hackaton/Dex_functionalities/Pair_v6_LP.sol\":10360:10378  uint x = y / 2 + 1 */\n      swap1\n      pop\n        /* \"contracts/blockmagic_hackaton/Dex_functionalities/Pair_v6_LP.sol\":10393:10485  while (x < z) {... */\n    tag_288:\n        /* \"contracts/blockmagic_hackaton/Dex_functionalities/Pair_v6_LP.sol\":10404:10405  z */\n      dup2\n        /* \"contracts/blockmagic_hackaton/Dex_functionalities/Pair_v6_LP.sol\":10400:10401  x */\n      dup2\n        /* \"contracts/blockmagic_hackaton/Dex_functionalities/Pair_v6_LP.sol\":10400:10405  x < z */\n      lt\n        /* \"contracts/blockmagic_hackaton/Dex_functionalities/Pair_v6_LP.sol\":10393:10485  while (x < z) {... */\n      iszero\n      tag_289\n      jumpi\n        /* \"contracts/blockmagic_hackaton/Dex_functionalities/Pair_v6_LP.sol\":10430:10431  x */\n      dup1\n        /* \"contracts/blockmagic_hackaton/Dex_functionalities/Pair_v6_LP.sol\":10426:10431  z = x */\n      swap2\n      pop\n        /* \"contracts/blockmagic_hackaton/Dex_functionalities/Pair_v6_LP.sol\":10468:10469  2 */\n      0x02\n        /* \"contracts/blockmagic_hackaton/Dex_functionalities/Pair_v6_LP.sol\":10463:10464  x */\n      dup2\n        /* \"contracts/blockmagic_hackaton/Dex_functionalities/Pair_v6_LP.sol\":10459:10460  x */\n      dup3\n        /* \"contracts/blockmagic_hackaton/Dex_functionalities/Pair_v6_LP.sol\":10455:10456  y */\n      dup6\n        /* \"contracts/blockmagic_hackaton/Dex_functionalities/Pair_v6_LP.sol\":10455:10460  y / x */\n      tag_290\n      swap2\n      swap1\n      tag_102\n      jump\t// in\n    tag_290:\n        /* \"contracts/blockmagic_hackaton/Dex_functionalities/Pair_v6_LP.sol\":10455:10464  y / x + x */\n      tag_291\n      swap2\n      swap1\n      tag_190\n      jump\t// in\n    tag_291:\n        /* \"contracts/blockmagic_hackaton/Dex_functionalities/Pair_v6_LP.sol\":10454:10469  (y / x + x) / 2 */\n      tag_292\n      swap2\n      swap1\n      tag_102\n      jump\t// in\n    tag_292:\n        /* \"contracts/blockmagic_hackaton/Dex_functionalities/Pair_v6_LP.sol\":10450:10469  x = (y / x + x) / 2 */\n      swap1\n      pop\n        /* \"contracts/blockmagic_hackaton/Dex_functionalities/Pair_v6_LP.sol\":10393:10485  while (x < z) {... */\n      jump(tag_288)\n    tag_289:\n        /* \"contracts/blockmagic_hackaton/Dex_functionalities/Pair_v6_LP.sol\":10325:10496  {... */\n      pop\n        /* \"contracts/blockmagic_hackaton/Dex_functionalities/Pair_v6_LP.sol\":10314:10546  if (y > 3) {... */\n      jump(tag_293)\n    tag_285:\n        /* \"contracts/blockmagic_hackaton/Dex_functionalities/Pair_v6_LP.sol\":10511:10512  0 */\n      0x00\n        /* \"contracts/blockmagic_hackaton/Dex_functionalities/Pair_v6_LP.sol\":10506:10507  y */\n      dup3\n        /* \"contracts/blockmagic_hackaton/Dex_functionalities/Pair_v6_LP.sol\":10506:10512  y != 0 */\n      eq\n        /* \"contracts/blockmagic_hackaton/Dex_functionalities/Pair_v6_LP.sol\":10502:10546  if (y != 0) {... */\n      tag_294\n      jumpi\n        /* \"contracts/blockmagic_hackaton/Dex_functionalities/Pair_v6_LP.sol\":10533:10534  1 */\n      0x01\n        /* \"contracts/blockmagic_hackaton/Dex_functionalities/Pair_v6_LP.sol\":10529:10534  z = 1 */\n      swap1\n      pop\n        /* \"contracts/blockmagic_hackaton/Dex_functionalities/Pair_v6_LP.sol\":10502:10546  if (y != 0) {... */\n    tag_294:\n        /* \"contracts/blockmagic_hackaton/Dex_functionalities/Pair_v6_LP.sol\":10314:10546  if (y > 3) {... */\n    tag_293:\n        /* \"contracts/blockmagic_hackaton/Dex_functionalities/Pair_v6_LP.sol\":10250:10553  function sqrt(uint y) internal pure returns (uint z) {... */\n      swap2\n      swap1\n      pop\n      jump\t// out\n        /* \"#utility.yul\":7:84   */\n    tag_295:\n        /* \"#utility.yul\":44:51   */\n      0x00\n        /* \"#utility.yul\":73:78   */\n      dup2\n        /* \"#utility.yul\":62:78   */\n      swap1\n      pop\n        /* \"#utility.yul\":7:84   */\n      swap2\n      swap1\n      pop\n      jump\t// out\n        /* \"#utility.yul\":90:208   */\n    tag_296:\n        /* \"#utility.yul\":177:201   */\n      tag_339\n        /* \"#utility.yul\":195:200   */\n      dup2\n        /* \"#utility.yul\":177:201   */\n      tag_295\n      jump\t// in\n    tag_339:\n        /* \"#utility.yul\":172:175   */\n      dup3\n        /* \"#utility.yul\":165:202   */\n      mstore\n        /* \"#utility.yul\":90:208   */\n      pop\n      pop\n      jump\t// out\n        /* \"#utility.yul\":214:546   */\n    tag_24:\n        /* \"#utility.yul\":335:339   */\n      0x00\n        /* \"#utility.yul\":373:375   */\n      0x40\n        /* \"#utility.yul\":362:371   */\n      dup3\n        /* \"#utility.yul\":358:376   */\n      add\n        /* \"#utility.yul\":350:376   */\n      swap1\n      pop\n        /* \"#utility.yul\":386:457   */\n      tag_341\n        /* \"#utility.yul\":454:455   */\n      0x00\n        /* \"#utility.yul\":443:452   */\n      dup4\n        /* \"#utility.yul\":439:456   */\n      add\n        /* \"#utility.yul\":430:436   */\n      dup6\n        /* \"#utility.yul\":386:457   */\n      tag_296\n      jump\t// in\n    tag_341:\n        /* \"#utility.yul\":467:539   */\n      tag_342\n        /* \"#utility.yul\":535:537   */\n      0x20\n        /* \"#utility.yul\":524:533   */\n      dup4\n        /* \"#utility.yul\":520:538   */\n      add\n        /* \"#utility.yul\":511:517   */\n      dup5\n        /* \"#utility.yul\":467:539   */\n      tag_296\n      jump\t// in\n    tag_342:\n        /* \"#utility.yul\":214:546   */\n      swap4\n      swap3\n      pop\n      pop\n      pop\n      jump\t// out\n        /* \"#utility.yul\":552:678   */\n    tag_297:\n        /* \"#utility.yul\":589:596   */\n      0x00\n        /* \"#utility.yul\":629:671   */\n      0xffffffffffffffffffffffffffffffffffffffff\n        /* \"#utility.yul\":622:627   */\n      dup3\n        /* \"#utility.yul\":618:672   */\n      and\n        /* \"#utility.yul\":607:672   */\n      swap1\n      pop\n        /* \"#utility.yul\":552:678   */\n      swap2\n      swap1\n      pop\n      jump\t// out\n        /* \"#utility.yul\":684:780   */\n    tag_298:\n        /* \"#utility.yul\":721:728   */\n      0x00\n        /* \"#utility.yul\":750:774   */\n      tag_345\n        /* \"#utility.yul\":768:773   */\n      dup3\n        /* \"#utility.yul\":750:774   */\n      tag_297\n      jump\t// in\n    tag_345:\n        /* \"#utility.yul\":739:774   */\n      swap1\n      pop\n        /* \"#utility.yul\":684:780   */\n      swap2\n      swap1\n      pop\n      jump\t// out\n        /* \"#utility.yul\":786:904   */\n    tag_299:\n        /* \"#utility.yul\":873:897   */\n      tag_347\n        /* \"#utility.yul\":891:896   */\n      dup2\n        /* \"#utility.yul\":873:897   */\n      tag_298\n      jump\t// in\n    tag_347:\n        /* \"#utility.yul\":868:871   */\n      dup3\n        /* \"#utility.yul\":861:898   */\n      mstore\n        /* \"#utility.yul\":786:904   */\n      pop\n      pop\n      jump\t// out\n        /* \"#utility.yul\":910:1132   */\n    tag_28:\n        /* \"#utility.yul\":1003:1007   */\n      0x00\n        /* \"#utility.yul\":1041:1043   */\n      0x20\n        /* \"#utility.yul\":1030:1039   */\n      dup3\n        /* \"#utility.yul\":1026:1044   */\n      add\n        /* \"#utility.yul\":1018:1044   */\n      swap1\n      pop\n        /* \"#utility.yul\":1054:1125   */\n      tag_349\n        /* \"#utility.yul\":1122:1123   */\n      0x00\n        /* \"#utility.yul\":1111:1120   */\n      dup4\n        /* \"#utility.yul\":1107:1124   */\n      add\n        /* \"#utility.yul\":1098:1104   */\n      dup5\n        /* \"#utility.yul\":1054:1125   */\n      tag_299\n      jump\t// in\n    tag_349:\n        /* \"#utility.yul\":910:1132   */\n      swap3\n      swap2\n      pop\n      pop\n      jump\t// out\n        /* \"#utility.yul\":1219:1336   */\n    tag_301:\n        /* \"#utility.yul\":1328:1329   */\n      0x00\n        /* \"#utility.yul\":1325:1326   */\n      dup1\n        /* \"#utility.yul\":1318:1330   */\n      revert\n        /* \"#utility.yul\":1465:1587   */\n    tag_303:\n        /* \"#utility.yul\":1538:1562   */\n      tag_354\n        /* \"#utility.yul\":1556:1561   */\n      dup2\n        /* \"#utility.yul\":1538:1562   */\n      tag_298\n      jump\t// in\n    tag_354:\n        /* \"#utility.yul\":1531:1536   */\n      dup2\n        /* \"#utility.yul\":1528:1563   */\n      eq\n        /* \"#utility.yul\":1518:1581   */\n      tag_355\n      jumpi\n        /* \"#utility.yul\":1577:1578   */\n      0x00\n        /* \"#utility.yul\":1574:1575   */\n      dup1\n        /* \"#utility.yul\":1567:1579   */\n      revert\n        /* \"#utility.yul\":1518:1581   */\n    tag_355:\n        /* \"#utility.yul\":1465:1587   */\n      pop\n      jump\t// out\n        /* \"#utility.yul\":1593:1732   */\n    tag_304:\n        /* \"#utility.yul\":1639:1644   */\n      0x00\n        /* \"#utility.yul\":1677:1683   */\n      dup2\n        /* \"#utility.yul\":1664:1684   */\n      calldataload\n        /* \"#utility.yul\":1655:1684   */\n      swap1\n      pop\n        /* \"#utility.yul\":1693:1726   */\n      tag_357\n        /* \"#utility.yul\":1720:1725   */\n      dup2\n        /* \"#utility.yul\":1693:1726   */\n      tag_303\n      jump\t// in\n    tag_357:\n        /* \"#utility.yul\":1593:1732   */\n      swap3\n      swap2\n      pop\n      pop\n      jump\t// out\n        /* \"#utility.yul\":1738:2067   */\n    tag_31:\n        /* \"#utility.yul\":1797:1803   */\n      0x00\n        /* \"#utility.yul\":1846:1848   */\n      0x20\n        /* \"#utility.yul\":1834:1843   */\n      dup3\n        /* \"#utility.yul\":1825:1832   */\n      dup5\n        /* \"#utility.yul\":1821:1844   */\n      sub\n        /* \"#utility.yul\":1817:1849   */\n      slt\n        /* \"#utility.yul\":1814:1933   */\n      iszero\n      tag_359\n      jumpi\n        /* \"#utility.yul\":1852:1931   */\n      tag_360\n      tag_301\n      jump\t// in\n    tag_360:\n        /* \"#utility.yul\":1814:1933   */\n    tag_359:\n        /* \"#utility.yul\":1972:1973   */\n      0x00\n        /* \"#utility.yul\":1997:2050   */\n      tag_361\n        /* \"#utility.yul\":2042:2049   */\n      dup5\n        /* \"#utility.yul\":2033:2039   */\n      dup3\n        /* \"#utility.yul\":2022:2031   */\n      dup6\n        /* \"#utility.yul\":2018:2040   */\n      add\n        /* \"#utility.yul\":1997:2050   */\n      tag_304\n      jump\t// in\n    tag_361:\n        /* \"#utility.yul\":1987:2050   */\n      swap2\n      pop\n        /* \"#utility.yul\":1943:2060   */\n      pop\n        /* \"#utility.yul\":1738:2067   */\n      swap3\n      swap2\n      pop\n      pop\n      jump\t// out\n        /* \"#utility.yul\":2073:2149   */\n    tag_305:\n        /* \"#utility.yul\":2109:2116   */\n      0x00\n        /* \"#utility.yul\":2138:2143   */\n      dup2\n        /* \"#utility.yul\":2127:2143   */\n      swap1\n      pop\n        /* \"#utility.yul\":2073:2149   */\n      swap2\n      swap1\n      pop\n      jump\t// out\n        /* \"#utility.yul\":2155:2270   */\n    tag_306:\n        /* \"#utility.yul\":2240:2263   */\n      tag_364\n        /* \"#utility.yul\":2257:2262   */\n      dup2\n        /* \"#utility.yul\":2240:2263   */\n      tag_305\n      jump\t// in\n    tag_364:\n        /* \"#utility.yul\":2235:2238   */\n      dup3\n        /* \"#utility.yul\":2228:2264   */\n      mstore\n        /* \"#utility.yul\":2155:2270   */\n      pop\n      pop\n      jump\t// out\n        /* \"#utility.yul\":2276:2494   */\n    tag_34:\n        /* \"#utility.yul\":2367:2371   */\n      0x00\n        /* \"#utility.yul\":2405:2407   */\n      0x20\n        /* \"#utility.yul\":2394:2403   */\n      dup3\n        /* \"#utility.yul\":2390:2408   */\n      add\n        /* \"#utility.yul\":2382:2408   */\n      swap1\n      pop\n        /* \"#utility.yul\":2418:2487   */\n      tag_366\n        /* \"#utility.yul\":2484:2485   */\n      0x00\n        /* \"#utility.yul\":2473:2482   */\n      dup4\n        /* \"#utility.yul\":2469:2486   */\n      add\n        /* \"#utility.yul\":2460:2466   */\n      dup5\n        /* \"#utility.yul\":2418:2487   */\n      tag_306\n      jump\t// in\n    tag_366:\n        /* \"#utility.yul\":2276:2494   */\n      swap3\n      swap2\n      pop\n      pop\n      jump\t// out\n        /* \"#utility.yul\":2500:2722   */\n    tag_38:\n        /* \"#utility.yul\":2593:2597   */\n      0x00\n        /* \"#utility.yul\":2631:2633   */\n      0x20\n        /* \"#utility.yul\":2620:2629   */\n      dup3\n        /* \"#utility.yul\":2616:2634   */\n      add\n        /* \"#utility.yul\":2608:2634   */\n      swap1\n      pop\n        /* \"#utility.yul\":2644:2715   */\n      tag_368\n        /* \"#utility.yul\":2712:2713   */\n      0x00\n        /* \"#utility.yul\":2701:2710   */\n      dup4\n        /* \"#utility.yul\":2697:2714   */\n      add\n        /* \"#utility.yul\":2688:2694   */\n      dup5\n        /* \"#utility.yul\":2644:2715   */\n      tag_296\n      jump\t// in\n    tag_368:\n        /* \"#utility.yul\":2500:2722   */\n      swap3\n      swap2\n      pop\n      pop\n      jump\t// out\n        /* \"#utility.yul\":2728:2850   */\n    tag_307:\n        /* \"#utility.yul\":2801:2825   */\n      tag_370\n        /* \"#utility.yul\":2819:2824   */\n      dup2\n        /* \"#utility.yul\":2801:2825   */\n      tag_295\n      jump\t// in\n    tag_370:\n        /* \"#utility.yul\":2794:2799   */\n      dup2\n        /* \"#utility.yul\":2791:2826   */\n      eq\n        /* \"#utility.yul\":2781:2844   */\n      tag_371\n      jumpi\n        /* \"#utility.yul\":2840:2841   */\n      0x00\n        /* \"#utility.yul\":2837:2838   */\n      dup1\n        /* \"#utility.yul\":2830:2842   */\n      revert\n        /* \"#utility.yul\":2781:2844   */\n    tag_371:\n        /* \"#utility.yul\":2728:2850   */\n      pop\n      jump\t// out\n        /* \"#utility.yul\":2856:2995   */\n    tag_308:\n        /* \"#utility.yul\":2902:2907   */\n      0x00\n        /* \"#utility.yul\":2940:2946   */\n      dup2\n        /* \"#utility.yul\":2927:2947   */\n      calldataload\n        /* \"#utility.yul\":2918:2947   */\n      swap1\n      pop\n        /* \"#utility.yul\":2956:2989   */\n      tag_373\n        /* \"#utility.yul\":2983:2988   */\n      dup2\n        /* \"#utility.yul\":2956:2989   */\n      tag_307\n      jump\t// in\n    tag_373:\n        /* \"#utility.yul\":2856:2995   */\n      swap3\n      swap2\n      pop\n      pop\n      jump\t// out\n        /* \"#utility.yul\":3001:3330   */\n    tag_41:\n        /* \"#utility.yul\":3060:3066   */\n      0x00\n        /* \"#utility.yul\":3109:3111   */\n      0x20\n        /* \"#utility.yul\":3097:3106   */\n      dup3\n        /* \"#utility.yul\":3088:3095   */\n      dup5\n        /* \"#utility.yul\":3084:3107   */\n      sub\n        /* \"#utility.yul\":3080:3112   */\n      slt\n        /* \"#utility.yul\":3077:3196   */\n      iszero\n      tag_375\n      jumpi\n        /* \"#utility.yul\":3115:3194   */\n      tag_376\n      tag_301\n      jump\t// in\n    tag_376:\n        /* \"#utility.yul\":3077:3196   */\n    tag_375:\n        /* \"#utility.yul\":3235:3236   */\n      0x00\n        /* \"#utility.yul\":3260:3313   */\n      tag_377\n        /* \"#utility.yul\":3305:3312   */\n      dup5\n        /* \"#utility.yul\":3296:3302   */\n      dup3\n        /* \"#utility.yul\":3285:3294   */\n      dup6\n        /* \"#utility.yul\":3281:3303   */\n      add\n        /* \"#utility.yul\":3260:3313   */\n      tag_308\n      jump\t// in\n    tag_377:\n        /* \"#utility.yul\":3250:3313   */\n      swap2\n      pop\n        /* \"#utility.yul\":3206:3323   */\n      pop\n        /* \"#utility.yul\":3001:3330   */\n      swap3\n      swap2\n      pop\n      pop\n      jump\t// out\n        /* \"#utility.yul\":3336:3396   */\n    tag_309:\n        /* \"#utility.yul\":3364:3367   */\n      0x00\n        /* \"#utility.yul\":3385:3390   */\n      dup2\n        /* \"#utility.yul\":3378:3390   */\n      swap1\n      pop\n        /* \"#utility.yul\":3336:3396   */\n      swap2\n      swap1\n      pop\n      jump\t// out\n        /* \"#utility.yul\":3402:3544   */\n    tag_310:\n        /* \"#utility.yul\":3452:3461   */\n      0x00\n        /* \"#utility.yul\":3485:3538   */\n      tag_380\n        /* \"#utility.yul\":3503:3537   */\n      tag_381\n        /* \"#utility.yul\":3512:3536   */\n      tag_382\n        /* \"#utility.yul\":3530:3535   */\n      dup5\n        /* \"#utility.yul\":3512:3536   */\n      tag_297\n      jump\t// in\n    tag_382:\n        /* \"#utility.yul\":3503:3537   */\n      tag_309\n      jump\t// in\n    tag_381:\n        /* \"#utility.yul\":3485:3538   */\n      tag_297\n      jump\t// in\n    tag_380:\n        /* \"#utility.yul\":3472:3538   */\n      swap1\n      pop\n        /* \"#utility.yul\":3402:3544   */\n      swap2\n      swap1\n      pop\n      jump\t// out\n        /* \"#utility.yul\":3550:3676   */\n    tag_311:\n        /* \"#utility.yul\":3600:3609   */\n      0x00\n        /* \"#utility.yul\":3633:3670   */\n      tag_384\n        /* \"#utility.yul\":3664:3669   */\n      dup3\n        /* \"#utility.yul\":3633:3670   */\n      tag_310\n      jump\t// in\n    tag_384:\n        /* \"#utility.yul\":3620:3670   */\n      swap1\n      pop\n        /* \"#utility.yul\":3550:3676   */\n      swap2\n      swap1\n      pop\n      jump\t// out\n        /* \"#utility.yul\":3682:3823   */\n    tag_312:\n        /* \"#utility.yul\":3747:3756   */\n      0x00\n        /* \"#utility.yul\":3780:3817   */\n      tag_386\n        /* \"#utility.yul\":3811:3816   */\n      dup3\n        /* \"#utility.yul\":3780:3817   */\n      tag_311\n      jump\t// in\n    tag_386:\n        /* \"#utility.yul\":3767:3817   */\n      swap1\n      pop\n        /* \"#utility.yul\":3682:3823   */\n      swap2\n      swap1\n      pop\n      jump\t// out\n        /* \"#utility.yul\":3829:3990   */\n    tag_313:\n        /* \"#utility.yul\":3931:3983   */\n      tag_388\n        /* \"#utility.yul\":3977:3982   */\n      dup2\n        /* \"#utility.yul\":3931:3983   */\n      tag_312\n      jump\t// in\n    tag_388:\n        /* \"#utility.yul\":3926:3929   */\n      dup3\n        /* \"#utility.yul\":3919:3984   */\n      mstore\n        /* \"#utility.yul\":3829:3990   */\n      pop\n      pop\n      jump\t// out\n        /* \"#utility.yul\":3996:4248   */\n    tag_52:\n        /* \"#utility.yul\":4104:4108   */\n      0x00\n        /* \"#utility.yul\":4142:4144   */\n      0x20\n        /* \"#utility.yul\":4131:4140   */\n      dup3\n        /* \"#utility.yul\":4127:4145   */\n      add\n        /* \"#utility.yul\":4119:4145   */\n      swap1\n      pop\n        /* \"#utility.yul\":4155:4241   */\n      tag_390\n        /* \"#utility.yul\":4238:4239   */\n      0x00\n        /* \"#utility.yul\":4227:4236   */\n      dup4\n        /* \"#utility.yul\":4223:4240   */\n      add\n        /* \"#utility.yul\":4214:4220   */\n      dup5\n        /* \"#utility.yul\":4155:4241   */\n      tag_313\n      jump\t// in\n    tag_390:\n        /* \"#utility.yul\":3996:4248   */\n      swap3\n      swap2\n      pop\n      pop\n      jump\t// out\n        /* \"#utility.yul\":4254:4586   */\n    tag_66:\n        /* \"#utility.yul\":4375:4379   */\n      0x00\n        /* \"#utility.yul\":4413:4415   */\n      0x40\n        /* \"#utility.yul\":4402:4411   */\n      dup3\n        /* \"#utility.yul\":4398:4416   */\n      add\n        /* \"#utility.yul\":4390:4416   */\n      swap1\n      pop\n        /* \"#utility.yul\":4426:4497   */\n      tag_392\n        /* \"#utility.yul\":4494:4495   */\n      0x00\n        /* \"#utility.yul\":4483:4492   */\n      dup4\n        /* \"#utility.yul\":4479:4496   */\n      add\n        /* \"#utility.yul\":4470:4476   */\n      dup6\n        /* \"#utility.yul\":4426:4497   */\n      tag_299\n      jump\t// in\n    tag_392:\n        /* \"#utility.yul\":4507:4579   */\n      tag_393\n        /* \"#utility.yul\":4575:4577   */\n      0x20\n        /* \"#utility.yul\":4564:4573   */\n      dup4\n        /* \"#utility.yul\":4560:4578   */\n      add\n        /* \"#utility.yul\":4551:4557   */\n      dup5\n        /* \"#utility.yul\":4507:4579   */\n      tag_296\n      jump\t// in\n    tag_393:\n        /* \"#utility.yul\":4254:4586   */\n      swap4\n      swap3\n      pop\n      pop\n      pop\n      jump\t// out\n        /* \"#utility.yul\":4592:5066   */\n    tag_69:\n        /* \"#utility.yul\":4660:4666   */\n      0x00\n        /* \"#utility.yul\":4668:4674   */\n      dup1\n        /* \"#utility.yul\":4717:4719   */\n      0x40\n        /* \"#utility.yul\":4705:4714   */\n      dup4\n        /* \"#utility.yul\":4696:4703   */\n      dup6\n        /* \"#utility.yul\":4692:4715   */\n      sub\n        /* \"#utility.yul\":4688:4720   */\n      slt\n        /* \"#utility.yul\":4685:4804   */\n      iszero\n      tag_395\n      jumpi\n        /* \"#utility.yul\":4723:4802   */\n      tag_396\n      tag_301\n      jump\t// in\n    tag_396:\n        /* \"#utility.yul\":4685:4804   */\n    tag_395:\n        /* \"#utility.yul\":4843:4844   */\n      0x00\n        /* \"#utility.yul\":4868:4921   */\n      tag_397\n        /* \"#utility.yul\":4913:4920   */\n      dup6\n        /* \"#utility.yul\":4904:4910   */\n      dup3\n        /* \"#utility.yul\":4893:4902   */\n      dup7\n        /* \"#utility.yul\":4889:4911   */\n      add\n        /* \"#utility.yul\":4868:4921   */\n      tag_308\n      jump\t// in\n    tag_397:\n        /* \"#utility.yul\":4858:4921   */\n      swap3\n      pop\n        /* \"#utility.yul\":4814:4931   */\n      pop\n        /* \"#utility.yul\":4970:4972   */\n      0x20\n        /* \"#utility.yul\":4996:5049   */\n      tag_398\n        /* \"#utility.yul\":5041:5048   */\n      dup6\n        /* \"#utility.yul\":5032:5038   */\n      dup3\n        /* \"#utility.yul\":5021:5030   */\n      dup7\n        /* \"#utility.yul\":5017:5039   */\n      add\n        /* \"#utility.yul\":4996:5049   */\n      tag_304\n      jump\t// in\n    tag_398:\n        /* \"#utility.yul\":4986:5049   */\n      swap2\n      pop\n        /* \"#utility.yul\":4941:5059   */\n      pop\n        /* \"#utility.yul\":4592:5066   */\n      swap3\n      pop\n      swap3\n      swap1\n      pop\n      jump\t// out\n        /* \"#utility.yul\":5072:5241   */\n    tag_314:\n        /* \"#utility.yul\":5156:5167   */\n      0x00\n        /* \"#utility.yul\":5190:5196   */\n      dup3\n        /* \"#utility.yul\":5185:5188   */\n      dup3\n        /* \"#utility.yul\":5178:5197   */\n      mstore\n        /* \"#utility.yul\":5230:5234   */\n      0x20\n        /* \"#utility.yul\":5225:5228   */\n      dup3\n        /* \"#utility.yul\":5221:5235   */\n      add\n        /* \"#utility.yul\":5206:5235   */\n      swap1\n      pop\n        /* \"#utility.yul\":5072:5241   */\n      swap3\n      swap2\n      pop\n      pop\n      jump\t// out\n        /* \"#utility.yul\":5247:5416   */\n    tag_315:\n        /* \"#utility.yul\":5387:5408   */\n      0x496e76616c696420696e70757420746f6b656e00000000000000000000000000\n        /* \"#utility.yul\":5383:5384   */\n      0x00\n        /* \"#utility.yul\":5375:5381   */\n      dup3\n        /* \"#utility.yul\":5371:5385   */\n      add\n        /* \"#utility.yul\":5364:5409   */\n      mstore\n        /* \"#utility.yul\":5247:5416   */\n      pop\n      jump\t// out\n        /* \"#utility.yul\":5422:5788   */\n    tag_316:\n        /* \"#utility.yul\":5564:5567   */\n      0x00\n        /* \"#utility.yul\":5585:5652   */\n      tag_402\n        /* \"#utility.yul\":5649:5651   */\n      0x13\n        /* \"#utility.yul\":5644:5647   */\n      dup4\n        /* \"#utility.yul\":5585:5652   */\n      tag_314\n      jump\t// in\n    tag_402:\n        /* \"#utility.yul\":5578:5652   */\n      swap2\n      pop\n        /* \"#utility.yul\":5661:5754   */\n      tag_403\n        /* \"#utility.yul\":5750:5753   */\n      dup3\n        /* \"#utility.yul\":5661:5754   */\n      tag_315\n      jump\t// in\n    tag_403:\n        /* \"#utility.yul\":5779:5781   */\n      0x20\n        /* \"#utility.yul\":5774:5777   */\n      dup3\n        /* \"#utility.yul\":5770:5782   */\n      add\n        /* \"#utility.yul\":5763:5782   */\n      swap1\n      pop\n        /* \"#utility.yul\":5422:5788   */\n      swap2\n      swap1\n      pop\n      jump\t// out\n        /* \"#utility.yul\":5794:6213   */\n    tag_83:\n        /* \"#utility.yul\":5960:5964   */\n      0x00\n        /* \"#utility.yul\":5998:6000   */\n      0x20\n        /* \"#utility.yul\":5987:5996   */\n      dup3\n        /* \"#utility.yul\":5983:6001   */\n      add\n        /* \"#utility.yul\":5975:6001   */\n      swap1\n      pop\n        /* \"#utility.yul\":6047:6056   */\n      dup2\n        /* \"#utility.yul\":6041:6045   */\n      dup2\n        /* \"#utility.yul\":6037:6057   */\n      sub\n        /* \"#utility.yul\":6033:6034   */\n      0x00\n        /* \"#utility.yul\":6022:6031   */\n      dup4\n        /* \"#utility.yul\":6018:6035   */\n      add\n        /* \"#utility.yul\":6011:6058   */\n      mstore\n        /* \"#utility.yul\":6075:6206   */\n      tag_405\n        /* \"#utility.yul\":6201:6205   */\n      dup2\n        /* \"#utility.yul\":6075:6206   */\n      tag_316\n      jump\t// in\n    tag_405:\n        /* \"#utility.yul\":6067:6206   */\n      swap1\n      pop\n        /* \"#utility.yul\":5794:6213   */\n      swap2\n      swap1\n      pop\n      jump\t// out\n        /* \"#utility.yul\":6219:6324   */\n    tag_317:\n        /* \"#utility.yul\":6255:6262   */\n      0x00\n        /* \"#utility.yul\":6295:6317   */\n      0xffffffffffffffffffff\n        /* \"#utility.yul\":6288:6293   */\n      dup3\n        /* \"#utility.yul\":6284:6318   */\n      and\n        /* \"#utility.yul\":6273:6318   */\n      swap1\n      pop\n        /* \"#utility.yul\":6219:6324   */\n      swap2\n      swap1\n      pop\n      jump\t// out\n        /* \"#utility.yul\":6330:6450   */\n    tag_318:\n        /* \"#utility.yul\":6402:6425   */\n      tag_408\n        /* \"#utility.yul\":6419:6424   */\n      dup2\n        /* \"#utility.yul\":6402:6425   */\n      tag_317\n      jump\t// in\n    tag_408:\n        /* \"#utility.yul\":6395:6400   */\n      dup2\n        /* \"#utility.yul\":6392:6426   */\n      eq\n        /* \"#utility.yul\":6382:6444   */\n      tag_409\n      jumpi\n        /* \"#utility.yul\":6440:6441   */\n      0x00\n        /* \"#utility.yul\":6437:6438   */\n      dup1\n        /* \"#utility.yul\":6430:6442   */\n      revert\n        /* \"#utility.yul\":6382:6444   */\n    tag_409:\n        /* \"#utility.yul\":6330:6450   */\n      pop\n      jump\t// out\n        /* \"#utility.yul\":6456:6597   */\n    tag_319:\n        /* \"#utility.yul\":6512:6517   */\n      0x00\n        /* \"#utility.yul\":6543:6549   */\n      dup2\n        /* \"#utility.yul\":6537:6550   */\n      mload\n        /* \"#utility.yul\":6528:6550   */\n      swap1\n      pop\n        /* \"#utility.yul\":6559:6591   */\n      tag_411\n        /* \"#utility.yul\":6585:6590   */\n      dup2\n        /* \"#utility.yul\":6559:6591   */\n      tag_318\n      jump\t// in\n    tag_411:\n        /* \"#utility.yul\":6456:6597   */\n      swap3\n      swap2\n      pop\n      pop\n      jump\t// out\n        /* \"#utility.yul\":6603:6723   */\n    tag_320:\n        /* \"#utility.yul\":6675:6698   */\n      tag_413\n        /* \"#utility.yul\":6692:6697   */\n      dup2\n        /* \"#utility.yul\":6675:6698   */\n      tag_305\n      jump\t// in\n    tag_413:\n        /* \"#utility.yul\":6668:6673   */\n      dup2\n        /* \"#utility.yul\":6665:6699   */\n      eq\n        /* \"#utility.yul\":6655:6717   */\n      tag_414\n      jumpi\n        /* \"#utility.yul\":6713:6714   */\n      0x00\n        /* \"#utility.yul\":6710:6711   */\n      dup1\n        /* \"#utility.yul\":6703:6715   */\n      revert\n        /* \"#utility.yul\":6655:6717   */\n    tag_414:\n        /* \"#utility.yul\":6603:6723   */\n      pop\n      jump\t// out\n        /* \"#utility.yul\":6729:6870   */\n    tag_321:\n        /* \"#utility.yul\":6785:6790   */\n      0x00\n        /* \"#utility.yul\":6816:6822   */\n      dup2\n        /* \"#utility.yul\":6810:6823   */\n      mload\n        /* \"#utility.yul\":6801:6823   */\n      swap1\n      pop\n        /* \"#utility.yul\":6832:6864   */\n      tag_416\n        /* \"#utility.yul\":6858:6863   */\n      dup2\n        /* \"#utility.yul\":6832:6864   */\n      tag_320\n      jump\t// in\n    tag_416:\n        /* \"#utility.yul\":6729:6870   */\n      swap3\n      swap2\n      pop\n      pop\n      jump\t// out\n        /* \"#utility.yul\":6876:7019   */\n    tag_322:\n        /* \"#utility.yul\":6933:6938   */\n      0x00\n        /* \"#utility.yul\":6964:6970   */\n      dup2\n        /* \"#utility.yul\":6958:6971   */\n      mload\n        /* \"#utility.yul\":6949:6971   */\n      swap1\n      pop\n        /* \"#utility.yul\":6980:7013   */\n      tag_418\n        /* \"#utility.yul\":7007:7012   */\n      dup2\n        /* \"#utility.yul\":6980:7013   */\n      tag_307\n      jump\t// in\n    tag_418:\n        /* \"#utility.yul\":6876:7019   */\n      swap3\n      swap2\n      pop\n      pop\n      jump\t// out\n        /* \"#utility.yul\":7025:7996   */\n    tag_88:\n        /* \"#utility.yul\":7128:7134   */\n      0x00\n        /* \"#utility.yul\":7136:7142   */\n      dup1\n        /* \"#utility.yul\":7144:7150   */\n      0x00\n        /* \"#utility.yul\":7152:7158   */\n      dup1\n        /* \"#utility.yul\":7160:7166   */\n      0x00\n        /* \"#utility.yul\":7209:7212   */\n      0xa0\n        /* \"#utility.yul\":7197:7206   */\n      dup7\n        /* \"#utility.yul\":7188:7195   */\n      dup9\n        /* \"#utility.yul\":7184:7207   */\n      sub\n        /* \"#utility.yul\":7180:7213   */\n      slt\n        /* \"#utility.yul\":7177:7297   */\n      iszero\n      tag_420\n      jumpi\n        /* \"#utility.yul\":7216:7295   */\n      tag_421\n      tag_301\n      jump\t// in\n    tag_421:\n        /* \"#utility.yul\":7177:7297   */\n    tag_420:\n        /* \"#utility.yul\":7336:7337   */\n      0x00\n        /* \"#utility.yul\":7361:7424   */\n      tag_422\n        /* \"#utility.yul\":7416:7423   */\n      dup9\n        /* \"#utility.yul\":7407:7413   */\n      dup3\n        /* \"#utility.yul\":7396:7405   */\n      dup10\n        /* \"#utility.yul\":7392:7414   */\n      add\n        /* \"#utility.yul\":7361:7424   */\n      tag_319\n      jump\t// in\n    tag_422:\n        /* \"#utility.yul\":7351:7424   */\n      swap6\n      pop\n        /* \"#utility.yul\":7307:7434   */\n      pop\n        /* \"#utility.yul\":7473:7475   */\n      0x20\n        /* \"#utility.yul\":7499:7562   */\n      tag_423\n        /* \"#utility.yul\":7554:7561   */\n      dup9\n        /* \"#utility.yul\":7545:7551   */\n      dup3\n        /* \"#utility.yul\":7534:7543   */\n      dup10\n        /* \"#utility.yul\":7530:7552   */\n      add\n        /* \"#utility.yul\":7499:7562   */\n      tag_321\n      jump\t// in\n    tag_423:\n        /* \"#utility.yul\":7489:7562   */\n      swap5\n      pop\n        /* \"#utility.yul\":7444:7572   */\n      pop\n        /* \"#utility.yul\":7611:7613   */\n      0x40\n        /* \"#utility.yul\":7637:7701   */\n      tag_424\n        /* \"#utility.yul\":7693:7700   */\n      dup9\n        /* \"#utility.yul\":7684:7690   */\n      dup3\n        /* \"#utility.yul\":7673:7682   */\n      dup10\n        /* \"#utility.yul\":7669:7691   */\n      add\n        /* \"#utility.yul\":7637:7701   */\n      tag_322\n      jump\t// in\n    tag_424:\n        /* \"#utility.yul\":7627:7701   */\n      swap4\n      pop\n        /* \"#utility.yul\":7582:7711   */\n      pop\n        /* \"#utility.yul\":7750:7752   */\n      0x60\n        /* \"#utility.yul\":7776:7840   */\n      tag_425\n        /* \"#utility.yul\":7832:7839   */\n      dup9\n        /* \"#utility.yul\":7823:7829   */\n      dup3\n        /* \"#utility.yul\":7812:7821   */\n      dup10\n        /* \"#utility.yul\":7808:7830   */\n      add\n        /* \"#utility.yul\":7776:7840   */\n      tag_322\n      jump\t// in\n    tag_425:\n        /* \"#utility.yul\":7766:7840   */\n      swap3\n      pop\n        /* \"#utility.yul\":7721:7850   */\n      pop\n        /* \"#utility.yul\":7889:7892   */\n      0x80\n        /* \"#utility.yul\":7916:7979   */\n      tag_426\n        /* \"#utility.yul\":7971:7978   */\n      dup9\n        /* \"#utility.yul\":7962:7968   */\n      dup3\n        /* \"#utility.yul\":7951:7960   */\n      dup10\n        /* \"#utility.yul\":7947:7969   */\n      add\n        /* \"#utility.yul\":7916:7979   */\n      tag_319\n      jump\t// in\n    tag_426:\n        /* \"#utility.yul\":7906:7979   */\n      swap2\n      pop\n        /* \"#utility.yul\":7860:7989   */\n      pop\n        /* \"#utility.yul\":7025:7996   */\n      swap3\n      swap6\n      pop\n      swap3\n      swap6\n      swap1\n      swap4\n      pop\n      jump\t// out\n        /* \"#utility.yul\":8002:8182   */\n    tag_323:\n        /* \"#utility.yul\":8050:8127   */\n      0x4e487b7100000000000000000000000000000000000000000000000000000000\n        /* \"#utility.yul\":8047:8048   */\n      0x00\n        /* \"#utility.yul\":8040:8128   */\n      mstore\n        /* \"#utility.yul\":8147:8151   */\n      0x11\n        /* \"#utility.yul\":8144:8145   */\n      0x04\n        /* \"#utility.yul\":8137:8152   */\n      mstore\n        /* \"#utility.yul\":8171:8175   */\n      0x24\n        /* \"#utility.yul\":8168:8169   */\n      0x00\n        /* \"#utility.yul\":8161:8176   */\n      revert\n        /* \"#utility.yul\":8188:8744   */\n    tag_94:\n        /* \"#utility.yul\":8227:8234   */\n      0x00\n        /* \"#utility.yul\":8250:8269   */\n      tag_429\n        /* \"#utility.yul\":8267:8268   */\n      dup3\n        /* \"#utility.yul\":8250:8269   */\n      tag_305\n      jump\t// in\n    tag_429:\n        /* \"#utility.yul\":8245:8269   */\n      swap2\n      pop\n        /* \"#utility.yul\":8283:8302   */\n      tag_430\n        /* \"#utility.yul\":8300:8301   */\n      dup4\n        /* \"#utility.yul\":8283:8302   */\n      tag_305\n      jump\t// in\n    tag_430:\n        /* \"#utility.yul\":8278:8302   */\n      swap3\n      pop\n        /* \"#utility.yul\":8337:8338   */\n      dup3\n        /* \"#utility.yul\":8334:8335   */\n      dup3\n        /* \"#utility.yul\":8330:8339   */\n      mul\n        /* \"#utility.yul\":8359:8388   */\n      tag_431\n        /* \"#utility.yul\":8376:8387   */\n      dup2\n        /* \"#utility.yul\":8359:8388   */\n      tag_305\n      jump\t// in\n    tag_431:\n        /* \"#utility.yul\":8348:8388   */\n      swap2\n      pop\n        /* \"#utility.yul\":8446:8512   */\n      0x8000000000000000000000000000000000000000000000000000000000000000\n        /* \"#utility.yul\":8443:8444   */\n      dup5\n        /* \"#utility.yul\":8440:8513   */\n      eq\n        /* \"#utility.yul\":8436:8437   */\n      0x00\n        /* \"#utility.yul\":8433:8434   */\n      dup5\n        /* \"#utility.yul\":8429:8438   */\n      slt\n        /* \"#utility.yul\":8425:8514   */\n      and\n        /* \"#utility.yul\":8422:8537   */\n      iszero\n      tag_432\n      jumpi\n        /* \"#utility.yul\":8517:8535   */\n      tag_433\n      tag_323\n      jump\t// in\n    tag_433:\n        /* \"#utility.yul\":8422:8537   */\n    tag_432:\n        /* \"#utility.yul\":8687:8688   */\n      dup3\n        /* \"#utility.yul\":8678:8685   */\n      dup3\n        /* \"#utility.yul\":8673:8689   */\n      sdiv\n        /* \"#utility.yul\":8670:8671   */\n      dup5\n        /* \"#utility.yul\":8667:8690   */\n      eq\n        /* \"#utility.yul\":8647:8648   */\n      dup4\n        /* \"#utility.yul\":8640:8649   */\n      iszero\n        /* \"#utility.yul\":8620:8704   */\n      or\n        /* \"#utility.yul\":8597:8737   */\n      tag_434\n      jumpi\n        /* \"#utility.yul\":8717:8735   */\n      tag_435\n      tag_323\n      jump\t// in\n    tag_435:\n        /* \"#utility.yul\":8597:8737   */\n    tag_434:\n        /* \"#utility.yul\":8235:8744   */\n      pop\n        /* \"#utility.yul\":8188:8744   */\n      swap3\n      swap2\n      pop\n      pop\n      jump\t// out\n        /* \"#utility.yul\":8750:9160   */\n    tag_99:\n        /* \"#utility.yul\":8790:8797   */\n      0x00\n        /* \"#utility.yul\":8813:8833   */\n      tag_437\n        /* \"#utility.yul\":8831:8832   */\n      dup3\n        /* \"#utility.yul\":8813:8833   */\n      tag_295\n      jump\t// in\n    tag_437:\n        /* \"#utility.yul\":8808:8833   */\n      swap2\n      pop\n        /* \"#utility.yul\":8847:8867   */\n      tag_438\n        /* \"#utility.yul\":8865:8866   */\n      dup4\n        /* \"#utility.yul\":8847:8867   */\n      tag_295\n      jump\t// in\n    tag_438:\n        /* \"#utility.yul\":8842:8867   */\n      swap3\n      pop\n        /* \"#utility.yul\":8902:8903   */\n      dup3\n        /* \"#utility.yul\":8899:8900   */\n      dup3\n        /* \"#utility.yul\":8895:8904   */\n      mul\n        /* \"#utility.yul\":8924:8954   */\n      tag_439\n        /* \"#utility.yul\":8942:8953   */\n      dup2\n        /* \"#utility.yul\":8924:8954   */\n      tag_295\n      jump\t// in\n    tag_439:\n        /* \"#utility.yul\":8913:8954   */\n      swap2\n      pop\n        /* \"#utility.yul\":9103:9104   */\n      dup3\n        /* \"#utility.yul\":9094:9101   */\n      dup3\n        /* \"#utility.yul\":9090:9105   */\n      div\n        /* \"#utility.yul\":9087:9088   */\n      dup5\n        /* \"#utility.yul\":9084:9106   */\n      eq\n        /* \"#utility.yul\":9064:9065   */\n      dup4\n        /* \"#utility.yul\":9057:9066   */\n      iszero\n        /* \"#utility.yul\":9037:9120   */\n      or\n        /* \"#utility.yul\":9014:9153   */\n      tag_440\n      jumpi\n        /* \"#utility.yul\":9133:9151   */\n      tag_441\n      tag_323\n      jump\t// in\n    tag_441:\n        /* \"#utility.yul\":9014:9153   */\n    tag_440:\n        /* \"#utility.yul\":8798:9160   */\n      pop\n        /* \"#utility.yul\":8750:9160   */\n      swap3\n      swap2\n      pop\n      pop\n      jump\t// out\n        /* \"#utility.yul\":9166:9346   */\n    tag_324:\n        /* \"#utility.yul\":9214:9291   */\n      0x4e487b7100000000000000000000000000000000000000000000000000000000\n        /* \"#utility.yul\":9211:9212   */\n      0x00\n        /* \"#utility.yul\":9204:9292   */\n      mstore\n        /* \"#utility.yul\":9311:9315   */\n      0x12\n        /* \"#utility.yul\":9308:9309   */\n      0x04\n        /* \"#utility.yul\":9301:9316   */\n      mstore\n        /* \"#utility.yul\":9335:9339   */\n      0x24\n        /* \"#utility.yul\":9332:9333   */\n      0x00\n        /* \"#utility.yul\":9325:9340   */\n      revert\n        /* \"#utility.yul\":9352:9537   */\n    tag_102:\n        /* \"#utility.yul\":9392:9393   */\n      0x00\n        /* \"#utility.yul\":9409:9429   */\n      tag_444\n        /* \"#utility.yul\":9427:9428   */\n      dup3\n        /* \"#utility.yul\":9409:9429   */\n      tag_295\n      jump\t// in\n    tag_444:\n        /* \"#utility.yul\":9404:9429   */\n      swap2\n      pop\n        /* \"#utility.yul\":9443:9463   */\n      tag_445\n        /* \"#utility.yul\":9461:9462   */\n      dup4\n        /* \"#utility.yul\":9443:9463   */\n      tag_295\n      jump\t// in\n    tag_445:\n        /* \"#utility.yul\":9438:9463   */\n      swap3\n      pop\n        /* \"#utility.yul\":9482:9483   */\n      dup3\n        /* \"#utility.yul\":9472:9507   */\n      tag_446\n      jumpi\n        /* \"#utility.yul\":9487:9505   */\n      tag_447\n      tag_324\n      jump\t// in\n    tag_447:\n        /* \"#utility.yul\":9472:9507   */\n    tag_446:\n        /* \"#utility.yul\":9529:9530   */\n      dup3\n        /* \"#utility.yul\":9526:9527   */\n      dup3\n        /* \"#utility.yul\":9522:9531   */\n      div\n        /* \"#utility.yul\":9517:9531   */\n      swap1\n      pop\n        /* \"#utility.yul\":9352:9537   */\n      swap3\n      swap2\n      pop\n      pop\n      jump\t// out\n        /* \"#utility.yul\":9543:9894   */\n    tag_110:\n        /* \"#utility.yul\":9613:9619   */\n      0x00\n        /* \"#utility.yul\":9662:9664   */\n      0x20\n        /* \"#utility.yul\":9650:9659   */\n      dup3\n        /* \"#utility.yul\":9641:9648   */\n      dup5\n        /* \"#utility.yul\":9637:9660   */\n      sub\n        /* \"#utility.yul\":9633:9665   */\n      slt\n        /* \"#utility.yul\":9630:9749   */\n      iszero\n      tag_449\n      jumpi\n        /* \"#utility.yul\":9668:9747   */\n      tag_450\n      tag_301\n      jump\t// in\n    tag_450:\n        /* \"#utility.yul\":9630:9749   */\n    tag_449:\n        /* \"#utility.yul\":9788:9789   */\n      0x00\n        /* \"#utility.yul\":9813:9877   */\n      tag_451\n        /* \"#utility.yul\":9869:9876   */\n      dup5\n        /* \"#utility.yul\":9860:9866   */\n      dup3\n        /* \"#utility.yul\":9849:9858   */\n      dup6\n        /* \"#utility.yul\":9845:9867   */\n      add\n        /* \"#utility.yul\":9813:9877   */\n      tag_322\n      jump\t// in\n    tag_451:\n        /* \"#utility.yul\":9803:9877   */\n      swap2\n      pop\n        /* \"#utility.yul\":9759:9887   */\n      pop\n        /* \"#utility.yul\":9543:9894   */\n      swap3\n      swap2\n      pop\n      pop\n      jump\t// out\n        /* \"#utility.yul\":9900:10285   */\n    tag_132:\n        /* \"#utility.yul\":9939:9940   */\n      0x00\n        /* \"#utility.yul\":9956:9975   */\n      tag_453\n        /* \"#utility.yul\":9973:9974   */\n      dup3\n        /* \"#utility.yul\":9956:9975   */\n      tag_305\n      jump\t// in\n    tag_453:\n        /* \"#utility.yul\":9951:9975   */\n      swap2\n      pop\n        /* \"#utility.yul\":9989:10008   */\n      tag_454\n        /* \"#utility.yul\":10006:10007   */\n      dup4\n        /* \"#utility.yul\":9989:10008   */\n      tag_305\n      jump\t// in\n    tag_454:\n        /* \"#utility.yul\":9984:10008   */\n      swap3\n      pop\n        /* \"#utility.yul\":10027:10028   */\n      dup3\n        /* \"#utility.yul\":10017:10052   */\n      tag_455\n      jumpi\n        /* \"#utility.yul\":10032:10050   */\n      tag_456\n      tag_324\n      jump\t// in\n    tag_456:\n        /* \"#utility.yul\":10017:10052   */\n    tag_455:\n        /* \"#utility.yul\":10218:10219   */\n      0x01\n        /* \"#utility.yul\":10215:10216   */\n      0x00\n        /* \"#utility.yul\":10211:10220   */\n      sub\n        /* \"#utility.yul\":10208:10209   */\n      dup4\n        /* \"#utility.yul\":10205:10221   */\n      eq\n        /* \"#utility.yul\":10124:10190   */\n      0x8000000000000000000000000000000000000000000000000000000000000000\n        /* \"#utility.yul\":10121:10122   */\n      dup4\n        /* \"#utility.yul\":10118:10191   */\n      eq\n        /* \"#utility.yul\":10101:10231   */\n      and\n        /* \"#utility.yul\":10098:10254   */\n      iszero\n      tag_457\n      jumpi\n        /* \"#utility.yul\":10234:10252   */\n      tag_458\n      tag_323\n      jump\t// in\n    tag_458:\n        /* \"#utility.yul\":10098:10254   */\n    tag_457:\n        /* \"#utility.yul\":10277:10278   */\n      dup3\n        /* \"#utility.yul\":10274:10275   */\n      dup3\n        /* \"#utility.yul\":10269:10279   */\n      sdiv\n        /* \"#utility.yul\":10264:10279   */\n      swap1\n      pop\n        /* \"#utility.yul\":9900:10285   */\n      swap3\n      swap2\n      pop\n      pop\n      jump\t// out\n        /* \"#utility.yul\":10291:10461   */\n    tag_325:\n        /* \"#utility.yul\":10431:10453   */\n      0x526573657276657320617265206e6f7420736574000000000000000000000000\n        /* \"#utility.yul\":10427:10428   */\n      0x00\n        /* \"#utility.yul\":10419:10425   */\n      dup3\n        /* \"#utility.yul\":10415:10429   */\n      add\n        /* \"#utility.yul\":10408:10454   */\n      mstore\n        /* \"#utility.yul\":10291:10461   */\n      pop\n      jump\t// out\n        /* \"#utility.yul\":10467:10833   */\n    tag_326:\n        /* \"#utility.yul\":10609:10612   */\n      0x00\n        /* \"#utility.yul\":10630:10697   */\n      tag_461\n        /* \"#utility.yul\":10694:10696   */\n      0x14\n        /* \"#utility.yul\":10689:10692   */\n      dup4\n        /* \"#utility.yul\":10630:10697   */\n      tag_314\n      jump\t// in\n    tag_461:\n        /* \"#utility.yul\":10623:10697   */\n      swap2\n      pop\n        /* \"#utility.yul\":10706:10799   */\n      tag_462\n        /* \"#utility.yul\":10795:10798   */\n      dup3\n        /* \"#utility.yul\":10706:10799   */\n      tag_325\n      jump\t// in\n    tag_462:\n        /* \"#utility.yul\":10824:10826   */\n      0x20\n        /* \"#utility.yul\":10819:10822   */\n      dup3\n        /* \"#utility.yul\":10815:10827   */\n      add\n        /* \"#utility.yul\":10808:10827   */\n      swap1\n      pop\n        /* \"#utility.yul\":10467:10833   */\n      swap2\n      swap1\n      pop\n      jump\t// out\n        /* \"#utility.yul\":10839:11258   */\n    tag_148:\n        /* \"#utility.yul\":11005:11009   */\n      0x00\n        /* \"#utility.yul\":11043:11045   */\n      0x20\n        /* \"#utility.yul\":11032:11041   */\n      dup3\n        /* \"#utility.yul\":11028:11046   */\n      add\n        /* \"#utility.yul\":11020:11046   */\n      swap1\n      pop\n        /* \"#utility.yul\":11092:11101   */\n      dup2\n        /* \"#utility.yul\":11086:11090   */\n      dup2\n        /* \"#utility.yul\":11082:11102   */\n      sub\n        /* \"#utility.yul\":11078:11079   */\n      0x00\n        /* \"#utility.yul\":11067:11076   */\n      dup4\n        /* \"#utility.yul\":11063:11080   */\n      add\n        /* \"#utility.yul\":11056:11103   */\n      mstore\n        /* \"#utility.yul\":11120:11251   */\n      tag_464\n        /* \"#utility.yul\":11246:11250   */\n      dup2\n        /* \"#utility.yul\":11120:11251   */\n      tag_326\n      jump\t// in\n    tag_464:\n        /* \"#utility.yul\":11112:11251   */\n      swap1\n      pop\n        /* \"#utility.yul\":10839:11258   */\n      swap2\n      swap1\n      pop\n      jump\t// out\n        /* \"#utility.yul\":11264:11706   */\n    tag_179:\n        /* \"#utility.yul\":11413:11417   */\n      0x00\n        /* \"#utility.yul\":11451:11453   */\n      0x60\n        /* \"#utility.yul\":11440:11449   */\n      dup3\n        /* \"#utility.yul\":11436:11454   */\n      add\n        /* \"#utility.yul\":11428:11454   */\n      swap1\n      pop\n        /* \"#utility.yul\":11464:11535   */\n      tag_466\n        /* \"#utility.yul\":11532:11533   */\n      0x00\n        /* \"#utility.yul\":11521:11530   */\n      dup4\n        /* \"#utility.yul\":11517:11534   */\n      add\n        /* \"#utility.yul\":11508:11514   */\n      dup7\n        /* \"#utility.yul\":11464:11535   */\n      tag_299\n      jump\t// in\n    tag_466:\n        /* \"#utility.yul\":11545:11617   */\n      tag_467\n        /* \"#utility.yul\":11613:11615   */\n      0x20\n        /* \"#utility.yul\":11602:11611   */\n      dup4\n        /* \"#utility.yul\":11598:11616   */\n      add\n        /* \"#utility.yul\":11589:11595   */\n      dup6\n        /* \"#utility.yul\":11545:11617   */\n      tag_299\n      jump\t// in\n    tag_467:\n        /* \"#utility.yul\":11627:11699   */\n      tag_468\n        /* \"#utility.yul\":11695:11697   */\n      0x40\n        /* \"#utility.yul\":11684:11693   */\n      dup4\n        /* \"#utility.yul\":11680:11698   */\n      add\n        /* \"#utility.yul\":11671:11677   */\n      dup5\n        /* \"#utility.yul\":11627:11699   */\n      tag_296\n      jump\t// in\n    tag_468:\n        /* \"#utility.yul\":11264:11706   */\n      swap5\n      swap4\n      pop\n      pop\n      pop\n      pop\n      jump\t// out\n        /* \"#utility.yul\":11712:11802   */\n    tag_327:\n        /* \"#utility.yul\":11746:11753   */\n      0x00\n        /* \"#utility.yul\":11789:11794   */\n      dup2\n        /* \"#utility.yul\":11782:11795   */\n      iszero\n        /* \"#utility.yul\":11775:11796   */\n      iszero\n        /* \"#utility.yul\":11764:11796   */\n      swap1\n      pop\n        /* \"#utility.yul\":11712:11802   */\n      swap2\n      swap1\n      pop\n      jump\t// out\n        /* \"#utility.yul\":11808:11924   */\n    tag_328:\n        /* \"#utility.yul\":11878:11899   */\n      tag_471\n        /* \"#utility.yul\":11893:11898   */\n      dup2\n        /* \"#utility.yul\":11878:11899   */\n      tag_327\n      jump\t// in\n    tag_471:\n        /* \"#utility.yul\":11871:11876   */\n      dup2\n        /* \"#utility.yul\":11868:11900   */\n      eq\n        /* \"#utility.yul\":11858:11918   */\n      tag_472\n      jumpi\n        /* \"#utility.yul\":11914:11915   */\n      0x00\n        /* \"#utility.yul\":11911:11912   */\n      dup1\n        /* \"#utility.yul\":11904:11916   */\n      revert\n        /* \"#utility.yul\":11858:11918   */\n    tag_472:\n        /* \"#utility.yul\":11808:11924   */\n      pop\n      jump\t// out\n        /* \"#utility.yul\":11930:12067   */\n    tag_329:\n        /* \"#utility.yul\":11984:11989   */\n      0x00\n        /* \"#utility.yul\":12015:12021   */\n      dup2\n        /* \"#utility.yul\":12009:12022   */\n      mload\n        /* \"#utility.yul\":12000:12022   */\n      swap1\n      pop\n        /* \"#utility.yul\":12031:12061   */\n      tag_474\n        /* \"#utility.yul\":12055:12060   */\n      dup2\n        /* \"#utility.yul\":12031:12061   */\n      tag_328\n      jump\t// in\n    tag_474:\n        /* \"#utility.yul\":11930:12067   */\n      swap3\n      swap2\n      pop\n      pop\n      jump\t// out\n        /* \"#utility.yul\":12073:12418   */\n    tag_183:\n        /* \"#utility.yul\":12140:12146   */\n      0x00\n        /* \"#utility.yul\":12189:12191   */\n      0x20\n        /* \"#utility.yul\":12177:12186   */\n      dup3\n        /* \"#utility.yul\":12168:12175   */\n      dup5\n        /* \"#utility.yul\":12164:12187   */\n      sub\n        /* \"#utility.yul\":12160:12192   */\n      slt\n        /* \"#utility.yul\":12157:12276   */\n      iszero\n      tag_476\n      jumpi\n        /* \"#utility.yul\":12195:12274   */\n      tag_477\n      tag_301\n      jump\t// in\n    tag_477:\n        /* \"#utility.yul\":12157:12276   */\n    tag_476:\n        /* \"#utility.yul\":12315:12316   */\n      0x00\n        /* \"#utility.yul\":12340:12401   */\n      tag_478\n        /* \"#utility.yul\":12393:12400   */\n      dup5\n        /* \"#utility.yul\":12384:12390   */\n      dup3\n        /* \"#utility.yul\":12373:12382   */\n      dup6\n        /* \"#utility.yul\":12369:12391   */\n      add\n        /* \"#utility.yul\":12340:12401   */\n      tag_329\n      jump\t// in\n    tag_478:\n        /* \"#utility.yul\":12330:12401   */\n      swap2\n      pop\n        /* \"#utility.yul\":12286:12411   */\n      pop\n        /* \"#utility.yul\":12073:12418   */\n      swap3\n      swap2\n      pop\n      pop\n      jump\t// out\n        /* \"#utility.yul\":12424:12615   */\n    tag_190:\n        /* \"#utility.yul\":12464:12467   */\n      0x00\n        /* \"#utility.yul\":12483:12503   */\n      tag_480\n        /* \"#utility.yul\":12501:12502   */\n      dup3\n        /* \"#utility.yul\":12483:12503   */\n      tag_295\n      jump\t// in\n    tag_480:\n        /* \"#utility.yul\":12478:12503   */\n      swap2\n      pop\n        /* \"#utility.yul\":12517:12537   */\n      tag_481\n        /* \"#utility.yul\":12535:12536   */\n      dup4\n        /* \"#utility.yul\":12517:12537   */\n      tag_295\n      jump\t// in\n    tag_481:\n        /* \"#utility.yul\":12512:12537   */\n      swap3\n      pop\n        /* \"#utility.yul\":12560:12561   */\n      dup3\n        /* \"#utility.yul\":12557:12558   */\n      dup3\n        /* \"#utility.yul\":12553:12562   */\n      add\n        /* \"#utility.yul\":12546:12562   */\n      swap1\n      pop\n        /* \"#utility.yul\":12581:12584   */\n      dup1\n        /* \"#utility.yul\":12578:12579   */\n      dup3\n        /* \"#utility.yul\":12575:12585   */\n      gt\n        /* \"#utility.yul\":12572:12608   */\n      iszero\n      tag_482\n      jumpi\n        /* \"#utility.yul\":12588:12606   */\n      tag_483\n      tag_323\n      jump\t// in\n    tag_483:\n        /* \"#utility.yul\":12572:12608   */\n    tag_482:\n        /* \"#utility.yul\":12424:12615   */\n      swap3\n      swap2\n      pop\n      pop\n      jump\t// out\n        /* \"#utility.yul\":12621:12815   */\n    tag_192:\n        /* \"#utility.yul\":12661:12665   */\n      0x00\n        /* \"#utility.yul\":12681:12701   */\n      tag_485\n        /* \"#utility.yul\":12699:12700   */\n      dup3\n        /* \"#utility.yul\":12681:12701   */\n      tag_295\n      jump\t// in\n    tag_485:\n        /* \"#utility.yul\":12676:12701   */\n      swap2\n      pop\n        /* \"#utility.yul\":12715:12735   */\n      tag_486\n        /* \"#utility.yul\":12733:12734   */\n      dup4\n        /* \"#utility.yul\":12715:12735   */\n      tag_295\n      jump\t// in\n    tag_486:\n        /* \"#utility.yul\":12710:12735   */\n      swap3\n      pop\n        /* \"#utility.yul\":12759:12760   */\n      dup3\n        /* \"#utility.yul\":12756:12757   */\n      dup3\n        /* \"#utility.yul\":12752:12761   */\n      sub\n        /* \"#utility.yul\":12744:12761   */\n      swap1\n      pop\n        /* \"#utility.yul\":12783:12784   */\n      dup2\n        /* \"#utility.yul\":12777:12781   */\n      dup2\n        /* \"#utility.yul\":12774:12785   */\n      gt\n        /* \"#utility.yul\":12771:12808   */\n      iszero\n      tag_487\n      jumpi\n        /* \"#utility.yul\":12788:12806   */\n      tag_488\n      tag_323\n      jump\t// in\n    tag_488:\n        /* \"#utility.yul\":12771:12808   */\n    tag_487:\n        /* \"#utility.yul\":12621:12815   */\n      swap3\n      swap2\n      pop\n      pop\n      jump\t// out\n        /* \"#utility.yul\":12821:12993   */\n    tag_330:\n        /* \"#utility.yul\":12961:12985   */\n      0x496e73756666696369656e74206c697175696469747900000000000000000000\n        /* \"#utility.yul\":12957:12958   */\n      0x00\n        /* \"#utility.yul\":12949:12955   */\n      dup3\n        /* \"#utility.yul\":12945:12959   */\n      add\n        /* \"#utility.yul\":12938:12986   */\n      mstore\n        /* \"#utility.yul\":12821:12993   */\n      pop\n      jump\t// out\n        /* \"#utility.yul\":12999:13365   */\n    tag_331:\n        /* \"#utility.yul\":13141:13144   */\n      0x00\n        /* \"#utility.yul\":13162:13229   */\n      tag_491\n        /* \"#utility.yul\":13226:13228   */\n      0x16\n        /* \"#utility.yul\":13221:13224   */\n      dup4\n        /* \"#utility.yul\":13162:13229   */\n      tag_314\n      jump\t// in\n    tag_491:\n        /* \"#utility.yul\":13155:13229   */\n      swap2\n      pop\n        /* \"#utility.yul\":13238:13331   */\n      tag_492\n        /* \"#utility.yul\":13327:13330   */\n      dup3\n        /* \"#utility.yul\":13238:13331   */\n      tag_330\n      jump\t// in\n    tag_492:\n        /* \"#utility.yul\":13356:13358   */\n      0x20\n        /* \"#utility.yul\":13351:13354   */\n      dup3\n        /* \"#utility.yul\":13347:13359   */\n      add\n        /* \"#utility.yul\":13340:13359   */\n      swap1\n      pop\n        /* \"#utility.yul\":12999:13365   */\n      swap2\n      swap1\n      pop\n      jump\t// out\n        /* \"#utility.yul\":13371:13790   */\n    tag_215:\n        /* \"#utility.yul\":13537:13541   */\n      0x00\n        /* \"#utility.yul\":13575:13577   */\n      0x20\n        /* \"#utility.yul\":13564:13573   */\n      dup3\n        /* \"#utility.yul\":13560:13578   */\n      add\n        /* \"#utility.yul\":13552:13578   */\n      swap1\n      pop\n        /* \"#utility.yul\":13624:13633   */\n      dup2\n        /* \"#utility.yul\":13618:13622   */\n      dup2\n        /* \"#utility.yul\":13614:13634   */\n      sub\n        /* \"#utility.yul\":13610:13611   */\n      0x00\n        /* \"#utility.yul\":13599:13608   */\n      dup4\n        /* \"#utility.yul\":13595:13612   */\n      add\n        /* \"#utility.yul\":13588:13635   */\n      mstore\n        /* \"#utility.yul\":13652:13783   */\n      tag_494\n        /* \"#utility.yul\":13778:13782   */\n      dup2\n        /* \"#utility.yul\":13652:13783   */\n      tag_331\n      jump\t// in\n    tag_494:\n        /* \"#utility.yul\":13644:13783   */\n      swap1\n      pop\n        /* \"#utility.yul\":13371:13790   */\n      swap2\n      swap1\n      pop\n      jump\t// out\n        /* \"#utility.yul\":13796:13976   */\n    tag_332:\n        /* \"#utility.yul\":13936:13968   */\n      0x496e73756666696369656e74206c69717569646974792072656d6f7665640000\n        /* \"#utility.yul\":13932:13933   */\n      0x00\n        /* \"#utility.yul\":13924:13930   */\n      dup3\n        /* \"#utility.yul\":13920:13934   */\n      add\n        /* \"#utility.yul\":13913:13969   */\n      mstore\n        /* \"#utility.yul\":13796:13976   */\n      pop\n      jump\t// out\n        /* \"#utility.yul\":13982:14348   */\n    tag_333:\n        /* \"#utility.yul\":14124:14127   */\n      0x00\n        /* \"#utility.yul\":14145:14212   */\n      tag_497\n        /* \"#utility.yul\":14209:14211   */\n      0x1e\n        /* \"#utility.yul\":14204:14207   */\n      dup4\n        /* \"#utility.yul\":14145:14212   */\n      tag_314\n      jump\t// in\n    tag_497:\n        /* \"#utility.yul\":14138:14212   */\n      swap2\n      pop\n        /* \"#utility.yul\":14221:14314   */\n      tag_498\n        /* \"#utility.yul\":14310:14313   */\n      dup3\n        /* \"#utility.yul\":14221:14314   */\n      tag_332\n      jump\t// in\n    tag_498:\n        /* \"#utility.yul\":14339:14341   */\n      0x20\n        /* \"#utility.yul\":14334:14337   */\n      dup3\n        /* \"#utility.yul\":14330:14342   */\n      add\n        /* \"#utility.yul\":14323:14342   */\n      swap1\n      pop\n        /* \"#utility.yul\":13982:14348   */\n      swap2\n      swap1\n      pop\n      jump\t// out\n        /* \"#utility.yul\":14354:14773   */\n    tag_229:\n        /* \"#utility.yul\":14520:14524   */\n      0x00\n        /* \"#utility.yul\":14558:14560   */\n      0x20\n        /* \"#utility.yul\":14547:14556   */\n      dup3\n        /* \"#utility.yul\":14543:14561   */\n      add\n        /* \"#utility.yul\":14535:14561   */\n      swap1\n      pop\n        /* \"#utility.yul\":14607:14616   */\n      dup2\n        /* \"#utility.yul\":14601:14605   */\n      dup2\n        /* \"#utility.yul\":14597:14617   */\n      sub\n        /* \"#utility.yul\":14593:14594   */\n      0x00\n        /* \"#utility.yul\":14582:14591   */\n      dup4\n        /* \"#utility.yul\":14578:14595   */\n      add\n        /* \"#utility.yul\":14571:14618   */\n      mstore\n        /* \"#utility.yul\":14635:14766   */\n      tag_500\n        /* \"#utility.yul\":14761:14765   */\n      dup2\n        /* \"#utility.yul\":14635:14766   */\n      tag_333\n      jump\t// in\n    tag_500:\n        /* \"#utility.yul\":14627:14766   */\n      swap1\n      pop\n        /* \"#utility.yul\":14354:14773   */\n      swap2\n      swap1\n      pop\n      jump\t// out\n        /* \"#utility.yul\":14779:15443   */\n    tag_245:\n        /* \"#utility.yul\":14984:14988   */\n      0x00\n        /* \"#utility.yul\":15022:15025   */\n      0xa0\n        /* \"#utility.yul\":15011:15020   */\n      dup3\n        /* \"#utility.yul\":15007:15026   */\n      add\n        /* \"#utility.yul\":14999:15026   */\n      swap1\n      pop\n        /* \"#utility.yul\":15036:15107   */\n      tag_502\n        /* \"#utility.yul\":15104:15105   */\n      0x00\n        /* \"#utility.yul\":15093:15102   */\n      dup4\n        /* \"#utility.yul\":15089:15106   */\n      add\n        /* \"#utility.yul\":15080:15086   */\n      dup9\n        /* \"#utility.yul\":15036:15107   */\n      tag_296\n      jump\t// in\n    tag_502:\n        /* \"#utility.yul\":15117:15189   */\n      tag_503\n        /* \"#utility.yul\":15185:15187   */\n      0x20\n        /* \"#utility.yul\":15174:15183   */\n      dup4\n        /* \"#utility.yul\":15170:15188   */\n      add\n        /* \"#utility.yul\":15161:15167   */\n      dup8\n        /* \"#utility.yul\":15117:15189   */\n      tag_296\n      jump\t// in\n    tag_503:\n        /* \"#utility.yul\":15199:15271   */\n      tag_504\n        /* \"#utility.yul\":15267:15269   */\n      0x40\n        /* \"#utility.yul\":15256:15265   */\n      dup4\n        /* \"#utility.yul\":15252:15270   */\n      add\n        /* \"#utility.yul\":15243:15249   */\n      dup7\n        /* \"#utility.yul\":15199:15271   */\n      tag_296\n      jump\t// in\n    tag_504:\n        /* \"#utility.yul\":15281:15353   */\n      tag_505\n        /* \"#utility.yul\":15349:15351   */\n      0x60\n        /* \"#utility.yul\":15338:15347   */\n      dup4\n        /* \"#utility.yul\":15334:15352   */\n      add\n        /* \"#utility.yul\":15325:15331   */\n      dup6\n        /* \"#utility.yul\":15281:15353   */\n      tag_296\n      jump\t// in\n    tag_505:\n        /* \"#utility.yul\":15363:15436   */\n      tag_506\n        /* \"#utility.yul\":15431:15434   */\n      0x80\n        /* \"#utility.yul\":15420:15429   */\n      dup4\n        /* \"#utility.yul\":15416:15435   */\n      add\n        /* \"#utility.yul\":15407:15413   */\n      dup5\n        /* \"#utility.yul\":15363:15436   */\n      tag_296\n      jump\t// in\n    tag_506:\n        /* \"#utility.yul\":14779:15443   */\n      swap7\n      swap6\n      pop\n      pop\n      pop\n      pop\n      pop\n      pop\n      jump\t// out\n        /* \"#utility.yul\":15449:15630   */\n    tag_334:\n        /* \"#utility.yul\":15589:15622   */\n      0x496e73756666696369656e74206c69717569646974792070726f766964656400\n        /* \"#utility.yul\":15585:15586   */\n      0x00\n        /* \"#utility.yul\":15577:15583   */\n      dup3\n        /* \"#utility.yul\":15573:15587   */\n      add\n        /* \"#utility.yul\":15566:15623   */\n      mstore\n        /* \"#utility.yul\":15449:15630   */\n      pop\n      jump\t// out\n        /* \"#utility.yul\":15636:16002   */\n    tag_335:\n        /* \"#utility.yul\":15778:15781   */\n      0x00\n        /* \"#utility.yul\":15799:15866   */\n      tag_509\n        /* \"#utility.yul\":15863:15865   */\n      0x1f\n        /* \"#utility.yul\":15858:15861   */\n      dup4\n        /* \"#utility.yul\":15799:15866   */\n      tag_314\n      jump\t// in\n    tag_509:\n        /* \"#utility.yul\":15792:15866   */\n      swap2\n      pop\n        /* \"#utility.yul\":15875:15968   */\n      tag_510\n        /* \"#utility.yul\":15964:15967   */\n      dup3\n        /* \"#utility.yul\":15875:15968   */\n      tag_334\n      jump\t// in\n    tag_510:\n        /* \"#utility.yul\":15993:15995   */\n      0x20\n        /* \"#utility.yul\":15988:15991   */\n      dup3\n        /* \"#utility.yul\":15984:15996   */\n      add\n        /* \"#utility.yul\":15977:15996   */\n      swap1\n      pop\n        /* \"#utility.yul\":15636:16002   */\n      swap2\n      swap1\n      pop\n      jump\t// out\n        /* \"#utility.yul\":16008:16427   */\n    tag_276:\n        /* \"#utility.yul\":16174:16178   */\n      0x00\n        /* \"#utility.yul\":16212:16214   */\n      0x20\n        /* \"#utility.yul\":16201:16210   */\n      dup3\n        /* \"#utility.yul\":16197:16215   */\n      add\n        /* \"#utility.yul\":16189:16215   */\n      swap1\n      pop\n        /* \"#utility.yul\":16261:16270   */\n      dup2\n        /* \"#utility.yul\":16255:16259   */\n      dup2\n        /* \"#utility.yul\":16251:16271   */\n      sub\n        /* \"#utility.yul\":16247:16248   */\n      0x00\n        /* \"#utility.yul\":16236:16245   */\n      dup4\n        /* \"#utility.yul\":16232:16249   */\n      add\n        /* \"#utility.yul\":16225:16272   */\n      mstore\n        /* \"#utility.yul\":16289:16420   */\n      tag_512\n        /* \"#utility.yul\":16415:16419   */\n      dup2\n        /* \"#utility.yul\":16289:16420   */\n      tag_335\n      jump\t// in\n    tag_512:\n        /* \"#utility.yul\":16281:16420   */\n      swap1\n      pop\n        /* \"#utility.yul\":16008:16427   */\n      swap2\n      swap1\n      pop\n      jump\t// out\n\n    auxdata: 0xa264697066735822122037286150b3f20ff346ca5f29aefc1ebd02c24bc8a77673463ed48ad45eddef4b64736f6c63430008140033\n}\n",
				"bytecode": {
					"linkReferences": {},
					"object": "608060405234801562000010575f80fd5b50604051620026c3380380620026c38339818101604052810190620000369190620001e5565b845f806101000a81548173ffffffffffffffffffffffffffffffffffffffff021916908373ffffffffffffffffffffffffffffffffffffffff1602179055508360015f6101000a81548173ffffffffffffffffffffffffffffffffffffffff021916908373ffffffffffffffffffffffffffffffffffffffff1602179055508260055f6101000a81548173ffffffffffffffffffffffffffffffffffffffff021916908373ffffffffffffffffffffffffffffffffffffffff1602179055508160065f6101000a81548173ffffffffffffffffffffffffffffffffffffffff021916908373ffffffffffffffffffffffffffffffffffffffff1602179055508060025f6101000a81548173ffffffffffffffffffffffffffffffffffffffff021916908373ffffffffffffffffffffffffffffffffffffffff160217905550505050505062000269565b5f80fd5b5f73ffffffffffffffffffffffffffffffffffffffff82169050919050565b5f620001af8262000184565b9050919050565b620001c181620001a3565b8114620001cc575f80fd5b50565b5f81519050620001df81620001b6565b92915050565b5f805f805f60a0868803121562000201576200020062000180565b5b5f6200021088828901620001cf565b95505060206200022388828901620001cf565b94505060406200023688828901620001cf565b93505060606200024988828901620001cf565b92505060806200025c88828901620001cf565b9150509295509295909350565b61244c80620002775f395ff3fe608060405234801561000f575f80fd5b50600436106100f3575f3560e01c80635fcbd28511610095578063bff46a4c11610064578063bff46a4c14610250578063d0e7e07e14610281578063d21220a71461029d578063f140a35a146102bb576100f3565b80635fcbd285146101da57806364e7b85a146101f8578063729132f914610214578063a996944c14610232576100f3565b8063443cb4bc116100d1578063443cb4bc146101645780635444a39d1461018257806354b2a7691461019e5780635a76f25e146101bc576100f3565b80630902f1ac146100f75780630dfe16811461011657806341976e0914610134575b5f80fd5b6100ff6102eb565b60405161010d929190611b9a565b60405180910390f35b61011e6102fb565b60405161012b9190611c00565b60405180910390f35b61014e60048036038101906101499190611c47565b61031e565b60405161015b9190611c8a565b60405180910390f35b61016c6105b1565b6040516101799190611ca3565b60405180910390f35b61019c60048036038101906101979190611ce6565b6105b7565b005b6101a66107d3565b6040516101b39190611c8a565b60405180910390f35b6101c4610940565b6040516101d19190611ca3565b60405180910390f35b6101e2610946565b6040516101ef9190611d6c565b60405180910390f35b610212600480360381019061020d9190611ce6565b61096b565b005b61021c610a30565b6040516102299190611ca3565b60405180910390f35b61023a610aaa565b6040516102479190611ca3565b60405180910390f35b61026a60048036038101906102659190611c47565b610bfb565b604051610278929190611d85565b60405180910390f35b61029b60048036038101906102969190611dac565b610cc6565b005b6102a5611054565b6040516102b29190611c00565b60405180910390f35b6102d560048036038101906102d09190611dac565b611079565b6040516102e29190611ca3565b60405180910390f35b5f80600354600454915091509091565b5f8054906101000a900473ffffffffffffffffffffffffffffffffffffffff1681565b5f805f9054906101000a900473ffffffffffffffffffffffffffffffffffffffff1673ffffffffffffffffffffffffffffffffffffffff168273ffffffffffffffffffffffffffffffffffffffff1614806103c5575060015f9054906101000a900473ffffffffffffffffffffffffffffffffffffffff1673ffffffffffffffffffffffffffffffffffffffff168273ffffffffffffffffffffffffffffffffffffffff16145b610404576040517f08c379a00000000000000000000000000000000000000000000000000000000081526004016103fb90611e44565b60405180910390fd5b5f805f9054906101000a900473ffffffffffffffffffffffffffffffffffffffff1673ffffffffffffffffffffffffffffffffffffffff168373ffffffffffffffffffffffffffffffffffffffff16036104fa5760055f9054906101000a900473ffffffffffffffffffffffffffffffffffffffff1673ffffffffffffffffffffffffffffffffffffffff1663feaf968c6040518163ffffffff1660e01b815260040160a060405180830381865afa1580156104c2573d5f803e3d5ffd5b505050506040513d601f19601f820116820180604052508101906104e69190611edf565b909192935090915090505080915050610598565b60065f9054906101000a900473ffffffffffffffffffffffffffffffffffffffff1673ffffffffffffffffffffffffffffffffffffffff1663feaf968c6040518163ffffffff1660e01b815260040160a060405180830381865afa158015610564573d5f803e3d5ffd5b505050506040513d601f19601f820116820180604052508101906105889190611edf565b9091929350909150905050809150505b6402540be400816105a99190611f83565b915050919050565b60035481565b5f6105e05f8054906101000a900473ffffffffffffffffffffffffffffffffffffffff1661031e565b90505f61060d60015f9054906101000a900473ffffffffffffffffffffffffffffffffffffffff1661031e565b90505f82600261061d9190611ff9565b670de0b6b3a7640000856106319190611ff9565b61063b9190612067565b90505f82600261064b9190611ff9565b670de0b6b3a76400008661065f9190611ff9565b6106699190612067565b90505f6107c060035460025f9054906101000a900473ffffffffffffffffffffffffffffffffffffffff1673ffffffffffffffffffffffffffffffffffffffff166318160ddd6040518163ffffffff1660e01b8152600401602060405180830381865afa1580156106dc573d5f803e3d5ffd5b505050506040513d601f19601f820116820180604052508101906107009190612097565b8561070b9190611ff9565b6107159190612067565b60045460025f9054906101000a900473ffffffffffffffffffffffffffffffffffffffff1673ffffffffffffffffffffffffffffffffffffffff166318160ddd6040518163ffffffff1660e01b8152600401602060405180830381865afa158015610782573d5f803e3d5ffd5b505050506040513d601f19601f820116820180604052508101906107a69190612097565b856107b19190611ff9565b6107bb9190612067565b611225565b90506107cb8161123d565b505050505050565b5f8060055f9054906101000a900473ffffffffffffffffffffffffffffffffffffffff1673ffffffffffffffffffffffffffffffffffffffff1663feaf968c6040518163ffffffff1660e01b815260040160a060405180830381865afa15801561083f573d5f803e3d5ffd5b505050506040513d601f19601f820116820180604052508101906108639190611edf565b5050509150505f60065f9054906101000a900473ffffffffffffffffffffffffffffffffffffffff1673ffffffffffffffffffffffffffffffffffffffff1663feaf968c6040518163ffffffff1660e01b815260040160a060405180830381865afa1580156108d4573d5f803e3d5ffd5b505050506040513d601f19601f820116820180604052508101906108f89190611edf565b5050509150506402540be4008161090f9190611f83565b6305f5e1006402540be400846109259190611f83565b61092f9190611f83565b61093991906120c2565b9250505090565b60045481565b60025f9054906101000a900473ffffffffffffffffffffffffffffffffffffffff1681565b5f6109945f8054906101000a900473ffffffffffffffffffffffffffffffffffffffff1661031e565b90505f6109c160015f9054906101000a900473ffffffffffffffffffffffffffffffffffffffff1661031e565b90505f8260026109d19190611ff9565b670de0b6b3a7640000856109e59190611ff9565b6109ef9190612067565b90505f8260026109ff9190611ff9565b670de0b6b3a764000086610a139190611ff9565b610a1d9190612067565b9050610a29828261166e565b5050505050565b5f80600354118015610a4357505f600454115b610a82576040517f08c379a0000000000000000000000000000000000000000000000000000000008152600401610a7990612174565b60405180910390fd5b600354670de0b6b3a7640000600454610a9b9190611ff9565b610aa59190612067565b905090565b5f8060055f9054906101000a900473ffffffffffffffffffffffffffffffffffffffff1673ffffffffffffffffffffffffffffffffffffffff1663feaf968c6040518163ffffffff1660e01b815260040160a060405180830381865afa158015610b16573d5f803e3d5ffd5b505050506040513d601f19601f82011682018060405250810190610b3a9190611edf565b5050509150505f60065f9054906101000a900473ffffffffffffffffffffffffffffffffffffffff1673ffffffffffffffffffffffffffffffffffffffff1663feaf968c6040518163ffffffff1660e01b815260040160a060405180830381865afa158015610bab573d5f803e3d5ffd5b505050506040513d601f19601f82011682018060405250810190610bcf9190611edf565b50505091505080670de0b6b3a764000083610bea9190611ff9565b610bf49190612067565b9250505090565b5f805f60025f9054906101000a900473ffffffffffffffffffffffffffffffffffffffff1673ffffffffffffffffffffffffffffffffffffffff166370a08231856040518263ffffffff1660e01b8152600401610c589190611c00565b602060405180830381865afa158015610c73573d5f803e3d5ffd5b505050506040513d601f19601f82011682018060405250810190610c979190612097565b905060025f9054906101000a900473ffffffffffffffffffffffffffffffffffffffff16819250925050915091565b5f8054906101000a900473ffffffffffffffffffffffffffffffffffffffff1673ffffffffffffffffffffffffffffffffffffffff168173ffffffffffffffffffffffffffffffffffffffff161480610d6b575060015f9054906101000a900473ffffffffffffffffffffffffffffffffffffffff1673ffffffffffffffffffffffffffffffffffffffff168173ffffffffffffffffffffffffffffffffffffffff16145b610daa576040517f08c379a0000000000000000000000000000000000000000000000000000000008152600401610da190611e44565b60405180910390fd5b5f610dd35f8054906101000a900473ffffffffffffffffffffffffffffffffffffffff1661031e565b90505f610e0060015f9054906101000a900473ffffffffffffffffffffffffffffffffffffffff1661031e565b90505f805f9054906101000a900473ffffffffffffffffffffffffffffffffffffffff1673ffffffffffffffffffffffffffffffffffffffff168473ffffffffffffffffffffffffffffffffffffffff161490505f81610e7f575f8054906101000a900473ffffffffffffffffffffffffffffffffffffffff16610ea2565b60015f9054906101000a900473ffffffffffffffffffffffffffffffffffffffff165b90505f82610eb05783610eb2565b845b90505f81670de0b6b3a764000089610eca9190611ff9565b610ed49190612067565b90505f610ee18289611079565b90508773ffffffffffffffffffffffffffffffffffffffff166323b872dd3330856040518463ffffffff1660e01b8152600401610f2093929190612192565b6020604051808303815f875af1158015610f3c573d5f803e3d5ffd5b505050506040513d601f19601f82011682018060405250810190610f6091906121fc565b508373ffffffffffffffffffffffffffffffffffffffff1663a9059cbb33836040518363ffffffff1660e01b8152600401610f9c929190611d85565b6020604051808303815f875af1158015610fb8573d5f803e3d5ffd5b505050506040513d601f19601f82011682018060405250810190610fdc91906121fc565b508415611018578160035f828254610ff49190612227565b925050819055508060045f82825461100c919061225a565b92505081905550611049565b8160045f8282546110299190612227565b925050819055508060035f828254611041919061225a565b925050819055505b505050505050505050565b60015f9054906101000a900473ffffffffffffffffffffffffffffffffffffffff1681565b5f805f9054906101000a900473ffffffffffffffffffffffffffffffffffffffff1673ffffffffffffffffffffffffffffffffffffffff168273ffffffffffffffffffffffffffffffffffffffff161480611120575060015f9054906101000a900473ffffffffffffffffffffffffffffffffffffffff1673ffffffffffffffffffffffffffffffffffffffff168273ffffffffffffffffffffffffffffffffffffffff16145b61115f576040517f08c379a000000000000000000000000000000000000000000000000000000000815260040161115690611e44565b60405180910390fd5b5f805f9054906101000a900473ffffffffffffffffffffffffffffffffffffffff1673ffffffffffffffffffffffffffffffffffffffff168373ffffffffffffffffffffffffffffffffffffffff161490505f816111bf576004546111c3565b6003545b90505f826111d3576003546111d7565b6004545b90505f6103e86103e5886111eb9190611ff9565b6111f59190612067565b905080836112039190612227565b828261120f9190611ff9565b6112199190612067565b94505050505092915050565b5f8183106112335781611235565b825b905092915050565b5f811161127f576040517f08c379a0000000000000000000000000000000000000000000000000000000008152600401611276906122d7565b60405180910390fd5b5f60025f9054906101000a900473ffffffffffffffffffffffffffffffffffffffff1673ffffffffffffffffffffffffffffffffffffffff166318160ddd6040518163ffffffff1660e01b8152600401602060405180830381865afa1580156112ea573d5f803e3d5ffd5b505050506040513d601f19601f8201168201806040525081019061130e9190612097565b6003548361131c9190611ff9565b6113269190612067565b90505f60025f9054906101000a900473ffffffffffffffffffffffffffffffffffffffff1673ffffffffffffffffffffffffffffffffffffffff166318160ddd6040518163ffffffff1660e01b8152600401602060405180830381865afa158015611393573d5f803e3d5ffd5b505050506040513d601f19601f820116820180604052508101906113b79190612097565b600454846113c59190611ff9565b6113cf9190612067565b90505f821180156113df57505f81115b61141e576040517f08c379a00000000000000000000000000000000000000000000000000000000081526004016114159061233f565b60405180910390fd5b60025f9054906101000a900473ffffffffffffffffffffffffffffffffffffffff1673ffffffffffffffffffffffffffffffffffffffff16639dc29fac33856040518363ffffffff1660e01b815260040161147a929190611d85565b5f604051808303815f87803b158015611491575f80fd5b505af11580156114a3573d5f803e3d5ffd5b505050505f8054906101000a900473ffffffffffffffffffffffffffffffffffffffff1673ffffffffffffffffffffffffffffffffffffffff1663a9059cbb33846040518363ffffffff1660e01b8152600401611501929190611d85565b6020604051808303815f875af115801561151d573d5f803e3d5ffd5b505050506040513d601f19601f8201168201806040525081019061154191906121fc565b5060015f9054906101000a900473ffffffffffffffffffffffffffffffffffffffff1673ffffffffffffffffffffffffffffffffffffffff1663a9059cbb33836040518363ffffffff1660e01b815260040161159e929190611d85565b6020604051808303815f875af11580156115ba573d5f803e3d5ffd5b505050506040513d601f19601f820116820180604052508101906115de91906121fc565b508160035f8282546115f0919061225a565b925050819055508060045f828254611608919061225a565b925050819055503373ffffffffffffffffffffffffffffffffffffffff167f04f7e4f53152cb2cd0e424b2fc990199f0ed4255c7a97a848131f1eeff165f7b83838660035460045460405161166195949392919061235d565b60405180910390a2505050565b5f8054906101000a900473ffffffffffffffffffffffffffffffffffffffff1673ffffffffffffffffffffffffffffffffffffffff166323b872dd3330856040518463ffffffff1660e01b81526004016116ca93929190612192565b6020604051808303815f875af11580156116e6573d5f803e3d5ffd5b505050506040513d601f19601f8201168201806040525081019061170a91906121fc565b5060015f9054906101000a900473ffffffffffffffffffffffffffffffffffffffff1673ffffffffffffffffffffffffffffffffffffffff166323b872dd3330846040518463ffffffff1660e01b815260040161176993929190612192565b6020604051808303815f875af1158015611785573d5f803e3d5ffd5b505050506040513d601f19601f820116820180604052508101906117a991906121fc565b505f8060025f9054906101000a900473ffffffffffffffffffffffffffffffffffffffff1673ffffffffffffffffffffffffffffffffffffffff166318160ddd6040518163ffffffff1660e01b8152600401602060405180830381865afa158015611816573d5f803e3d5ffd5b505050506040513d601f19601f8201168201806040525081019061183a9190612097565b0361185a57611853828461184e9190611ff9565b611b0b565b90506119b1565b6119ae60035460025f9054906101000a900473ffffffffffffffffffffffffffffffffffffffff1673ffffffffffffffffffffffffffffffffffffffff166318160ddd6040518163ffffffff1660e01b8152600401602060405180830381865afa1580156118ca573d5f803e3d5ffd5b505050506040513d601f19601f820116820180604052508101906118ee9190612097565b856118f99190611ff9565b6119039190612067565b60045460025f9054906101000a900473ffffffffffffffffffffffffffffffffffffffff1673ffffffffffffffffffffffffffffffffffffffff166318160ddd6040518163ffffffff1660e01b8152600401602060405180830381865afa158015611970573d5f803e3d5ffd5b505050506040513d601f19601f820116820180604052508101906119949190612097565b8561199f9190611ff9565b6119a99190612067565b611225565b90505b5f81116119f3576040517f08c379a00000000000000000000000000000000000000000000000000000000081526004016119ea906123f8565b60405180910390fd5b60025f9054906101000a900473ffffffffffffffffffffffffffffffffffffffff1673ffffffffffffffffffffffffffffffffffffffff166340c10f1933836040518363ffffffff1660e01b8152600401611a4f929190611d85565b5f604051808303815f87803b158015611a66575f80fd5b505af1158015611a78573d5f803e3d5ffd5b505050508260035f828254611a8d9190612227565b925050819055508160045f828254611aa59190612227565b925050819055503373ffffffffffffffffffffffffffffffffffffffff167f0103e5727ee41ce8741fbdf27e5e596deb21dbe5ae93901499306d10f28d1ef7848484600354600454604051611afe95949392919061235d565b60405180910390a2505050565b5f6003821115611b70578190505f6001600284611b289190612067565b611b329190612227565b90505b81811015611b6a578091506002818285611b4f9190612067565b611b599190612227565b611b639190612067565b9050611b35565b50611b7d565b5f8214611b7c57600190505b5b919050565b5f819050919050565b611b9481611b82565b82525050565b5f604082019050611bad5f830185611b8b565b611bba6020830184611b8b565b9392505050565b5f73ffffffffffffffffffffffffffffffffffffffff82169050919050565b5f611bea82611bc1565b9050919050565b611bfa81611be0565b82525050565b5f602082019050611c135f830184611bf1565b92915050565b5f80fd5b611c2681611be0565b8114611c30575f80fd5b50565b5f81359050611c4181611c1d565b92915050565b5f60208284031215611c5c57611c5b611c19565b5b5f611c6984828501611c33565b91505092915050565b5f819050919050565b611c8481611c72565b82525050565b5f602082019050611c9d5f830184611c7b565b92915050565b5f602082019050611cb65f830184611b8b565b92915050565b611cc581611b82565b8114611ccf575f80fd5b50565b5f81359050611ce081611cbc565b92915050565b5f60208284031215611cfb57611cfa611c19565b5b5f611d0884828501611cd2565b91505092915050565b5f819050919050565b5f611d34611d2f611d2a84611bc1565b611d11565b611bc1565b9050919050565b5f611d4582611d1a565b9050919050565b5f611d5682611d3b565b9050919050565b611d6681611d4c565b82525050565b5f602082019050611d7f5f830184611d5d565b92915050565b5f604082019050611d985f830185611bf1565b611da56020830184611b8b565b9392505050565b5f8060408385031215611dc257611dc1611c19565b5b5f611dcf85828601611cd2565b9250506020611de085828601611c33565b9150509250929050565b5f82825260208201905092915050565b7f496e76616c696420696e70757420746f6b656e000000000000000000000000005f82015250565b5f611e2e601383611dea565b9150611e3982611dfa565b602082019050919050565b5f6020820190508181035f830152611e5b81611e22565b9050919050565b5f69ffffffffffffffffffff82169050919050565b611e8081611e62565b8114611e8a575f80fd5b50565b5f81519050611e9b81611e77565b92915050565b611eaa81611c72565b8114611eb4575f80fd5b50565b5f81519050611ec581611ea1565b92915050565b5f81519050611ed981611cbc565b92915050565b5f805f805f60a08688031215611ef857611ef7611c19565b5b5f611f0588828901611e8d565b9550506020611f1688828901611eb7565b9450506040611f2788828901611ecb565b9350506060611f3888828901611ecb565b9250506080611f4988828901611e8d565b9150509295509295909350565b7f4e487b71000000000000000000000000000000000000000000000000000000005f52601160045260245ffd5b5f611f8d82611c72565b9150611f9883611c72565b9250828202611fa681611c72565b91507f800000000000000000000000000000000000000000000000000000000000000084145f84121615611fdd57611fdc611f56565b5b8282058414831517611ff257611ff1611f56565b5b5092915050565b5f61200382611b82565b915061200e83611b82565b925082820261201c81611b82565b9150828204841483151761203357612032611f56565b5b5092915050565b7f4e487b71000000000000000000000000000000000000000000000000000000005f52601260045260245ffd5b5f61207182611b82565b915061207c83611b82565b92508261208c5761208b61203a565b5b828204905092915050565b5f602082840312156120ac576120ab611c19565b5b5f6120b984828501611ecb565b91505092915050565b5f6120cc82611c72565b91506120d783611c72565b9250826120e7576120e661203a565b5b60015f0383147f80000000000000000000000000000000000000000000000000000000000000008314161561211f5761211e611f56565b5b828205905092915050565b7f526573657276657320617265206e6f74207365740000000000000000000000005f82015250565b5f61215e601483611dea565b91506121698261212a565b602082019050919050565b5f6020820190508181035f83015261218b81612152565b9050919050565b5f6060820190506121a55f830186611bf1565b6121b26020830185611bf1565b6121bf6040830184611b8b565b949350505050565b5f8115159050919050565b6121db816121c7565b81146121e5575f80fd5b50565b5f815190506121f6816121d2565b92915050565b5f6020828403121561221157612210611c19565b5b5f61221e848285016121e8565b91505092915050565b5f61223182611b82565b915061223c83611b82565b925082820190508082111561225457612253611f56565b5b92915050565b5f61226482611b82565b915061226f83611b82565b925082820390508181111561228757612286611f56565b5b92915050565b7f496e73756666696369656e74206c6971756964697479000000000000000000005f82015250565b5f6122c1601683611dea565b91506122cc8261228d565b602082019050919050565b5f6020820190508181035f8301526122ee816122b5565b9050919050565b7f496e73756666696369656e74206c69717569646974792072656d6f76656400005f82015250565b5f612329601e83611dea565b9150612334826122f5565b602082019050919050565b5f6020820190508181035f8301526123568161231d565b9050919050565b5f60a0820190506123705f830188611b8b565b61237d6020830187611b8b565b61238a6040830186611b8b565b6123976060830185611b8b565b6123a46080830184611b8b565b9695505050505050565b7f496e73756666696369656e74206c69717569646974792070726f7669646564005f82015250565b5f6123e2601f83611dea565b91506123ed826123ae565b602082019050919050565b5f6020820190508181035f83015261240f816123d6565b905091905056fea264697066735822122037286150b3f20ff346ca5f29aefc1ebd02c24bc8a77673463ed48ad45eddef4b64736f6c63430008140033",
					"opcodes": "PUSH1 0x80 PUSH1 0x40 MSTORE CALLVALUE DUP1 ISZERO PUSH3 0x10 JUMPI PUSH0 DUP1 REVERT JUMPDEST POP PUSH1 0x40 MLOAD PUSH3 0x26C3 CODESIZE SUB DUP1 PUSH3 0x26C3 DUP4 CODECOPY DUP2 DUP2 ADD PUSH1 0x40 MSTORE DUP2 ADD SWAP1 PUSH3 0x36 SWAP2 SWAP1 PUSH3 0x1E5 JUMP JUMPDEST DUP5 PUSH0 DUP1 PUSH2 0x100 EXP DUP2 SLOAD DUP2 PUSH20 0xFFFFFFFFFFFFFFFFFFFFFFFFFFFFFFFFFFFFFFFF MUL NOT AND SWAP1 DUP4 PUSH20 0xFFFFFFFFFFFFFFFFFFFFFFFFFFFFFFFFFFFFFFFF AND MUL OR SWAP1 SSTORE POP DUP4 PUSH1 0x1 PUSH0 PUSH2 0x100 EXP DUP2 SLOAD DUP2 PUSH20 0xFFFFFFFFFFFFFFFFFFFFFFFFFFFFFFFFFFFFFFFF MUL NOT AND SWAP1 DUP4 PUSH20 0xFFFFFFFFFFFFFFFFFFFFFFFFFFFFFFFFFFFFFFFF AND MUL OR SWAP1 SSTORE POP DUP3 PUSH1 0x5 PUSH0 PUSH2 0x100 EXP DUP2 SLOAD DUP2 PUSH20 0xFFFFFFFFFFFFFFFFFFFFFFFFFFFFFFFFFFFFFFFF MUL NOT AND SWAP1 DUP4 PUSH20 0xFFFFFFFFFFFFFFFFFFFFFFFFFFFFFFFFFFFFFFFF AND MUL OR SWAP1 SSTORE POP DUP2 PUSH1 0x6 PUSH0 PUSH2 0x100 EXP DUP2 SLOAD DUP2 PUSH20 0xFFFFFFFFFFFFFFFFFFFFFFFFFFFFFFFFFFFFFFFF MUL NOT AND SWAP1 DUP4 PUSH20 0xFFFFFFFFFFFFFFFFFFFFFFFFFFFFFFFFFFFFFFFF AND MUL OR SWAP1 SSTORE POP DUP1 PUSH1 0x2 PUSH0 PUSH2 0x100 EXP DUP2 SLOAD DUP2 PUSH20 0xFFFFFFFFFFFFFFFFFFFFFFFFFFFFFFFFFFFFFFFF MUL NOT AND SWAP1 DUP4 PUSH20 0xFFFFFFFFFFFFFFFFFFFFFFFFFFFFFFFFFFFFFFFF AND MUL OR SWAP1 SSTORE POP POP POP POP POP POP PUSH3 0x269 JUMP JUMPDEST PUSH0 DUP1 REVERT JUMPDEST PUSH0 PUSH20 0xFFFFFFFFFFFFFFFFFFFFFFFFFFFFFFFFFFFFFFFF DUP3 AND SWAP1 POP SWAP2 SWAP1 POP JUMP JUMPDEST PUSH0 PUSH3 0x1AF DUP3 PUSH3 0x184 JUMP JUMPDEST SWAP1 POP SWAP2 SWAP1 POP JUMP JUMPDEST PUSH3 0x1C1 DUP2 PUSH3 0x1A3 JUMP JUMPDEST DUP2 EQ PUSH3 0x1CC JUMPI PUSH0 DUP1 REVERT JUMPDEST POP JUMP JUMPDEST PUSH0 DUP2 MLOAD SWAP1 POP PUSH3 0x1DF DUP2 PUSH3 0x1B6 JUMP JUMPDEST SWAP3 SWAP2 POP POP JUMP JUMPDEST PUSH0 DUP1 PUSH0 DUP1 PUSH0 PUSH1 0xA0 DUP7 DUP9 SUB SLT ISZERO PUSH3 0x201 JUMPI PUSH3 0x200 PUSH3 0x180 JUMP JUMPDEST JUMPDEST PUSH0 PUSH3 0x210 DUP9 DUP3 DUP10 ADD PUSH3 0x1CF JUMP JUMPDEST SWAP6 POP POP PUSH1 0x20 PUSH3 0x223 DUP9 DUP3 DUP10 ADD PUSH3 0x1CF JUMP JUMPDEST SWAP5 POP POP PUSH1 0x40 PUSH3 0x236 DUP9 DUP3 DUP10 ADD PUSH3 0x1CF JUMP JUMPDEST SWAP4 POP POP PUSH1 0x60 PUSH3 0x249 DUP9 DUP3 DUP10 ADD PUSH3 0x1CF JUMP JUMPDEST SWAP3 POP POP PUSH1 0x80 PUSH3 0x25C DUP9 DUP3 DUP10 ADD PUSH3 0x1CF JUMP JUMPDEST SWAP2 POP POP SWAP3 SWAP6 POP SWAP3 SWAP6 SWAP1 SWAP4 POP JUMP JUMPDEST PUSH2 0x244C DUP1 PUSH3 0x277 PUSH0 CODECOPY PUSH0 RETURN INVALID PUSH1 0x80 PUSH1 0x40 MSTORE CALLVALUE DUP1 ISZERO PUSH2 0xF JUMPI PUSH0 DUP1 REVERT JUMPDEST POP PUSH1 0x4 CALLDATASIZE LT PUSH2 0xF3 JUMPI PUSH0 CALLDATALOAD PUSH1 0xE0 SHR DUP1 PUSH4 0x5FCBD285 GT PUSH2 0x95 JUMPI DUP1 PUSH4 0xBFF46A4C GT PUSH2 0x64 JUMPI DUP1 PUSH4 0xBFF46A4C EQ PUSH2 0x250 JUMPI DUP1 PUSH4 0xD0E7E07E EQ PUSH2 0x281 JUMPI DUP1 PUSH4 0xD21220A7 EQ PUSH2 0x29D JUMPI DUP1 PUSH4 0xF140A35A EQ PUSH2 0x2BB JUMPI PUSH2 0xF3 JUMP JUMPDEST DUP1 PUSH4 0x5FCBD285 EQ PUSH2 0x1DA JUMPI DUP1 PUSH4 0x64E7B85A EQ PUSH2 0x1F8 JUMPI DUP1 PUSH4 0x729132F9 EQ PUSH2 0x214 JUMPI DUP1 PUSH4 0xA996944C EQ PUSH2 0x232 JUMPI PUSH2 0xF3 JUMP JUMPDEST DUP1 PUSH4 0x443CB4BC GT PUSH2 0xD1 JUMPI DUP1 PUSH4 0x443CB4BC EQ PUSH2 0x164 JUMPI DUP1 PUSH4 0x5444A39D EQ PUSH2 0x182 JUMPI DUP1 PUSH4 0x54B2A769 EQ PUSH2 0x19E JUMPI DUP1 PUSH4 0x5A76F25E EQ PUSH2 0x1BC JUMPI PUSH2 0xF3 JUMP JUMPDEST DUP1 PUSH4 0x902F1AC EQ PUSH2 0xF7 JUMPI DUP1 PUSH4 0xDFE1681 EQ PUSH2 0x116 JUMPI DUP1 PUSH4 0x41976E09 EQ PUSH2 0x134 JUMPI JUMPDEST PUSH0 DUP1 REVERT JUMPDEST PUSH2 0xFF PUSH2 0x2EB JUMP JUMPDEST PUSH1 0x40 MLOAD PUSH2 0x10D SWAP3 SWAP2 SWAP1 PUSH2 0x1B9A JUMP JUMPDEST PUSH1 0x40 MLOAD DUP1 SWAP2 SUB SWAP1 RETURN JUMPDEST PUSH2 0x11E PUSH2 0x2FB JUMP JUMPDEST PUSH1 0x40 MLOAD PUSH2 0x12B SWAP2 SWAP1 PUSH2 0x1C00 JUMP JUMPDEST PUSH1 0x40 MLOAD DUP1 SWAP2 SUB SWAP1 RETURN JUMPDEST PUSH2 0x14E PUSH1 0x4 DUP1 CALLDATASIZE SUB DUP2 ADD SWAP1 PUSH2 0x149 SWAP2 SWAP1 PUSH2 0x1C47 JUMP JUMPDEST PUSH2 0x31E JUMP JUMPDEST PUSH1 0x40 MLOAD PUSH2 0x15B SWAP2 SWAP1 PUSH2 0x1C8A JUMP JUMPDEST PUSH1 0x40 MLOAD DUP1 SWAP2 SUB SWAP1 RETURN JUMPDEST PUSH2 0x16C PUSH2 0x5B1 JUMP JUMPDEST PUSH1 0x40 MLOAD PUSH2 0x179 SWAP2 SWAP1 PUSH2 0x1CA3 JUMP JUMPDEST PUSH1 0x40 MLOAD DUP1 SWAP2 SUB SWAP1 RETURN JUMPDEST PUSH2 0x19C PUSH1 0x4 DUP1 CALLDATASIZE SUB DUP2 ADD SWAP1 PUSH2 0x197 SWAP2 SWAP1 PUSH2 0x1CE6 JUMP JUMPDEST PUSH2 0x5B7 JUMP JUMPDEST STOP JUMPDEST PUSH2 0x1A6 PUSH2 0x7D3 JUMP JUMPDEST PUSH1 0x40 MLOAD PUSH2 0x1B3 SWAP2 SWAP1 PUSH2 0x1C8A JUMP JUMPDEST PUSH1 0x40 MLOAD DUP1 SWAP2 SUB SWAP1 RETURN JUMPDEST PUSH2 0x1C4 PUSH2 0x940 JUMP JUMPDEST PUSH1 0x40 MLOAD PUSH2 0x1D1 SWAP2 SWAP1 PUSH2 0x1CA3 JUMP JUMPDEST PUSH1 0x40 MLOAD DUP1 SWAP2 SUB SWAP1 RETURN JUMPDEST PUSH2 0x1E2 PUSH2 0x946 JUMP JUMPDEST PUSH1 0x40 MLOAD PUSH2 0x1EF SWAP2 SWAP1 PUSH2 0x1D6C JUMP JUMPDEST PUSH1 0x40 MLOAD DUP1 SWAP2 SUB SWAP1 RETURN JUMPDEST PUSH2 0x212 PUSH1 0x4 DUP1 CALLDATASIZE SUB DUP2 ADD SWAP1 PUSH2 0x20D SWAP2 SWAP1 PUSH2 0x1CE6 JUMP JUMPDEST PUSH2 0x96B JUMP JUMPDEST STOP JUMPDEST PUSH2 0x21C PUSH2 0xA30 JUMP JUMPDEST PUSH1 0x40 MLOAD PUSH2 0x229 SWAP2 SWAP1 PUSH2 0x1CA3 JUMP JUMPDEST PUSH1 0x40 MLOAD DUP1 SWAP2 SUB SWAP1 RETURN JUMPDEST PUSH2 0x23A PUSH2 0xAAA JUMP JUMPDEST PUSH1 0x40 MLOAD PUSH2 0x247 SWAP2 SWAP1 PUSH2 0x1CA3 JUMP JUMPDEST PUSH1 0x40 MLOAD DUP1 SWAP2 SUB SWAP1 RETURN JUMPDEST PUSH2 0x26A PUSH1 0x4 DUP1 CALLDATASIZE SUB DUP2 ADD SWAP1 PUSH2 0x265 SWAP2 SWAP1 PUSH2 0x1C47 JUMP JUMPDEST PUSH2 0xBFB JUMP JUMPDEST PUSH1 0x40 MLOAD PUSH2 0x278 SWAP3 SWAP2 SWAP1 PUSH2 0x1D85 JUMP JUMPDEST PUSH1 0x40 MLOAD DUP1 SWAP2 SUB SWAP1 RETURN JUMPDEST PUSH2 0x29B PUSH1 0x4 DUP1 CALLDATASIZE SUB DUP2 ADD SWAP1 PUSH2 0x296 SWAP2 SWAP1 PUSH2 0x1DAC JUMP JUMPDEST PUSH2 0xCC6 JUMP JUMPDEST STOP JUMPDEST PUSH2 0x2A5 PUSH2 0x1054 JUMP JUMPDEST PUSH1 0x40 MLOAD PUSH2 0x2B2 SWAP2 SWAP1 PUSH2 0x1C00 JUMP JUMPDEST PUSH1 0x40 MLOAD DUP1 SWAP2 SUB SWAP1 RETURN JUMPDEST PUSH2 0x2D5 PUSH1 0x4 DUP1 CALLDATASIZE SUB DUP2 ADD SWAP1 PUSH2 0x2D0 SWAP2 SWAP1 PUSH2 0x1DAC JUMP JUMPDEST PUSH2 0x1079 JUMP JUMPDEST PUSH1 0x40 MLOAD PUSH2 0x2E2 SWAP2 SWAP1 PUSH2 0x1CA3 JUMP JUMPDEST PUSH1 0x40 MLOAD DUP1 SWAP2 SUB SWAP1 RETURN JUMPDEST PUSH0 DUP1 PUSH1 0x3 SLOAD PUSH1 0x4 SLOAD SWAP2 POP SWAP2 POP SWAP1 SWAP2 JUMP JUMPDEST PUSH0 DUP1 SLOAD SWAP1 PUSH2 0x100 EXP SWAP1 DIV PUSH20 0xFFFFFFFFFFFFFFFFFFFFFFFFFFFFFFFFFFFFFFFF AND DUP2 JUMP JUMPDEST PUSH0 DUP1 PUSH0 SWAP1 SLOAD SWAP1 PUSH2 0x100 EXP SWAP1 DIV PUSH20 0xFFFFFFFFFFFFFFFFFFFFFFFFFFFFFFFFFFFFFFFF AND PUSH20 0xFFFFFFFFFFFFFFFFFFFFFFFFFFFFFFFFFFFFFFFF AND DUP3 PUSH20 0xFFFFFFFFFFFFFFFFFFFFFFFFFFFFFFFFFFFFFFFF AND EQ DUP1 PUSH2 0x3C5 JUMPI POP PUSH1 0x1 PUSH0 SWAP1 SLOAD SWAP1 PUSH2 0x100 EXP SWAP1 DIV PUSH20 0xFFFFFFFFFFFFFFFFFFFFFFFFFFFFFFFFFFFFFFFF AND PUSH20 0xFFFFFFFFFFFFFFFFFFFFFFFFFFFFFFFFFFFFFFFF AND DUP3 PUSH20 0xFFFFFFFFFFFFFFFFFFFFFFFFFFFFFFFFFFFFFFFF AND EQ JUMPDEST PUSH2 0x404 JUMPI PUSH1 0x40 MLOAD PUSH32 0x8C379A000000000000000000000000000000000000000000000000000000000 DUP2 MSTORE PUSH1 0x4 ADD PUSH2 0x3FB SWAP1 PUSH2 0x1E44 JUMP JUMPDEST PUSH1 0x40 MLOAD DUP1 SWAP2 SUB SWAP1 REVERT JUMPDEST PUSH0 DUP1 PUSH0 SWAP1 SLOAD SWAP1 PUSH2 0x100 EXP SWAP1 DIV PUSH20 0xFFFFFFFFFFFFFFFFFFFFFFFFFFFFFFFFFFFFFFFF AND PUSH20 0xFFFFFFFFFFFFFFFFFFFFFFFFFFFFFFFFFFFFFFFF AND DUP4 PUSH20 0xFFFFFFFFFFFFFFFFFFFFFFFFFFFFFFFFFFFFFFFF AND SUB PUSH2 0x4FA JUMPI PUSH1 0x5 PUSH0 SWAP1 SLOAD SWAP1 PUSH2 0x100 EXP SWAP1 DIV PUSH20 0xFFFFFFFFFFFFFFFFFFFFFFFFFFFFFFFFFFFFFFFF AND PUSH20 0xFFFFFFFFFFFFFFFFFFFFFFFFFFFFFFFFFFFFFFFF AND PUSH4 0xFEAF968C PUSH1 0x40 MLOAD DUP2 PUSH4 0xFFFFFFFF AND PUSH1 0xE0 SHL DUP2 MSTORE PUSH1 0x4 ADD PUSH1 0xA0 PUSH1 0x40 MLOAD DUP1 DUP4 SUB DUP2 DUP7 GAS STATICCALL ISZERO DUP1 ISZERO PUSH2 0x4C2 JUMPI RETURNDATASIZE PUSH0 DUP1 RETURNDATACOPY RETURNDATASIZE PUSH0 REVERT JUMPDEST POP POP POP POP PUSH1 0x40 MLOAD RETURNDATASIZE PUSH1 0x1F NOT PUSH1 0x1F DUP3 ADD AND DUP3 ADD DUP1 PUSH1 0x40 MSTORE POP DUP2 ADD SWAP1 PUSH2 0x4E6 SWAP2 SWAP1 PUSH2 0x1EDF JUMP JUMPDEST SWAP1 SWAP2 SWAP3 SWAP4 POP SWAP1 SWAP2 POP SWAP1 POP POP DUP1 SWAP2 POP POP PUSH2 0x598 JUMP JUMPDEST PUSH1 0x6 PUSH0 SWAP1 SLOAD SWAP1 PUSH2 0x100 EXP SWAP1 DIV PUSH20 0xFFFFFFFFFFFFFFFFFFFFFFFFFFFFFFFFFFFFFFFF AND PUSH20 0xFFFFFFFFFFFFFFFFFFFFFFFFFFFFFFFFFFFFFFFF AND PUSH4 0xFEAF968C PUSH1 0x40 MLOAD DUP2 PUSH4 0xFFFFFFFF AND PUSH1 0xE0 SHL DUP2 MSTORE PUSH1 0x4 ADD PUSH1 0xA0 PUSH1 0x40 MLOAD DUP1 DUP4 SUB DUP2 DUP7 GAS STATICCALL ISZERO DUP1 ISZERO PUSH2 0x564 JUMPI RETURNDATASIZE PUSH0 DUP1 RETURNDATACOPY RETURNDATASIZE PUSH0 REVERT JUMPDEST POP POP POP POP PUSH1 0x40 MLOAD RETURNDATASIZE PUSH1 0x1F NOT PUSH1 0x1F DUP3 ADD AND DUP3 ADD DUP1 PUSH1 0x40 MSTORE POP DUP2 ADD SWAP1 PUSH2 0x588 SWAP2 SWAP1 PUSH2 0x1EDF JUMP JUMPDEST SWAP1 SWAP2 SWAP3 SWAP4 POP SWAP1 SWAP2 POP SWAP1 POP POP DUP1 SWAP2 POP POP JUMPDEST PUSH5 0x2540BE400 DUP2 PUSH2 0x5A9 SWAP2 SWAP1 PUSH2 0x1F83 JUMP JUMPDEST SWAP2 POP POP SWAP2 SWAP1 POP JUMP JUMPDEST PUSH1 0x3 SLOAD DUP2 JUMP JUMPDEST PUSH0 PUSH2 0x5E0 PUSH0 DUP1 SLOAD SWAP1 PUSH2 0x100 EXP SWAP1 DIV PUSH20 0xFFFFFFFFFFFFFFFFFFFFFFFFFFFFFFFFFFFFFFFF AND PUSH2 0x31E JUMP JUMPDEST SWAP1 POP PUSH0 PUSH2 0x60D PUSH1 0x1 PUSH0 SWAP1 SLOAD SWAP1 PUSH2 0x100 EXP SWAP1 DIV PUSH20 0xFFFFFFFFFFFFFFFFFFFFFFFFFFFFFFFFFFFFFFFF AND PUSH2 0x31E JUMP JUMPDEST SWAP1 POP PUSH0 DUP3 PUSH1 0x2 PUSH2 0x61D SWAP2 SWAP1 PUSH2 0x1FF9 JUMP JUMPDEST PUSH8 0xDE0B6B3A7640000 DUP6 PUSH2 0x631 SWAP2 SWAP1 PUSH2 0x1FF9 JUMP JUMPDEST PUSH2 0x63B SWAP2 SWAP1 PUSH2 0x2067 JUMP JUMPDEST SWAP1 POP PUSH0 DUP3 PUSH1 0x2 PUSH2 0x64B SWAP2 SWAP1 PUSH2 0x1FF9 JUMP JUMPDEST PUSH8 0xDE0B6B3A7640000 DUP7 PUSH2 0x65F SWAP2 SWAP1 PUSH2 0x1FF9 JUMP JUMPDEST PUSH2 0x669 SWAP2 SWAP1 PUSH2 0x2067 JUMP JUMPDEST SWAP1 POP PUSH0 PUSH2 0x7C0 PUSH1 0x3 SLOAD PUSH1 0x2 PUSH0 SWAP1 SLOAD SWAP1 PUSH2 0x100 EXP SWAP1 DIV PUSH20 0xFFFFFFFFFFFFFFFFFFFFFFFFFFFFFFFFFFFFFFFF AND PUSH20 0xFFFFFFFFFFFFFFFFFFFFFFFFFFFFFFFFFFFFFFFF AND PUSH4 0x18160DDD PUSH1 0x40 MLOAD DUP2 PUSH4 0xFFFFFFFF AND PUSH1 0xE0 SHL DUP2 MSTORE PUSH1 0x4 ADD PUSH1 0x20 PUSH1 0x40 MLOAD DUP1 DUP4 SUB DUP2 DUP7 GAS STATICCALL ISZERO DUP1 ISZERO PUSH2 0x6DC JUMPI RETURNDATASIZE PUSH0 DUP1 RETURNDATACOPY RETURNDATASIZE PUSH0 REVERT JUMPDEST POP POP POP POP PUSH1 0x40 MLOAD RETURNDATASIZE PUSH1 0x1F NOT PUSH1 0x1F DUP3 ADD AND DUP3 ADD DUP1 PUSH1 0x40 MSTORE POP DUP2 ADD SWAP1 PUSH2 0x700 SWAP2 SWAP1 PUSH2 0x2097 JUMP JUMPDEST DUP6 PUSH2 0x70B SWAP2 SWAP1 PUSH2 0x1FF9 JUMP JUMPDEST PUSH2 0x715 SWAP2 SWAP1 PUSH2 0x2067 JUMP JUMPDEST PUSH1 0x4 SLOAD PUSH1 0x2 PUSH0 SWAP1 SLOAD SWAP1 PUSH2 0x100 EXP SWAP1 DIV PUSH20 0xFFFFFFFFFFFFFFFFFFFFFFFFFFFFFFFFFFFFFFFF AND PUSH20 0xFFFFFFFFFFFFFFFFFFFFFFFFFFFFFFFFFFFFFFFF AND PUSH4 0x18160DDD PUSH1 0x40 MLOAD DUP2 PUSH4 0xFFFFFFFF AND PUSH1 0xE0 SHL DUP2 MSTORE PUSH1 0x4 ADD PUSH1 0x20 PUSH1 0x40 MLOAD DUP1 DUP4 SUB DUP2 DUP7 GAS STATICCALL ISZERO DUP1 ISZERO PUSH2 0x782 JUMPI RETURNDATASIZE PUSH0 DUP1 RETURNDATACOPY RETURNDATASIZE PUSH0 REVERT JUMPDEST POP POP POP POP PUSH1 0x40 MLOAD RETURNDATASIZE PUSH1 0x1F NOT PUSH1 0x1F DUP3 ADD AND DUP3 ADD DUP1 PUSH1 0x40 MSTORE POP DUP2 ADD SWAP1 PUSH2 0x7A6 SWAP2 SWAP1 PUSH2 0x2097 JUMP JUMPDEST DUP6 PUSH2 0x7B1 SWAP2 SWAP1 PUSH2 0x1FF9 JUMP JUMPDEST PUSH2 0x7BB SWAP2 SWAP1 PUSH2 0x2067 JUMP JUMPDEST PUSH2 0x1225 JUMP JUMPDEST SWAP1 POP PUSH2 0x7CB DUP2 PUSH2 0x123D JUMP JUMPDEST POP POP POP POP POP POP JUMP JUMPDEST PUSH0 DUP1 PUSH1 0x5 PUSH0 SWAP1 SLOAD SWAP1 PUSH2 0x100 EXP SWAP1 DIV PUSH20 0xFFFFFFFFFFFFFFFFFFFFFFFFFFFFFFFFFFFFFFFF AND PUSH20 0xFFFFFFFFFFFFFFFFFFFFFFFFFFFFFFFFFFFFFFFF AND PUSH4 0xFEAF968C PUSH1 0x40 MLOAD DUP2 PUSH4 0xFFFFFFFF AND PUSH1 0xE0 SHL DUP2 MSTORE PUSH1 0x4 ADD PUSH1 0xA0 PUSH1 0x40 MLOAD DUP1 DUP4 SUB DUP2 DUP7 GAS STATICCALL ISZERO DUP1 ISZERO PUSH2 0x83F JUMPI RETURNDATASIZE PUSH0 DUP1 RETURNDATACOPY RETURNDATASIZE PUSH0 REVERT JUMPDEST POP POP POP POP PUSH1 0x40 MLOAD RETURNDATASIZE PUSH1 0x1F NOT PUSH1 0x1F DUP3 ADD AND DUP3 ADD DUP1 PUSH1 0x40 MSTORE POP DUP2 ADD SWAP1 PUSH2 0x863 SWAP2 SWAP1 PUSH2 0x1EDF JUMP JUMPDEST POP POP POP SWAP2 POP POP PUSH0 PUSH1 0x6 PUSH0 SWAP1 SLOAD SWAP1 PUSH2 0x100 EXP SWAP1 DIV PUSH20 0xFFFFFFFFFFFFFFFFFFFFFFFFFFFFFFFFFFFFFFFF AND PUSH20 0xFFFFFFFFFFFFFFFFFFFFFFFFFFFFFFFFFFFFFFFF AND PUSH4 0xFEAF968C PUSH1 0x40 MLOAD DUP2 PUSH4 0xFFFFFFFF AND PUSH1 0xE0 SHL DUP2 MSTORE PUSH1 0x4 ADD PUSH1 0xA0 PUSH1 0x40 MLOAD DUP1 DUP4 SUB DUP2 DUP7 GAS STATICCALL ISZERO DUP1 ISZERO PUSH2 0x8D4 JUMPI RETURNDATASIZE PUSH0 DUP1 RETURNDATACOPY RETURNDATASIZE PUSH0 REVERT JUMPDEST POP POP POP POP PUSH1 0x40 MLOAD RETURNDATASIZE PUSH1 0x1F NOT PUSH1 0x1F DUP3 ADD AND DUP3 ADD DUP1 PUSH1 0x40 MSTORE POP DUP2 ADD SWAP1 PUSH2 0x8F8 SWAP2 SWAP1 PUSH2 0x1EDF JUMP JUMPDEST POP POP POP SWAP2 POP POP PUSH5 0x2540BE400 DUP2 PUSH2 0x90F SWAP2 SWAP1 PUSH2 0x1F83 JUMP JUMPDEST PUSH4 0x5F5E100 PUSH5 0x2540BE400 DUP5 PUSH2 0x925 SWAP2 SWAP1 PUSH2 0x1F83 JUMP JUMPDEST PUSH2 0x92F SWAP2 SWAP1 PUSH2 0x1F83 JUMP JUMPDEST PUSH2 0x939 SWAP2 SWAP1 PUSH2 0x20C2 JUMP JUMPDEST SWAP3 POP POP POP SWAP1 JUMP JUMPDEST PUSH1 0x4 SLOAD DUP2 JUMP JUMPDEST PUSH1 0x2 PUSH0 SWAP1 SLOAD SWAP1 PUSH2 0x100 EXP SWAP1 DIV PUSH20 0xFFFFFFFFFFFFFFFFFFFFFFFFFFFFFFFFFFFFFFFF AND DUP2 JUMP JUMPDEST PUSH0 PUSH2 0x994 PUSH0 DUP1 SLOAD SWAP1 PUSH2 0x100 EXP SWAP1 DIV PUSH20 0xFFFFFFFFFFFFFFFFFFFFFFFFFFFFFFFFFFFFFFFF AND PUSH2 0x31E JUMP JUMPDEST SWAP1 POP PUSH0 PUSH2 0x9C1 PUSH1 0x1 PUSH0 SWAP1 SLOAD SWAP1 PUSH2 0x100 EXP SWAP1 DIV PUSH20 0xFFFFFFFFFFFFFFFFFFFFFFFFFFFFFFFFFFFFFFFF AND PUSH2 0x31E JUMP JUMPDEST SWAP1 POP PUSH0 DUP3 PUSH1 0x2 PUSH2 0x9D1 SWAP2 SWAP1 PUSH2 0x1FF9 JUMP JUMPDEST PUSH8 0xDE0B6B3A7640000 DUP6 PUSH2 0x9E5 SWAP2 SWAP1 PUSH2 0x1FF9 JUMP JUMPDEST PUSH2 0x9EF SWAP2 SWAP1 PUSH2 0x2067 JUMP JUMPDEST SWAP1 POP PUSH0 DUP3 PUSH1 0x2 PUSH2 0x9FF SWAP2 SWAP1 PUSH2 0x1FF9 JUMP JUMPDEST PUSH8 0xDE0B6B3A7640000 DUP7 PUSH2 0xA13 SWAP2 SWAP1 PUSH2 0x1FF9 JUMP JUMPDEST PUSH2 0xA1D SWAP2 SWAP1 PUSH2 0x2067 JUMP JUMPDEST SWAP1 POP PUSH2 0xA29 DUP3 DUP3 PUSH2 0x166E JUMP JUMPDEST POP POP POP POP POP JUMP JUMPDEST PUSH0 DUP1 PUSH1 0x3 SLOAD GT DUP1 ISZERO PUSH2 0xA43 JUMPI POP PUSH0 PUSH1 0x4 SLOAD GT JUMPDEST PUSH2 0xA82 JUMPI PUSH1 0x40 MLOAD PUSH32 0x8C379A000000000000000000000000000000000000000000000000000000000 DUP2 MSTORE PUSH1 0x4 ADD PUSH2 0xA79 SWAP1 PUSH2 0x2174 JUMP JUMPDEST PUSH1 0x40 MLOAD DUP1 SWAP2 SUB SWAP1 REVERT JUMPDEST PUSH1 0x3 SLOAD PUSH8 0xDE0B6B3A7640000 PUSH1 0x4 SLOAD PUSH2 0xA9B SWAP2 SWAP1 PUSH2 0x1FF9 JUMP JUMPDEST PUSH2 0xAA5 SWAP2 SWAP1 PUSH2 0x2067 JUMP JUMPDEST SWAP1 POP SWAP1 JUMP JUMPDEST PUSH0 DUP1 PUSH1 0x5 PUSH0 SWAP1 SLOAD SWAP1 PUSH2 0x100 EXP SWAP1 DIV PUSH20 0xFFFFFFFFFFFFFFFFFFFFFFFFFFFFFFFFFFFFFFFF AND PUSH20 0xFFFFFFFFFFFFFFFFFFFFFFFFFFFFFFFFFFFFFFFF AND PUSH4 0xFEAF968C PUSH1 0x40 MLOAD DUP2 PUSH4 0xFFFFFFFF AND PUSH1 0xE0 SHL DUP2 MSTORE PUSH1 0x4 ADD PUSH1 0xA0 PUSH1 0x40 MLOAD DUP1 DUP4 SUB DUP2 DUP7 GAS STATICCALL ISZERO DUP1 ISZERO PUSH2 0xB16 JUMPI RETURNDATASIZE PUSH0 DUP1 RETURNDATACOPY RETURNDATASIZE PUSH0 REVERT JUMPDEST POP POP POP POP PUSH1 0x40 MLOAD RETURNDATASIZE PUSH1 0x1F NOT PUSH1 0x1F DUP3 ADD AND DUP3 ADD DUP1 PUSH1 0x40 MSTORE POP DUP2 ADD SWAP1 PUSH2 0xB3A SWAP2 SWAP1 PUSH2 0x1EDF JUMP JUMPDEST POP POP POP SWAP2 POP POP PUSH0 PUSH1 0x6 PUSH0 SWAP1 SLOAD SWAP1 PUSH2 0x100 EXP SWAP1 DIV PUSH20 0xFFFFFFFFFFFFFFFFFFFFFFFFFFFFFFFFFFFFFFFF AND PUSH20 0xFFFFFFFFFFFFFFFFFFFFFFFFFFFFFFFFFFFFFFFF AND PUSH4 0xFEAF968C PUSH1 0x40 MLOAD DUP2 PUSH4 0xFFFFFFFF AND PUSH1 0xE0 SHL DUP2 MSTORE PUSH1 0x4 ADD PUSH1 0xA0 PUSH1 0x40 MLOAD DUP1 DUP4 SUB DUP2 DUP7 GAS STATICCALL ISZERO DUP1 ISZERO PUSH2 0xBAB JUMPI RETURNDATASIZE PUSH0 DUP1 RETURNDATACOPY RETURNDATASIZE PUSH0 REVERT JUMPDEST POP POP POP POP PUSH1 0x40 MLOAD RETURNDATASIZE PUSH1 0x1F NOT PUSH1 0x1F DUP3 ADD AND DUP3 ADD DUP1 PUSH1 0x40 MSTORE POP DUP2 ADD SWAP1 PUSH2 0xBCF SWAP2 SWAP1 PUSH2 0x1EDF JUMP JUMPDEST POP POP POP SWAP2 POP POP DUP1 PUSH8 0xDE0B6B3A7640000 DUP4 PUSH2 0xBEA SWAP2 SWAP1 PUSH2 0x1FF9 JUMP JUMPDEST PUSH2 0xBF4 SWAP2 SWAP1 PUSH2 0x2067 JUMP JUMPDEST SWAP3 POP POP POP SWAP1 JUMP JUMPDEST PUSH0 DUP1 PUSH0 PUSH1 0x2 PUSH0 SWAP1 SLOAD SWAP1 PUSH2 0x100 EXP SWAP1 DIV PUSH20 0xFFFFFFFFFFFFFFFFFFFFFFFFFFFFFFFFFFFFFFFF AND PUSH20 0xFFFFFFFFFFFFFFFFFFFFFFFFFFFFFFFFFFFFFFFF AND PUSH4 0x70A08231 DUP6 PUSH1 0x40 MLOAD DUP3 PUSH4 0xFFFFFFFF AND PUSH1 0xE0 SHL DUP2 MSTORE PUSH1 0x4 ADD PUSH2 0xC58 SWAP2 SWAP1 PUSH2 0x1C00 JUMP JUMPDEST PUSH1 0x20 PUSH1 0x40 MLOAD DUP1 DUP4 SUB DUP2 DUP7 GAS STATICCALL ISZERO DUP1 ISZERO PUSH2 0xC73 JUMPI RETURNDATASIZE PUSH0 DUP1 RETURNDATACOPY RETURNDATASIZE PUSH0 REVERT JUMPDEST POP POP POP POP PUSH1 0x40 MLOAD RETURNDATASIZE PUSH1 0x1F NOT PUSH1 0x1F DUP3 ADD AND DUP3 ADD DUP1 PUSH1 0x40 MSTORE POP DUP2 ADD SWAP1 PUSH2 0xC97 SWAP2 SWAP1 PUSH2 0x2097 JUMP JUMPDEST SWAP1 POP PUSH1 0x2 PUSH0 SWAP1 SLOAD SWAP1 PUSH2 0x100 EXP SWAP1 DIV PUSH20 0xFFFFFFFFFFFFFFFFFFFFFFFFFFFFFFFFFFFFFFFF AND DUP2 SWAP3 POP SWAP3 POP POP SWAP2 POP SWAP2 JUMP JUMPDEST PUSH0 DUP1 SLOAD SWAP1 PUSH2 0x100 EXP SWAP1 DIV PUSH20 0xFFFFFFFFFFFFFFFFFFFFFFFFFFFFFFFFFFFFFFFF AND PUSH20 0xFFFFFFFFFFFFFFFFFFFFFFFFFFFFFFFFFFFFFFFF AND DUP2 PUSH20 0xFFFFFFFFFFFFFFFFFFFFFFFFFFFFFFFFFFFFFFFF AND EQ DUP1 PUSH2 0xD6B JUMPI POP PUSH1 0x1 PUSH0 SWAP1 SLOAD SWAP1 PUSH2 0x100 EXP SWAP1 DIV PUSH20 0xFFFFFFFFFFFFFFFFFFFFFFFFFFFFFFFFFFFFFFFF AND PUSH20 0xFFFFFFFFFFFFFFFFFFFFFFFFFFFFFFFFFFFFFFFF AND DUP2 PUSH20 0xFFFFFFFFFFFFFFFFFFFFFFFFFFFFFFFFFFFFFFFF AND EQ JUMPDEST PUSH2 0xDAA JUMPI PUSH1 0x40 MLOAD PUSH32 0x8C379A000000000000000000000000000000000000000000000000000000000 DUP2 MSTORE PUSH1 0x4 ADD PUSH2 0xDA1 SWAP1 PUSH2 0x1E44 JUMP JUMPDEST PUSH1 0x40 MLOAD DUP1 SWAP2 SUB SWAP1 REVERT JUMPDEST PUSH0 PUSH2 0xDD3 PUSH0 DUP1 SLOAD SWAP1 PUSH2 0x100 EXP SWAP1 DIV PUSH20 0xFFFFFFFFFFFFFFFFFFFFFFFFFFFFFFFFFFFFFFFF AND PUSH2 0x31E JUMP JUMPDEST SWAP1 POP PUSH0 PUSH2 0xE00 PUSH1 0x1 PUSH0 SWAP1 SLOAD SWAP1 PUSH2 0x100 EXP SWAP1 DIV PUSH20 0xFFFFFFFFFFFFFFFFFFFFFFFFFFFFFFFFFFFFFFFF AND PUSH2 0x31E JUMP JUMPDEST SWAP1 POP PUSH0 DUP1 PUSH0 SWAP1 SLOAD SWAP1 PUSH2 0x100 EXP SWAP1 DIV PUSH20 0xFFFFFFFFFFFFFFFFFFFFFFFFFFFFFFFFFFFFFFFF AND PUSH20 0xFFFFFFFFFFFFFFFFFFFFFFFFFFFFFFFFFFFFFFFF AND DUP5 PUSH20 0xFFFFFFFFFFFFFFFFFFFFFFFFFFFFFFFFFFFFFFFF AND EQ SWAP1 POP PUSH0 DUP2 PUSH2 0xE7F JUMPI PUSH0 DUP1 SLOAD SWAP1 PUSH2 0x100 EXP SWAP1 DIV PUSH20 0xFFFFFFFFFFFFFFFFFFFFFFFFFFFFFFFFFFFFFFFF AND PUSH2 0xEA2 JUMP JUMPDEST PUSH1 0x1 PUSH0 SWAP1 SLOAD SWAP1 PUSH2 0x100 EXP SWAP1 DIV PUSH20 0xFFFFFFFFFFFFFFFFFFFFFFFFFFFFFFFFFFFFFFFF AND JUMPDEST SWAP1 POP PUSH0 DUP3 PUSH2 0xEB0 JUMPI DUP4 PUSH2 0xEB2 JUMP JUMPDEST DUP5 JUMPDEST SWAP1 POP PUSH0 DUP2 PUSH8 0xDE0B6B3A7640000 DUP10 PUSH2 0xECA SWAP2 SWAP1 PUSH2 0x1FF9 JUMP JUMPDEST PUSH2 0xED4 SWAP2 SWAP1 PUSH2 0x2067 JUMP JUMPDEST SWAP1 POP PUSH0 PUSH2 0xEE1 DUP3 DUP10 PUSH2 0x1079 JUMP JUMPDEST SWAP1 POP DUP8 PUSH20 0xFFFFFFFFFFFFFFFFFFFFFFFFFFFFFFFFFFFFFFFF AND PUSH4 0x23B872DD CALLER ADDRESS DUP6 PUSH1 0x40 MLOAD DUP5 PUSH4 0xFFFFFFFF AND PUSH1 0xE0 SHL DUP2 MSTORE PUSH1 0x4 ADD PUSH2 0xF20 SWAP4 SWAP3 SWAP2 SWAP1 PUSH2 0x2192 JUMP JUMPDEST PUSH1 0x20 PUSH1 0x40 MLOAD DUP1 DUP4 SUB DUP2 PUSH0 DUP8 GAS CALL ISZERO DUP1 ISZERO PUSH2 0xF3C JUMPI RETURNDATASIZE PUSH0 DUP1 RETURNDATACOPY RETURNDATASIZE PUSH0 REVERT JUMPDEST POP POP POP POP PUSH1 0x40 MLOAD RETURNDATASIZE PUSH1 0x1F NOT PUSH1 0x1F DUP3 ADD AND DUP3 ADD DUP1 PUSH1 0x40 MSTORE POP DUP2 ADD SWAP1 PUSH2 0xF60 SWAP2 SWAP1 PUSH2 0x21FC JUMP JUMPDEST POP DUP4 PUSH20 0xFFFFFFFFFFFFFFFFFFFFFFFFFFFFFFFFFFFFFFFF AND PUSH4 0xA9059CBB CALLER DUP4 PUSH1 0x40 MLOAD DUP4 PUSH4 0xFFFFFFFF AND PUSH1 0xE0 SHL DUP2 MSTORE PUSH1 0x4 ADD PUSH2 0xF9C SWAP3 SWAP2 SWAP1 PUSH2 0x1D85 JUMP JUMPDEST PUSH1 0x20 PUSH1 0x40 MLOAD DUP1 DUP4 SUB DUP2 PUSH0 DUP8 GAS CALL ISZERO DUP1 ISZERO PUSH2 0xFB8 JUMPI RETURNDATASIZE PUSH0 DUP1 RETURNDATACOPY RETURNDATASIZE PUSH0 REVERT JUMPDEST POP POP POP POP PUSH1 0x40 MLOAD RETURNDATASIZE PUSH1 0x1F NOT PUSH1 0x1F DUP3 ADD AND DUP3 ADD DUP1 PUSH1 0x40 MSTORE POP DUP2 ADD SWAP1 PUSH2 0xFDC SWAP2 SWAP1 PUSH2 0x21FC JUMP JUMPDEST POP DUP5 ISZERO PUSH2 0x1018 JUMPI DUP2 PUSH1 0x3 PUSH0 DUP3 DUP3 SLOAD PUSH2 0xFF4 SWAP2 SWAP1 PUSH2 0x2227 JUMP JUMPDEST SWAP3 POP POP DUP2 SWAP1 SSTORE POP DUP1 PUSH1 0x4 PUSH0 DUP3 DUP3 SLOAD PUSH2 0x100C SWAP2 SWAP1 PUSH2 0x225A JUMP JUMPDEST SWAP3 POP POP DUP2 SWAP1 SSTORE POP PUSH2 0x1049 JUMP JUMPDEST DUP2 PUSH1 0x4 PUSH0 DUP3 DUP3 SLOAD PUSH2 0x1029 SWAP2 SWAP1 PUSH2 0x2227 JUMP JUMPDEST SWAP3 POP POP DUP2 SWAP1 SSTORE POP DUP1 PUSH1 0x3 PUSH0 DUP3 DUP3 SLOAD PUSH2 0x1041 SWAP2 SWAP1 PUSH2 0x225A JUMP JUMPDEST SWAP3 POP POP DUP2 SWAP1 SSTORE POP JUMPDEST POP POP POP POP POP POP POP POP POP JUMP JUMPDEST PUSH1 0x1 PUSH0 SWAP1 SLOAD SWAP1 PUSH2 0x100 EXP SWAP1 DIV PUSH20 0xFFFFFFFFFFFFFFFFFFFFFFFFFFFFFFFFFFFFFFFF AND DUP2 JUMP JUMPDEST PUSH0 DUP1 PUSH0 SWAP1 SLOAD SWAP1 PUSH2 0x100 EXP SWAP1 DIV PUSH20 0xFFFFFFFFFFFFFFFFFFFFFFFFFFFFFFFFFFFFFFFF AND PUSH20 0xFFFFFFFFFFFFFFFFFFFFFFFFFFFFFFFFFFFFFFFF AND DUP3 PUSH20 0xFFFFFFFFFFFFFFFFFFFFFFFFFFFFFFFFFFFFFFFF AND EQ DUP1 PUSH2 0x1120 JUMPI POP PUSH1 0x1 PUSH0 SWAP1 SLOAD SWAP1 PUSH2 0x100 EXP SWAP1 DIV PUSH20 0xFFFFFFFFFFFFFFFFFFFFFFFFFFFFFFFFFFFFFFFF AND PUSH20 0xFFFFFFFFFFFFFFFFFFFFFFFFFFFFFFFFFFFFFFFF AND DUP3 PUSH20 0xFFFFFFFFFFFFFFFFFFFFFFFFFFFFFFFFFFFFFFFF AND EQ JUMPDEST PUSH2 0x115F JUMPI PUSH1 0x40 MLOAD PUSH32 0x8C379A000000000000000000000000000000000000000000000000000000000 DUP2 MSTORE PUSH1 0x4 ADD PUSH2 0x1156 SWAP1 PUSH2 0x1E44 JUMP JUMPDEST PUSH1 0x40 MLOAD DUP1 SWAP2 SUB SWAP1 REVERT JUMPDEST PUSH0 DUP1 PUSH0 SWAP1 SLOAD SWAP1 PUSH2 0x100 EXP SWAP1 DIV PUSH20 0xFFFFFFFFFFFFFFFFFFFFFFFFFFFFFFFFFFFFFFFF AND PUSH20 0xFFFFFFFFFFFFFFFFFFFFFFFFFFFFFFFFFFFFFFFF AND DUP4 PUSH20 0xFFFFFFFFFFFFFFFFFFFFFFFFFFFFFFFFFFFFFFFF AND EQ SWAP1 POP PUSH0 DUP2 PUSH2 0x11BF JUMPI PUSH1 0x4 SLOAD PUSH2 0x11C3 JUMP JUMPDEST PUSH1 0x3 SLOAD JUMPDEST SWAP1 POP PUSH0 DUP3 PUSH2 0x11D3 JUMPI PUSH1 0x3 SLOAD PUSH2 0x11D7 JUMP JUMPDEST PUSH1 0x4 SLOAD JUMPDEST SWAP1 POP PUSH0 PUSH2 0x3E8 PUSH2 0x3E5 DUP9 PUSH2 0x11EB SWAP2 SWAP1 PUSH2 0x1FF9 JUMP JUMPDEST PUSH2 0x11F5 SWAP2 SWAP1 PUSH2 0x2067 JUMP JUMPDEST SWAP1 POP DUP1 DUP4 PUSH2 0x1203 SWAP2 SWAP1 PUSH2 0x2227 JUMP JUMPDEST DUP3 DUP3 PUSH2 0x120F SWAP2 SWAP1 PUSH2 0x1FF9 JUMP JUMPDEST PUSH2 0x1219 SWAP2 SWAP1 PUSH2 0x2067 JUMP JUMPDEST SWAP5 POP POP POP POP POP SWAP3 SWAP2 POP POP JUMP JUMPDEST PUSH0 DUP2 DUP4 LT PUSH2 0x1233 JUMPI DUP2 PUSH2 0x1235 JUMP JUMPDEST DUP3 JUMPDEST SWAP1 POP SWAP3 SWAP2 POP POP JUMP JUMPDEST PUSH0 DUP2 GT PUSH2 0x127F JUMPI PUSH1 0x40 MLOAD PUSH32 0x8C379A000000000000000000000000000000000000000000000000000000000 DUP2 MSTORE PUSH1 0x4 ADD PUSH2 0x1276 SWAP1 PUSH2 0x22D7 JUMP JUMPDEST PUSH1 0x40 MLOAD DUP1 SWAP2 SUB SWAP1 REVERT JUMPDEST PUSH0 PUSH1 0x2 PUSH0 SWAP1 SLOAD SWAP1 PUSH2 0x100 EXP SWAP1 DIV PUSH20 0xFFFFFFFFFFFFFFFFFFFFFFFFFFFFFFFFFFFFFFFF AND PUSH20 0xFFFFFFFFFFFFFFFFFFFFFFFFFFFFFFFFFFFFFFFF AND PUSH4 0x18160DDD PUSH1 0x40 MLOAD DUP2 PUSH4 0xFFFFFFFF AND PUSH1 0xE0 SHL DUP2 MSTORE PUSH1 0x4 ADD PUSH1 0x20 PUSH1 0x40 MLOAD DUP1 DUP4 SUB DUP2 DUP7 GAS STATICCALL ISZERO DUP1 ISZERO PUSH2 0x12EA JUMPI RETURNDATASIZE PUSH0 DUP1 RETURNDATACOPY RETURNDATASIZE PUSH0 REVERT JUMPDEST POP POP POP POP PUSH1 0x40 MLOAD RETURNDATASIZE PUSH1 0x1F NOT PUSH1 0x1F DUP3 ADD AND DUP3 ADD DUP1 PUSH1 0x40 MSTORE POP DUP2 ADD SWAP1 PUSH2 0x130E SWAP2 SWAP1 PUSH2 0x2097 JUMP JUMPDEST PUSH1 0x3 SLOAD DUP4 PUSH2 0x131C SWAP2 SWAP1 PUSH2 0x1FF9 JUMP JUMPDEST PUSH2 0x1326 SWAP2 SWAP1 PUSH2 0x2067 JUMP JUMPDEST SWAP1 POP PUSH0 PUSH1 0x2 PUSH0 SWAP1 SLOAD SWAP1 PUSH2 0x100 EXP SWAP1 DIV PUSH20 0xFFFFFFFFFFFFFFFFFFFFFFFFFFFFFFFFFFFFFFFF AND PUSH20 0xFFFFFFFFFFFFFFFFFFFFFFFFFFFFFFFFFFFFFFFF AND PUSH4 0x18160DDD PUSH1 0x40 MLOAD DUP2 PUSH4 0xFFFFFFFF AND PUSH1 0xE0 SHL DUP2 MSTORE PUSH1 0x4 ADD PUSH1 0x20 PUSH1 0x40 MLOAD DUP1 DUP4 SUB DUP2 DUP7 GAS STATICCALL ISZERO DUP1 ISZERO PUSH2 0x1393 JUMPI RETURNDATASIZE PUSH0 DUP1 RETURNDATACOPY RETURNDATASIZE PUSH0 REVERT JUMPDEST POP POP POP POP PUSH1 0x40 MLOAD RETURNDATASIZE PUSH1 0x1F NOT PUSH1 0x1F DUP3 ADD AND DUP3 ADD DUP1 PUSH1 0x40 MSTORE POP DUP2 ADD SWAP1 PUSH2 0x13B7 SWAP2 SWAP1 PUSH2 0x2097 JUMP JUMPDEST PUSH1 0x4 SLOAD DUP5 PUSH2 0x13C5 SWAP2 SWAP1 PUSH2 0x1FF9 JUMP JUMPDEST PUSH2 0x13CF SWAP2 SWAP1 PUSH2 0x2067 JUMP JUMPDEST SWAP1 POP PUSH0 DUP3 GT DUP1 ISZERO PUSH2 0x13DF JUMPI POP PUSH0 DUP2 GT JUMPDEST PUSH2 0x141E JUMPI PUSH1 0x40 MLOAD PUSH32 0x8C379A000000000000000000000000000000000000000000000000000000000 DUP2 MSTORE PUSH1 0x4 ADD PUSH2 0x1415 SWAP1 PUSH2 0x233F JUMP JUMPDEST PUSH1 0x40 MLOAD DUP1 SWAP2 SUB SWAP1 REVERT JUMPDEST PUSH1 0x2 PUSH0 SWAP1 SLOAD SWAP1 PUSH2 0x100 EXP SWAP1 DIV PUSH20 0xFFFFFFFFFFFFFFFFFFFFFFFFFFFFFFFFFFFFFFFF AND PUSH20 0xFFFFFFFFFFFFFFFFFFFFFFFFFFFFFFFFFFFFFFFF AND PUSH4 0x9DC29FAC CALLER DUP6 PUSH1 0x40 MLOAD DUP4 PUSH4 0xFFFFFFFF AND PUSH1 0xE0 SHL DUP2 MSTORE PUSH1 0x4 ADD PUSH2 0x147A SWAP3 SWAP2 SWAP1 PUSH2 0x1D85 JUMP JUMPDEST PUSH0 PUSH1 0x40 MLOAD DUP1 DUP4 SUB DUP2 PUSH0 DUP8 DUP1 EXTCODESIZE ISZERO DUP1 ISZERO PUSH2 0x1491 JUMPI PUSH0 DUP1 REVERT JUMPDEST POP GAS CALL ISZERO DUP1 ISZERO PUSH2 0x14A3 JUMPI RETURNDATASIZE PUSH0 DUP1 RETURNDATACOPY RETURNDATASIZE PUSH0 REVERT JUMPDEST POP POP POP POP PUSH0 DUP1 SLOAD SWAP1 PUSH2 0x100 EXP SWAP1 DIV PUSH20 0xFFFFFFFFFFFFFFFFFFFFFFFFFFFFFFFFFFFFFFFF AND PUSH20 0xFFFFFFFFFFFFFFFFFFFFFFFFFFFFFFFFFFFFFFFF AND PUSH4 0xA9059CBB CALLER DUP5 PUSH1 0x40 MLOAD DUP4 PUSH4 0xFFFFFFFF AND PUSH1 0xE0 SHL DUP2 MSTORE PUSH1 0x4 ADD PUSH2 0x1501 SWAP3 SWAP2 SWAP1 PUSH2 0x1D85 JUMP JUMPDEST PUSH1 0x20 PUSH1 0x40 MLOAD DUP1 DUP4 SUB DUP2 PUSH0 DUP8 GAS CALL ISZERO DUP1 ISZERO PUSH2 0x151D JUMPI RETURNDATASIZE PUSH0 DUP1 RETURNDATACOPY RETURNDATASIZE PUSH0 REVERT JUMPDEST POP POP POP POP PUSH1 0x40 MLOAD RETURNDATASIZE PUSH1 0x1F NOT PUSH1 0x1F DUP3 ADD AND DUP3 ADD DUP1 PUSH1 0x40 MSTORE POP DUP2 ADD SWAP1 PUSH2 0x1541 SWAP2 SWAP1 PUSH2 0x21FC JUMP JUMPDEST POP PUSH1 0x1 PUSH0 SWAP1 SLOAD SWAP1 PUSH2 0x100 EXP SWAP1 DIV PUSH20 0xFFFFFFFFFFFFFFFFFFFFFFFFFFFFFFFFFFFFFFFF AND PUSH20 0xFFFFFFFFFFFFFFFFFFFFFFFFFFFFFFFFFFFFFFFF AND PUSH4 0xA9059CBB CALLER DUP4 PUSH1 0x40 MLOAD DUP4 PUSH4 0xFFFFFFFF AND PUSH1 0xE0 SHL DUP2 MSTORE PUSH1 0x4 ADD PUSH2 0x159E SWAP3 SWAP2 SWAP1 PUSH2 0x1D85 JUMP JUMPDEST PUSH1 0x20 PUSH1 0x40 MLOAD DUP1 DUP4 SUB DUP2 PUSH0 DUP8 GAS CALL ISZERO DUP1 ISZERO PUSH2 0x15BA JUMPI RETURNDATASIZE PUSH0 DUP1 RETURNDATACOPY RETURNDATASIZE PUSH0 REVERT JUMPDEST POP POP POP POP PUSH1 0x40 MLOAD RETURNDATASIZE PUSH1 0x1F NOT PUSH1 0x1F DUP3 ADD AND DUP3 ADD DUP1 PUSH1 0x40 MSTORE POP DUP2 ADD SWAP1 PUSH2 0x15DE SWAP2 SWAP1 PUSH2 0x21FC JUMP JUMPDEST POP DUP2 PUSH1 0x3 PUSH0 DUP3 DUP3 SLOAD PUSH2 0x15F0 SWAP2 SWAP1 PUSH2 0x225A JUMP JUMPDEST SWAP3 POP POP DUP2 SWAP1 SSTORE POP DUP1 PUSH1 0x4 PUSH0 DUP3 DUP3 SLOAD PUSH2 0x1608 SWAP2 SWAP1 PUSH2 0x225A JUMP JUMPDEST SWAP3 POP POP DUP2 SWAP1 SSTORE POP CALLER PUSH20 0xFFFFFFFFFFFFFFFFFFFFFFFFFFFFFFFFFFFFFFFF AND PUSH32 0x4F7E4F53152CB2CD0E424B2FC990199F0ED4255C7A97A848131F1EEFF165F7B DUP4 DUP4 DUP7 PUSH1 0x3 SLOAD PUSH1 0x4 SLOAD PUSH1 0x40 MLOAD PUSH2 0x1661 SWAP6 SWAP5 SWAP4 SWAP3 SWAP2 SWAP1 PUSH2 0x235D JUMP JUMPDEST PUSH1 0x40 MLOAD DUP1 SWAP2 SUB SWAP1 LOG2 POP POP POP JUMP JUMPDEST PUSH0 DUP1 SLOAD SWAP1 PUSH2 0x100 EXP SWAP1 DIV PUSH20 0xFFFFFFFFFFFFFFFFFFFFFFFFFFFFFFFFFFFFFFFF AND PUSH20 0xFFFFFFFFFFFFFFFFFFFFFFFFFFFFFFFFFFFFFFFF AND PUSH4 0x23B872DD CALLER ADDRESS DUP6 PUSH1 0x40 MLOAD DUP5 PUSH4 0xFFFFFFFF AND PUSH1 0xE0 SHL DUP2 MSTORE PUSH1 0x4 ADD PUSH2 0x16CA SWAP4 SWAP3 SWAP2 SWAP1 PUSH2 0x2192 JUMP JUMPDEST PUSH1 0x20 PUSH1 0x40 MLOAD DUP1 DUP4 SUB DUP2 PUSH0 DUP8 GAS CALL ISZERO DUP1 ISZERO PUSH2 0x16E6 JUMPI RETURNDATASIZE PUSH0 DUP1 RETURNDATACOPY RETURNDATASIZE PUSH0 REVERT JUMPDEST POP POP POP POP PUSH1 0x40 MLOAD RETURNDATASIZE PUSH1 0x1F NOT PUSH1 0x1F DUP3 ADD AND DUP3 ADD DUP1 PUSH1 0x40 MSTORE POP DUP2 ADD SWAP1 PUSH2 0x170A SWAP2 SWAP1 PUSH2 0x21FC JUMP JUMPDEST POP PUSH1 0x1 PUSH0 SWAP1 SLOAD SWAP1 PUSH2 0x100 EXP SWAP1 DIV PUSH20 0xFFFFFFFFFFFFFFFFFFFFFFFFFFFFFFFFFFFFFFFF AND PUSH20 0xFFFFFFFFFFFFFFFFFFFFFFFFFFFFFFFFFFFFFFFF AND PUSH4 0x23B872DD CALLER ADDRESS DUP5 PUSH1 0x40 MLOAD DUP5 PUSH4 0xFFFFFFFF AND PUSH1 0xE0 SHL DUP2 MSTORE PUSH1 0x4 ADD PUSH2 0x1769 SWAP4 SWAP3 SWAP2 SWAP1 PUSH2 0x2192 JUMP JUMPDEST PUSH1 0x20 PUSH1 0x40 MLOAD DUP1 DUP4 SUB DUP2 PUSH0 DUP8 GAS CALL ISZERO DUP1 ISZERO PUSH2 0x1785 JUMPI RETURNDATASIZE PUSH0 DUP1 RETURNDATACOPY RETURNDATASIZE PUSH0 REVERT JUMPDEST POP POP POP POP PUSH1 0x40 MLOAD RETURNDATASIZE PUSH1 0x1F NOT PUSH1 0x1F DUP3 ADD AND DUP3 ADD DUP1 PUSH1 0x40 MSTORE POP DUP2 ADD SWAP1 PUSH2 0x17A9 SWAP2 SWAP1 PUSH2 0x21FC JUMP JUMPDEST POP PUSH0 DUP1 PUSH1 0x2 PUSH0 SWAP1 SLOAD SWAP1 PUSH2 0x100 EXP SWAP1 DIV PUSH20 0xFFFFFFFFFFFFFFFFFFFFFFFFFFFFFFFFFFFFFFFF AND PUSH20 0xFFFFFFFFFFFFFFFFFFFFFFFFFFFFFFFFFFFFFFFF AND PUSH4 0x18160DDD PUSH1 0x40 MLOAD DUP2 PUSH4 0xFFFFFFFF AND PUSH1 0xE0 SHL DUP2 MSTORE PUSH1 0x4 ADD PUSH1 0x20 PUSH1 0x40 MLOAD DUP1 DUP4 SUB DUP2 DUP7 GAS STATICCALL ISZERO DUP1 ISZERO PUSH2 0x1816 JUMPI RETURNDATASIZE PUSH0 DUP1 RETURNDATACOPY RETURNDATASIZE PUSH0 REVERT JUMPDEST POP POP POP POP PUSH1 0x40 MLOAD RETURNDATASIZE PUSH1 0x1F NOT PUSH1 0x1F DUP3 ADD AND DUP3 ADD DUP1 PUSH1 0x40 MSTORE POP DUP2 ADD SWAP1 PUSH2 0x183A SWAP2 SWAP1 PUSH2 0x2097 JUMP JUMPDEST SUB PUSH2 0x185A JUMPI PUSH2 0x1853 DUP3 DUP5 PUSH2 0x184E SWAP2 SWAP1 PUSH2 0x1FF9 JUMP JUMPDEST PUSH2 0x1B0B JUMP JUMPDEST SWAP1 POP PUSH2 0x19B1 JUMP JUMPDEST PUSH2 0x19AE PUSH1 0x3 SLOAD PUSH1 0x2 PUSH0 SWAP1 SLOAD SWAP1 PUSH2 0x100 EXP SWAP1 DIV PUSH20 0xFFFFFFFFFFFFFFFFFFFFFFFFFFFFFFFFFFFFFFFF AND PUSH20 0xFFFFFFFFFFFFFFFFFFFFFFFFFFFFFFFFFFFFFFFF AND PUSH4 0x18160DDD PUSH1 0x40 MLOAD DUP2 PUSH4 0xFFFFFFFF AND PUSH1 0xE0 SHL DUP2 MSTORE PUSH1 0x4 ADD PUSH1 0x20 PUSH1 0x40 MLOAD DUP1 DUP4 SUB DUP2 DUP7 GAS STATICCALL ISZERO DUP1 ISZERO PUSH2 0x18CA JUMPI RETURNDATASIZE PUSH0 DUP1 RETURNDATACOPY RETURNDATASIZE PUSH0 REVERT JUMPDEST POP POP POP POP PUSH1 0x40 MLOAD RETURNDATASIZE PUSH1 0x1F NOT PUSH1 0x1F DUP3 ADD AND DUP3 ADD DUP1 PUSH1 0x40 MSTORE POP DUP2 ADD SWAP1 PUSH2 0x18EE SWAP2 SWAP1 PUSH2 0x2097 JUMP JUMPDEST DUP6 PUSH2 0x18F9 SWAP2 SWAP1 PUSH2 0x1FF9 JUMP JUMPDEST PUSH2 0x1903 SWAP2 SWAP1 PUSH2 0x2067 JUMP JUMPDEST PUSH1 0x4 SLOAD PUSH1 0x2 PUSH0 SWAP1 SLOAD SWAP1 PUSH2 0x100 EXP SWAP1 DIV PUSH20 0xFFFFFFFFFFFFFFFFFFFFFFFFFFFFFFFFFFFFFFFF AND PUSH20 0xFFFFFFFFFFFFFFFFFFFFFFFFFFFFFFFFFFFFFFFF AND PUSH4 0x18160DDD PUSH1 0x40 MLOAD DUP2 PUSH4 0xFFFFFFFF AND PUSH1 0xE0 SHL DUP2 MSTORE PUSH1 0x4 ADD PUSH1 0x20 PUSH1 0x40 MLOAD DUP1 DUP4 SUB DUP2 DUP7 GAS STATICCALL ISZERO DUP1 ISZERO PUSH2 0x1970 JUMPI RETURNDATASIZE PUSH0 DUP1 RETURNDATACOPY RETURNDATASIZE PUSH0 REVERT JUMPDEST POP POP POP POP PUSH1 0x40 MLOAD RETURNDATASIZE PUSH1 0x1F NOT PUSH1 0x1F DUP3 ADD AND DUP3 ADD DUP1 PUSH1 0x40 MSTORE POP DUP2 ADD SWAP1 PUSH2 0x1994 SWAP2 SWAP1 PUSH2 0x2097 JUMP JUMPDEST DUP6 PUSH2 0x199F SWAP2 SWAP1 PUSH2 0x1FF9 JUMP JUMPDEST PUSH2 0x19A9 SWAP2 SWAP1 PUSH2 0x2067 JUMP JUMPDEST PUSH2 0x1225 JUMP JUMPDEST SWAP1 POP JUMPDEST PUSH0 DUP2 GT PUSH2 0x19F3 JUMPI PUSH1 0x40 MLOAD PUSH32 0x8C379A000000000000000000000000000000000000000000000000000000000 DUP2 MSTORE PUSH1 0x4 ADD PUSH2 0x19EA SWAP1 PUSH2 0x23F8 JUMP JUMPDEST PUSH1 0x40 MLOAD DUP1 SWAP2 SUB SWAP1 REVERT JUMPDEST PUSH1 0x2 PUSH0 SWAP1 SLOAD SWAP1 PUSH2 0x100 EXP SWAP1 DIV PUSH20 0xFFFFFFFFFFFFFFFFFFFFFFFFFFFFFFFFFFFFFFFF AND PUSH20 0xFFFFFFFFFFFFFFFFFFFFFFFFFFFFFFFFFFFFFFFF AND PUSH4 0x40C10F19 CALLER DUP4 PUSH1 0x40 MLOAD DUP4 PUSH4 0xFFFFFFFF AND PUSH1 0xE0 SHL DUP2 MSTORE PUSH1 0x4 ADD PUSH2 0x1A4F SWAP3 SWAP2 SWAP1 PUSH2 0x1D85 JUMP JUMPDEST PUSH0 PUSH1 0x40 MLOAD DUP1 DUP4 SUB DUP2 PUSH0 DUP8 DUP1 EXTCODESIZE ISZERO DUP1 ISZERO PUSH2 0x1A66 JUMPI PUSH0 DUP1 REVERT JUMPDEST POP GAS CALL ISZERO DUP1 ISZERO PUSH2 0x1A78 JUMPI RETURNDATASIZE PUSH0 DUP1 RETURNDATACOPY RETURNDATASIZE PUSH0 REVERT JUMPDEST POP POP POP POP DUP3 PUSH1 0x3 PUSH0 DUP3 DUP3 SLOAD PUSH2 0x1A8D SWAP2 SWAP1 PUSH2 0x2227 JUMP JUMPDEST SWAP3 POP POP DUP2 SWAP1 SSTORE POP DUP2 PUSH1 0x4 PUSH0 DUP3 DUP3 SLOAD PUSH2 0x1AA5 SWAP2 SWAP1 PUSH2 0x2227 JUMP JUMPDEST SWAP3 POP POP DUP2 SWAP1 SSTORE POP CALLER PUSH20 0xFFFFFFFFFFFFFFFFFFFFFFFFFFFFFFFFFFFFFFFF AND PUSH32 0x103E5727EE41CE8741FBDF27E5E596DEB21DBE5AE93901499306D10F28D1EF7 DUP5 DUP5 DUP5 PUSH1 0x3 SLOAD PUSH1 0x4 SLOAD PUSH1 0x40 MLOAD PUSH2 0x1AFE SWAP6 SWAP5 SWAP4 SWAP3 SWAP2 SWAP1 PUSH2 0x235D JUMP JUMPDEST PUSH1 0x40 MLOAD DUP1 SWAP2 SUB SWAP1 LOG2 POP POP POP JUMP JUMPDEST PUSH0 PUSH1 0x3 DUP3 GT ISZERO PUSH2 0x1B70 JUMPI DUP2 SWAP1 POP PUSH0 PUSH1 0x1 PUSH1 0x2 DUP5 PUSH2 0x1B28 SWAP2 SWAP1 PUSH2 0x2067 JUMP JUMPDEST PUSH2 0x1B32 SWAP2 SWAP1 PUSH2 0x2227 JUMP JUMPDEST SWAP1 POP JUMPDEST DUP2 DUP2 LT ISZERO PUSH2 0x1B6A JUMPI DUP1 SWAP2 POP PUSH1 0x2 DUP2 DUP3 DUP6 PUSH2 0x1B4F SWAP2 SWAP1 PUSH2 0x2067 JUMP JUMPDEST PUSH2 0x1B59 SWAP2 SWAP1 PUSH2 0x2227 JUMP JUMPDEST PUSH2 0x1B63 SWAP2 SWAP1 PUSH2 0x2067 JUMP JUMPDEST SWAP1 POP PUSH2 0x1B35 JUMP JUMPDEST POP PUSH2 0x1B7D JUMP JUMPDEST PUSH0 DUP3 EQ PUSH2 0x1B7C JUMPI PUSH1 0x1 SWAP1 POP JUMPDEST JUMPDEST SWAP2 SWAP1 POP JUMP JUMPDEST PUSH0 DUP2 SWAP1 POP SWAP2 SWAP1 POP JUMP JUMPDEST PUSH2 0x1B94 DUP2 PUSH2 0x1B82 JUMP JUMPDEST DUP3 MSTORE POP POP JUMP JUMPDEST PUSH0 PUSH1 0x40 DUP3 ADD SWAP1 POP PUSH2 0x1BAD PUSH0 DUP4 ADD DUP6 PUSH2 0x1B8B JUMP JUMPDEST PUSH2 0x1BBA PUSH1 0x20 DUP4 ADD DUP5 PUSH2 0x1B8B JUMP JUMPDEST SWAP4 SWAP3 POP POP POP JUMP JUMPDEST PUSH0 PUSH20 0xFFFFFFFFFFFFFFFFFFFFFFFFFFFFFFFFFFFFFFFF DUP3 AND SWAP1 POP SWAP2 SWAP1 POP JUMP JUMPDEST PUSH0 PUSH2 0x1BEA DUP3 PUSH2 0x1BC1 JUMP JUMPDEST SWAP1 POP SWAP2 SWAP1 POP JUMP JUMPDEST PUSH2 0x1BFA DUP2 PUSH2 0x1BE0 JUMP JUMPDEST DUP3 MSTORE POP POP JUMP JUMPDEST PUSH0 PUSH1 0x20 DUP3 ADD SWAP1 POP PUSH2 0x1C13 PUSH0 DUP4 ADD DUP5 PUSH2 0x1BF1 JUMP JUMPDEST SWAP3 SWAP2 POP POP JUMP JUMPDEST PUSH0 DUP1 REVERT JUMPDEST PUSH2 0x1C26 DUP2 PUSH2 0x1BE0 JUMP JUMPDEST DUP2 EQ PUSH2 0x1C30 JUMPI PUSH0 DUP1 REVERT JUMPDEST POP JUMP JUMPDEST PUSH0 DUP2 CALLDATALOAD SWAP1 POP PUSH2 0x1C41 DUP2 PUSH2 0x1C1D JUMP JUMPDEST SWAP3 SWAP2 POP POP JUMP JUMPDEST PUSH0 PUSH1 0x20 DUP3 DUP5 SUB SLT ISZERO PUSH2 0x1C5C JUMPI PUSH2 0x1C5B PUSH2 0x1C19 JUMP JUMPDEST JUMPDEST PUSH0 PUSH2 0x1C69 DUP5 DUP3 DUP6 ADD PUSH2 0x1C33 JUMP JUMPDEST SWAP2 POP POP SWAP3 SWAP2 POP POP JUMP JUMPDEST PUSH0 DUP2 SWAP1 POP SWAP2 SWAP1 POP JUMP JUMPDEST PUSH2 0x1C84 DUP2 PUSH2 0x1C72 JUMP JUMPDEST DUP3 MSTORE POP POP JUMP JUMPDEST PUSH0 PUSH1 0x20 DUP3 ADD SWAP1 POP PUSH2 0x1C9D PUSH0 DUP4 ADD DUP5 PUSH2 0x1C7B JUMP JUMPDEST SWAP3 SWAP2 POP POP JUMP JUMPDEST PUSH0 PUSH1 0x20 DUP3 ADD SWAP1 POP PUSH2 0x1CB6 PUSH0 DUP4 ADD DUP5 PUSH2 0x1B8B JUMP JUMPDEST SWAP3 SWAP2 POP POP JUMP JUMPDEST PUSH2 0x1CC5 DUP2 PUSH2 0x1B82 JUMP JUMPDEST DUP2 EQ PUSH2 0x1CCF JUMPI PUSH0 DUP1 REVERT JUMPDEST POP JUMP JUMPDEST PUSH0 DUP2 CALLDATALOAD SWAP1 POP PUSH2 0x1CE0 DUP2 PUSH2 0x1CBC JUMP JUMPDEST SWAP3 SWAP2 POP POP JUMP JUMPDEST PUSH0 PUSH1 0x20 DUP3 DUP5 SUB SLT ISZERO PUSH2 0x1CFB JUMPI PUSH2 0x1CFA PUSH2 0x1C19 JUMP JUMPDEST JUMPDEST PUSH0 PUSH2 0x1D08 DUP5 DUP3 DUP6 ADD PUSH2 0x1CD2 JUMP JUMPDEST SWAP2 POP POP SWAP3 SWAP2 POP POP JUMP JUMPDEST PUSH0 DUP2 SWAP1 POP SWAP2 SWAP1 POP JUMP JUMPDEST PUSH0 PUSH2 0x1D34 PUSH2 0x1D2F PUSH2 0x1D2A DUP5 PUSH2 0x1BC1 JUMP JUMPDEST PUSH2 0x1D11 JUMP JUMPDEST PUSH2 0x1BC1 JUMP JUMPDEST SWAP1 POP SWAP2 SWAP1 POP JUMP JUMPDEST PUSH0 PUSH2 0x1D45 DUP3 PUSH2 0x1D1A JUMP JUMPDEST SWAP1 POP SWAP2 SWAP1 POP JUMP JUMPDEST PUSH0 PUSH2 0x1D56 DUP3 PUSH2 0x1D3B JUMP JUMPDEST SWAP1 POP SWAP2 SWAP1 POP JUMP JUMPDEST PUSH2 0x1D66 DUP2 PUSH2 0x1D4C JUMP JUMPDEST DUP3 MSTORE POP POP JUMP JUMPDEST PUSH0 PUSH1 0x20 DUP3 ADD SWAP1 POP PUSH2 0x1D7F PUSH0 DUP4 ADD DUP5 PUSH2 0x1D5D JUMP JUMPDEST SWAP3 SWAP2 POP POP JUMP JUMPDEST PUSH0 PUSH1 0x40 DUP3 ADD SWAP1 POP PUSH2 0x1D98 PUSH0 DUP4 ADD DUP6 PUSH2 0x1BF1 JUMP JUMPDEST PUSH2 0x1DA5 PUSH1 0x20 DUP4 ADD DUP5 PUSH2 0x1B8B JUMP JUMPDEST SWAP4 SWAP3 POP POP POP JUMP JUMPDEST PUSH0 DUP1 PUSH1 0x40 DUP4 DUP6 SUB SLT ISZERO PUSH2 0x1DC2 JUMPI PUSH2 0x1DC1 PUSH2 0x1C19 JUMP JUMPDEST JUMPDEST PUSH0 PUSH2 0x1DCF DUP6 DUP3 DUP7 ADD PUSH2 0x1CD2 JUMP JUMPDEST SWAP3 POP POP PUSH1 0x20 PUSH2 0x1DE0 DUP6 DUP3 DUP7 ADD PUSH2 0x1C33 JUMP JUMPDEST SWAP2 POP POP SWAP3 POP SWAP3 SWAP1 POP JUMP JUMPDEST PUSH0 DUP3 DUP3 MSTORE PUSH1 0x20 DUP3 ADD SWAP1 POP SWAP3 SWAP2 POP POP JUMP JUMPDEST PUSH32 0x496E76616C696420696E70757420746F6B656E00000000000000000000000000 PUSH0 DUP3 ADD MSTORE POP JUMP JUMPDEST PUSH0 PUSH2 0x1E2E PUSH1 0x13 DUP4 PUSH2 0x1DEA JUMP JUMPDEST SWAP2 POP PUSH2 0x1E39 DUP3 PUSH2 0x1DFA JUMP JUMPDEST PUSH1 0x20 DUP3 ADD SWAP1 POP SWAP2 SWAP1 POP JUMP JUMPDEST PUSH0 PUSH1 0x20 DUP3 ADD SWAP1 POP DUP2 DUP2 SUB PUSH0 DUP4 ADD MSTORE PUSH2 0x1E5B DUP2 PUSH2 0x1E22 JUMP JUMPDEST SWAP1 POP SWAP2 SWAP1 POP JUMP JUMPDEST PUSH0 PUSH10 0xFFFFFFFFFFFFFFFFFFFF DUP3 AND SWAP1 POP SWAP2 SWAP1 POP JUMP JUMPDEST PUSH2 0x1E80 DUP2 PUSH2 0x1E62 JUMP JUMPDEST DUP2 EQ PUSH2 0x1E8A JUMPI PUSH0 DUP1 REVERT JUMPDEST POP JUMP JUMPDEST PUSH0 DUP2 MLOAD SWAP1 POP PUSH2 0x1E9B DUP2 PUSH2 0x1E77 JUMP JUMPDEST SWAP3 SWAP2 POP POP JUMP JUMPDEST PUSH2 0x1EAA DUP2 PUSH2 0x1C72 JUMP JUMPDEST DUP2 EQ PUSH2 0x1EB4 JUMPI PUSH0 DUP1 REVERT JUMPDEST POP JUMP JUMPDEST PUSH0 DUP2 MLOAD SWAP1 POP PUSH2 0x1EC5 DUP2 PUSH2 0x1EA1 JUMP JUMPDEST SWAP3 SWAP2 POP POP JUMP JUMPDEST PUSH0 DUP2 MLOAD SWAP1 POP PUSH2 0x1ED9 DUP2 PUSH2 0x1CBC JUMP JUMPDEST SWAP3 SWAP2 POP POP JUMP JUMPDEST PUSH0 DUP1 PUSH0 DUP1 PUSH0 PUSH1 0xA0 DUP7 DUP9 SUB SLT ISZERO PUSH2 0x1EF8 JUMPI PUSH2 0x1EF7 PUSH2 0x1C19 JUMP JUMPDEST JUMPDEST PUSH0 PUSH2 0x1F05 DUP9 DUP3 DUP10 ADD PUSH2 0x1E8D JUMP JUMPDEST SWAP6 POP POP PUSH1 0x20 PUSH2 0x1F16 DUP9 DUP3 DUP10 ADD PUSH2 0x1EB7 JUMP JUMPDEST SWAP5 POP POP PUSH1 0x40 PUSH2 0x1F27 DUP9 DUP3 DUP10 ADD PUSH2 0x1ECB JUMP JUMPDEST SWAP4 POP POP PUSH1 0x60 PUSH2 0x1F38 DUP9 DUP3 DUP10 ADD PUSH2 0x1ECB JUMP JUMPDEST SWAP3 POP POP PUSH1 0x80 PUSH2 0x1F49 DUP9 DUP3 DUP10 ADD PUSH2 0x1E8D JUMP JUMPDEST SWAP2 POP POP SWAP3 SWAP6 POP SWAP3 SWAP6 SWAP1 SWAP4 POP JUMP JUMPDEST PUSH32 0x4E487B7100000000000000000000000000000000000000000000000000000000 PUSH0 MSTORE PUSH1 0x11 PUSH1 0x4 MSTORE PUSH1 0x24 PUSH0 REVERT JUMPDEST PUSH0 PUSH2 0x1F8D DUP3 PUSH2 0x1C72 JUMP JUMPDEST SWAP2 POP PUSH2 0x1F98 DUP4 PUSH2 0x1C72 JUMP JUMPDEST SWAP3 POP DUP3 DUP3 MUL PUSH2 0x1FA6 DUP2 PUSH2 0x1C72 JUMP JUMPDEST SWAP2 POP PUSH32 0x8000000000000000000000000000000000000000000000000000000000000000 DUP5 EQ PUSH0 DUP5 SLT AND ISZERO PUSH2 0x1FDD JUMPI PUSH2 0x1FDC PUSH2 0x1F56 JUMP JUMPDEST JUMPDEST DUP3 DUP3 SDIV DUP5 EQ DUP4 ISZERO OR PUSH2 0x1FF2 JUMPI PUSH2 0x1FF1 PUSH2 0x1F56 JUMP JUMPDEST JUMPDEST POP SWAP3 SWAP2 POP POP JUMP JUMPDEST PUSH0 PUSH2 0x2003 DUP3 PUSH2 0x1B82 JUMP JUMPDEST SWAP2 POP PUSH2 0x200E DUP4 PUSH2 0x1B82 JUMP JUMPDEST SWAP3 POP DUP3 DUP3 MUL PUSH2 0x201C DUP2 PUSH2 0x1B82 JUMP JUMPDEST SWAP2 POP DUP3 DUP3 DIV DUP5 EQ DUP4 ISZERO OR PUSH2 0x2033 JUMPI PUSH2 0x2032 PUSH2 0x1F56 JUMP JUMPDEST JUMPDEST POP SWAP3 SWAP2 POP POP JUMP JUMPDEST PUSH32 0x4E487B7100000000000000000000000000000000000000000000000000000000 PUSH0 MSTORE PUSH1 0x12 PUSH1 0x4 MSTORE PUSH1 0x24 PUSH0 REVERT JUMPDEST PUSH0 PUSH2 0x2071 DUP3 PUSH2 0x1B82 JUMP JUMPDEST SWAP2 POP PUSH2 0x207C DUP4 PUSH2 0x1B82 JUMP JUMPDEST SWAP3 POP DUP3 PUSH2 0x208C JUMPI PUSH2 0x208B PUSH2 0x203A JUMP JUMPDEST JUMPDEST DUP3 DUP3 DIV SWAP1 POP SWAP3 SWAP2 POP POP JUMP JUMPDEST PUSH0 PUSH1 0x20 DUP3 DUP5 SUB SLT ISZERO PUSH2 0x20AC JUMPI PUSH2 0x20AB PUSH2 0x1C19 JUMP JUMPDEST JUMPDEST PUSH0 PUSH2 0x20B9 DUP5 DUP3 DUP6 ADD PUSH2 0x1ECB JUMP JUMPDEST SWAP2 POP POP SWAP3 SWAP2 POP POP JUMP JUMPDEST PUSH0 PUSH2 0x20CC DUP3 PUSH2 0x1C72 JUMP JUMPDEST SWAP2 POP PUSH2 0x20D7 DUP4 PUSH2 0x1C72 JUMP JUMPDEST SWAP3 POP DUP3 PUSH2 0x20E7 JUMPI PUSH2 0x20E6 PUSH2 0x203A JUMP JUMPDEST JUMPDEST PUSH1 0x1 PUSH0 SUB DUP4 EQ PUSH32 0x8000000000000000000000000000000000000000000000000000000000000000 DUP4 EQ AND ISZERO PUSH2 0x211F JUMPI PUSH2 0x211E PUSH2 0x1F56 JUMP JUMPDEST JUMPDEST DUP3 DUP3 SDIV SWAP1 POP SWAP3 SWAP2 POP POP JUMP JUMPDEST PUSH32 0x526573657276657320617265206E6F7420736574000000000000000000000000 PUSH0 DUP3 ADD MSTORE POP JUMP JUMPDEST PUSH0 PUSH2 0x215E PUSH1 0x14 DUP4 PUSH2 0x1DEA JUMP JUMPDEST SWAP2 POP PUSH2 0x2169 DUP3 PUSH2 0x212A JUMP JUMPDEST PUSH1 0x20 DUP3 ADD SWAP1 POP SWAP2 SWAP1 POP JUMP JUMPDEST PUSH0 PUSH1 0x20 DUP3 ADD SWAP1 POP DUP2 DUP2 SUB PUSH0 DUP4 ADD MSTORE PUSH2 0x218B DUP2 PUSH2 0x2152 JUMP JUMPDEST SWAP1 POP SWAP2 SWAP1 POP JUMP JUMPDEST PUSH0 PUSH1 0x60 DUP3 ADD SWAP1 POP PUSH2 0x21A5 PUSH0 DUP4 ADD DUP7 PUSH2 0x1BF1 JUMP JUMPDEST PUSH2 0x21B2 PUSH1 0x20 DUP4 ADD DUP6 PUSH2 0x1BF1 JUMP JUMPDEST PUSH2 0x21BF PUSH1 0x40 DUP4 ADD DUP5 PUSH2 0x1B8B JUMP JUMPDEST SWAP5 SWAP4 POP POP POP POP JUMP JUMPDEST PUSH0 DUP2 ISZERO ISZERO SWAP1 POP SWAP2 SWAP1 POP JUMP JUMPDEST PUSH2 0x21DB DUP2 PUSH2 0x21C7 JUMP JUMPDEST DUP2 EQ PUSH2 0x21E5 JUMPI PUSH0 DUP1 REVERT JUMPDEST POP JUMP JUMPDEST PUSH0 DUP2 MLOAD SWAP1 POP PUSH2 0x21F6 DUP2 PUSH2 0x21D2 JUMP JUMPDEST SWAP3 SWAP2 POP POP JUMP JUMPDEST PUSH0 PUSH1 0x20 DUP3 DUP5 SUB SLT ISZERO PUSH2 0x2211 JUMPI PUSH2 0x2210 PUSH2 0x1C19 JUMP JUMPDEST JUMPDEST PUSH0 PUSH2 0x221E DUP5 DUP3 DUP6 ADD PUSH2 0x21E8 JUMP JUMPDEST SWAP2 POP POP SWAP3 SWAP2 POP POP JUMP JUMPDEST PUSH0 PUSH2 0x2231 DUP3 PUSH2 0x1B82 JUMP JUMPDEST SWAP2 POP PUSH2 0x223C DUP4 PUSH2 0x1B82 JUMP JUMPDEST SWAP3 POP DUP3 DUP3 ADD SWAP1 POP DUP1 DUP3 GT ISZERO PUSH2 0x2254 JUMPI PUSH2 0x2253 PUSH2 0x1F56 JUMP JUMPDEST JUMPDEST SWAP3 SWAP2 POP POP JUMP JUMPDEST PUSH0 PUSH2 0x2264 DUP3 PUSH2 0x1B82 JUMP JUMPDEST SWAP2 POP PUSH2 0x226F DUP4 PUSH2 0x1B82 JUMP JUMPDEST SWAP3 POP DUP3 DUP3 SUB SWAP1 POP DUP2 DUP2 GT ISZERO PUSH2 0x2287 JUMPI PUSH2 0x2286 PUSH2 0x1F56 JUMP JUMPDEST JUMPDEST SWAP3 SWAP2 POP POP JUMP JUMPDEST PUSH32 0x496E73756666696369656E74206C697175696469747900000000000000000000 PUSH0 DUP3 ADD MSTORE POP JUMP JUMPDEST PUSH0 PUSH2 0x22C1 PUSH1 0x16 DUP4 PUSH2 0x1DEA JUMP JUMPDEST SWAP2 POP PUSH2 0x22CC DUP3 PUSH2 0x228D JUMP JUMPDEST PUSH1 0x20 DUP3 ADD SWAP1 POP SWAP2 SWAP1 POP JUMP JUMPDEST PUSH0 PUSH1 0x20 DUP3 ADD SWAP1 POP DUP2 DUP2 SUB PUSH0 DUP4 ADD MSTORE PUSH2 0x22EE DUP2 PUSH2 0x22B5 JUMP JUMPDEST SWAP1 POP SWAP2 SWAP1 POP JUMP JUMPDEST PUSH32 0x496E73756666696369656E74206C69717569646974792072656D6F7665640000 PUSH0 DUP3 ADD MSTORE POP JUMP JUMPDEST PUSH0 PUSH2 0x2329 PUSH1 0x1E DUP4 PUSH2 0x1DEA JUMP JUMPDEST SWAP2 POP PUSH2 0x2334 DUP3 PUSH2 0x22F5 JUMP JUMPDEST PUSH1 0x20 DUP3 ADD SWAP1 POP SWAP2 SWAP1 POP JUMP JUMPDEST PUSH0 PUSH1 0x20 DUP3 ADD SWAP1 POP DUP2 DUP2 SUB PUSH0 DUP4 ADD MSTORE PUSH2 0x2356 DUP2 PUSH2 0x231D JUMP JUMPDEST SWAP1 POP SWAP2 SWAP1 POP JUMP JUMPDEST PUSH0 PUSH1 0xA0 DUP3 ADD SWAP1 POP PUSH2 0x2370 PUSH0 DUP4 ADD DUP9 PUSH2 0x1B8B JUMP JUMPDEST PUSH2 0x237D PUSH1 0x20 DUP4 ADD DUP8 PUSH2 0x1B8B JUMP JUMPDEST PUSH2 0x238A PUSH1 0x40 DUP4 ADD DUP7 PUSH2 0x1B8B JUMP JUMPDEST PUSH2 0x2397 PUSH1 0x60 DUP4 ADD DUP6 PUSH2 0x1B8B JUMP JUMPDEST PUSH2 0x23A4 PUSH1 0x80 DUP4 ADD DUP5 PUSH2 0x1B8B JUMP JUMPDEST SWAP7 SWAP6 POP POP POP POP POP POP JUMP JUMPDEST PUSH32 0x496E73756666696369656E74206C69717569646974792070726F766964656400 PUSH0 DUP3 ADD MSTORE POP JUMP JUMPDEST PUSH0 PUSH2 0x23E2 PUSH1 0x1F DUP4 PUSH2 0x1DEA JUMP JUMPDEST SWAP2 POP PUSH2 0x23ED DUP3 PUSH2 0x23AE JUMP JUMPDEST PUSH1 0x20 DUP3 ADD SWAP1 POP SWAP2 SWAP1 POP JUMP JUMPDEST PUSH0 PUSH1 0x20 DUP3 ADD SWAP1 POP DUP2 DUP2 SUB PUSH0 DUP4 ADD MSTORE PUSH2 0x240F DUP2 PUSH2 0x23D6 JUMP JUMPDEST SWAP1 POP SWAP2 SWAP1 POP JUMP INVALID LOG2 PUSH5 0x6970667358 0x22 SLT KECCAK256 CALLDATACOPY 0x28 PUSH2 0x50B3 CALLCODE 0xF RETURN CHAINID 0xCA PUSH0 0x29 0xAE 0xFC 0x1E 0xBD MUL 0xC2 0x4B 0xC8 0xA7 PUSH23 0x73463ED48AD45EDDEF4B64736F6C634300081400330000 "
				},
				"gasEstimates": {
					"creation": {
						"codeDepositCost": "1858400",
						"executionCost": "infinite",
						"totalCost": "infinite"
					},
					"external": {
						"addLiquidityInUSD(uint256)": "infinite",
						"getAmountOut(uint256,address)": "infinite",
						"getDAIperLinkMarketPrice()": "infinite",
						"getDAIperLinkOurDEXPrice()": "infinite",
						"getLPTokenDetails(address)": "infinite",
						"getPrice(address)": "infinite",
						"getPriceRatio()": "infinite",
						"getReserves()": "infinite",
						"lpToken()": "infinite",
						"removeLiquidityInUSD(uint256)": "infinite",
						"reserve0()": "2448",
						"reserve1()": "2514",
						"swapInUSD(uint256,address)": "infinite",
						"token0()": "2551",
						"token1()": "2574"
					},
					"internal": {
						"addLiquidity(uint256,uint256)": "infinite",
						"min(uint256,uint256)": "63",
						"removeLiquidity(uint256)": "infinite",
						"sqrt(uint256)": "infinite"
					}
				},
				"methodIdentifiers": {
					"addLiquidityInUSD(uint256)": "64e7b85a",
					"getAmountOut(uint256,address)": "f140a35a",
					"getDAIperLinkMarketPrice()": "a996944c",
					"getDAIperLinkOurDEXPrice()": "729132f9",
					"getLPTokenDetails(address)": "bff46a4c",
					"getPrice(address)": "41976e09",
					"getPriceRatio()": "54b2a769",
					"getReserves()": "0902f1ac",
					"lpToken()": "5fcbd285",
					"removeLiquidityInUSD(uint256)": "5444a39d",
					"reserve0()": "443cb4bc",
					"reserve1()": "5a76f25e",
					"swapInUSD(uint256,address)": "d0e7e07e",
					"token0()": "0dfe1681",
					"token1()": "d21220a7"
				}
			},
			"storageLayout": {
				"storage": [
					{
						"astId": 882,
						"contract": "contracts/blockmagic_hackaton/Dex_functionalities/Pair_v6_LP.sol:Pair",
						"label": "token0",
						"offset": 0,
						"slot": "0",
						"type": "t_address"
					},
					{
						"astId": 884,
						"contract": "contracts/blockmagic_hackaton/Dex_functionalities/Pair_v6_LP.sol:Pair",
						"label": "token1",
						"offset": 0,
						"slot": "1",
						"type": "t_address"
					},
					{
						"astId": 887,
						"contract": "contracts/blockmagic_hackaton/Dex_functionalities/Pair_v6_LP.sol:Pair",
						"label": "lpToken",
						"offset": 0,
						"slot": "2",
						"type": "t_contract(LPToken)875"
					},
					{
						"astId": 889,
						"contract": "contracts/blockmagic_hackaton/Dex_functionalities/Pair_v6_LP.sol:Pair",
						"label": "reserve0",
						"offset": 0,
						"slot": "3",
						"type": "t_uint256"
					},
					{
						"astId": 891,
						"contract": "contracts/blockmagic_hackaton/Dex_functionalities/Pair_v6_LP.sol:Pair",
						"label": "reserve1",
						"offset": 0,
						"slot": "4",
						"type": "t_uint256"
					},
					{
						"astId": 894,
						"contract": "contracts/blockmagic_hackaton/Dex_functionalities/Pair_v6_LP.sol:Pair",
						"label": "priceFeed0",
						"offset": 0,
						"slot": "5",
						"type": "t_contract(AggregatorV3Interface)45"
					},
					{
						"astId": 897,
						"contract": "contracts/blockmagic_hackaton/Dex_functionalities/Pair_v6_LP.sol:Pair",
						"label": "priceFeed1",
						"offset": 0,
						"slot": "6",
						"type": "t_contract(AggregatorV3Interface)45"
					}
				],
				"types": {
					"t_address": {
						"encoding": "inplace",
						"label": "address",
						"numberOfBytes": "20"
					},
					"t_contract(AggregatorV3Interface)45": {
						"encoding": "inplace",
						"label": "contract AggregatorV3Interface",
						"numberOfBytes": "20"
					},
					"t_contract(LPToken)875": {
						"encoding": "inplace",
						"label": "contract LPToken",
						"numberOfBytes": "20"
					},
					"t_uint256": {
						"encoding": "inplace",
						"label": "uint256",
						"numberOfBytes": "32"
					}
				}
			},
			"userdoc": {
				"kind": "user",
				"methods": {},
				"version": 1
			}
		}
	}
}