{
	"data": {
		"bytecode": {
			"linkReferences": {},
			"object": "608060405234801562000010575f80fd5b506040516200352f3803806200352f8339818101604052810190620000369190620003ba565b865f806101000a81548173ffffffffffffffffffffffffffffffffffffffff021916908373ffffffffffffffffffffffffffffffffffffffff1602179055508560015f6101000a81548173ffffffffffffffffffffffffffffffffffffffff021916908373ffffffffffffffffffffffffffffffffffffffff1602179055508460055f6101000a81548173ffffffffffffffffffffffffffffffffffffffff021916908373ffffffffffffffffffffffffffffffffffffffff1602179055508360065f6101000a81548173ffffffffffffffffffffffffffffffffffffffff021916908373ffffffffffffffffffffffffffffffffffffffff1602179055508260025f6101000a81548173ffffffffffffffffffffffffffffffffffffffff021916908373ffffffffffffffffffffffffffffffffffffffff1602179055508160075f6101000a81548173ffffffffffffffffffffffffffffffffffffffff021916908373ffffffffffffffffffffffffffffffffffffffff1602179055508060099081620001c69190620006be565b5050505050505050620007a2565b5f604051905090565b5f80fd5b5f80fd5b5f73ffffffffffffffffffffffffffffffffffffffff82169050919050565b5f6200021082620001e5565b9050919050565b620002228162000204565b81146200022d575f80fd5b50565b5f81519050620002408162000217565b92915050565b5f80fd5b5f80fd5b5f601f19601f8301169050919050565b7f4e487b71000000000000000000000000000000000000000000000000000000005f52604160045260245ffd5b62000296826200024e565b810181811067ffffffffffffffff82111715620002b857620002b76200025e565b5b80604052505050565b5f620002cc620001d4565b9050620002da82826200028b565b919050565b5f67ffffffffffffffff821115620002fc57620002fb6200025e565b5b62000307826200024e565b9050602081019050919050565b5f5b838110156200033357808201518184015260208101905062000316565b5f8484015250505050565b5f620003546200034e84620002df565b620002c1565b9050828152602081018484840111156200037357620003726200024a565b5b6200038084828562000314565b509392505050565b5f82601f8301126200039f576200039e62000246565b5b8151620003b18482602086016200033e565b91505092915050565b5f805f805f805f60e0888a031215620003d857620003d7620001dd565b5b5f620003e78a828b0162000230565b9750506020620003fa8a828b0162000230565b96505060406200040d8a828b0162000230565b9550506060620004208a828b0162000230565b9450506080620004338a828b0162000230565b93505060a0620004468a828b0162000230565b92505060c088015167ffffffffffffffff8111156200046a5762000469620001e1565b5b620004788a828b0162000388565b91505092959891949750929550565b5f81519050919050565b7f4e487b71000000000000000000000000000000000000000000000000000000005f52602260045260245ffd5b5f6002820490506001821680620004d657607f821691505b602082108103620004ec57620004eb62000491565b5b50919050565b5f819050815f5260205f209050919050565b5f6020601f8301049050919050565b5f82821b905092915050565b5f60088302620005507fffffffffffffffffffffffffffffffffffffffffffffffffffffffffffffffff8262000513565b6200055c868362000513565b95508019841693508086168417925050509392505050565b5f819050919050565b5f819050919050565b5f620005a6620005a06200059a8462000574565b6200057d565b62000574565b9050919050565b5f819050919050565b620005c18362000586565b620005d9620005d082620005ad565b8484546200051f565b825550505050565b5f90565b620005ef620005e1565b620005fc818484620005b6565b505050565b5b818110156200062357620006175f82620005e5565b60018101905062000602565b5050565b601f82111562000672576200063c81620004f2565b620006478462000504565b8101602085101562000657578190505b6200066f620006668562000504565b83018262000601565b50505b505050565b5f82821c905092915050565b5f620006945f198460080262000677565b1980831691505092915050565b5f620006ae838362000683565b9150826002028217905092915050565b620006c98262000487565b67ffffffffffffffff811115620006e557620006e46200025e565b5b620006f18254620004be565b620006fe82828562000627565b5f60209050601f83116001811462000734575f84156200071f578287015190505b6200072b8582620006a1565b8655506200079a565b601f1984166200074486620004f2565b5f5b828110156200076d5784890151825560018201915060208501945060208101905062000746565b868310156200078d578489015162000789601f89168262000683565b8355505b6001600288020188555050505b505050505050565b612d7f80620007b05f395ff3fe608060405234801561000f575f80fd5b506004361061012a575f3560e01c80635a76f25e116100ab578063a996944c1161006f578063a996944c146102fb578063d0e7e07e14610319578063d21220a714610335578063f140a35a14610353578063f953cec7146103835761012a565b80635a76f25e146102675780635fcbd2851461028557806364e7b85a146102a3578063729132f9146102bf5780638304e6d2146102dd5761012a565b8063443cb4bc116100f2578063443cb4bc146101d757806347dbf9be146101f55780634fb0ffa4146102115780635444a39d1461022d57806354b2a769146102495761012a565b80630902f1ac1461012e5780630de229841461014d5780630dfe16811461016b57806332843ee31461018957806341976e09146101a7575b5f80fd5b61013661039f565b604051610144929190611f85565b60405180910390f35b6101556103af565b6040516101629190611feb565b60405180910390f35b6101736103d4565b6040516101809190611feb565b60405180910390f35b6101916103f7565b60405161019e9190611feb565b60405180910390f35b6101c160048036038101906101bc919061203f565b61041c565b6040516101ce9190612082565b60405180910390f35b6101df6106af565b6040516101ec919061209b565b60405180910390f35b61020f600480360381019061020a919061203f565b6106b5565b005b61022b600480360381019061022691906120de565b6106f8565b005b6102476004803603810190610242919061211c565b610861565b005b610251610a7d565b60405161025e9190612082565b60405180910390f35b61026f610bea565b60405161027c919061209b565b60405180910390f35b61028d610bf0565b60405161029a91906121a2565b60405180910390f35b6102bd60048036038101906102b8919061211c565b610c15565b005b6102c7610cda565b6040516102d4919061209b565b60405180910390f35b6102e5610d54565b6040516102f29190612245565b60405180910390f35b610303610de0565b604051610310919061209b565b60405180910390f35b610333600480360381019061032e91906120de565b610f31565b005b61033d6112bf565b60405161034a9190611feb565b60405180910390f35b61036d600480360381019061036891906120de565b6112e4565b60405161037a919061209b565b60405180910390f35b61039d60048036038101906103989190612391565b611490565b005b5f80600354600454915091509091565b60075f9054906101000a900473ffffffffffffffffffffffffffffffffffffffff1681565b5f8054906101000a900473ffffffffffffffffffffffffffffffffffffffff1681565b60085f9054906101000a900473ffffffffffffffffffffffffffffffffffffffff1681565b5f805f9054906101000a900473ffffffffffffffffffffffffffffffffffffffff1673ffffffffffffffffffffffffffffffffffffffff168273ffffffffffffffffffffffffffffffffffffffff1614806104c3575060015f9054906101000a900473ffffffffffffffffffffffffffffffffffffffff1673ffffffffffffffffffffffffffffffffffffffff168273ffffffffffffffffffffffffffffffffffffffff16145b610502576040517f08c379a00000000000000000000000000000000000000000000000000000000081526004016104f990612432565b60405180910390fd5b5f805f9054906101000a900473ffffffffffffffffffffffffffffffffffffffff1673ffffffffffffffffffffffffffffffffffffffff168373ffffffffffffffffffffffffffffffffffffffff16036105f85760055f9054906101000a900473ffffffffffffffffffffffffffffffffffffffff1673ffffffffffffffffffffffffffffffffffffffff1663feaf968c6040518163ffffffff1660e01b815260040160a060405180830381865afa1580156105c0573d5f803e3d5ffd5b505050506040513d601f19601f820116820180604052508101906105e491906124cd565b909192935090915090505080915050610696565b60065f9054906101000a900473ffffffffffffffffffffffffffffffffffffffff1673ffffffffffffffffffffffffffffffffffffffff1663feaf968c6040518163ffffffff1660e01b815260040160a060405180830381865afa158015610662573d5f803e3d5ffd5b505050506040513d601f19601f8201168201806040525081019061068691906124cd565b9091929350909150905050809150505b6402540be400816106a79190612571565b915050919050565b60035481565b8060085f6101000a81548173ffffffffffffffffffffffffffffffffffffffff021916908373ffffffffffffffffffffffffffffffffffffffff16021790555050565b5f8054906101000a900473ffffffffffffffffffffffffffffffffffffffff1673ffffffffffffffffffffffffffffffffffffffff166323b872dd3330856040518463ffffffff1660e01b8152600401610754939291906125e7565b6020604051808303815f875af1158015610770573d5f803e3d5ffd5b505050506040513d601f19601f820116820180604052508101906107949190612651565b505f81835f8054906101000a900473ffffffffffffffffffffffffffffffffffffffff166040516020016107ca9392919061267c565b60405160208183030381529060405290505f60096107e790612795565b60c01c90508067ffffffffffffffff1682805190602001207feea8a479f07983d1364c4330c9bf3442a1cd421b79b16909bcc1867188ea676b85875f8054906101000a900473ffffffffffffffffffffffffffffffffffffffff165f604051610853949392919061283e565b60405180910390a350505050565b5f61088a5f8054906101000a900473ffffffffffffffffffffffffffffffffffffffff1661041c565b90505f6108b760015f9054906101000a900473ffffffffffffffffffffffffffffffffffffffff1661041c565b90505f8260026108c79190612881565b670de0b6b3a7640000856108db9190612881565b6108e591906128ef565b90505f8260026108f59190612881565b670de0b6b3a7640000866109099190612881565b61091391906128ef565b90505f610a6a60035460025f9054906101000a900473ffffffffffffffffffffffffffffffffffffffff1673ffffffffffffffffffffffffffffffffffffffff166318160ddd6040518163ffffffff1660e01b8152600401602060405180830381865afa158015610986573d5f803e3d5ffd5b505050506040513d601f19601f820116820180604052508101906109aa919061291f565b856109b59190612881565b6109bf91906128ef565b60045460025f9054906101000a900473ffffffffffffffffffffffffffffffffffffffff1673ffffffffffffffffffffffffffffffffffffffff166318160ddd6040518163ffffffff1660e01b8152600401602060405180830381865afa158015610a2c573d5f803e3d5ffd5b505050506040513d601f19601f82011682018060405250810190610a50919061291f565b85610a5b9190612881565b610a6591906128ef565b611610565b9050610a7581611628565b505050505050565b5f8060055f9054906101000a900473ffffffffffffffffffffffffffffffffffffffff1673ffffffffffffffffffffffffffffffffffffffff1663feaf968c6040518163ffffffff1660e01b815260040160a060405180830381865afa158015610ae9573d5f803e3d5ffd5b505050506040513d601f19601f82011682018060405250810190610b0d91906124cd565b5050509150505f60065f9054906101000a900473ffffffffffffffffffffffffffffffffffffffff1673ffffffffffffffffffffffffffffffffffffffff1663feaf968c6040518163ffffffff1660e01b815260040160a060405180830381865afa158015610b7e573d5f803e3d5ffd5b505050506040513d601f19601f82011682018060405250810190610ba291906124cd565b5050509150506402540be40081610bb99190612571565b6305f5e1006402540be40084610bcf9190612571565b610bd99190612571565b610be3919061294a565b9250505090565b60045481565b60025f9054906101000a900473ffffffffffffffffffffffffffffffffffffffff1681565b5f610c3e5f8054906101000a900473ffffffffffffffffffffffffffffffffffffffff1661041c565b90505f610c6b60015f9054906101000a900473ffffffffffffffffffffffffffffffffffffffff1661041c565b90505f826002610c7b9190612881565b670de0b6b3a764000085610c8f9190612881565b610c9991906128ef565b90505f826002610ca99190612881565b670de0b6b3a764000086610cbd9190612881565b610cc791906128ef565b9050610cd38282611a59565b5050505050565b5f80600354118015610ced57505f600454115b610d2c576040517f08c379a0000000000000000000000000000000000000000000000000000000008152600401610d23906129fc565b60405180910390fd5b600354670de0b6b3a7640000600454610d459190612881565b610d4f91906128ef565b905090565b60098054610d61906126de565b80601f0160208091040260200160405190810160405280929190818152602001828054610d8d906126de565b8015610dd85780601f10610daf57610100808354040283529160200191610dd8565b820191905f5260205f20905b815481529060010190602001808311610dbb57829003601f168201915b505050505081565b5f8060055f9054906101000a900473ffffffffffffffffffffffffffffffffffffffff1673ffffffffffffffffffffffffffffffffffffffff1663feaf968c6040518163ffffffff1660e01b815260040160a060405180830381865afa158015610e4c573d5f803e3d5ffd5b505050506040513d601f19601f82011682018060405250810190610e7091906124cd565b5050509150505f60065f9054906101000a900473ffffffffffffffffffffffffffffffffffffffff1673ffffffffffffffffffffffffffffffffffffffff1663feaf968c6040518163ffffffff1660e01b815260040160a060405180830381865afa158015610ee1573d5f803e3d5ffd5b505050506040513d601f19601f82011682018060405250810190610f0591906124cd565b50505091505080670de0b6b3a764000083610f209190612881565b610f2a91906128ef565b9250505090565b5f8054906101000a900473ffffffffffffffffffffffffffffffffffffffff1673ffffffffffffffffffffffffffffffffffffffff168173ffffffffffffffffffffffffffffffffffffffff161480610fd6575060015f9054906101000a900473ffffffffffffffffffffffffffffffffffffffff1673ffffffffffffffffffffffffffffffffffffffff168173ffffffffffffffffffffffffffffffffffffffff16145b611015576040517f08c379a000000000000000000000000000000000000000000000000000000000815260040161100c90612432565b60405180910390fd5b5f61103e5f8054906101000a900473ffffffffffffffffffffffffffffffffffffffff1661041c565b90505f61106b60015f9054906101000a900473ffffffffffffffffffffffffffffffffffffffff1661041c565b90505f805f9054906101000a900473ffffffffffffffffffffffffffffffffffffffff1673ffffffffffffffffffffffffffffffffffffffff168473ffffffffffffffffffffffffffffffffffffffff161490505f816110ea575f8054906101000a900473ffffffffffffffffffffffffffffffffffffffff1661110d565b60015f9054906101000a900473ffffffffffffffffffffffffffffffffffffffff165b90505f8261111b578361111d565b845b90505f81670de0b6b3a7640000896111359190612881565b61113f91906128ef565b90505f61114c82896112e4565b90508773ffffffffffffffffffffffffffffffffffffffff166323b872dd3330856040518463ffffffff1660e01b815260040161118b939291906125e7565b6020604051808303815f875af11580156111a7573d5f803e3d5ffd5b505050506040513d601f19601f820116820180604052508101906111cb9190612651565b508373ffffffffffffffffffffffffffffffffffffffff1663a9059cbb33836040518363ffffffff1660e01b8152600401611207929190612a1a565b6020604051808303815f875af1158015611223573d5f803e3d5ffd5b505050506040513d601f19601f820116820180604052508101906112479190612651565b508415611283578160035f82825461125f9190612a41565b925050819055508060045f8282546112779190612a74565b925050819055506112b4565b8160045f8282546112949190612a41565b925050819055508060035f8282546112ac9190612a74565b925050819055505b505050505050505050565b60015f9054906101000a900473ffffffffffffffffffffffffffffffffffffffff1681565b5f805f9054906101000a900473ffffffffffffffffffffffffffffffffffffffff1673ffffffffffffffffffffffffffffffffffffffff168273ffffffffffffffffffffffffffffffffffffffff16148061138b575060015f9054906101000a900473ffffffffffffffffffffffffffffffffffffffff1673ffffffffffffffffffffffffffffffffffffffff168273ffffffffffffffffffffffffffffffffffffffff16145b6113ca576040517f08c379a00000000000000000000000000000000000000000000000000000000081526004016113c190612432565b60405180910390fd5b5f805f9054906101000a900473ffffffffffffffffffffffffffffffffffffffff1673ffffffffffffffffffffffffffffffffffffffff168373ffffffffffffffffffffffffffffffffffffffff161490505f8161142a5760045461142e565b6003545b90505f8261143e57600354611442565b6004545b90505f6103e86103e5886114569190612881565b61146091906128ef565b9050808361146e9190612a41565b828261147a9190612881565b61148491906128ef565b94505050505092915050565b60075f9054906101000a900473ffffffffffffffffffffffffffffffffffffffff1673ffffffffffffffffffffffffffffffffffffffff163373ffffffffffffffffffffffffffffffffffffffff161461151f576040517f08c379a000000000000000000000000000000000000000000000000000000000815260040161151690612b17565b60405180910390fd5b5f805f838060200190518101906115369190612b70565b9250925092508073ffffffffffffffffffffffffffffffffffffffff1663a9059cbb84846040518363ffffffff1660e01b8152600401611577929190612a1a565b6020604051808303815f875af1158015611593573d5f803e3d5ffd5b505050506040513d601f19601f820116820180604052508101906115b79190612651565b503373ffffffffffffffffffffffffffffffffffffffff167f6bf7034bf4a66e25fc097062a5aad392485138a48987ad77209e332e253591568484846040516116029392919061267c565b60405180910390a250505050565b5f81831061161e5781611620565b825b905092915050565b5f811161166a576040517f08c379a000000000000000000000000000000000000000000000000000000000815260040161166190612c0a565b60405180910390fd5b5f60025f9054906101000a900473ffffffffffffffffffffffffffffffffffffffff1673ffffffffffffffffffffffffffffffffffffffff166318160ddd6040518163ffffffff1660e01b8152600401602060405180830381865afa1580156116d5573d5f803e3d5ffd5b505050506040513d601f19601f820116820180604052508101906116f9919061291f565b600354836117079190612881565b61171191906128ef565b90505f60025f9054906101000a900473ffffffffffffffffffffffffffffffffffffffff1673ffffffffffffffffffffffffffffffffffffffff166318160ddd6040518163ffffffff1660e01b8152600401602060405180830381865afa15801561177e573d5f803e3d5ffd5b505050506040513d601f19601f820116820180604052508101906117a2919061291f565b600454846117b09190612881565b6117ba91906128ef565b90505f821180156117ca57505f81115b611809576040517f08c379a000000000000000000000000000000000000000000000000000000000815260040161180090612c72565b60405180910390fd5b60025f9054906101000a900473ffffffffffffffffffffffffffffffffffffffff1673ffffffffffffffffffffffffffffffffffffffff16639dc29fac33856040518363ffffffff1660e01b8152600401611865929190612a1a565b5f604051808303815f87803b15801561187c575f80fd5b505af115801561188e573d5f803e3d5ffd5b505050505f8054906101000a900473ffffffffffffffffffffffffffffffffffffffff1673ffffffffffffffffffffffffffffffffffffffff1663a9059cbb33846040518363ffffffff1660e01b81526004016118ec929190612a1a565b6020604051808303815f875af1158015611908573d5f803e3d5ffd5b505050506040513d601f19601f8201168201806040525081019061192c9190612651565b5060015f9054906101000a900473ffffffffffffffffffffffffffffffffffffffff1673ffffffffffffffffffffffffffffffffffffffff1663a9059cbb33836040518363ffffffff1660e01b8152600401611989929190612a1a565b6020604051808303815f875af11580156119a5573d5f803e3d5ffd5b505050506040513d601f19601f820116820180604052508101906119c99190612651565b508160035f8282546119db9190612a74565b925050819055508060045f8282546119f39190612a74565b925050819055503373ffffffffffffffffffffffffffffffffffffffff167f04f7e4f53152cb2cd0e424b2fc990199f0ed4255c7a97a848131f1eeff165f7b838386600354600454604051611a4c959493929190612c90565b60405180910390a2505050565b5f8054906101000a900473ffffffffffffffffffffffffffffffffffffffff1673ffffffffffffffffffffffffffffffffffffffff166323b872dd3330856040518463ffffffff1660e01b8152600401611ab5939291906125e7565b6020604051808303815f875af1158015611ad1573d5f803e3d5ffd5b505050506040513d601f19601f82011682018060405250810190611af59190612651565b5060015f9054906101000a900473ffffffffffffffffffffffffffffffffffffffff1673ffffffffffffffffffffffffffffffffffffffff166323b872dd3330846040518463ffffffff1660e01b8152600401611b54939291906125e7565b6020604051808303815f875af1158015611b70573d5f803e3d5ffd5b505050506040513d601f19601f82011682018060405250810190611b949190612651565b505f8060025f9054906101000a900473ffffffffffffffffffffffffffffffffffffffff1673ffffffffffffffffffffffffffffffffffffffff166318160ddd6040518163ffffffff1660e01b8152600401602060405180830381865afa158015611c01573d5f803e3d5ffd5b505050506040513d601f19601f82011682018060405250810190611c25919061291f565b03611c4557611c3e8284611c399190612881565b611ef6565b9050611d9c565b611d9960035460025f9054906101000a900473ffffffffffffffffffffffffffffffffffffffff1673ffffffffffffffffffffffffffffffffffffffff166318160ddd6040518163ffffffff1660e01b8152600401602060405180830381865afa158015611cb5573d5f803e3d5ffd5b505050506040513d601f19601f82011682018060405250810190611cd9919061291f565b85611ce49190612881565b611cee91906128ef565b60045460025f9054906101000a900473ffffffffffffffffffffffffffffffffffffffff1673ffffffffffffffffffffffffffffffffffffffff166318160ddd6040518163ffffffff1660e01b8152600401602060405180830381865afa158015611d5b573d5f803e3d5ffd5b505050506040513d601f19601f82011682018060405250810190611d7f919061291f565b85611d8a9190612881565b611d9491906128ef565b611610565b90505b5f8111611dde576040517f08c379a0000000000000000000000000000000000000000000000000000000008152600401611dd590612d2b565b60405180910390fd5b60025f9054906101000a900473ffffffffffffffffffffffffffffffffffffffff1673ffffffffffffffffffffffffffffffffffffffff166340c10f1933836040518363ffffffff1660e01b8152600401611e3a929190612a1a565b5f604051808303815f87803b158015611e51575f80fd5b505af1158015611e63573d5f803e3d5ffd5b505050508260035f828254611e789190612a41565b925050819055508160045f828254611e909190612a41565b925050819055503373ffffffffffffffffffffffffffffffffffffffff167f0103e5727ee41ce8741fbdf27e5e596deb21dbe5ae93901499306d10f28d1ef7848484600354600454604051611ee9959493929190612c90565b60405180910390a2505050565b5f6003821115611f5b578190505f6001600284611f1391906128ef565b611f1d9190612a41565b90505b81811015611f55578091506002818285611f3a91906128ef565b611f449190612a41565b611f4e91906128ef565b9050611f20565b50611f68565b5f8214611f6757600190505b5b919050565b5f819050919050565b611f7f81611f6d565b82525050565b5f604082019050611f985f830185611f76565b611fa56020830184611f76565b9392505050565b5f73ffffffffffffffffffffffffffffffffffffffff82169050919050565b5f611fd582611fac565b9050919050565b611fe581611fcb565b82525050565b5f602082019050611ffe5f830184611fdc565b92915050565b5f604051905090565b5f80fd5b5f80fd5b61201e81611fcb565b8114612028575f80fd5b50565b5f8135905061203981612015565b92915050565b5f602082840312156120545761205361200d565b5b5f6120618482850161202b565b91505092915050565b5f819050919050565b61207c8161206a565b82525050565b5f6020820190506120955f830184612073565b92915050565b5f6020820190506120ae5f830184611f76565b92915050565b6120bd81611f6d565b81146120c7575f80fd5b50565b5f813590506120d8816120b4565b92915050565b5f80604083850312156120f4576120f361200d565b5b5f612101858286016120ca565b92505060206121128582860161202b565b9150509250929050565b5f602082840312156121315761213061200d565b5b5f61213e848285016120ca565b91505092915050565b5f819050919050565b5f61216a61216561216084611fac565b612147565b611fac565b9050919050565b5f61217b82612150565b9050919050565b5f61218c82612171565b9050919050565b61219c81612182565b82525050565b5f6020820190506121b55f830184612193565b92915050565b5f81519050919050565b5f82825260208201905092915050565b5f5b838110156121f25780820151818401526020810190506121d7565b5f8484015250505050565b5f601f19601f8301169050919050565b5f612217826121bb565b61222181856121c5565b93506122318185602086016121d5565b61223a816121fd565b840191505092915050565b5f6020820190508181035f83015261225d818461220d565b905092915050565b5f80fd5b5f80fd5b7f4e487b71000000000000000000000000000000000000000000000000000000005f52604160045260245ffd5b6122a3826121fd565b810181811067ffffffffffffffff821117156122c2576122c161226d565b5b80604052505050565b5f6122d4612004565b90506122e0828261229a565b919050565b5f67ffffffffffffffff8211156122ff576122fe61226d565b5b612308826121fd565b9050602081019050919050565b828183375f83830152505050565b5f612335612330846122e5565b6122cb565b90508281526020810184848401111561235157612350612269565b5b61235c848285612315565b509392505050565b5f82601f83011261237857612377612265565b5b8135612388848260208601612323565b91505092915050565b5f602082840312156123a6576123a561200d565b5b5f82013567ffffffffffffffff8111156123c3576123c2612011565b5b6123cf84828501612364565b91505092915050565b5f82825260208201905092915050565b7f496e76616c696420696e70757420746f6b656e000000000000000000000000005f82015250565b5f61241c6013836123d8565b9150612427826123e8565b602082019050919050565b5f6020820190508181035f83015261244981612410565b9050919050565b5f69ffffffffffffffffffff82169050919050565b61246e81612450565b8114612478575f80fd5b50565b5f8151905061248981612465565b92915050565b6124988161206a565b81146124a2575f80fd5b50565b5f815190506124b38161248f565b92915050565b5f815190506124c7816120b4565b92915050565b5f805f805f60a086880312156124e6576124e561200d565b5b5f6124f38882890161247b565b9550506020612504888289016124a5565b9450506040612515888289016124b9565b9350506060612526888289016124b9565b92505060806125378882890161247b565b9150509295509295909350565b7f4e487b71000000000000000000000000000000000000000000000000000000005f52601160045260245ffd5b5f61257b8261206a565b91506125868361206a565b92508282026125948161206a565b91507f800000000000000000000000000000000000000000000000000000000000000084145f841216156125cb576125ca612544565b5b82820584148315176125e0576125df612544565b5b5092915050565b5f6060820190506125fa5f830186611fdc565b6126076020830185611fdc565b6126146040830184611f76565b949350505050565b5f8115159050919050565b6126308161261c565b811461263a575f80fd5b50565b5f8151905061264b81612627565b92915050565b5f602082840312156126665761266561200d565b5b5f6126738482850161263d565b91505092915050565b5f60608201905061268f5f830186611fdc565b61269c6020830185611f76565b6126a96040830184611fdc565b949350505050565b7f4e487b71000000000000000000000000000000000000000000000000000000005f52602260045260245ffd5b5f60028204905060018216806126f557607f821691505b602082108103612708576127076126b1565b5b50919050565b5f8154905061271c816126de565b9050919050565b5f819050815f5260205f209050919050565b5f8160c01c9050919050565b5f8160c01b9050919050565b5f61275782612741565b9050919050565b5f61277061276b83612735565b61274d565b9050919050565b5f612782825461275e565b9050919050565b5f82821b905092915050565b5f61279f8261270e565b82601f8211156127b5576127b284612723565b90505b6127be81612777565b925060088210156127fe576127f97fffffffffffffffff00000000000000000000000000000000000000000000000083600803600802612789565b831692505b5050919050565b5f819050919050565b5f61282861282361281e84612805565b612147565b611f6d565b9050919050565b6128388161280e565b82525050565b5f6080820190506128515f830187611fdc565b61285e6020830186611f76565b61286b6040830185611fdc565b612878606083018461282f565b95945050505050565b5f61288b82611f6d565b915061289683611f6d565b92508282026128a481611f6d565b915082820484148315176128bb576128ba612544565b5b5092915050565b7f4e487b71000000000000000000000000000000000000000000000000000000005f52601260045260245ffd5b5f6128f982611f6d565b915061290483611f6d565b925082612914576129136128c2565b5b828204905092915050565b5f602082840312156129345761293361200d565b5b5f612941848285016124b9565b91505092915050565b5f6129548261206a565b915061295f8361206a565b92508261296f5761296e6128c2565b5b60015f0383147f8000000000000000000000000000000000000000000000000000000000000000831416156129a7576129a6612544565b5b828205905092915050565b7f526573657276657320617265206e6f74207365740000000000000000000000005f82015250565b5f6129e66014836123d8565b91506129f1826129b2565b602082019050919050565b5f6020820190508181035f830152612a13816129da565b9050919050565b5f604082019050612a2d5f830185611fdc565b612a3a6020830184611f76565b9392505050565b5f612a4b82611f6d565b9150612a5683611f6d565b9250828201905080821115612a6e57612a6d612544565b5b92915050565b5f612a7e82611f6d565b9150612a8983611f6d565b9250828203905081811115612aa157612aa0612544565b5b92915050565b7f4f6e6c7920746865204343495020726f757465722063616e2063616c6c2074685f8201527f69732066756e6374696f6e000000000000000000000000000000000000000000602082015250565b5f612b01602b836123d8565b9150612b0c82612aa7565b604082019050919050565b5f6020820190508181035f830152612b2e81612af5565b9050919050565b5f612b3f82611fac565b9050919050565b612b4f81612b35565b8114612b59575f80fd5b50565b5f81519050612b6a81612b46565b92915050565b5f805f60608486031215612b8757612b8661200d565b5b5f612b9486828701612b5c565b9350506020612ba5868287016124b9565b9250506040612bb686828701612b5c565b9150509250925092565b7f496e73756666696369656e74206c6971756964697479000000000000000000005f82015250565b5f612bf46016836123d8565b9150612bff82612bc0565b602082019050919050565b5f6020820190508181035f830152612c2181612be8565b9050919050565b7f496e73756666696369656e74206c69717569646974792072656d6f76656400005f82015250565b5f612c5c601e836123d8565b9150612c6782612c28565b602082019050919050565b5f6020820190508181035f830152612c8981612c50565b9050919050565b5f60a082019050612ca35f830188611f76565b612cb06020830187611f76565b612cbd6040830186611f76565b612cca6060830185611f76565b612cd76080830184611f76565b9695505050505050565b7f496e73756666696369656e74206c69717569646974792070726f7669646564005f82015250565b5f612d15601f836123d8565b9150612d2082612ce1565b602082019050919050565b5f6020820190508181035f830152612d4281612d09565b905091905056fea2646970667358221220f6d132ead629f156618e9894447146df6c7275153a5040deff9c6e64221fdce064736f6c63430008140033",
			"opcodes": "PUSH1 0x80 PUSH1 0x40 MSTORE CALLVALUE DUP1 ISZERO PUSH3 0x10 JUMPI PUSH0 DUP1 REVERT JUMPDEST POP PUSH1 0x40 MLOAD PUSH3 0x352F CODESIZE SUB DUP1 PUSH3 0x352F DUP4 CODECOPY DUP2 DUP2 ADD PUSH1 0x40 MSTORE DUP2 ADD SWAP1 PUSH3 0x36 SWAP2 SWAP1 PUSH3 0x3BA JUMP JUMPDEST DUP7 PUSH0 DUP1 PUSH2 0x100 EXP DUP2 SLOAD DUP2 PUSH20 0xFFFFFFFFFFFFFFFFFFFFFFFFFFFFFFFFFFFFFFFF MUL NOT AND SWAP1 DUP4 PUSH20 0xFFFFFFFFFFFFFFFFFFFFFFFFFFFFFFFFFFFFFFFF AND MUL OR SWAP1 SSTORE POP DUP6 PUSH1 0x1 PUSH0 PUSH2 0x100 EXP DUP2 SLOAD DUP2 PUSH20 0xFFFFFFFFFFFFFFFFFFFFFFFFFFFFFFFFFFFFFFFF MUL NOT AND SWAP1 DUP4 PUSH20 0xFFFFFFFFFFFFFFFFFFFFFFFFFFFFFFFFFFFFFFFF AND MUL OR SWAP1 SSTORE POP DUP5 PUSH1 0x5 PUSH0 PUSH2 0x100 EXP DUP2 SLOAD DUP2 PUSH20 0xFFFFFFFFFFFFFFFFFFFFFFFFFFFFFFFFFFFFFFFF MUL NOT AND SWAP1 DUP4 PUSH20 0xFFFFFFFFFFFFFFFFFFFFFFFFFFFFFFFFFFFFFFFF AND MUL OR SWAP1 SSTORE POP DUP4 PUSH1 0x6 PUSH0 PUSH2 0x100 EXP DUP2 SLOAD DUP2 PUSH20 0xFFFFFFFFFFFFFFFFFFFFFFFFFFFFFFFFFFFFFFFF MUL NOT AND SWAP1 DUP4 PUSH20 0xFFFFFFFFFFFFFFFFFFFFFFFFFFFFFFFFFFFFFFFF AND MUL OR SWAP1 SSTORE POP DUP3 PUSH1 0x2 PUSH0 PUSH2 0x100 EXP DUP2 SLOAD DUP2 PUSH20 0xFFFFFFFFFFFFFFFFFFFFFFFFFFFFFFFFFFFFFFFF MUL NOT AND SWAP1 DUP4 PUSH20 0xFFFFFFFFFFFFFFFFFFFFFFFFFFFFFFFFFFFFFFFF AND MUL OR SWAP1 SSTORE POP DUP2 PUSH1 0x7 PUSH0 PUSH2 0x100 EXP DUP2 SLOAD DUP2 PUSH20 0xFFFFFFFFFFFFFFFFFFFFFFFFFFFFFFFFFFFFFFFF MUL NOT AND SWAP1 DUP4 PUSH20 0xFFFFFFFFFFFFFFFFFFFFFFFFFFFFFFFFFFFFFFFF AND MUL OR SWAP1 SSTORE POP DUP1 PUSH1 0x9 SWAP1 DUP2 PUSH3 0x1C6 SWAP2 SWAP1 PUSH3 0x6BE JUMP JUMPDEST POP POP POP POP POP POP POP POP PUSH3 0x7A2 JUMP JUMPDEST PUSH0 PUSH1 0x40 MLOAD SWAP1 POP SWAP1 JUMP JUMPDEST PUSH0 DUP1 REVERT JUMPDEST PUSH0 DUP1 REVERT JUMPDEST PUSH0 PUSH20 0xFFFFFFFFFFFFFFFFFFFFFFFFFFFFFFFFFFFFFFFF DUP3 AND SWAP1 POP SWAP2 SWAP1 POP JUMP JUMPDEST PUSH0 PUSH3 0x210 DUP3 PUSH3 0x1E5 JUMP JUMPDEST SWAP1 POP SWAP2 SWAP1 POP JUMP JUMPDEST PUSH3 0x222 DUP2 PUSH3 0x204 JUMP JUMPDEST DUP2 EQ PUSH3 0x22D JUMPI PUSH0 DUP1 REVERT JUMPDEST POP JUMP JUMPDEST PUSH0 DUP2 MLOAD SWAP1 POP PUSH3 0x240 DUP2 PUSH3 0x217 JUMP JUMPDEST SWAP3 SWAP2 POP POP JUMP JUMPDEST PUSH0 DUP1 REVERT JUMPDEST PUSH0 DUP1 REVERT JUMPDEST PUSH0 PUSH1 0x1F NOT PUSH1 0x1F DUP4 ADD AND SWAP1 POP SWAP2 SWAP1 POP JUMP JUMPDEST PUSH32 0x4E487B7100000000000000000000000000000000000000000000000000000000 PUSH0 MSTORE PUSH1 0x41 PUSH1 0x4 MSTORE PUSH1 0x24 PUSH0 REVERT JUMPDEST PUSH3 0x296 DUP3 PUSH3 0x24E JUMP JUMPDEST DUP2 ADD DUP2 DUP2 LT PUSH8 0xFFFFFFFFFFFFFFFF DUP3 GT OR ISZERO PUSH3 0x2B8 JUMPI PUSH3 0x2B7 PUSH3 0x25E JUMP JUMPDEST JUMPDEST DUP1 PUSH1 0x40 MSTORE POP POP POP JUMP JUMPDEST PUSH0 PUSH3 0x2CC PUSH3 0x1D4 JUMP JUMPDEST SWAP1 POP PUSH3 0x2DA DUP3 DUP3 PUSH3 0x28B JUMP JUMPDEST SWAP2 SWAP1 POP JUMP JUMPDEST PUSH0 PUSH8 0xFFFFFFFFFFFFFFFF DUP3 GT ISZERO PUSH3 0x2FC JUMPI PUSH3 0x2FB PUSH3 0x25E JUMP JUMPDEST JUMPDEST PUSH3 0x307 DUP3 PUSH3 0x24E JUMP JUMPDEST SWAP1 POP PUSH1 0x20 DUP2 ADD SWAP1 POP SWAP2 SWAP1 POP JUMP JUMPDEST PUSH0 JUMPDEST DUP4 DUP2 LT ISZERO PUSH3 0x333 JUMPI DUP1 DUP3 ADD MLOAD DUP2 DUP5 ADD MSTORE PUSH1 0x20 DUP2 ADD SWAP1 POP PUSH3 0x316 JUMP JUMPDEST PUSH0 DUP5 DUP5 ADD MSTORE POP POP POP POP JUMP JUMPDEST PUSH0 PUSH3 0x354 PUSH3 0x34E DUP5 PUSH3 0x2DF JUMP JUMPDEST PUSH3 0x2C1 JUMP JUMPDEST SWAP1 POP DUP3 DUP2 MSTORE PUSH1 0x20 DUP2 ADD DUP5 DUP5 DUP5 ADD GT ISZERO PUSH3 0x373 JUMPI PUSH3 0x372 PUSH3 0x24A JUMP JUMPDEST JUMPDEST PUSH3 0x380 DUP5 DUP3 DUP6 PUSH3 0x314 JUMP JUMPDEST POP SWAP4 SWAP3 POP POP POP JUMP JUMPDEST PUSH0 DUP3 PUSH1 0x1F DUP4 ADD SLT PUSH3 0x39F JUMPI PUSH3 0x39E PUSH3 0x246 JUMP JUMPDEST JUMPDEST DUP2 MLOAD PUSH3 0x3B1 DUP5 DUP3 PUSH1 0x20 DUP7 ADD PUSH3 0x33E JUMP JUMPDEST SWAP2 POP POP SWAP3 SWAP2 POP POP JUMP JUMPDEST PUSH0 DUP1 PUSH0 DUP1 PUSH0 DUP1 PUSH0 PUSH1 0xE0 DUP9 DUP11 SUB SLT ISZERO PUSH3 0x3D8 JUMPI PUSH3 0x3D7 PUSH3 0x1DD JUMP JUMPDEST JUMPDEST PUSH0 PUSH3 0x3E7 DUP11 DUP3 DUP12 ADD PUSH3 0x230 JUMP JUMPDEST SWAP8 POP POP PUSH1 0x20 PUSH3 0x3FA DUP11 DUP3 DUP12 ADD PUSH3 0x230 JUMP JUMPDEST SWAP7 POP POP PUSH1 0x40 PUSH3 0x40D DUP11 DUP3 DUP12 ADD PUSH3 0x230 JUMP JUMPDEST SWAP6 POP POP PUSH1 0x60 PUSH3 0x420 DUP11 DUP3 DUP12 ADD PUSH3 0x230 JUMP JUMPDEST SWAP5 POP POP PUSH1 0x80 PUSH3 0x433 DUP11 DUP3 DUP12 ADD PUSH3 0x230 JUMP JUMPDEST SWAP4 POP POP PUSH1 0xA0 PUSH3 0x446 DUP11 DUP3 DUP12 ADD PUSH3 0x230 JUMP JUMPDEST SWAP3 POP POP PUSH1 0xC0 DUP9 ADD MLOAD PUSH8 0xFFFFFFFFFFFFFFFF DUP2 GT ISZERO PUSH3 0x46A JUMPI PUSH3 0x469 PUSH3 0x1E1 JUMP JUMPDEST JUMPDEST PUSH3 0x478 DUP11 DUP3 DUP12 ADD PUSH3 0x388 JUMP JUMPDEST SWAP2 POP POP SWAP3 SWAP6 SWAP9 SWAP2 SWAP5 SWAP8 POP SWAP3 SWAP6 POP JUMP JUMPDEST PUSH0 DUP2 MLOAD SWAP1 POP SWAP2 SWAP1 POP JUMP JUMPDEST PUSH32 0x4E487B7100000000000000000000000000000000000000000000000000000000 PUSH0 MSTORE PUSH1 0x22 PUSH1 0x4 MSTORE PUSH1 0x24 PUSH0 REVERT JUMPDEST PUSH0 PUSH1 0x2 DUP3 DIV SWAP1 POP PUSH1 0x1 DUP3 AND DUP1 PUSH3 0x4D6 JUMPI PUSH1 0x7F DUP3 AND SWAP2 POP JUMPDEST PUSH1 0x20 DUP3 LT DUP2 SUB PUSH3 0x4EC JUMPI PUSH3 0x4EB PUSH3 0x491 JUMP JUMPDEST JUMPDEST POP SWAP2 SWAP1 POP JUMP JUMPDEST PUSH0 DUP2 SWAP1 POP DUP2 PUSH0 MSTORE PUSH1 0x20 PUSH0 KECCAK256 SWAP1 POP SWAP2 SWAP1 POP JUMP JUMPDEST PUSH0 PUSH1 0x20 PUSH1 0x1F DUP4 ADD DIV SWAP1 POP SWAP2 SWAP1 POP JUMP JUMPDEST PUSH0 DUP3 DUP3 SHL SWAP1 POP SWAP3 SWAP2 POP POP JUMP JUMPDEST PUSH0 PUSH1 0x8 DUP4 MUL PUSH3 0x550 PUSH32 0xFFFFFFFFFFFFFFFFFFFFFFFFFFFFFFFFFFFFFFFFFFFFFFFFFFFFFFFFFFFFFFFF DUP3 PUSH3 0x513 JUMP JUMPDEST PUSH3 0x55C DUP7 DUP4 PUSH3 0x513 JUMP JUMPDEST SWAP6 POP DUP1 NOT DUP5 AND SWAP4 POP DUP1 DUP7 AND DUP5 OR SWAP3 POP POP POP SWAP4 SWAP3 POP POP POP JUMP JUMPDEST PUSH0 DUP2 SWAP1 POP SWAP2 SWAP1 POP JUMP JUMPDEST PUSH0 DUP2 SWAP1 POP SWAP2 SWAP1 POP JUMP JUMPDEST PUSH0 PUSH3 0x5A6 PUSH3 0x5A0 PUSH3 0x59A DUP5 PUSH3 0x574 JUMP JUMPDEST PUSH3 0x57D JUMP JUMPDEST PUSH3 0x574 JUMP JUMPDEST SWAP1 POP SWAP2 SWAP1 POP JUMP JUMPDEST PUSH0 DUP2 SWAP1 POP SWAP2 SWAP1 POP JUMP JUMPDEST PUSH3 0x5C1 DUP4 PUSH3 0x586 JUMP JUMPDEST PUSH3 0x5D9 PUSH3 0x5D0 DUP3 PUSH3 0x5AD JUMP JUMPDEST DUP5 DUP5 SLOAD PUSH3 0x51F JUMP JUMPDEST DUP3 SSTORE POP POP POP POP JUMP JUMPDEST PUSH0 SWAP1 JUMP JUMPDEST PUSH3 0x5EF PUSH3 0x5E1 JUMP JUMPDEST PUSH3 0x5FC DUP2 DUP5 DUP5 PUSH3 0x5B6 JUMP JUMPDEST POP POP POP JUMP JUMPDEST JUMPDEST DUP2 DUP2 LT ISZERO PUSH3 0x623 JUMPI PUSH3 0x617 PUSH0 DUP3 PUSH3 0x5E5 JUMP JUMPDEST PUSH1 0x1 DUP2 ADD SWAP1 POP PUSH3 0x602 JUMP JUMPDEST POP POP JUMP JUMPDEST PUSH1 0x1F DUP3 GT ISZERO PUSH3 0x672 JUMPI PUSH3 0x63C DUP2 PUSH3 0x4F2 JUMP JUMPDEST PUSH3 0x647 DUP5 PUSH3 0x504 JUMP JUMPDEST DUP2 ADD PUSH1 0x20 DUP6 LT ISZERO PUSH3 0x657 JUMPI DUP2 SWAP1 POP JUMPDEST PUSH3 0x66F PUSH3 0x666 DUP6 PUSH3 0x504 JUMP JUMPDEST DUP4 ADD DUP3 PUSH3 0x601 JUMP JUMPDEST POP POP JUMPDEST POP POP POP JUMP JUMPDEST PUSH0 DUP3 DUP3 SHR SWAP1 POP SWAP3 SWAP2 POP POP JUMP JUMPDEST PUSH0 PUSH3 0x694 PUSH0 NOT DUP5 PUSH1 0x8 MUL PUSH3 0x677 JUMP JUMPDEST NOT DUP1 DUP4 AND SWAP2 POP POP SWAP3 SWAP2 POP POP JUMP JUMPDEST PUSH0 PUSH3 0x6AE DUP4 DUP4 PUSH3 0x683 JUMP JUMPDEST SWAP2 POP DUP3 PUSH1 0x2 MUL DUP3 OR SWAP1 POP SWAP3 SWAP2 POP POP JUMP JUMPDEST PUSH3 0x6C9 DUP3 PUSH3 0x487 JUMP JUMPDEST PUSH8 0xFFFFFFFFFFFFFFFF DUP2 GT ISZERO PUSH3 0x6E5 JUMPI PUSH3 0x6E4 PUSH3 0x25E JUMP JUMPDEST JUMPDEST PUSH3 0x6F1 DUP3 SLOAD PUSH3 0x4BE JUMP JUMPDEST PUSH3 0x6FE DUP3 DUP3 DUP6 PUSH3 0x627 JUMP JUMPDEST PUSH0 PUSH1 0x20 SWAP1 POP PUSH1 0x1F DUP4 GT PUSH1 0x1 DUP2 EQ PUSH3 0x734 JUMPI PUSH0 DUP5 ISZERO PUSH3 0x71F JUMPI DUP3 DUP8 ADD MLOAD SWAP1 POP JUMPDEST PUSH3 0x72B DUP6 DUP3 PUSH3 0x6A1 JUMP JUMPDEST DUP7 SSTORE POP PUSH3 0x79A JUMP JUMPDEST PUSH1 0x1F NOT DUP5 AND PUSH3 0x744 DUP7 PUSH3 0x4F2 JUMP JUMPDEST PUSH0 JUMPDEST DUP3 DUP2 LT ISZERO PUSH3 0x76D JUMPI DUP5 DUP10 ADD MLOAD DUP3 SSTORE PUSH1 0x1 DUP3 ADD SWAP2 POP PUSH1 0x20 DUP6 ADD SWAP5 POP PUSH1 0x20 DUP2 ADD SWAP1 POP PUSH3 0x746 JUMP JUMPDEST DUP7 DUP4 LT ISZERO PUSH3 0x78D JUMPI DUP5 DUP10 ADD MLOAD PUSH3 0x789 PUSH1 0x1F DUP10 AND DUP3 PUSH3 0x683 JUMP JUMPDEST DUP4 SSTORE POP JUMPDEST PUSH1 0x1 PUSH1 0x2 DUP9 MUL ADD DUP9 SSTORE POP POP POP JUMPDEST POP POP POP POP POP POP JUMP JUMPDEST PUSH2 0x2D7F DUP1 PUSH3 0x7B0 PUSH0 CODECOPY PUSH0 RETURN INVALID PUSH1 0x80 PUSH1 0x40 MSTORE CALLVALUE DUP1 ISZERO PUSH2 0xF JUMPI PUSH0 DUP1 REVERT JUMPDEST POP PUSH1 0x4 CALLDATASIZE LT PUSH2 0x12A JUMPI PUSH0 CALLDATALOAD PUSH1 0xE0 SHR DUP1 PUSH4 0x5A76F25E GT PUSH2 0xAB JUMPI DUP1 PUSH4 0xA996944C GT PUSH2 0x6F JUMPI DUP1 PUSH4 0xA996944C EQ PUSH2 0x2FB JUMPI DUP1 PUSH4 0xD0E7E07E EQ PUSH2 0x319 JUMPI DUP1 PUSH4 0xD21220A7 EQ PUSH2 0x335 JUMPI DUP1 PUSH4 0xF140A35A EQ PUSH2 0x353 JUMPI DUP1 PUSH4 0xF953CEC7 EQ PUSH2 0x383 JUMPI PUSH2 0x12A JUMP JUMPDEST DUP1 PUSH4 0x5A76F25E EQ PUSH2 0x267 JUMPI DUP1 PUSH4 0x5FCBD285 EQ PUSH2 0x285 JUMPI DUP1 PUSH4 0x64E7B85A EQ PUSH2 0x2A3 JUMPI DUP1 PUSH4 0x729132F9 EQ PUSH2 0x2BF JUMPI DUP1 PUSH4 0x8304E6D2 EQ PUSH2 0x2DD JUMPI PUSH2 0x12A JUMP JUMPDEST DUP1 PUSH4 0x443CB4BC GT PUSH2 0xF2 JUMPI DUP1 PUSH4 0x443CB4BC EQ PUSH2 0x1D7 JUMPI DUP1 PUSH4 0x47DBF9BE EQ PUSH2 0x1F5 JUMPI DUP1 PUSH4 0x4FB0FFA4 EQ PUSH2 0x211 JUMPI DUP1 PUSH4 0x5444A39D EQ PUSH2 0x22D JUMPI DUP1 PUSH4 0x54B2A769 EQ PUSH2 0x249 JUMPI PUSH2 0x12A JUMP JUMPDEST DUP1 PUSH4 0x902F1AC EQ PUSH2 0x12E JUMPI DUP1 PUSH4 0xDE22984 EQ PUSH2 0x14D JUMPI DUP1 PUSH4 0xDFE1681 EQ PUSH2 0x16B JUMPI DUP1 PUSH4 0x32843EE3 EQ PUSH2 0x189 JUMPI DUP1 PUSH4 0x41976E09 EQ PUSH2 0x1A7 JUMPI JUMPDEST PUSH0 DUP1 REVERT JUMPDEST PUSH2 0x136 PUSH2 0x39F JUMP JUMPDEST PUSH1 0x40 MLOAD PUSH2 0x144 SWAP3 SWAP2 SWAP1 PUSH2 0x1F85 JUMP JUMPDEST PUSH1 0x40 MLOAD DUP1 SWAP2 SUB SWAP1 RETURN JUMPDEST PUSH2 0x155 PUSH2 0x3AF JUMP JUMPDEST PUSH1 0x40 MLOAD PUSH2 0x162 SWAP2 SWAP1 PUSH2 0x1FEB JUMP JUMPDEST PUSH1 0x40 MLOAD DUP1 SWAP2 SUB SWAP1 RETURN JUMPDEST PUSH2 0x173 PUSH2 0x3D4 JUMP JUMPDEST PUSH1 0x40 MLOAD PUSH2 0x180 SWAP2 SWAP1 PUSH2 0x1FEB JUMP JUMPDEST PUSH1 0x40 MLOAD DUP1 SWAP2 SUB SWAP1 RETURN JUMPDEST PUSH2 0x191 PUSH2 0x3F7 JUMP JUMPDEST PUSH1 0x40 MLOAD PUSH2 0x19E SWAP2 SWAP1 PUSH2 0x1FEB JUMP JUMPDEST PUSH1 0x40 MLOAD DUP1 SWAP2 SUB SWAP1 RETURN JUMPDEST PUSH2 0x1C1 PUSH1 0x4 DUP1 CALLDATASIZE SUB DUP2 ADD SWAP1 PUSH2 0x1BC SWAP2 SWAP1 PUSH2 0x203F JUMP JUMPDEST PUSH2 0x41C JUMP JUMPDEST PUSH1 0x40 MLOAD PUSH2 0x1CE SWAP2 SWAP1 PUSH2 0x2082 JUMP JUMPDEST PUSH1 0x40 MLOAD DUP1 SWAP2 SUB SWAP1 RETURN JUMPDEST PUSH2 0x1DF PUSH2 0x6AF JUMP JUMPDEST PUSH1 0x40 MLOAD PUSH2 0x1EC SWAP2 SWAP1 PUSH2 0x209B JUMP JUMPDEST PUSH1 0x40 MLOAD DUP1 SWAP2 SUB SWAP1 RETURN JUMPDEST PUSH2 0x20F PUSH1 0x4 DUP1 CALLDATASIZE SUB DUP2 ADD SWAP1 PUSH2 0x20A SWAP2 SWAP1 PUSH2 0x203F JUMP JUMPDEST PUSH2 0x6B5 JUMP JUMPDEST STOP JUMPDEST PUSH2 0x22B PUSH1 0x4 DUP1 CALLDATASIZE SUB DUP2 ADD SWAP1 PUSH2 0x226 SWAP2 SWAP1 PUSH2 0x20DE JUMP JUMPDEST PUSH2 0x6F8 JUMP JUMPDEST STOP JUMPDEST PUSH2 0x247 PUSH1 0x4 DUP1 CALLDATASIZE SUB DUP2 ADD SWAP1 PUSH2 0x242 SWAP2 SWAP1 PUSH2 0x211C JUMP JUMPDEST PUSH2 0x861 JUMP JUMPDEST STOP JUMPDEST PUSH2 0x251 PUSH2 0xA7D JUMP JUMPDEST PUSH1 0x40 MLOAD PUSH2 0x25E SWAP2 SWAP1 PUSH2 0x2082 JUMP JUMPDEST PUSH1 0x40 MLOAD DUP1 SWAP2 SUB SWAP1 RETURN JUMPDEST PUSH2 0x26F PUSH2 0xBEA JUMP JUMPDEST PUSH1 0x40 MLOAD PUSH2 0x27C SWAP2 SWAP1 PUSH2 0x209B JUMP JUMPDEST PUSH1 0x40 MLOAD DUP1 SWAP2 SUB SWAP1 RETURN JUMPDEST PUSH2 0x28D PUSH2 0xBF0 JUMP JUMPDEST PUSH1 0x40 MLOAD PUSH2 0x29A SWAP2 SWAP1 PUSH2 0x21A2 JUMP JUMPDEST PUSH1 0x40 MLOAD DUP1 SWAP2 SUB SWAP1 RETURN JUMPDEST PUSH2 0x2BD PUSH1 0x4 DUP1 CALLDATASIZE SUB DUP2 ADD SWAP1 PUSH2 0x2B8 SWAP2 SWAP1 PUSH2 0x211C JUMP JUMPDEST PUSH2 0xC15 JUMP JUMPDEST STOP JUMPDEST PUSH2 0x2C7 PUSH2 0xCDA JUMP JUMPDEST PUSH1 0x40 MLOAD PUSH2 0x2D4 SWAP2 SWAP1 PUSH2 0x209B JUMP JUMPDEST PUSH1 0x40 MLOAD DUP1 SWAP2 SUB SWAP1 RETURN JUMPDEST PUSH2 0x2E5 PUSH2 0xD54 JUMP JUMPDEST PUSH1 0x40 MLOAD PUSH2 0x2F2 SWAP2 SWAP1 PUSH2 0x2245 JUMP JUMPDEST PUSH1 0x40 MLOAD DUP1 SWAP2 SUB SWAP1 RETURN JUMPDEST PUSH2 0x303 PUSH2 0xDE0 JUMP JUMPDEST PUSH1 0x40 MLOAD PUSH2 0x310 SWAP2 SWAP1 PUSH2 0x209B JUMP JUMPDEST PUSH1 0x40 MLOAD DUP1 SWAP2 SUB SWAP1 RETURN JUMPDEST PUSH2 0x333 PUSH1 0x4 DUP1 CALLDATASIZE SUB DUP2 ADD SWAP1 PUSH2 0x32E SWAP2 SWAP1 PUSH2 0x20DE JUMP JUMPDEST PUSH2 0xF31 JUMP JUMPDEST STOP JUMPDEST PUSH2 0x33D PUSH2 0x12BF JUMP JUMPDEST PUSH1 0x40 MLOAD PUSH2 0x34A SWAP2 SWAP1 PUSH2 0x1FEB JUMP JUMPDEST PUSH1 0x40 MLOAD DUP1 SWAP2 SUB SWAP1 RETURN JUMPDEST PUSH2 0x36D PUSH1 0x4 DUP1 CALLDATASIZE SUB DUP2 ADD SWAP1 PUSH2 0x368 SWAP2 SWAP1 PUSH2 0x20DE JUMP JUMPDEST PUSH2 0x12E4 JUMP JUMPDEST PUSH1 0x40 MLOAD PUSH2 0x37A SWAP2 SWAP1 PUSH2 0x209B JUMP JUMPDEST PUSH1 0x40 MLOAD DUP1 SWAP2 SUB SWAP1 RETURN JUMPDEST PUSH2 0x39D PUSH1 0x4 DUP1 CALLDATASIZE SUB DUP2 ADD SWAP1 PUSH2 0x398 SWAP2 SWAP1 PUSH2 0x2391 JUMP JUMPDEST PUSH2 0x1490 JUMP JUMPDEST STOP JUMPDEST PUSH0 DUP1 PUSH1 0x3 SLOAD PUSH1 0x4 SLOAD SWAP2 POP SWAP2 POP SWAP1 SWAP2 JUMP JUMPDEST PUSH1 0x7 PUSH0 SWAP1 SLOAD SWAP1 PUSH2 0x100 EXP SWAP1 DIV PUSH20 0xFFFFFFFFFFFFFFFFFFFFFFFFFFFFFFFFFFFFFFFF AND DUP2 JUMP JUMPDEST PUSH0 DUP1 SLOAD SWAP1 PUSH2 0x100 EXP SWAP1 DIV PUSH20 0xFFFFFFFFFFFFFFFFFFFFFFFFFFFFFFFFFFFFFFFF AND DUP2 JUMP JUMPDEST PUSH1 0x8 PUSH0 SWAP1 SLOAD SWAP1 PUSH2 0x100 EXP SWAP1 DIV PUSH20 0xFFFFFFFFFFFFFFFFFFFFFFFFFFFFFFFFFFFFFFFF AND DUP2 JUMP JUMPDEST PUSH0 DUP1 PUSH0 SWAP1 SLOAD SWAP1 PUSH2 0x100 EXP SWAP1 DIV PUSH20 0xFFFFFFFFFFFFFFFFFFFFFFFFFFFFFFFFFFFFFFFF AND PUSH20 0xFFFFFFFFFFFFFFFFFFFFFFFFFFFFFFFFFFFFFFFF AND DUP3 PUSH20 0xFFFFFFFFFFFFFFFFFFFFFFFFFFFFFFFFFFFFFFFF AND EQ DUP1 PUSH2 0x4C3 JUMPI POP PUSH1 0x1 PUSH0 SWAP1 SLOAD SWAP1 PUSH2 0x100 EXP SWAP1 DIV PUSH20 0xFFFFFFFFFFFFFFFFFFFFFFFFFFFFFFFFFFFFFFFF AND PUSH20 0xFFFFFFFFFFFFFFFFFFFFFFFFFFFFFFFFFFFFFFFF AND DUP3 PUSH20 0xFFFFFFFFFFFFFFFFFFFFFFFFFFFFFFFFFFFFFFFF AND EQ JUMPDEST PUSH2 0x502 JUMPI PUSH1 0x40 MLOAD PUSH32 0x8C379A000000000000000000000000000000000000000000000000000000000 DUP2 MSTORE PUSH1 0x4 ADD PUSH2 0x4F9 SWAP1 PUSH2 0x2432 JUMP JUMPDEST PUSH1 0x40 MLOAD DUP1 SWAP2 SUB SWAP1 REVERT JUMPDEST PUSH0 DUP1 PUSH0 SWAP1 SLOAD SWAP1 PUSH2 0x100 EXP SWAP1 DIV PUSH20 0xFFFFFFFFFFFFFFFFFFFFFFFFFFFFFFFFFFFFFFFF AND PUSH20 0xFFFFFFFFFFFFFFFFFFFFFFFFFFFFFFFFFFFFFFFF AND DUP4 PUSH20 0xFFFFFFFFFFFFFFFFFFFFFFFFFFFFFFFFFFFFFFFF AND SUB PUSH2 0x5F8 JUMPI PUSH1 0x5 PUSH0 SWAP1 SLOAD SWAP1 PUSH2 0x100 EXP SWAP1 DIV PUSH20 0xFFFFFFFFFFFFFFFFFFFFFFFFFFFFFFFFFFFFFFFF AND PUSH20 0xFFFFFFFFFFFFFFFFFFFFFFFFFFFFFFFFFFFFFFFF AND PUSH4 0xFEAF968C PUSH1 0x40 MLOAD DUP2 PUSH4 0xFFFFFFFF AND PUSH1 0xE0 SHL DUP2 MSTORE PUSH1 0x4 ADD PUSH1 0xA0 PUSH1 0x40 MLOAD DUP1 DUP4 SUB DUP2 DUP7 GAS STATICCALL ISZERO DUP1 ISZERO PUSH2 0x5C0 JUMPI RETURNDATASIZE PUSH0 DUP1 RETURNDATACOPY RETURNDATASIZE PUSH0 REVERT JUMPDEST POP POP POP POP PUSH1 0x40 MLOAD RETURNDATASIZE PUSH1 0x1F NOT PUSH1 0x1F DUP3 ADD AND DUP3 ADD DUP1 PUSH1 0x40 MSTORE POP DUP2 ADD SWAP1 PUSH2 0x5E4 SWAP2 SWAP1 PUSH2 0x24CD JUMP JUMPDEST SWAP1 SWAP2 SWAP3 SWAP4 POP SWAP1 SWAP2 POP SWAP1 POP POP DUP1 SWAP2 POP POP PUSH2 0x696 JUMP JUMPDEST PUSH1 0x6 PUSH0 SWAP1 SLOAD SWAP1 PUSH2 0x100 EXP SWAP1 DIV PUSH20 0xFFFFFFFFFFFFFFFFFFFFFFFFFFFFFFFFFFFFFFFF AND PUSH20 0xFFFFFFFFFFFFFFFFFFFFFFFFFFFFFFFFFFFFFFFF AND PUSH4 0xFEAF968C PUSH1 0x40 MLOAD DUP2 PUSH4 0xFFFFFFFF AND PUSH1 0xE0 SHL DUP2 MSTORE PUSH1 0x4 ADD PUSH1 0xA0 PUSH1 0x40 MLOAD DUP1 DUP4 SUB DUP2 DUP7 GAS STATICCALL ISZERO DUP1 ISZERO PUSH2 0x662 JUMPI RETURNDATASIZE PUSH0 DUP1 RETURNDATACOPY RETURNDATASIZE PUSH0 REVERT JUMPDEST POP POP POP POP PUSH1 0x40 MLOAD RETURNDATASIZE PUSH1 0x1F NOT PUSH1 0x1F DUP3 ADD AND DUP3 ADD DUP1 PUSH1 0x40 MSTORE POP DUP2 ADD SWAP1 PUSH2 0x686 SWAP2 SWAP1 PUSH2 0x24CD JUMP JUMPDEST SWAP1 SWAP2 SWAP3 SWAP4 POP SWAP1 SWAP2 POP SWAP1 POP POP DUP1 SWAP2 POP POP JUMPDEST PUSH5 0x2540BE400 DUP2 PUSH2 0x6A7 SWAP2 SWAP1 PUSH2 0x2571 JUMP JUMPDEST SWAP2 POP POP SWAP2 SWAP1 POP JUMP JUMPDEST PUSH1 0x3 SLOAD DUP2 JUMP JUMPDEST DUP1 PUSH1 0x8 PUSH0 PUSH2 0x100 EXP DUP2 SLOAD DUP2 PUSH20 0xFFFFFFFFFFFFFFFFFFFFFFFFFFFFFFFFFFFFFFFF MUL NOT AND SWAP1 DUP4 PUSH20 0xFFFFFFFFFFFFFFFFFFFFFFFFFFFFFFFFFFFFFFFF AND MUL OR SWAP1 SSTORE POP POP JUMP JUMPDEST PUSH0 DUP1 SLOAD SWAP1 PUSH2 0x100 EXP SWAP1 DIV PUSH20 0xFFFFFFFFFFFFFFFFFFFFFFFFFFFFFFFFFFFFFFFF AND PUSH20 0xFFFFFFFFFFFFFFFFFFFFFFFFFFFFFFFFFFFFFFFF AND PUSH4 0x23B872DD CALLER ADDRESS DUP6 PUSH1 0x40 MLOAD DUP5 PUSH4 0xFFFFFFFF AND PUSH1 0xE0 SHL DUP2 MSTORE PUSH1 0x4 ADD PUSH2 0x754 SWAP4 SWAP3 SWAP2 SWAP1 PUSH2 0x25E7 JUMP JUMPDEST PUSH1 0x20 PUSH1 0x40 MLOAD DUP1 DUP4 SUB DUP2 PUSH0 DUP8 GAS CALL ISZERO DUP1 ISZERO PUSH2 0x770 JUMPI RETURNDATASIZE PUSH0 DUP1 RETURNDATACOPY RETURNDATASIZE PUSH0 REVERT JUMPDEST POP POP POP POP PUSH1 0x40 MLOAD RETURNDATASIZE PUSH1 0x1F NOT PUSH1 0x1F DUP3 ADD AND DUP3 ADD DUP1 PUSH1 0x40 MSTORE POP DUP2 ADD SWAP1 PUSH2 0x794 SWAP2 SWAP1 PUSH2 0x2651 JUMP JUMPDEST POP PUSH0 DUP2 DUP4 PUSH0 DUP1 SLOAD SWAP1 PUSH2 0x100 EXP SWAP1 DIV PUSH20 0xFFFFFFFFFFFFFFFFFFFFFFFFFFFFFFFFFFFFFFFF AND PUSH1 0x40 MLOAD PUSH1 0x20 ADD PUSH2 0x7CA SWAP4 SWAP3 SWAP2 SWAP1 PUSH2 0x267C JUMP JUMPDEST PUSH1 0x40 MLOAD PUSH1 0x20 DUP2 DUP4 SUB SUB DUP2 MSTORE SWAP1 PUSH1 0x40 MSTORE SWAP1 POP PUSH0 PUSH1 0x9 PUSH2 0x7E7 SWAP1 PUSH2 0x2795 JUMP JUMPDEST PUSH1 0xC0 SHR SWAP1 POP DUP1 PUSH8 0xFFFFFFFFFFFFFFFF AND DUP3 DUP1 MLOAD SWAP1 PUSH1 0x20 ADD KECCAK256 PUSH32 0xEEA8A479F07983D1364C4330C9BF3442A1CD421B79B16909BCC1867188EA676B DUP6 DUP8 PUSH0 DUP1 SLOAD SWAP1 PUSH2 0x100 EXP SWAP1 DIV PUSH20 0xFFFFFFFFFFFFFFFFFFFFFFFFFFFFFFFFFFFFFFFF AND PUSH0 PUSH1 0x40 MLOAD PUSH2 0x853 SWAP5 SWAP4 SWAP3 SWAP2 SWAP1 PUSH2 0x283E JUMP JUMPDEST PUSH1 0x40 MLOAD DUP1 SWAP2 SUB SWAP1 LOG3 POP POP POP POP JUMP JUMPDEST PUSH0 PUSH2 0x88A PUSH0 DUP1 SLOAD SWAP1 PUSH2 0x100 EXP SWAP1 DIV PUSH20 0xFFFFFFFFFFFFFFFFFFFFFFFFFFFFFFFFFFFFFFFF AND PUSH2 0x41C JUMP JUMPDEST SWAP1 POP PUSH0 PUSH2 0x8B7 PUSH1 0x1 PUSH0 SWAP1 SLOAD SWAP1 PUSH2 0x100 EXP SWAP1 DIV PUSH20 0xFFFFFFFFFFFFFFFFFFFFFFFFFFFFFFFFFFFFFFFF AND PUSH2 0x41C JUMP JUMPDEST SWAP1 POP PUSH0 DUP3 PUSH1 0x2 PUSH2 0x8C7 SWAP2 SWAP1 PUSH2 0x2881 JUMP JUMPDEST PUSH8 0xDE0B6B3A7640000 DUP6 PUSH2 0x8DB SWAP2 SWAP1 PUSH2 0x2881 JUMP JUMPDEST PUSH2 0x8E5 SWAP2 SWAP1 PUSH2 0x28EF JUMP JUMPDEST SWAP1 POP PUSH0 DUP3 PUSH1 0x2 PUSH2 0x8F5 SWAP2 SWAP1 PUSH2 0x2881 JUMP JUMPDEST PUSH8 0xDE0B6B3A7640000 DUP7 PUSH2 0x909 SWAP2 SWAP1 PUSH2 0x2881 JUMP JUMPDEST PUSH2 0x913 SWAP2 SWAP1 PUSH2 0x28EF JUMP JUMPDEST SWAP1 POP PUSH0 PUSH2 0xA6A PUSH1 0x3 SLOAD PUSH1 0x2 PUSH0 SWAP1 SLOAD SWAP1 PUSH2 0x100 EXP SWAP1 DIV PUSH20 0xFFFFFFFFFFFFFFFFFFFFFFFFFFFFFFFFFFFFFFFF AND PUSH20 0xFFFFFFFFFFFFFFFFFFFFFFFFFFFFFFFFFFFFFFFF AND PUSH4 0x18160DDD PUSH1 0x40 MLOAD DUP2 PUSH4 0xFFFFFFFF AND PUSH1 0xE0 SHL DUP2 MSTORE PUSH1 0x4 ADD PUSH1 0x20 PUSH1 0x40 MLOAD DUP1 DUP4 SUB DUP2 DUP7 GAS STATICCALL ISZERO DUP1 ISZERO PUSH2 0x986 JUMPI RETURNDATASIZE PUSH0 DUP1 RETURNDATACOPY RETURNDATASIZE PUSH0 REVERT JUMPDEST POP POP POP POP PUSH1 0x40 MLOAD RETURNDATASIZE PUSH1 0x1F NOT PUSH1 0x1F DUP3 ADD AND DUP3 ADD DUP1 PUSH1 0x40 MSTORE POP DUP2 ADD SWAP1 PUSH2 0x9AA SWAP2 SWAP1 PUSH2 0x291F JUMP JUMPDEST DUP6 PUSH2 0x9B5 SWAP2 SWAP1 PUSH2 0x2881 JUMP JUMPDEST PUSH2 0x9BF SWAP2 SWAP1 PUSH2 0x28EF JUMP JUMPDEST PUSH1 0x4 SLOAD PUSH1 0x2 PUSH0 SWAP1 SLOAD SWAP1 PUSH2 0x100 EXP SWAP1 DIV PUSH20 0xFFFFFFFFFFFFFFFFFFFFFFFFFFFFFFFFFFFFFFFF AND PUSH20 0xFFFFFFFFFFFFFFFFFFFFFFFFFFFFFFFFFFFFFFFF AND PUSH4 0x18160DDD PUSH1 0x40 MLOAD DUP2 PUSH4 0xFFFFFFFF AND PUSH1 0xE0 SHL DUP2 MSTORE PUSH1 0x4 ADD PUSH1 0x20 PUSH1 0x40 MLOAD DUP1 DUP4 SUB DUP2 DUP7 GAS STATICCALL ISZERO DUP1 ISZERO PUSH2 0xA2C JUMPI RETURNDATASIZE PUSH0 DUP1 RETURNDATACOPY RETURNDATASIZE PUSH0 REVERT JUMPDEST POP POP POP POP PUSH1 0x40 MLOAD RETURNDATASIZE PUSH1 0x1F NOT PUSH1 0x1F DUP3 ADD AND DUP3 ADD DUP1 PUSH1 0x40 MSTORE POP DUP2 ADD SWAP1 PUSH2 0xA50 SWAP2 SWAP1 PUSH2 0x291F JUMP JUMPDEST DUP6 PUSH2 0xA5B SWAP2 SWAP1 PUSH2 0x2881 JUMP JUMPDEST PUSH2 0xA65 SWAP2 SWAP1 PUSH2 0x28EF JUMP JUMPDEST PUSH2 0x1610 JUMP JUMPDEST SWAP1 POP PUSH2 0xA75 DUP2 PUSH2 0x1628 JUMP JUMPDEST POP POP POP POP POP POP JUMP JUMPDEST PUSH0 DUP1 PUSH1 0x5 PUSH0 SWAP1 SLOAD SWAP1 PUSH2 0x100 EXP SWAP1 DIV PUSH20 0xFFFFFFFFFFFFFFFFFFFFFFFFFFFFFFFFFFFFFFFF AND PUSH20 0xFFFFFFFFFFFFFFFFFFFFFFFFFFFFFFFFFFFFFFFF AND PUSH4 0xFEAF968C PUSH1 0x40 MLOAD DUP2 PUSH4 0xFFFFFFFF AND PUSH1 0xE0 SHL DUP2 MSTORE PUSH1 0x4 ADD PUSH1 0xA0 PUSH1 0x40 MLOAD DUP1 DUP4 SUB DUP2 DUP7 GAS STATICCALL ISZERO DUP1 ISZERO PUSH2 0xAE9 JUMPI RETURNDATASIZE PUSH0 DUP1 RETURNDATACOPY RETURNDATASIZE PUSH0 REVERT JUMPDEST POP POP POP POP PUSH1 0x40 MLOAD RETURNDATASIZE PUSH1 0x1F NOT PUSH1 0x1F DUP3 ADD AND DUP3 ADD DUP1 PUSH1 0x40 MSTORE POP DUP2 ADD SWAP1 PUSH2 0xB0D SWAP2 SWAP1 PUSH2 0x24CD JUMP JUMPDEST POP POP POP SWAP2 POP POP PUSH0 PUSH1 0x6 PUSH0 SWAP1 SLOAD SWAP1 PUSH2 0x100 EXP SWAP1 DIV PUSH20 0xFFFFFFFFFFFFFFFFFFFFFFFFFFFFFFFFFFFFFFFF AND PUSH20 0xFFFFFFFFFFFFFFFFFFFFFFFFFFFFFFFFFFFFFFFF AND PUSH4 0xFEAF968C PUSH1 0x40 MLOAD DUP2 PUSH4 0xFFFFFFFF AND PUSH1 0xE0 SHL DUP2 MSTORE PUSH1 0x4 ADD PUSH1 0xA0 PUSH1 0x40 MLOAD DUP1 DUP4 SUB DUP2 DUP7 GAS STATICCALL ISZERO DUP1 ISZERO PUSH2 0xB7E JUMPI RETURNDATASIZE PUSH0 DUP1 RETURNDATACOPY RETURNDATASIZE PUSH0 REVERT JUMPDEST POP POP POP POP PUSH1 0x40 MLOAD RETURNDATASIZE PUSH1 0x1F NOT PUSH1 0x1F DUP3 ADD AND DUP3 ADD DUP1 PUSH1 0x40 MSTORE POP DUP2 ADD SWAP1 PUSH2 0xBA2 SWAP2 SWAP1 PUSH2 0x24CD JUMP JUMPDEST POP POP POP SWAP2 POP POP PUSH5 0x2540BE400 DUP2 PUSH2 0xBB9 SWAP2 SWAP1 PUSH2 0x2571 JUMP JUMPDEST PUSH4 0x5F5E100 PUSH5 0x2540BE400 DUP5 PUSH2 0xBCF SWAP2 SWAP1 PUSH2 0x2571 JUMP JUMPDEST PUSH2 0xBD9 SWAP2 SWAP1 PUSH2 0x2571 JUMP JUMPDEST PUSH2 0xBE3 SWAP2 SWAP1 PUSH2 0x294A JUMP JUMPDEST SWAP3 POP POP POP SWAP1 JUMP JUMPDEST PUSH1 0x4 SLOAD DUP2 JUMP JUMPDEST PUSH1 0x2 PUSH0 SWAP1 SLOAD SWAP1 PUSH2 0x100 EXP SWAP1 DIV PUSH20 0xFFFFFFFFFFFFFFFFFFFFFFFFFFFFFFFFFFFFFFFF AND DUP2 JUMP JUMPDEST PUSH0 PUSH2 0xC3E PUSH0 DUP1 SLOAD SWAP1 PUSH2 0x100 EXP SWAP1 DIV PUSH20 0xFFFFFFFFFFFFFFFFFFFFFFFFFFFFFFFFFFFFFFFF AND PUSH2 0x41C JUMP JUMPDEST SWAP1 POP PUSH0 PUSH2 0xC6B PUSH1 0x1 PUSH0 SWAP1 SLOAD SWAP1 PUSH2 0x100 EXP SWAP1 DIV PUSH20 0xFFFFFFFFFFFFFFFFFFFFFFFFFFFFFFFFFFFFFFFF AND PUSH2 0x41C JUMP JUMPDEST SWAP1 POP PUSH0 DUP3 PUSH1 0x2 PUSH2 0xC7B SWAP2 SWAP1 PUSH2 0x2881 JUMP JUMPDEST PUSH8 0xDE0B6B3A7640000 DUP6 PUSH2 0xC8F SWAP2 SWAP1 PUSH2 0x2881 JUMP JUMPDEST PUSH2 0xC99 SWAP2 SWAP1 PUSH2 0x28EF JUMP JUMPDEST SWAP1 POP PUSH0 DUP3 PUSH1 0x2 PUSH2 0xCA9 SWAP2 SWAP1 PUSH2 0x2881 JUMP JUMPDEST PUSH8 0xDE0B6B3A7640000 DUP7 PUSH2 0xCBD SWAP2 SWAP1 PUSH2 0x2881 JUMP JUMPDEST PUSH2 0xCC7 SWAP2 SWAP1 PUSH2 0x28EF JUMP JUMPDEST SWAP1 POP PUSH2 0xCD3 DUP3 DUP3 PUSH2 0x1A59 JUMP JUMPDEST POP POP POP POP POP JUMP JUMPDEST PUSH0 DUP1 PUSH1 0x3 SLOAD GT DUP1 ISZERO PUSH2 0xCED JUMPI POP PUSH0 PUSH1 0x4 SLOAD GT JUMPDEST PUSH2 0xD2C JUMPI PUSH1 0x40 MLOAD PUSH32 0x8C379A000000000000000000000000000000000000000000000000000000000 DUP2 MSTORE PUSH1 0x4 ADD PUSH2 0xD23 SWAP1 PUSH2 0x29FC JUMP JUMPDEST PUSH1 0x40 MLOAD DUP1 SWAP2 SUB SWAP1 REVERT JUMPDEST PUSH1 0x3 SLOAD PUSH8 0xDE0B6B3A7640000 PUSH1 0x4 SLOAD PUSH2 0xD45 SWAP2 SWAP1 PUSH2 0x2881 JUMP JUMPDEST PUSH2 0xD4F SWAP2 SWAP1 PUSH2 0x28EF JUMP JUMPDEST SWAP1 POP SWAP1 JUMP JUMPDEST PUSH1 0x9 DUP1 SLOAD PUSH2 0xD61 SWAP1 PUSH2 0x26DE JUMP JUMPDEST DUP1 PUSH1 0x1F ADD PUSH1 0x20 DUP1 SWAP2 DIV MUL PUSH1 0x20 ADD PUSH1 0x40 MLOAD SWAP1 DUP2 ADD PUSH1 0x40 MSTORE DUP1 SWAP3 SWAP2 SWAP1 DUP2 DUP2 MSTORE PUSH1 0x20 ADD DUP3 DUP1 SLOAD PUSH2 0xD8D SWAP1 PUSH2 0x26DE JUMP JUMPDEST DUP1 ISZERO PUSH2 0xDD8 JUMPI DUP1 PUSH1 0x1F LT PUSH2 0xDAF JUMPI PUSH2 0x100 DUP1 DUP4 SLOAD DIV MUL DUP4 MSTORE SWAP2 PUSH1 0x20 ADD SWAP2 PUSH2 0xDD8 JUMP JUMPDEST DUP3 ADD SWAP2 SWAP1 PUSH0 MSTORE PUSH1 0x20 PUSH0 KECCAK256 SWAP1 JUMPDEST DUP2 SLOAD DUP2 MSTORE SWAP1 PUSH1 0x1 ADD SWAP1 PUSH1 0x20 ADD DUP1 DUP4 GT PUSH2 0xDBB JUMPI DUP3 SWAP1 SUB PUSH1 0x1F AND DUP3 ADD SWAP2 JUMPDEST POP POP POP POP POP DUP2 JUMP JUMPDEST PUSH0 DUP1 PUSH1 0x5 PUSH0 SWAP1 SLOAD SWAP1 PUSH2 0x100 EXP SWAP1 DIV PUSH20 0xFFFFFFFFFFFFFFFFFFFFFFFFFFFFFFFFFFFFFFFF AND PUSH20 0xFFFFFFFFFFFFFFFFFFFFFFFFFFFFFFFFFFFFFFFF AND PUSH4 0xFEAF968C PUSH1 0x40 MLOAD DUP2 PUSH4 0xFFFFFFFF AND PUSH1 0xE0 SHL DUP2 MSTORE PUSH1 0x4 ADD PUSH1 0xA0 PUSH1 0x40 MLOAD DUP1 DUP4 SUB DUP2 DUP7 GAS STATICCALL ISZERO DUP1 ISZERO PUSH2 0xE4C JUMPI RETURNDATASIZE PUSH0 DUP1 RETURNDATACOPY RETURNDATASIZE PUSH0 REVERT JUMPDEST POP POP POP POP PUSH1 0x40 MLOAD RETURNDATASIZE PUSH1 0x1F NOT PUSH1 0x1F DUP3 ADD AND DUP3 ADD DUP1 PUSH1 0x40 MSTORE POP DUP2 ADD SWAP1 PUSH2 0xE70 SWAP2 SWAP1 PUSH2 0x24CD JUMP JUMPDEST POP POP POP SWAP2 POP POP PUSH0 PUSH1 0x6 PUSH0 SWAP1 SLOAD SWAP1 PUSH2 0x100 EXP SWAP1 DIV PUSH20 0xFFFFFFFFFFFFFFFFFFFFFFFFFFFFFFFFFFFFFFFF AND PUSH20 0xFFFFFFFFFFFFFFFFFFFFFFFFFFFFFFFFFFFFFFFF AND PUSH4 0xFEAF968C PUSH1 0x40 MLOAD DUP2 PUSH4 0xFFFFFFFF AND PUSH1 0xE0 SHL DUP2 MSTORE PUSH1 0x4 ADD PUSH1 0xA0 PUSH1 0x40 MLOAD DUP1 DUP4 SUB DUP2 DUP7 GAS STATICCALL ISZERO DUP1 ISZERO PUSH2 0xEE1 JUMPI RETURNDATASIZE PUSH0 DUP1 RETURNDATACOPY RETURNDATASIZE PUSH0 REVERT JUMPDEST POP POP POP POP PUSH1 0x40 MLOAD RETURNDATASIZE PUSH1 0x1F NOT PUSH1 0x1F DUP3 ADD AND DUP3 ADD DUP1 PUSH1 0x40 MSTORE POP DUP2 ADD SWAP1 PUSH2 0xF05 SWAP2 SWAP1 PUSH2 0x24CD JUMP JUMPDEST POP POP POP SWAP2 POP POP DUP1 PUSH8 0xDE0B6B3A7640000 DUP4 PUSH2 0xF20 SWAP2 SWAP1 PUSH2 0x2881 JUMP JUMPDEST PUSH2 0xF2A SWAP2 SWAP1 PUSH2 0x28EF JUMP JUMPDEST SWAP3 POP POP POP SWAP1 JUMP JUMPDEST PUSH0 DUP1 SLOAD SWAP1 PUSH2 0x100 EXP SWAP1 DIV PUSH20 0xFFFFFFFFFFFFFFFFFFFFFFFFFFFFFFFFFFFFFFFF AND PUSH20 0xFFFFFFFFFFFFFFFFFFFFFFFFFFFFFFFFFFFFFFFF AND DUP2 PUSH20 0xFFFFFFFFFFFFFFFFFFFFFFFFFFFFFFFFFFFFFFFF AND EQ DUP1 PUSH2 0xFD6 JUMPI POP PUSH1 0x1 PUSH0 SWAP1 SLOAD SWAP1 PUSH2 0x100 EXP SWAP1 DIV PUSH20 0xFFFFFFFFFFFFFFFFFFFFFFFFFFFFFFFFFFFFFFFF AND PUSH20 0xFFFFFFFFFFFFFFFFFFFFFFFFFFFFFFFFFFFFFFFF AND DUP2 PUSH20 0xFFFFFFFFFFFFFFFFFFFFFFFFFFFFFFFFFFFFFFFF AND EQ JUMPDEST PUSH2 0x1015 JUMPI PUSH1 0x40 MLOAD PUSH32 0x8C379A000000000000000000000000000000000000000000000000000000000 DUP2 MSTORE PUSH1 0x4 ADD PUSH2 0x100C SWAP1 PUSH2 0x2432 JUMP JUMPDEST PUSH1 0x40 MLOAD DUP1 SWAP2 SUB SWAP1 REVERT JUMPDEST PUSH0 PUSH2 0x103E PUSH0 DUP1 SLOAD SWAP1 PUSH2 0x100 EXP SWAP1 DIV PUSH20 0xFFFFFFFFFFFFFFFFFFFFFFFFFFFFFFFFFFFFFFFF AND PUSH2 0x41C JUMP JUMPDEST SWAP1 POP PUSH0 PUSH2 0x106B PUSH1 0x1 PUSH0 SWAP1 SLOAD SWAP1 PUSH2 0x100 EXP SWAP1 DIV PUSH20 0xFFFFFFFFFFFFFFFFFFFFFFFFFFFFFFFFFFFFFFFF AND PUSH2 0x41C JUMP JUMPDEST SWAP1 POP PUSH0 DUP1 PUSH0 SWAP1 SLOAD SWAP1 PUSH2 0x100 EXP SWAP1 DIV PUSH20 0xFFFFFFFFFFFFFFFFFFFFFFFFFFFFFFFFFFFFFFFF AND PUSH20 0xFFFFFFFFFFFFFFFFFFFFFFFFFFFFFFFFFFFFFFFF AND DUP5 PUSH20 0xFFFFFFFFFFFFFFFFFFFFFFFFFFFFFFFFFFFFFFFF AND EQ SWAP1 POP PUSH0 DUP2 PUSH2 0x10EA JUMPI PUSH0 DUP1 SLOAD SWAP1 PUSH2 0x100 EXP SWAP1 DIV PUSH20 0xFFFFFFFFFFFFFFFFFFFFFFFFFFFFFFFFFFFFFFFF AND PUSH2 0x110D JUMP JUMPDEST PUSH1 0x1 PUSH0 SWAP1 SLOAD SWAP1 PUSH2 0x100 EXP SWAP1 DIV PUSH20 0xFFFFFFFFFFFFFFFFFFFFFFFFFFFFFFFFFFFFFFFF AND JUMPDEST SWAP1 POP PUSH0 DUP3 PUSH2 0x111B JUMPI DUP4 PUSH2 0x111D JUMP JUMPDEST DUP5 JUMPDEST SWAP1 POP PUSH0 DUP2 PUSH8 0xDE0B6B3A7640000 DUP10 PUSH2 0x1135 SWAP2 SWAP1 PUSH2 0x2881 JUMP JUMPDEST PUSH2 0x113F SWAP2 SWAP1 PUSH2 0x28EF JUMP JUMPDEST SWAP1 POP PUSH0 PUSH2 0x114C DUP3 DUP10 PUSH2 0x12E4 JUMP JUMPDEST SWAP1 POP DUP8 PUSH20 0xFFFFFFFFFFFFFFFFFFFFFFFFFFFFFFFFFFFFFFFF AND PUSH4 0x23B872DD CALLER ADDRESS DUP6 PUSH1 0x40 MLOAD DUP5 PUSH4 0xFFFFFFFF AND PUSH1 0xE0 SHL DUP2 MSTORE PUSH1 0x4 ADD PUSH2 0x118B SWAP4 SWAP3 SWAP2 SWAP1 PUSH2 0x25E7 JUMP JUMPDEST PUSH1 0x20 PUSH1 0x40 MLOAD DUP1 DUP4 SUB DUP2 PUSH0 DUP8 GAS CALL ISZERO DUP1 ISZERO PUSH2 0x11A7 JUMPI RETURNDATASIZE PUSH0 DUP1 RETURNDATACOPY RETURNDATASIZE PUSH0 REVERT JUMPDEST POP POP POP POP PUSH1 0x40 MLOAD RETURNDATASIZE PUSH1 0x1F NOT PUSH1 0x1F DUP3 ADD AND DUP3 ADD DUP1 PUSH1 0x40 MSTORE POP DUP2 ADD SWAP1 PUSH2 0x11CB SWAP2 SWAP1 PUSH2 0x2651 JUMP JUMPDEST POP DUP4 PUSH20 0xFFFFFFFFFFFFFFFFFFFFFFFFFFFFFFFFFFFFFFFF AND PUSH4 0xA9059CBB CALLER DUP4 PUSH1 0x40 MLOAD DUP4 PUSH4 0xFFFFFFFF AND PUSH1 0xE0 SHL DUP2 MSTORE PUSH1 0x4 ADD PUSH2 0x1207 SWAP3 SWAP2 SWAP1 PUSH2 0x2A1A JUMP JUMPDEST PUSH1 0x20 PUSH1 0x40 MLOAD DUP1 DUP4 SUB DUP2 PUSH0 DUP8 GAS CALL ISZERO DUP1 ISZERO PUSH2 0x1223 JUMPI RETURNDATASIZE PUSH0 DUP1 RETURNDATACOPY RETURNDATASIZE PUSH0 REVERT JUMPDEST POP POP POP POP PUSH1 0x40 MLOAD RETURNDATASIZE PUSH1 0x1F NOT PUSH1 0x1F DUP3 ADD AND DUP3 ADD DUP1 PUSH1 0x40 MSTORE POP DUP2 ADD SWAP1 PUSH2 0x1247 SWAP2 SWAP1 PUSH2 0x2651 JUMP JUMPDEST POP DUP5 ISZERO PUSH2 0x1283 JUMPI DUP2 PUSH1 0x3 PUSH0 DUP3 DUP3 SLOAD PUSH2 0x125F SWAP2 SWAP1 PUSH2 0x2A41 JUMP JUMPDEST SWAP3 POP POP DUP2 SWAP1 SSTORE POP DUP1 PUSH1 0x4 PUSH0 DUP3 DUP3 SLOAD PUSH2 0x1277 SWAP2 SWAP1 PUSH2 0x2A74 JUMP JUMPDEST SWAP3 POP POP DUP2 SWAP1 SSTORE POP PUSH2 0x12B4 JUMP JUMPDEST DUP2 PUSH1 0x4 PUSH0 DUP3 DUP3 SLOAD PUSH2 0x1294 SWAP2 SWAP1 PUSH2 0x2A41 JUMP JUMPDEST SWAP3 POP POP DUP2 SWAP1 SSTORE POP DUP1 PUSH1 0x3 PUSH0 DUP3 DUP3 SLOAD PUSH2 0x12AC SWAP2 SWAP1 PUSH2 0x2A74 JUMP JUMPDEST SWAP3 POP POP DUP2 SWAP1 SSTORE POP JUMPDEST POP POP POP POP POP POP POP POP POP JUMP JUMPDEST PUSH1 0x1 PUSH0 SWAP1 SLOAD SWAP1 PUSH2 0x100 EXP SWAP1 DIV PUSH20 0xFFFFFFFFFFFFFFFFFFFFFFFFFFFFFFFFFFFFFFFF AND DUP2 JUMP JUMPDEST PUSH0 DUP1 PUSH0 SWAP1 SLOAD SWAP1 PUSH2 0x100 EXP SWAP1 DIV PUSH20 0xFFFFFFFFFFFFFFFFFFFFFFFFFFFFFFFFFFFFFFFF AND PUSH20 0xFFFFFFFFFFFFFFFFFFFFFFFFFFFFFFFFFFFFFFFF AND DUP3 PUSH20 0xFFFFFFFFFFFFFFFFFFFFFFFFFFFFFFFFFFFFFFFF AND EQ DUP1 PUSH2 0x138B JUMPI POP PUSH1 0x1 PUSH0 SWAP1 SLOAD SWAP1 PUSH2 0x100 EXP SWAP1 DIV PUSH20 0xFFFFFFFFFFFFFFFFFFFFFFFFFFFFFFFFFFFFFFFF AND PUSH20 0xFFFFFFFFFFFFFFFFFFFFFFFFFFFFFFFFFFFFFFFF AND DUP3 PUSH20 0xFFFFFFFFFFFFFFFFFFFFFFFFFFFFFFFFFFFFFFFF AND EQ JUMPDEST PUSH2 0x13CA JUMPI PUSH1 0x40 MLOAD PUSH32 0x8C379A000000000000000000000000000000000000000000000000000000000 DUP2 MSTORE PUSH1 0x4 ADD PUSH2 0x13C1 SWAP1 PUSH2 0x2432 JUMP JUMPDEST PUSH1 0x40 MLOAD DUP1 SWAP2 SUB SWAP1 REVERT JUMPDEST PUSH0 DUP1 PUSH0 SWAP1 SLOAD SWAP1 PUSH2 0x100 EXP SWAP1 DIV PUSH20 0xFFFFFFFFFFFFFFFFFFFFFFFFFFFFFFFFFFFFFFFF AND PUSH20 0xFFFFFFFFFFFFFFFFFFFFFFFFFFFFFFFFFFFFFFFF AND DUP4 PUSH20 0xFFFFFFFFFFFFFFFFFFFFFFFFFFFFFFFFFFFFFFFF AND EQ SWAP1 POP PUSH0 DUP2 PUSH2 0x142A JUMPI PUSH1 0x4 SLOAD PUSH2 0x142E JUMP JUMPDEST PUSH1 0x3 SLOAD JUMPDEST SWAP1 POP PUSH0 DUP3 PUSH2 0x143E JUMPI PUSH1 0x3 SLOAD PUSH2 0x1442 JUMP JUMPDEST PUSH1 0x4 SLOAD JUMPDEST SWAP1 POP PUSH0 PUSH2 0x3E8 PUSH2 0x3E5 DUP9 PUSH2 0x1456 SWAP2 SWAP1 PUSH2 0x2881 JUMP JUMPDEST PUSH2 0x1460 SWAP2 SWAP1 PUSH2 0x28EF JUMP JUMPDEST SWAP1 POP DUP1 DUP4 PUSH2 0x146E SWAP2 SWAP1 PUSH2 0x2A41 JUMP JUMPDEST DUP3 DUP3 PUSH2 0x147A SWAP2 SWAP1 PUSH2 0x2881 JUMP JUMPDEST PUSH2 0x1484 SWAP2 SWAP1 PUSH2 0x28EF JUMP JUMPDEST SWAP5 POP POP POP POP POP SWAP3 SWAP2 POP POP JUMP JUMPDEST PUSH1 0x7 PUSH0 SWAP1 SLOAD SWAP1 PUSH2 0x100 EXP SWAP1 DIV PUSH20 0xFFFFFFFFFFFFFFFFFFFFFFFFFFFFFFFFFFFFFFFF AND PUSH20 0xFFFFFFFFFFFFFFFFFFFFFFFFFFFFFFFFFFFFFFFF AND CALLER PUSH20 0xFFFFFFFFFFFFFFFFFFFFFFFFFFFFFFFFFFFFFFFF AND EQ PUSH2 0x151F JUMPI PUSH1 0x40 MLOAD PUSH32 0x8C379A000000000000000000000000000000000000000000000000000000000 DUP2 MSTORE PUSH1 0x4 ADD PUSH2 0x1516 SWAP1 PUSH2 0x2B17 JUMP JUMPDEST PUSH1 0x40 MLOAD DUP1 SWAP2 SUB SWAP1 REVERT JUMPDEST PUSH0 DUP1 PUSH0 DUP4 DUP1 PUSH1 0x20 ADD SWAP1 MLOAD DUP2 ADD SWAP1 PUSH2 0x1536 SWAP2 SWAP1 PUSH2 0x2B70 JUMP JUMPDEST SWAP3 POP SWAP3 POP SWAP3 POP DUP1 PUSH20 0xFFFFFFFFFFFFFFFFFFFFFFFFFFFFFFFFFFFFFFFF AND PUSH4 0xA9059CBB DUP5 DUP5 PUSH1 0x40 MLOAD DUP4 PUSH4 0xFFFFFFFF AND PUSH1 0xE0 SHL DUP2 MSTORE PUSH1 0x4 ADD PUSH2 0x1577 SWAP3 SWAP2 SWAP1 PUSH2 0x2A1A JUMP JUMPDEST PUSH1 0x20 PUSH1 0x40 MLOAD DUP1 DUP4 SUB DUP2 PUSH0 DUP8 GAS CALL ISZERO DUP1 ISZERO PUSH2 0x1593 JUMPI RETURNDATASIZE PUSH0 DUP1 RETURNDATACOPY RETURNDATASIZE PUSH0 REVERT JUMPDEST POP POP POP POP PUSH1 0x40 MLOAD RETURNDATASIZE PUSH1 0x1F NOT PUSH1 0x1F DUP3 ADD AND DUP3 ADD DUP1 PUSH1 0x40 MSTORE POP DUP2 ADD SWAP1 PUSH2 0x15B7 SWAP2 SWAP1 PUSH2 0x2651 JUMP JUMPDEST POP CALLER PUSH20 0xFFFFFFFFFFFFFFFFFFFFFFFFFFFFFFFFFFFFFFFF AND PUSH32 0x6BF7034BF4A66E25FC097062A5AAD392485138A48987AD77209E332E25359156 DUP5 DUP5 DUP5 PUSH1 0x40 MLOAD PUSH2 0x1602 SWAP4 SWAP3 SWAP2 SWAP1 PUSH2 0x267C JUMP JUMPDEST PUSH1 0x40 MLOAD DUP1 SWAP2 SUB SWAP1 LOG2 POP POP POP POP JUMP JUMPDEST PUSH0 DUP2 DUP4 LT PUSH2 0x161E JUMPI DUP2 PUSH2 0x1620 JUMP JUMPDEST DUP3 JUMPDEST SWAP1 POP SWAP3 SWAP2 POP POP JUMP JUMPDEST PUSH0 DUP2 GT PUSH2 0x166A JUMPI PUSH1 0x40 MLOAD PUSH32 0x8C379A000000000000000000000000000000000000000000000000000000000 DUP2 MSTORE PUSH1 0x4 ADD PUSH2 0x1661 SWAP1 PUSH2 0x2C0A JUMP JUMPDEST PUSH1 0x40 MLOAD DUP1 SWAP2 SUB SWAP1 REVERT JUMPDEST PUSH0 PUSH1 0x2 PUSH0 SWAP1 SLOAD SWAP1 PUSH2 0x100 EXP SWAP1 DIV PUSH20 0xFFFFFFFFFFFFFFFFFFFFFFFFFFFFFFFFFFFFFFFF AND PUSH20 0xFFFFFFFFFFFFFFFFFFFFFFFFFFFFFFFFFFFFFFFF AND PUSH4 0x18160DDD PUSH1 0x40 MLOAD DUP2 PUSH4 0xFFFFFFFF AND PUSH1 0xE0 SHL DUP2 MSTORE PUSH1 0x4 ADD PUSH1 0x20 PUSH1 0x40 MLOAD DUP1 DUP4 SUB DUP2 DUP7 GAS STATICCALL ISZERO DUP1 ISZERO PUSH2 0x16D5 JUMPI RETURNDATASIZE PUSH0 DUP1 RETURNDATACOPY RETURNDATASIZE PUSH0 REVERT JUMPDEST POP POP POP POP PUSH1 0x40 MLOAD RETURNDATASIZE PUSH1 0x1F NOT PUSH1 0x1F DUP3 ADD AND DUP3 ADD DUP1 PUSH1 0x40 MSTORE POP DUP2 ADD SWAP1 PUSH2 0x16F9 SWAP2 SWAP1 PUSH2 0x291F JUMP JUMPDEST PUSH1 0x3 SLOAD DUP4 PUSH2 0x1707 SWAP2 SWAP1 PUSH2 0x2881 JUMP JUMPDEST PUSH2 0x1711 SWAP2 SWAP1 PUSH2 0x28EF JUMP JUMPDEST SWAP1 POP PUSH0 PUSH1 0x2 PUSH0 SWAP1 SLOAD SWAP1 PUSH2 0x100 EXP SWAP1 DIV PUSH20 0xFFFFFFFFFFFFFFFFFFFFFFFFFFFFFFFFFFFFFFFF AND PUSH20 0xFFFFFFFFFFFFFFFFFFFFFFFFFFFFFFFFFFFFFFFF AND PUSH4 0x18160DDD PUSH1 0x40 MLOAD DUP2 PUSH4 0xFFFFFFFF AND PUSH1 0xE0 SHL DUP2 MSTORE PUSH1 0x4 ADD PUSH1 0x20 PUSH1 0x40 MLOAD DUP1 DUP4 SUB DUP2 DUP7 GAS STATICCALL ISZERO DUP1 ISZERO PUSH2 0x177E JUMPI RETURNDATASIZE PUSH0 DUP1 RETURNDATACOPY RETURNDATASIZE PUSH0 REVERT JUMPDEST POP POP POP POP PUSH1 0x40 MLOAD RETURNDATASIZE PUSH1 0x1F NOT PUSH1 0x1F DUP3 ADD AND DUP3 ADD DUP1 PUSH1 0x40 MSTORE POP DUP2 ADD SWAP1 PUSH2 0x17A2 SWAP2 SWAP1 PUSH2 0x291F JUMP JUMPDEST PUSH1 0x4 SLOAD DUP5 PUSH2 0x17B0 SWAP2 SWAP1 PUSH2 0x2881 JUMP JUMPDEST PUSH2 0x17BA SWAP2 SWAP1 PUSH2 0x28EF JUMP JUMPDEST SWAP1 POP PUSH0 DUP3 GT DUP1 ISZERO PUSH2 0x17CA JUMPI POP PUSH0 DUP2 GT JUMPDEST PUSH2 0x1809 JUMPI PUSH1 0x40 MLOAD PUSH32 0x8C379A000000000000000000000000000000000000000000000000000000000 DUP2 MSTORE PUSH1 0x4 ADD PUSH2 0x1800 SWAP1 PUSH2 0x2C72 JUMP JUMPDEST PUSH1 0x40 MLOAD DUP1 SWAP2 SUB SWAP1 REVERT JUMPDEST PUSH1 0x2 PUSH0 SWAP1 SLOAD SWAP1 PUSH2 0x100 EXP SWAP1 DIV PUSH20 0xFFFFFFFFFFFFFFFFFFFFFFFFFFFFFFFFFFFFFFFF AND PUSH20 0xFFFFFFFFFFFFFFFFFFFFFFFFFFFFFFFFFFFFFFFF AND PUSH4 0x9DC29FAC CALLER DUP6 PUSH1 0x40 MLOAD DUP4 PUSH4 0xFFFFFFFF AND PUSH1 0xE0 SHL DUP2 MSTORE PUSH1 0x4 ADD PUSH2 0x1865 SWAP3 SWAP2 SWAP1 PUSH2 0x2A1A JUMP JUMPDEST PUSH0 PUSH1 0x40 MLOAD DUP1 DUP4 SUB DUP2 PUSH0 DUP8 DUP1 EXTCODESIZE ISZERO DUP1 ISZERO PUSH2 0x187C JUMPI PUSH0 DUP1 REVERT JUMPDEST POP GAS CALL ISZERO DUP1 ISZERO PUSH2 0x188E JUMPI RETURNDATASIZE PUSH0 DUP1 RETURNDATACOPY RETURNDATASIZE PUSH0 REVERT JUMPDEST POP POP POP POP PUSH0 DUP1 SLOAD SWAP1 PUSH2 0x100 EXP SWAP1 DIV PUSH20 0xFFFFFFFFFFFFFFFFFFFFFFFFFFFFFFFFFFFFFFFF AND PUSH20 0xFFFFFFFFFFFFFFFFFFFFFFFFFFFFFFFFFFFFFFFF AND PUSH4 0xA9059CBB CALLER DUP5 PUSH1 0x40 MLOAD DUP4 PUSH4 0xFFFFFFFF AND PUSH1 0xE0 SHL DUP2 MSTORE PUSH1 0x4 ADD PUSH2 0x18EC SWAP3 SWAP2 SWAP1 PUSH2 0x2A1A JUMP JUMPDEST PUSH1 0x20 PUSH1 0x40 MLOAD DUP1 DUP4 SUB DUP2 PUSH0 DUP8 GAS CALL ISZERO DUP1 ISZERO PUSH2 0x1908 JUMPI RETURNDATASIZE PUSH0 DUP1 RETURNDATACOPY RETURNDATASIZE PUSH0 REVERT JUMPDEST POP POP POP POP PUSH1 0x40 MLOAD RETURNDATASIZE PUSH1 0x1F NOT PUSH1 0x1F DUP3 ADD AND DUP3 ADD DUP1 PUSH1 0x40 MSTORE POP DUP2 ADD SWAP1 PUSH2 0x192C SWAP2 SWAP1 PUSH2 0x2651 JUMP JUMPDEST POP PUSH1 0x1 PUSH0 SWAP1 SLOAD SWAP1 PUSH2 0x100 EXP SWAP1 DIV PUSH20 0xFFFFFFFFFFFFFFFFFFFFFFFFFFFFFFFFFFFFFFFF AND PUSH20 0xFFFFFFFFFFFFFFFFFFFFFFFFFFFFFFFFFFFFFFFF AND PUSH4 0xA9059CBB CALLER DUP4 PUSH1 0x40 MLOAD DUP4 PUSH4 0xFFFFFFFF AND PUSH1 0xE0 SHL DUP2 MSTORE PUSH1 0x4 ADD PUSH2 0x1989 SWAP3 SWAP2 SWAP1 PUSH2 0x2A1A JUMP JUMPDEST PUSH1 0x20 PUSH1 0x40 MLOAD DUP1 DUP4 SUB DUP2 PUSH0 DUP8 GAS CALL ISZERO DUP1 ISZERO PUSH2 0x19A5 JUMPI RETURNDATASIZE PUSH0 DUP1 RETURNDATACOPY RETURNDATASIZE PUSH0 REVERT JUMPDEST POP POP POP POP PUSH1 0x40 MLOAD RETURNDATASIZE PUSH1 0x1F NOT PUSH1 0x1F DUP3 ADD AND DUP3 ADD DUP1 PUSH1 0x40 MSTORE POP DUP2 ADD SWAP1 PUSH2 0x19C9 SWAP2 SWAP1 PUSH2 0x2651 JUMP JUMPDEST POP DUP2 PUSH1 0x3 PUSH0 DUP3 DUP3 SLOAD PUSH2 0x19DB SWAP2 SWAP1 PUSH2 0x2A74 JUMP JUMPDEST SWAP3 POP POP DUP2 SWAP1 SSTORE POP DUP1 PUSH1 0x4 PUSH0 DUP3 DUP3 SLOAD PUSH2 0x19F3 SWAP2 SWAP1 PUSH2 0x2A74 JUMP JUMPDEST SWAP3 POP POP DUP2 SWAP1 SSTORE POP CALLER PUSH20 0xFFFFFFFFFFFFFFFFFFFFFFFFFFFFFFFFFFFFFFFF AND PUSH32 0x4F7E4F53152CB2CD0E424B2FC990199F0ED4255C7A97A848131F1EEFF165F7B DUP4 DUP4 DUP7 PUSH1 0x3 SLOAD PUSH1 0x4 SLOAD PUSH1 0x40 MLOAD PUSH2 0x1A4C SWAP6 SWAP5 SWAP4 SWAP3 SWAP2 SWAP1 PUSH2 0x2C90 JUMP JUMPDEST PUSH1 0x40 MLOAD DUP1 SWAP2 SUB SWAP1 LOG2 POP POP POP JUMP JUMPDEST PUSH0 DUP1 SLOAD SWAP1 PUSH2 0x100 EXP SWAP1 DIV PUSH20 0xFFFFFFFFFFFFFFFFFFFFFFFFFFFFFFFFFFFFFFFF AND PUSH20 0xFFFFFFFFFFFFFFFFFFFFFFFFFFFFFFFFFFFFFFFF AND PUSH4 0x23B872DD CALLER ADDRESS DUP6 PUSH1 0x40 MLOAD DUP5 PUSH4 0xFFFFFFFF AND PUSH1 0xE0 SHL DUP2 MSTORE PUSH1 0x4 ADD PUSH2 0x1AB5 SWAP4 SWAP3 SWAP2 SWAP1 PUSH2 0x25E7 JUMP JUMPDEST PUSH1 0x20 PUSH1 0x40 MLOAD DUP1 DUP4 SUB DUP2 PUSH0 DUP8 GAS CALL ISZERO DUP1 ISZERO PUSH2 0x1AD1 JUMPI RETURNDATASIZE PUSH0 DUP1 RETURNDATACOPY RETURNDATASIZE PUSH0 REVERT JUMPDEST POP POP POP POP PUSH1 0x40 MLOAD RETURNDATASIZE PUSH1 0x1F NOT PUSH1 0x1F DUP3 ADD AND DUP3 ADD DUP1 PUSH1 0x40 MSTORE POP DUP2 ADD SWAP1 PUSH2 0x1AF5 SWAP2 SWAP1 PUSH2 0x2651 JUMP JUMPDEST POP PUSH1 0x1 PUSH0 SWAP1 SLOAD SWAP1 PUSH2 0x100 EXP SWAP1 DIV PUSH20 0xFFFFFFFFFFFFFFFFFFFFFFFFFFFFFFFFFFFFFFFF AND PUSH20 0xFFFFFFFFFFFFFFFFFFFFFFFFFFFFFFFFFFFFFFFF AND PUSH4 0x23B872DD CALLER ADDRESS DUP5 PUSH1 0x40 MLOAD DUP5 PUSH4 0xFFFFFFFF AND PUSH1 0xE0 SHL DUP2 MSTORE PUSH1 0x4 ADD PUSH2 0x1B54 SWAP4 SWAP3 SWAP2 SWAP1 PUSH2 0x25E7 JUMP JUMPDEST PUSH1 0x20 PUSH1 0x40 MLOAD DUP1 DUP4 SUB DUP2 PUSH0 DUP8 GAS CALL ISZERO DUP1 ISZERO PUSH2 0x1B70 JUMPI RETURNDATASIZE PUSH0 DUP1 RETURNDATACOPY RETURNDATASIZE PUSH0 REVERT JUMPDEST POP POP POP POP PUSH1 0x40 MLOAD RETURNDATASIZE PUSH1 0x1F NOT PUSH1 0x1F DUP3 ADD AND DUP3 ADD DUP1 PUSH1 0x40 MSTORE POP DUP2 ADD SWAP1 PUSH2 0x1B94 SWAP2 SWAP1 PUSH2 0x2651 JUMP JUMPDEST POP PUSH0 DUP1 PUSH1 0x2 PUSH0 SWAP1 SLOAD SWAP1 PUSH2 0x100 EXP SWAP1 DIV PUSH20 0xFFFFFFFFFFFFFFFFFFFFFFFFFFFFFFFFFFFFFFFF AND PUSH20 0xFFFFFFFFFFFFFFFFFFFFFFFFFFFFFFFFFFFFFFFF AND PUSH4 0x18160DDD PUSH1 0x40 MLOAD DUP2 PUSH4 0xFFFFFFFF AND PUSH1 0xE0 SHL DUP2 MSTORE PUSH1 0x4 ADD PUSH1 0x20 PUSH1 0x40 MLOAD DUP1 DUP4 SUB DUP2 DUP7 GAS STATICCALL ISZERO DUP1 ISZERO PUSH2 0x1C01 JUMPI RETURNDATASIZE PUSH0 DUP1 RETURNDATACOPY RETURNDATASIZE PUSH0 REVERT JUMPDEST POP POP POP POP PUSH1 0x40 MLOAD RETURNDATASIZE PUSH1 0x1F NOT PUSH1 0x1F DUP3 ADD AND DUP3 ADD DUP1 PUSH1 0x40 MSTORE POP DUP2 ADD SWAP1 PUSH2 0x1C25 SWAP2 SWAP1 PUSH2 0x291F JUMP JUMPDEST SUB PUSH2 0x1C45 JUMPI PUSH2 0x1C3E DUP3 DUP5 PUSH2 0x1C39 SWAP2 SWAP1 PUSH2 0x2881 JUMP JUMPDEST PUSH2 0x1EF6 JUMP JUMPDEST SWAP1 POP PUSH2 0x1D9C JUMP JUMPDEST PUSH2 0x1D99 PUSH1 0x3 SLOAD PUSH1 0x2 PUSH0 SWAP1 SLOAD SWAP1 PUSH2 0x100 EXP SWAP1 DIV PUSH20 0xFFFFFFFFFFFFFFFFFFFFFFFFFFFFFFFFFFFFFFFF AND PUSH20 0xFFFFFFFFFFFFFFFFFFFFFFFFFFFFFFFFFFFFFFFF AND PUSH4 0x18160DDD PUSH1 0x40 MLOAD DUP2 PUSH4 0xFFFFFFFF AND PUSH1 0xE0 SHL DUP2 MSTORE PUSH1 0x4 ADD PUSH1 0x20 PUSH1 0x40 MLOAD DUP1 DUP4 SUB DUP2 DUP7 GAS STATICCALL ISZERO DUP1 ISZERO PUSH2 0x1CB5 JUMPI RETURNDATASIZE PUSH0 DUP1 RETURNDATACOPY RETURNDATASIZE PUSH0 REVERT JUMPDEST POP POP POP POP PUSH1 0x40 MLOAD RETURNDATASIZE PUSH1 0x1F NOT PUSH1 0x1F DUP3 ADD AND DUP3 ADD DUP1 PUSH1 0x40 MSTORE POP DUP2 ADD SWAP1 PUSH2 0x1CD9 SWAP2 SWAP1 PUSH2 0x291F JUMP JUMPDEST DUP6 PUSH2 0x1CE4 SWAP2 SWAP1 PUSH2 0x2881 JUMP JUMPDEST PUSH2 0x1CEE SWAP2 SWAP1 PUSH2 0x28EF JUMP JUMPDEST PUSH1 0x4 SLOAD PUSH1 0x2 PUSH0 SWAP1 SLOAD SWAP1 PUSH2 0x100 EXP SWAP1 DIV PUSH20 0xFFFFFFFFFFFFFFFFFFFFFFFFFFFFFFFFFFFFFFFF AND PUSH20 0xFFFFFFFFFFFFFFFFFFFFFFFFFFFFFFFFFFFFFFFF AND PUSH4 0x18160DDD PUSH1 0x40 MLOAD DUP2 PUSH4 0xFFFFFFFF AND PUSH1 0xE0 SHL DUP2 MSTORE PUSH1 0x4 ADD PUSH1 0x20 PUSH1 0x40 MLOAD DUP1 DUP4 SUB DUP2 DUP7 GAS STATICCALL ISZERO DUP1 ISZERO PUSH2 0x1D5B JUMPI RETURNDATASIZE PUSH0 DUP1 RETURNDATACOPY RETURNDATASIZE PUSH0 REVERT JUMPDEST POP POP POP POP PUSH1 0x40 MLOAD RETURNDATASIZE PUSH1 0x1F NOT PUSH1 0x1F DUP3 ADD AND DUP3 ADD DUP1 PUSH1 0x40 MSTORE POP DUP2 ADD SWAP1 PUSH2 0x1D7F SWAP2 SWAP1 PUSH2 0x291F JUMP JUMPDEST DUP6 PUSH2 0x1D8A SWAP2 SWAP1 PUSH2 0x2881 JUMP JUMPDEST PUSH2 0x1D94 SWAP2 SWAP1 PUSH2 0x28EF JUMP JUMPDEST PUSH2 0x1610 JUMP JUMPDEST SWAP1 POP JUMPDEST PUSH0 DUP2 GT PUSH2 0x1DDE JUMPI PUSH1 0x40 MLOAD PUSH32 0x8C379A000000000000000000000000000000000000000000000000000000000 DUP2 MSTORE PUSH1 0x4 ADD PUSH2 0x1DD5 SWAP1 PUSH2 0x2D2B JUMP JUMPDEST PUSH1 0x40 MLOAD DUP1 SWAP2 SUB SWAP1 REVERT JUMPDEST PUSH1 0x2 PUSH0 SWAP1 SLOAD SWAP1 PUSH2 0x100 EXP SWAP1 DIV PUSH20 0xFFFFFFFFFFFFFFFFFFFFFFFFFFFFFFFFFFFFFFFF AND PUSH20 0xFFFFFFFFFFFFFFFFFFFFFFFFFFFFFFFFFFFFFFFF AND PUSH4 0x40C10F19 CALLER DUP4 PUSH1 0x40 MLOAD DUP4 PUSH4 0xFFFFFFFF AND PUSH1 0xE0 SHL DUP2 MSTORE PUSH1 0x4 ADD PUSH2 0x1E3A SWAP3 SWAP2 SWAP1 PUSH2 0x2A1A JUMP JUMPDEST PUSH0 PUSH1 0x40 MLOAD DUP1 DUP4 SUB DUP2 PUSH0 DUP8 DUP1 EXTCODESIZE ISZERO DUP1 ISZERO PUSH2 0x1E51 JUMPI PUSH0 DUP1 REVERT JUMPDEST POP GAS CALL ISZERO DUP1 ISZERO PUSH2 0x1E63 JUMPI RETURNDATASIZE PUSH0 DUP1 RETURNDATACOPY RETURNDATASIZE PUSH0 REVERT JUMPDEST POP POP POP POP DUP3 PUSH1 0x3 PUSH0 DUP3 DUP3 SLOAD PUSH2 0x1E78 SWAP2 SWAP1 PUSH2 0x2A41 JUMP JUMPDEST SWAP3 POP POP DUP2 SWAP1 SSTORE POP DUP2 PUSH1 0x4 PUSH0 DUP3 DUP3 SLOAD PUSH2 0x1E90 SWAP2 SWAP1 PUSH2 0x2A41 JUMP JUMPDEST SWAP3 POP POP DUP2 SWAP1 SSTORE POP CALLER PUSH20 0xFFFFFFFFFFFFFFFFFFFFFFFFFFFFFFFFFFFFFFFF AND PUSH32 0x103E5727EE41CE8741FBDF27E5E596DEB21DBE5AE93901499306D10F28D1EF7 DUP5 DUP5 DUP5 PUSH1 0x3 SLOAD PUSH1 0x4 SLOAD PUSH1 0x40 MLOAD PUSH2 0x1EE9 SWAP6 SWAP5 SWAP4 SWAP3 SWAP2 SWAP1 PUSH2 0x2C90 JUMP JUMPDEST PUSH1 0x40 MLOAD DUP1 SWAP2 SUB SWAP1 LOG2 POP POP POP JUMP JUMPDEST PUSH0 PUSH1 0x3 DUP3 GT ISZERO PUSH2 0x1F5B JUMPI DUP2 SWAP1 POP PUSH0 PUSH1 0x1 PUSH1 0x2 DUP5 PUSH2 0x1F13 SWAP2 SWAP1 PUSH2 0x28EF JUMP JUMPDEST PUSH2 0x1F1D SWAP2 SWAP1 PUSH2 0x2A41 JUMP JUMPDEST SWAP1 POP JUMPDEST DUP2 DUP2 LT ISZERO PUSH2 0x1F55 JUMPI DUP1 SWAP2 POP PUSH1 0x2 DUP2 DUP3 DUP6 PUSH2 0x1F3A SWAP2 SWAP1 PUSH2 0x28EF JUMP JUMPDEST PUSH2 0x1F44 SWAP2 SWAP1 PUSH2 0x2A41 JUMP JUMPDEST PUSH2 0x1F4E SWAP2 SWAP1 PUSH2 0x28EF JUMP JUMPDEST SWAP1 POP PUSH2 0x1F20 JUMP JUMPDEST POP PUSH2 0x1F68 JUMP JUMPDEST PUSH0 DUP3 EQ PUSH2 0x1F67 JUMPI PUSH1 0x1 SWAP1 POP JUMPDEST JUMPDEST SWAP2 SWAP1 POP JUMP JUMPDEST PUSH0 DUP2 SWAP1 POP SWAP2 SWAP1 POP JUMP JUMPDEST PUSH2 0x1F7F DUP2 PUSH2 0x1F6D JUMP JUMPDEST DUP3 MSTORE POP POP JUMP JUMPDEST PUSH0 PUSH1 0x40 DUP3 ADD SWAP1 POP PUSH2 0x1F98 PUSH0 DUP4 ADD DUP6 PUSH2 0x1F76 JUMP JUMPDEST PUSH2 0x1FA5 PUSH1 0x20 DUP4 ADD DUP5 PUSH2 0x1F76 JUMP JUMPDEST SWAP4 SWAP3 POP POP POP JUMP JUMPDEST PUSH0 PUSH20 0xFFFFFFFFFFFFFFFFFFFFFFFFFFFFFFFFFFFFFFFF DUP3 AND SWAP1 POP SWAP2 SWAP1 POP JUMP JUMPDEST PUSH0 PUSH2 0x1FD5 DUP3 PUSH2 0x1FAC JUMP JUMPDEST SWAP1 POP SWAP2 SWAP1 POP JUMP JUMPDEST PUSH2 0x1FE5 DUP2 PUSH2 0x1FCB JUMP JUMPDEST DUP3 MSTORE POP POP JUMP JUMPDEST PUSH0 PUSH1 0x20 DUP3 ADD SWAP1 POP PUSH2 0x1FFE PUSH0 DUP4 ADD DUP5 PUSH2 0x1FDC JUMP JUMPDEST SWAP3 SWAP2 POP POP JUMP JUMPDEST PUSH0 PUSH1 0x40 MLOAD SWAP1 POP SWAP1 JUMP JUMPDEST PUSH0 DUP1 REVERT JUMPDEST PUSH0 DUP1 REVERT JUMPDEST PUSH2 0x201E DUP2 PUSH2 0x1FCB JUMP JUMPDEST DUP2 EQ PUSH2 0x2028 JUMPI PUSH0 DUP1 REVERT JUMPDEST POP JUMP JUMPDEST PUSH0 DUP2 CALLDATALOAD SWAP1 POP PUSH2 0x2039 DUP2 PUSH2 0x2015 JUMP JUMPDEST SWAP3 SWAP2 POP POP JUMP JUMPDEST PUSH0 PUSH1 0x20 DUP3 DUP5 SUB SLT ISZERO PUSH2 0x2054 JUMPI PUSH2 0x2053 PUSH2 0x200D JUMP JUMPDEST JUMPDEST PUSH0 PUSH2 0x2061 DUP5 DUP3 DUP6 ADD PUSH2 0x202B JUMP JUMPDEST SWAP2 POP POP SWAP3 SWAP2 POP POP JUMP JUMPDEST PUSH0 DUP2 SWAP1 POP SWAP2 SWAP1 POP JUMP JUMPDEST PUSH2 0x207C DUP2 PUSH2 0x206A JUMP JUMPDEST DUP3 MSTORE POP POP JUMP JUMPDEST PUSH0 PUSH1 0x20 DUP3 ADD SWAP1 POP PUSH2 0x2095 PUSH0 DUP4 ADD DUP5 PUSH2 0x2073 JUMP JUMPDEST SWAP3 SWAP2 POP POP JUMP JUMPDEST PUSH0 PUSH1 0x20 DUP3 ADD SWAP1 POP PUSH2 0x20AE PUSH0 DUP4 ADD DUP5 PUSH2 0x1F76 JUMP JUMPDEST SWAP3 SWAP2 POP POP JUMP JUMPDEST PUSH2 0x20BD DUP2 PUSH2 0x1F6D JUMP JUMPDEST DUP2 EQ PUSH2 0x20C7 JUMPI PUSH0 DUP1 REVERT JUMPDEST POP JUMP JUMPDEST PUSH0 DUP2 CALLDATALOAD SWAP1 POP PUSH2 0x20D8 DUP2 PUSH2 0x20B4 JUMP JUMPDEST SWAP3 SWAP2 POP POP JUMP JUMPDEST PUSH0 DUP1 PUSH1 0x40 DUP4 DUP6 SUB SLT ISZERO PUSH2 0x20F4 JUMPI PUSH2 0x20F3 PUSH2 0x200D JUMP JUMPDEST JUMPDEST PUSH0 PUSH2 0x2101 DUP6 DUP3 DUP7 ADD PUSH2 0x20CA JUMP JUMPDEST SWAP3 POP POP PUSH1 0x20 PUSH2 0x2112 DUP6 DUP3 DUP7 ADD PUSH2 0x202B JUMP JUMPDEST SWAP2 POP POP SWAP3 POP SWAP3 SWAP1 POP JUMP JUMPDEST PUSH0 PUSH1 0x20 DUP3 DUP5 SUB SLT ISZERO PUSH2 0x2131 JUMPI PUSH2 0x2130 PUSH2 0x200D JUMP JUMPDEST JUMPDEST PUSH0 PUSH2 0x213E DUP5 DUP3 DUP6 ADD PUSH2 0x20CA JUMP JUMPDEST SWAP2 POP POP SWAP3 SWAP2 POP POP JUMP JUMPDEST PUSH0 DUP2 SWAP1 POP SWAP2 SWAP1 POP JUMP JUMPDEST PUSH0 PUSH2 0x216A PUSH2 0x2165 PUSH2 0x2160 DUP5 PUSH2 0x1FAC JUMP JUMPDEST PUSH2 0x2147 JUMP JUMPDEST PUSH2 0x1FAC JUMP JUMPDEST SWAP1 POP SWAP2 SWAP1 POP JUMP JUMPDEST PUSH0 PUSH2 0x217B DUP3 PUSH2 0x2150 JUMP JUMPDEST SWAP1 POP SWAP2 SWAP1 POP JUMP JUMPDEST PUSH0 PUSH2 0x218C DUP3 PUSH2 0x2171 JUMP JUMPDEST SWAP1 POP SWAP2 SWAP1 POP JUMP JUMPDEST PUSH2 0x219C DUP2 PUSH2 0x2182 JUMP JUMPDEST DUP3 MSTORE POP POP JUMP JUMPDEST PUSH0 PUSH1 0x20 DUP3 ADD SWAP1 POP PUSH2 0x21B5 PUSH0 DUP4 ADD DUP5 PUSH2 0x2193 JUMP JUMPDEST SWAP3 SWAP2 POP POP JUMP JUMPDEST PUSH0 DUP2 MLOAD SWAP1 POP SWAP2 SWAP1 POP JUMP JUMPDEST PUSH0 DUP3 DUP3 MSTORE PUSH1 0x20 DUP3 ADD SWAP1 POP SWAP3 SWAP2 POP POP JUMP JUMPDEST PUSH0 JUMPDEST DUP4 DUP2 LT ISZERO PUSH2 0x21F2 JUMPI DUP1 DUP3 ADD MLOAD DUP2 DUP5 ADD MSTORE PUSH1 0x20 DUP2 ADD SWAP1 POP PUSH2 0x21D7 JUMP JUMPDEST PUSH0 DUP5 DUP5 ADD MSTORE POP POP POP POP JUMP JUMPDEST PUSH0 PUSH1 0x1F NOT PUSH1 0x1F DUP4 ADD AND SWAP1 POP SWAP2 SWAP1 POP JUMP JUMPDEST PUSH0 PUSH2 0x2217 DUP3 PUSH2 0x21BB JUMP JUMPDEST PUSH2 0x2221 DUP2 DUP6 PUSH2 0x21C5 JUMP JUMPDEST SWAP4 POP PUSH2 0x2231 DUP2 DUP6 PUSH1 0x20 DUP7 ADD PUSH2 0x21D5 JUMP JUMPDEST PUSH2 0x223A DUP2 PUSH2 0x21FD JUMP JUMPDEST DUP5 ADD SWAP2 POP POP SWAP3 SWAP2 POP POP JUMP JUMPDEST PUSH0 PUSH1 0x20 DUP3 ADD SWAP1 POP DUP2 DUP2 SUB PUSH0 DUP4 ADD MSTORE PUSH2 0x225D DUP2 DUP5 PUSH2 0x220D JUMP JUMPDEST SWAP1 POP SWAP3 SWAP2 POP POP JUMP JUMPDEST PUSH0 DUP1 REVERT JUMPDEST PUSH0 DUP1 REVERT JUMPDEST PUSH32 0x4E487B7100000000000000000000000000000000000000000000000000000000 PUSH0 MSTORE PUSH1 0x41 PUSH1 0x4 MSTORE PUSH1 0x24 PUSH0 REVERT JUMPDEST PUSH2 0x22A3 DUP3 PUSH2 0x21FD JUMP JUMPDEST DUP2 ADD DUP2 DUP2 LT PUSH8 0xFFFFFFFFFFFFFFFF DUP3 GT OR ISZERO PUSH2 0x22C2 JUMPI PUSH2 0x22C1 PUSH2 0x226D JUMP JUMPDEST JUMPDEST DUP1 PUSH1 0x40 MSTORE POP POP POP JUMP JUMPDEST PUSH0 PUSH2 0x22D4 PUSH2 0x2004 JUMP JUMPDEST SWAP1 POP PUSH2 0x22E0 DUP3 DUP3 PUSH2 0x229A JUMP JUMPDEST SWAP2 SWAP1 POP JUMP JUMPDEST PUSH0 PUSH8 0xFFFFFFFFFFFFFFFF DUP3 GT ISZERO PUSH2 0x22FF JUMPI PUSH2 0x22FE PUSH2 0x226D JUMP JUMPDEST JUMPDEST PUSH2 0x2308 DUP3 PUSH2 0x21FD JUMP JUMPDEST SWAP1 POP PUSH1 0x20 DUP2 ADD SWAP1 POP SWAP2 SWAP1 POP JUMP JUMPDEST DUP3 DUP2 DUP4 CALLDATACOPY PUSH0 DUP4 DUP4 ADD MSTORE POP POP POP JUMP JUMPDEST PUSH0 PUSH2 0x2335 PUSH2 0x2330 DUP5 PUSH2 0x22E5 JUMP JUMPDEST PUSH2 0x22CB JUMP JUMPDEST SWAP1 POP DUP3 DUP2 MSTORE PUSH1 0x20 DUP2 ADD DUP5 DUP5 DUP5 ADD GT ISZERO PUSH2 0x2351 JUMPI PUSH2 0x2350 PUSH2 0x2269 JUMP JUMPDEST JUMPDEST PUSH2 0x235C DUP5 DUP3 DUP6 PUSH2 0x2315 JUMP JUMPDEST POP SWAP4 SWAP3 POP POP POP JUMP JUMPDEST PUSH0 DUP3 PUSH1 0x1F DUP4 ADD SLT PUSH2 0x2378 JUMPI PUSH2 0x2377 PUSH2 0x2265 JUMP JUMPDEST JUMPDEST DUP2 CALLDATALOAD PUSH2 0x2388 DUP5 DUP3 PUSH1 0x20 DUP7 ADD PUSH2 0x2323 JUMP JUMPDEST SWAP2 POP POP SWAP3 SWAP2 POP POP JUMP JUMPDEST PUSH0 PUSH1 0x20 DUP3 DUP5 SUB SLT ISZERO PUSH2 0x23A6 JUMPI PUSH2 0x23A5 PUSH2 0x200D JUMP JUMPDEST JUMPDEST PUSH0 DUP3 ADD CALLDATALOAD PUSH8 0xFFFFFFFFFFFFFFFF DUP2 GT ISZERO PUSH2 0x23C3 JUMPI PUSH2 0x23C2 PUSH2 0x2011 JUMP JUMPDEST JUMPDEST PUSH2 0x23CF DUP5 DUP3 DUP6 ADD PUSH2 0x2364 JUMP JUMPDEST SWAP2 POP POP SWAP3 SWAP2 POP POP JUMP JUMPDEST PUSH0 DUP3 DUP3 MSTORE PUSH1 0x20 DUP3 ADD SWAP1 POP SWAP3 SWAP2 POP POP JUMP JUMPDEST PUSH32 0x496E76616C696420696E70757420746F6B656E00000000000000000000000000 PUSH0 DUP3 ADD MSTORE POP JUMP JUMPDEST PUSH0 PUSH2 0x241C PUSH1 0x13 DUP4 PUSH2 0x23D8 JUMP JUMPDEST SWAP2 POP PUSH2 0x2427 DUP3 PUSH2 0x23E8 JUMP JUMPDEST PUSH1 0x20 DUP3 ADD SWAP1 POP SWAP2 SWAP1 POP JUMP JUMPDEST PUSH0 PUSH1 0x20 DUP3 ADD SWAP1 POP DUP2 DUP2 SUB PUSH0 DUP4 ADD MSTORE PUSH2 0x2449 DUP2 PUSH2 0x2410 JUMP JUMPDEST SWAP1 POP SWAP2 SWAP1 POP JUMP JUMPDEST PUSH0 PUSH10 0xFFFFFFFFFFFFFFFFFFFF DUP3 AND SWAP1 POP SWAP2 SWAP1 POP JUMP JUMPDEST PUSH2 0x246E DUP2 PUSH2 0x2450 JUMP JUMPDEST DUP2 EQ PUSH2 0x2478 JUMPI PUSH0 DUP1 REVERT JUMPDEST POP JUMP JUMPDEST PUSH0 DUP2 MLOAD SWAP1 POP PUSH2 0x2489 DUP2 PUSH2 0x2465 JUMP JUMPDEST SWAP3 SWAP2 POP POP JUMP JUMPDEST PUSH2 0x2498 DUP2 PUSH2 0x206A JUMP JUMPDEST DUP2 EQ PUSH2 0x24A2 JUMPI PUSH0 DUP1 REVERT JUMPDEST POP JUMP JUMPDEST PUSH0 DUP2 MLOAD SWAP1 POP PUSH2 0x24B3 DUP2 PUSH2 0x248F JUMP JUMPDEST SWAP3 SWAP2 POP POP JUMP JUMPDEST PUSH0 DUP2 MLOAD SWAP1 POP PUSH2 0x24C7 DUP2 PUSH2 0x20B4 JUMP JUMPDEST SWAP3 SWAP2 POP POP JUMP JUMPDEST PUSH0 DUP1 PUSH0 DUP1 PUSH0 PUSH1 0xA0 DUP7 DUP9 SUB SLT ISZERO PUSH2 0x24E6 JUMPI PUSH2 0x24E5 PUSH2 0x200D JUMP JUMPDEST JUMPDEST PUSH0 PUSH2 0x24F3 DUP9 DUP3 DUP10 ADD PUSH2 0x247B JUMP JUMPDEST SWAP6 POP POP PUSH1 0x20 PUSH2 0x2504 DUP9 DUP3 DUP10 ADD PUSH2 0x24A5 JUMP JUMPDEST SWAP5 POP POP PUSH1 0x40 PUSH2 0x2515 DUP9 DUP3 DUP10 ADD PUSH2 0x24B9 JUMP JUMPDEST SWAP4 POP POP PUSH1 0x60 PUSH2 0x2526 DUP9 DUP3 DUP10 ADD PUSH2 0x24B9 JUMP JUMPDEST SWAP3 POP POP PUSH1 0x80 PUSH2 0x2537 DUP9 DUP3 DUP10 ADD PUSH2 0x247B JUMP JUMPDEST SWAP2 POP POP SWAP3 SWAP6 POP SWAP3 SWAP6 SWAP1 SWAP4 POP JUMP JUMPDEST PUSH32 0x4E487B7100000000000000000000000000000000000000000000000000000000 PUSH0 MSTORE PUSH1 0x11 PUSH1 0x4 MSTORE PUSH1 0x24 PUSH0 REVERT JUMPDEST PUSH0 PUSH2 0x257B DUP3 PUSH2 0x206A JUMP JUMPDEST SWAP2 POP PUSH2 0x2586 DUP4 PUSH2 0x206A JUMP JUMPDEST SWAP3 POP DUP3 DUP3 MUL PUSH2 0x2594 DUP2 PUSH2 0x206A JUMP JUMPDEST SWAP2 POP PUSH32 0x8000000000000000000000000000000000000000000000000000000000000000 DUP5 EQ PUSH0 DUP5 SLT AND ISZERO PUSH2 0x25CB JUMPI PUSH2 0x25CA PUSH2 0x2544 JUMP JUMPDEST JUMPDEST DUP3 DUP3 SDIV DUP5 EQ DUP4 ISZERO OR PUSH2 0x25E0 JUMPI PUSH2 0x25DF PUSH2 0x2544 JUMP JUMPDEST JUMPDEST POP SWAP3 SWAP2 POP POP JUMP JUMPDEST PUSH0 PUSH1 0x60 DUP3 ADD SWAP1 POP PUSH2 0x25FA PUSH0 DUP4 ADD DUP7 PUSH2 0x1FDC JUMP JUMPDEST PUSH2 0x2607 PUSH1 0x20 DUP4 ADD DUP6 PUSH2 0x1FDC JUMP JUMPDEST PUSH2 0x2614 PUSH1 0x40 DUP4 ADD DUP5 PUSH2 0x1F76 JUMP JUMPDEST SWAP5 SWAP4 POP POP POP POP JUMP JUMPDEST PUSH0 DUP2 ISZERO ISZERO SWAP1 POP SWAP2 SWAP1 POP JUMP JUMPDEST PUSH2 0x2630 DUP2 PUSH2 0x261C JUMP JUMPDEST DUP2 EQ PUSH2 0x263A JUMPI PUSH0 DUP1 REVERT JUMPDEST POP JUMP JUMPDEST PUSH0 DUP2 MLOAD SWAP1 POP PUSH2 0x264B DUP2 PUSH2 0x2627 JUMP JUMPDEST SWAP3 SWAP2 POP POP JUMP JUMPDEST PUSH0 PUSH1 0x20 DUP3 DUP5 SUB SLT ISZERO PUSH2 0x2666 JUMPI PUSH2 0x2665 PUSH2 0x200D JUMP JUMPDEST JUMPDEST PUSH0 PUSH2 0x2673 DUP5 DUP3 DUP6 ADD PUSH2 0x263D JUMP JUMPDEST SWAP2 POP POP SWAP3 SWAP2 POP POP JUMP JUMPDEST PUSH0 PUSH1 0x60 DUP3 ADD SWAP1 POP PUSH2 0x268F PUSH0 DUP4 ADD DUP7 PUSH2 0x1FDC JUMP JUMPDEST PUSH2 0x269C PUSH1 0x20 DUP4 ADD DUP6 PUSH2 0x1F76 JUMP JUMPDEST PUSH2 0x26A9 PUSH1 0x40 DUP4 ADD DUP5 PUSH2 0x1FDC JUMP JUMPDEST SWAP5 SWAP4 POP POP POP POP JUMP JUMPDEST PUSH32 0x4E487B7100000000000000000000000000000000000000000000000000000000 PUSH0 MSTORE PUSH1 0x22 PUSH1 0x4 MSTORE PUSH1 0x24 PUSH0 REVERT JUMPDEST PUSH0 PUSH1 0x2 DUP3 DIV SWAP1 POP PUSH1 0x1 DUP3 AND DUP1 PUSH2 0x26F5 JUMPI PUSH1 0x7F DUP3 AND SWAP2 POP JUMPDEST PUSH1 0x20 DUP3 LT DUP2 SUB PUSH2 0x2708 JUMPI PUSH2 0x2707 PUSH2 0x26B1 JUMP JUMPDEST JUMPDEST POP SWAP2 SWAP1 POP JUMP JUMPDEST PUSH0 DUP2 SLOAD SWAP1 POP PUSH2 0x271C DUP2 PUSH2 0x26DE JUMP JUMPDEST SWAP1 POP SWAP2 SWAP1 POP JUMP JUMPDEST PUSH0 DUP2 SWAP1 POP DUP2 PUSH0 MSTORE PUSH1 0x20 PUSH0 KECCAK256 SWAP1 POP SWAP2 SWAP1 POP JUMP JUMPDEST PUSH0 DUP2 PUSH1 0xC0 SHR SWAP1 POP SWAP2 SWAP1 POP JUMP JUMPDEST PUSH0 DUP2 PUSH1 0xC0 SHL SWAP1 POP SWAP2 SWAP1 POP JUMP JUMPDEST PUSH0 PUSH2 0x2757 DUP3 PUSH2 0x2741 JUMP JUMPDEST SWAP1 POP SWAP2 SWAP1 POP JUMP JUMPDEST PUSH0 PUSH2 0x2770 PUSH2 0x276B DUP4 PUSH2 0x2735 JUMP JUMPDEST PUSH2 0x274D JUMP JUMPDEST SWAP1 POP SWAP2 SWAP1 POP JUMP JUMPDEST PUSH0 PUSH2 0x2782 DUP3 SLOAD PUSH2 0x275E JUMP JUMPDEST SWAP1 POP SWAP2 SWAP1 POP JUMP JUMPDEST PUSH0 DUP3 DUP3 SHL SWAP1 POP SWAP3 SWAP2 POP POP JUMP JUMPDEST PUSH0 PUSH2 0x279F DUP3 PUSH2 0x270E JUMP JUMPDEST DUP3 PUSH1 0x1F DUP3 GT ISZERO PUSH2 0x27B5 JUMPI PUSH2 0x27B2 DUP5 PUSH2 0x2723 JUMP JUMPDEST SWAP1 POP JUMPDEST PUSH2 0x27BE DUP2 PUSH2 0x2777 JUMP JUMPDEST SWAP3 POP PUSH1 0x8 DUP3 LT ISZERO PUSH2 0x27FE JUMPI PUSH2 0x27F9 PUSH32 0xFFFFFFFFFFFFFFFF000000000000000000000000000000000000000000000000 DUP4 PUSH1 0x8 SUB PUSH1 0x8 MUL PUSH2 0x2789 JUMP JUMPDEST DUP4 AND SWAP3 POP JUMPDEST POP POP SWAP2 SWAP1 POP JUMP JUMPDEST PUSH0 DUP2 SWAP1 POP SWAP2 SWAP1 POP JUMP JUMPDEST PUSH0 PUSH2 0x2828 PUSH2 0x2823 PUSH2 0x281E DUP5 PUSH2 0x2805 JUMP JUMPDEST PUSH2 0x2147 JUMP JUMPDEST PUSH2 0x1F6D JUMP JUMPDEST SWAP1 POP SWAP2 SWAP1 POP JUMP JUMPDEST PUSH2 0x2838 DUP2 PUSH2 0x280E JUMP JUMPDEST DUP3 MSTORE POP POP JUMP JUMPDEST PUSH0 PUSH1 0x80 DUP3 ADD SWAP1 POP PUSH2 0x2851 PUSH0 DUP4 ADD DUP8 PUSH2 0x1FDC JUMP JUMPDEST PUSH2 0x285E PUSH1 0x20 DUP4 ADD DUP7 PUSH2 0x1F76 JUMP JUMPDEST PUSH2 0x286B PUSH1 0x40 DUP4 ADD DUP6 PUSH2 0x1FDC JUMP JUMPDEST PUSH2 0x2878 PUSH1 0x60 DUP4 ADD DUP5 PUSH2 0x282F JUMP JUMPDEST SWAP6 SWAP5 POP POP POP POP POP JUMP JUMPDEST PUSH0 PUSH2 0x288B DUP3 PUSH2 0x1F6D JUMP JUMPDEST SWAP2 POP PUSH2 0x2896 DUP4 PUSH2 0x1F6D JUMP JUMPDEST SWAP3 POP DUP3 DUP3 MUL PUSH2 0x28A4 DUP2 PUSH2 0x1F6D JUMP JUMPDEST SWAP2 POP DUP3 DUP3 DIV DUP5 EQ DUP4 ISZERO OR PUSH2 0x28BB JUMPI PUSH2 0x28BA PUSH2 0x2544 JUMP JUMPDEST JUMPDEST POP SWAP3 SWAP2 POP POP JUMP JUMPDEST PUSH32 0x4E487B7100000000000000000000000000000000000000000000000000000000 PUSH0 MSTORE PUSH1 0x12 PUSH1 0x4 MSTORE PUSH1 0x24 PUSH0 REVERT JUMPDEST PUSH0 PUSH2 0x28F9 DUP3 PUSH2 0x1F6D JUMP JUMPDEST SWAP2 POP PUSH2 0x2904 DUP4 PUSH2 0x1F6D JUMP JUMPDEST SWAP3 POP DUP3 PUSH2 0x2914 JUMPI PUSH2 0x2913 PUSH2 0x28C2 JUMP JUMPDEST JUMPDEST DUP3 DUP3 DIV SWAP1 POP SWAP3 SWAP2 POP POP JUMP JUMPDEST PUSH0 PUSH1 0x20 DUP3 DUP5 SUB SLT ISZERO PUSH2 0x2934 JUMPI PUSH2 0x2933 PUSH2 0x200D JUMP JUMPDEST JUMPDEST PUSH0 PUSH2 0x2941 DUP5 DUP3 DUP6 ADD PUSH2 0x24B9 JUMP JUMPDEST SWAP2 POP POP SWAP3 SWAP2 POP POP JUMP JUMPDEST PUSH0 PUSH2 0x2954 DUP3 PUSH2 0x206A JUMP JUMPDEST SWAP2 POP PUSH2 0x295F DUP4 PUSH2 0x206A JUMP JUMPDEST SWAP3 POP DUP3 PUSH2 0x296F JUMPI PUSH2 0x296E PUSH2 0x28C2 JUMP JUMPDEST JUMPDEST PUSH1 0x1 PUSH0 SUB DUP4 EQ PUSH32 0x8000000000000000000000000000000000000000000000000000000000000000 DUP4 EQ AND ISZERO PUSH2 0x29A7 JUMPI PUSH2 0x29A6 PUSH2 0x2544 JUMP JUMPDEST JUMPDEST DUP3 DUP3 SDIV SWAP1 POP SWAP3 SWAP2 POP POP JUMP JUMPDEST PUSH32 0x526573657276657320617265206E6F7420736574000000000000000000000000 PUSH0 DUP3 ADD MSTORE POP JUMP JUMPDEST PUSH0 PUSH2 0x29E6 PUSH1 0x14 DUP4 PUSH2 0x23D8 JUMP JUMPDEST SWAP2 POP PUSH2 0x29F1 DUP3 PUSH2 0x29B2 JUMP JUMPDEST PUSH1 0x20 DUP3 ADD SWAP1 POP SWAP2 SWAP1 POP JUMP JUMPDEST PUSH0 PUSH1 0x20 DUP3 ADD SWAP1 POP DUP2 DUP2 SUB PUSH0 DUP4 ADD MSTORE PUSH2 0x2A13 DUP2 PUSH2 0x29DA JUMP JUMPDEST SWAP1 POP SWAP2 SWAP1 POP JUMP JUMPDEST PUSH0 PUSH1 0x40 DUP3 ADD SWAP1 POP PUSH2 0x2A2D PUSH0 DUP4 ADD DUP6 PUSH2 0x1FDC JUMP JUMPDEST PUSH2 0x2A3A PUSH1 0x20 DUP4 ADD DUP5 PUSH2 0x1F76 JUMP JUMPDEST SWAP4 SWAP3 POP POP POP JUMP JUMPDEST PUSH0 PUSH2 0x2A4B DUP3 PUSH2 0x1F6D JUMP JUMPDEST SWAP2 POP PUSH2 0x2A56 DUP4 PUSH2 0x1F6D JUMP JUMPDEST SWAP3 POP DUP3 DUP3 ADD SWAP1 POP DUP1 DUP3 GT ISZERO PUSH2 0x2A6E JUMPI PUSH2 0x2A6D PUSH2 0x2544 JUMP JUMPDEST JUMPDEST SWAP3 SWAP2 POP POP JUMP JUMPDEST PUSH0 PUSH2 0x2A7E DUP3 PUSH2 0x1F6D JUMP JUMPDEST SWAP2 POP PUSH2 0x2A89 DUP4 PUSH2 0x1F6D JUMP JUMPDEST SWAP3 POP DUP3 DUP3 SUB SWAP1 POP DUP2 DUP2 GT ISZERO PUSH2 0x2AA1 JUMPI PUSH2 0x2AA0 PUSH2 0x2544 JUMP JUMPDEST JUMPDEST SWAP3 SWAP2 POP POP JUMP JUMPDEST PUSH32 0x4F6E6C7920746865204343495020726F757465722063616E2063616C6C207468 PUSH0 DUP3 ADD MSTORE PUSH32 0x69732066756E6374696F6E000000000000000000000000000000000000000000 PUSH1 0x20 DUP3 ADD MSTORE POP JUMP JUMPDEST PUSH0 PUSH2 0x2B01 PUSH1 0x2B DUP4 PUSH2 0x23D8 JUMP JUMPDEST SWAP2 POP PUSH2 0x2B0C DUP3 PUSH2 0x2AA7 JUMP JUMPDEST PUSH1 0x40 DUP3 ADD SWAP1 POP SWAP2 SWAP1 POP JUMP JUMPDEST PUSH0 PUSH1 0x20 DUP3 ADD SWAP1 POP DUP2 DUP2 SUB PUSH0 DUP4 ADD MSTORE PUSH2 0x2B2E DUP2 PUSH2 0x2AF5 JUMP JUMPDEST SWAP1 POP SWAP2 SWAP1 POP JUMP JUMPDEST PUSH0 PUSH2 0x2B3F DUP3 PUSH2 0x1FAC JUMP JUMPDEST SWAP1 POP SWAP2 SWAP1 POP JUMP JUMPDEST PUSH2 0x2B4F DUP2 PUSH2 0x2B35 JUMP JUMPDEST DUP2 EQ PUSH2 0x2B59 JUMPI PUSH0 DUP1 REVERT JUMPDEST POP JUMP JUMPDEST PUSH0 DUP2 MLOAD SWAP1 POP PUSH2 0x2B6A DUP2 PUSH2 0x2B46 JUMP JUMPDEST SWAP3 SWAP2 POP POP JUMP JUMPDEST PUSH0 DUP1 PUSH0 PUSH1 0x60 DUP5 DUP7 SUB SLT ISZERO PUSH2 0x2B87 JUMPI PUSH2 0x2B86 PUSH2 0x200D JUMP JUMPDEST JUMPDEST PUSH0 PUSH2 0x2B94 DUP7 DUP3 DUP8 ADD PUSH2 0x2B5C JUMP JUMPDEST SWAP4 POP POP PUSH1 0x20 PUSH2 0x2BA5 DUP7 DUP3 DUP8 ADD PUSH2 0x24B9 JUMP JUMPDEST SWAP3 POP POP PUSH1 0x40 PUSH2 0x2BB6 DUP7 DUP3 DUP8 ADD PUSH2 0x2B5C JUMP JUMPDEST SWAP2 POP POP SWAP3 POP SWAP3 POP SWAP3 JUMP JUMPDEST PUSH32 0x496E73756666696369656E74206C697175696469747900000000000000000000 PUSH0 DUP3 ADD MSTORE POP JUMP JUMPDEST PUSH0 PUSH2 0x2BF4 PUSH1 0x16 DUP4 PUSH2 0x23D8 JUMP JUMPDEST SWAP2 POP PUSH2 0x2BFF DUP3 PUSH2 0x2BC0 JUMP JUMPDEST PUSH1 0x20 DUP3 ADD SWAP1 POP SWAP2 SWAP1 POP JUMP JUMPDEST PUSH0 PUSH1 0x20 DUP3 ADD SWAP1 POP DUP2 DUP2 SUB PUSH0 DUP4 ADD MSTORE PUSH2 0x2C21 DUP2 PUSH2 0x2BE8 JUMP JUMPDEST SWAP1 POP SWAP2 SWAP1 POP JUMP JUMPDEST PUSH32 0x496E73756666696369656E74206C69717569646974792072656D6F7665640000 PUSH0 DUP3 ADD MSTORE POP JUMP JUMPDEST PUSH0 PUSH2 0x2C5C PUSH1 0x1E DUP4 PUSH2 0x23D8 JUMP JUMPDEST SWAP2 POP PUSH2 0x2C67 DUP3 PUSH2 0x2C28 JUMP JUMPDEST PUSH1 0x20 DUP3 ADD SWAP1 POP SWAP2 SWAP1 POP JUMP JUMPDEST PUSH0 PUSH1 0x20 DUP3 ADD SWAP1 POP DUP2 DUP2 SUB PUSH0 DUP4 ADD MSTORE PUSH2 0x2C89 DUP2 PUSH2 0x2C50 JUMP JUMPDEST SWAP1 POP SWAP2 SWAP1 POP JUMP JUMPDEST PUSH0 PUSH1 0xA0 DUP3 ADD SWAP1 POP PUSH2 0x2CA3 PUSH0 DUP4 ADD DUP9 PUSH2 0x1F76 JUMP JUMPDEST PUSH2 0x2CB0 PUSH1 0x20 DUP4 ADD DUP8 PUSH2 0x1F76 JUMP JUMPDEST PUSH2 0x2CBD PUSH1 0x40 DUP4 ADD DUP7 PUSH2 0x1F76 JUMP JUMPDEST PUSH2 0x2CCA PUSH1 0x60 DUP4 ADD DUP6 PUSH2 0x1F76 JUMP JUMPDEST PUSH2 0x2CD7 PUSH1 0x80 DUP4 ADD DUP5 PUSH2 0x1F76 JUMP JUMPDEST SWAP7 SWAP6 POP POP POP POP POP POP JUMP JUMPDEST PUSH32 0x496E73756666696369656E74206C69717569646974792070726F766964656400 PUSH0 DUP3 ADD MSTORE POP JUMP JUMPDEST PUSH0 PUSH2 0x2D15 PUSH1 0x1F DUP4 PUSH2 0x23D8 JUMP JUMPDEST SWAP2 POP PUSH2 0x2D20 DUP3 PUSH2 0x2CE1 JUMP JUMPDEST PUSH1 0x20 DUP3 ADD SWAP1 POP SWAP2 SWAP1 POP JUMP JUMPDEST PUSH0 PUSH1 0x20 DUP3 ADD SWAP1 POP DUP2 DUP2 SUB PUSH0 DUP4 ADD MSTORE PUSH2 0x2D42 DUP2 PUSH2 0x2D09 JUMP JUMPDEST SWAP1 POP SWAP2 SWAP1 POP JUMP INVALID LOG2 PUSH5 0x6970667358 0x22 SLT KECCAK256 0xF6 0xD1 ORIGIN 0xEA 0xD6 0x29 CALL JUMP PUSH2 0x8E98 SWAP5 PREVRANDAO PUSH18 0x46DF6C7275153A5040DEFF9C6E64221FDCE0 PUSH5 0x736F6C6343 STOP ADDMOD EQ STOP CALLER "
		},
		"gasEstimates": {
			"creation": {
				"codeDepositCost": "2329400",
				"executionCost": "infinite",
				"totalCost": "infinite"
			},
			"external": {
				"addLiquidityInUSD(uint256)": "infinite",
				"ccipRouter()": "2554",
				"getAmountOut(uint256,address)": "infinite",
				"getDAIperLinkMarketPrice()": "infinite",
				"getDAIperLinkOurDEXPrice()": "infinite",
				"getPrice(address)": "infinite",
				"getPriceRatio()": "infinite",
				"getReserves()": "infinite",
				"lpToken()": "infinite",
				"receiveMessage(bytes)": "infinite",
				"removeLiquidityInUSD(uint256)": "infinite",
				"reserve0()": "2448",
				"reserve1()": "2448",
				"sendMessage(uint256,address)": "infinite",
				"setTargetChainPairAddress(address)": "24760",
				"swapInUSD(uint256,address)": "infinite",
				"targetChain()": "infinite",
				"targetChainPairAddress()": "2598",
				"token0()": "2573",
				"token1()": "2574"
			},
			"internal": {
				"addLiquidity(uint256,uint256)": "infinite",
				"removeLiquidity(uint256)": "infinite"
			}
		},
		"methodIdentifiers": {
			"addLiquidityInUSD(uint256)": "64e7b85a",
			"ccipRouter()": "0de22984",
			"getAmountOut(uint256,address)": "f140a35a",
			"getDAIperLinkMarketPrice()": "a996944c",
			"getDAIperLinkOurDEXPrice()": "729132f9",
			"getPrice(address)": "41976e09",
			"getPriceRatio()": "54b2a769",
			"getReserves()": "0902f1ac",
			"lpToken()": "5fcbd285",
			"receiveMessage(bytes)": "f953cec7",
			"removeLiquidityInUSD(uint256)": "5444a39d",
			"reserve0()": "443cb4bc",
			"reserve1()": "5a76f25e",
			"sendMessage(uint256,address)": "4fb0ffa4",
			"setTargetChainPairAddress(address)": "47dbf9be",
			"swapInUSD(uint256,address)": "d0e7e07e",
			"targetChain()": "8304e6d2",
			"targetChainPairAddress()": "32843ee3",
			"token0()": "0dfe1681",
			"token1()": "d21220a7"
		}
	},
	"abi": [
		{
			"inputs": [
				{
					"internalType": "address",
					"name": "_token0",
					"type": "address"
				},
				{
					"internalType": "address",
					"name": "_token1",
					"type": "address"
				},
				{
					"internalType": "address",
					"name": "_priceFeed0",
					"type": "address"
				},
				{
					"internalType": "address",
					"name": "_priceFeed1",
					"type": "address"
				},
				{
					"internalType": "address",
					"name": "_lpToken",
					"type": "address"
				},
				{
					"internalType": "address",
					"name": "_ccipRouter",
					"type": "address"
				},
				{
					"internalType": "bytes",
					"name": "_targetChain",
					"type": "bytes"
				}
			],
			"stateMutability": "nonpayable",
			"type": "constructor"
		},
		{
			"anonymous": false,
			"inputs": [
				{
					"indexed": true,
					"internalType": "address",
					"name": "provider",
					"type": "address"
				},
				{
					"indexed": false,
					"internalType": "uint256",
					"name": "amount0",
					"type": "uint256"
				},
				{
					"indexed": false,
					"internalType": "uint256",
					"name": "amount1",
					"type": "uint256"
				},
				{
					"indexed": false,
					"internalType": "uint256",
					"name": "liquidity",
					"type": "uint256"
				},
				{
					"indexed": false,
					"internalType": "uint256",
					"name": "reserve0",
					"type": "uint256"
				},
				{
					"indexed": false,
					"internalType": "uint256",
					"name": "reserve1",
					"type": "uint256"
				}
			],
			"name": "LiquidityAdded",
			"type": "event"
		},
		{
			"anonymous": false,
			"inputs": [
				{
					"indexed": true,
					"internalType": "address",
					"name": "provider",
					"type": "address"
				},
				{
					"indexed": false,
					"internalType": "uint256",
					"name": "amount0",
					"type": "uint256"
				},
				{
					"indexed": false,
					"internalType": "uint256",
					"name": "amount1",
					"type": "uint256"
				},
				{
					"indexed": false,
					"internalType": "uint256",
					"name": "liquidity",
					"type": "uint256"
				},
				{
					"indexed": false,
					"internalType": "uint256",
					"name": "reserve0",
					"type": "uint256"
				},
				{
					"indexed": false,
					"internalType": "uint256",
					"name": "reserve1",
					"type": "uint256"
				}
			],
			"name": "LiquidityRemoved",
			"type": "event"
		},
		{
			"anonymous": false,
			"inputs": [
				{
					"indexed": true,
					"internalType": "address",
					"name": "sender",
					"type": "address"
				},
				{
					"indexed": false,
					"internalType": "address",
					"name": "recipient",
					"type": "address"
				},
				{
					"indexed": false,
					"internalType": "uint256",
					"name": "amount",
					"type": "uint256"
				},
				{
					"indexed": false,
					"internalType": "address",
					"name": "token",
					"type": "address"
				}
			],
			"name": "MessageReceived",
			"type": "event"
		},
		{
			"anonymous": false,
			"inputs": [
				{
					"indexed": true,
					"internalType": "bytes32",
					"name": "messageId",
					"type": "bytes32"
				},
				{
					"indexed": true,
					"internalType": "uint64",
					"name": "destinationChainSelector",
					"type": "uint64"
				},
				{
					"indexed": false,
					"internalType": "address",
					"name": "receiver",
					"type": "address"
				},
				{
					"indexed": false,
					"internalType": "uint256",
					"name": "amount",
					"type": "uint256"
				},
				{
					"indexed": false,
					"internalType": "address",
					"name": "token",
					"type": "address"
				},
				{
					"indexed": false,
					"internalType": "uint256",
					"name": "fees",
					"type": "uint256"
				}
			],
			"name": "MessageSent",
			"type": "event"
		},
		{
			"inputs": [
				{
					"internalType": "uint256",
					"name": "usdAmount",
					"type": "uint256"
				}
			],
			"name": "addLiquidityInUSD",
			"outputs": [],
			"stateMutability": "nonpayable",
			"type": "function"
		},
		{
			"inputs": [],
			"name": "ccipRouter",
			"outputs": [
				{
					"internalType": "address",
					"name": "",
					"type": "address"
				}
			],
			"stateMutability": "view",
			"type": "function"
		},
		{
			"inputs": [
				{
					"internalType": "uint256",
					"name": "amountIn",
					"type": "uint256"
				},
				{
					"internalType": "address",
					"name": "inputToken",
					"type": "address"
				}
			],
			"name": "getAmountOut",
			"outputs": [
				{
					"internalType": "uint256",
					"name": "amountOut",
					"type": "uint256"
				}
			],
			"stateMutability": "view",
			"type": "function"
		},
		{
			"inputs": [],
			"name": "getDAIperLinkMarketPrice",
			"outputs": [
				{
					"internalType": "uint256",
					"name": "",
					"type": "uint256"
				}
			],
			"stateMutability": "view",
			"type": "function"
		},
		{
			"inputs": [],
			"name": "getDAIperLinkOurDEXPrice",
			"outputs": [
				{
					"internalType": "uint256",
					"name": "",
					"type": "uint256"
				}
			],
			"stateMutability": "view",
			"type": "function"
		},
		{
			"inputs": [
				{
					"internalType": "address",
					"name": "inputToken",
					"type": "address"
				}
			],
			"name": "getPrice",
			"outputs": [
				{
					"internalType": "int256",
					"name": "",
					"type": "int256"
				}
			],
			"stateMutability": "view",
			"type": "function"
		},
		{
			"inputs": [],
			"name": "getPriceRatio",
			"outputs": [
				{
					"internalType": "int256",
					"name": "",
					"type": "int256"
				}
			],
			"stateMutability": "view",
			"type": "function"
		},
		{
			"inputs": [],
			"name": "getReserves",
			"outputs": [
				{
					"internalType": "uint256",
					"name": "",
					"type": "uint256"
				},
				{
					"internalType": "uint256",
					"name": "",
					"type": "uint256"
				}
			],
			"stateMutability": "view",
			"type": "function"
		},
		{
			"inputs": [],
			"name": "lpToken",
			"outputs": [
				{
					"internalType": "contract LPToken",
					"name": "",
					"type": "address"
				}
			],
			"stateMutability": "view",
			"type": "function"
		},
		{
			"inputs": [
				{
					"internalType": "bytes",
					"name": "message",
					"type": "bytes"
				}
			],
			"name": "receiveMessage",
			"outputs": [],
			"stateMutability": "nonpayable",
			"type": "function"
		},
		{
			"inputs": [
				{
					"internalType": "uint256",
					"name": "usdAmount",
					"type": "uint256"
				}
			],
			"name": "removeLiquidityInUSD",
			"outputs": [],
			"stateMutability": "nonpayable",
			"type": "function"
		},
		{
			"inputs": [],
			"name": "reserve0",
			"outputs": [
				{
					"internalType": "uint256",
					"name": "",
					"type": "uint256"
				}
			],
			"stateMutability": "view",
			"type": "function"
		},
		{
			"inputs": [],
			"name": "reserve1",
			"outputs": [
				{
					"internalType": "uint256",
					"name": "",
					"type": "uint256"
				}
			],
			"stateMutability": "view",
			"type": "function"
		},
		{
			"inputs": [
				{
					"internalType": "uint256",
					"name": "amount",
					"type": "uint256"
				},
				{
					"internalType": "address",
					"name": "recipient",
					"type": "address"
				}
			],
			"name": "sendMessage",
			"outputs": [],
			"stateMutability": "nonpayable",
			"type": "function"
		},
		{
			"inputs": [
				{
					"internalType": "address",
					"name": "_targetChainPairAddress",
					"type": "address"
				}
			],
			"name": "setTargetChainPairAddress",
			"outputs": [],
			"stateMutability": "nonpayable",
			"type": "function"
		},
		{
			"inputs": [
				{
					"internalType": "uint256",
					"name": "usdAmount",
					"type": "uint256"
				},
				{
					"internalType": "address",
					"name": "inputToken",
					"type": "address"
				}
			],
			"name": "swapInUSD",
			"outputs": [],
			"stateMutability": "nonpayable",
			"type": "function"
		},
		{
			"inputs": [],
			"name": "targetChain",
			"outputs": [
				{
					"internalType": "bytes",
					"name": "",
					"type": "bytes"
				}
			],
			"stateMutability": "view",
			"type": "function"
		},
		{
			"inputs": [],
			"name": "targetChainPairAddress",
			"outputs": [
				{
					"internalType": "address",
					"name": "",
					"type": "address"
				}
			],
			"stateMutability": "view",
			"type": "function"
		},
		{
			"inputs": [],
			"name": "token0",
			"outputs": [
				{
					"internalType": "address",
					"name": "",
					"type": "address"
				}
			],
			"stateMutability": "view",
			"type": "function"
		},
		{
			"inputs": [],
			"name": "token1",
			"outputs": [
				{
					"internalType": "address",
					"name": "",
					"type": "address"
				}
			],
			"stateMutability": "view",
			"type": "function"
		}
	]
}