{
	"contracts/blockmagic_hackaton/ccip/TokenTransferor.sol": {
		"TokenTransferor": {
			"abi": [
				{
					"inputs": [
						{
							"internalType": "address",
							"name": "_router",
							"type": "address"
						},
						{
							"internalType": "address",
							"name": "_link",
							"type": "address"
						}
					],
					"stateMutability": "nonpayable",
					"type": "constructor"
				},
				{
					"inputs": [
						{
							"internalType": "uint64",
							"name": "destinationChainSelector",
							"type": "uint64"
						}
					],
					"name": "DestinationChainNotAllowlisted",
					"type": "error"
				},
				{
					"inputs": [
						{
							"internalType": "address",
							"name": "owner",
							"type": "address"
						},
						{
							"internalType": "address",
							"name": "target",
							"type": "address"
						},
						{
							"internalType": "uint256",
							"name": "value",
							"type": "uint256"
						}
					],
					"name": "FailedToWithdrawEth",
					"type": "error"
				},
				{
					"inputs": [],
					"name": "InvalidReceiverAddress",
					"type": "error"
				},
				{
					"inputs": [
						{
							"internalType": "uint256",
							"name": "currentBalance",
							"type": "uint256"
						},
						{
							"internalType": "uint256",
							"name": "calculatedFees",
							"type": "uint256"
						}
					],
					"name": "NotEnoughBalance",
					"type": "error"
				},
				{
					"inputs": [],
					"name": "NothingToWithdraw",
					"type": "error"
				},
				{
					"anonymous": false,
					"inputs": [
						{
							"indexed": true,
							"internalType": "address",
							"name": "from",
							"type": "address"
						},
						{
							"indexed": true,
							"internalType": "address",
							"name": "to",
							"type": "address"
						}
					],
					"name": "OwnershipTransferRequested",
					"type": "event"
				},
				{
					"anonymous": false,
					"inputs": [
						{
							"indexed": true,
							"internalType": "address",
							"name": "from",
							"type": "address"
						},
						{
							"indexed": true,
							"internalType": "address",
							"name": "to",
							"type": "address"
						}
					],
					"name": "OwnershipTransferred",
					"type": "event"
				},
				{
					"anonymous": false,
					"inputs": [
						{
							"indexed": true,
							"internalType": "bytes32",
							"name": "messageId",
							"type": "bytes32"
						},
						{
							"indexed": true,
							"internalType": "uint64",
							"name": "destinationChainSelector",
							"type": "uint64"
						},
						{
							"indexed": false,
							"internalType": "address",
							"name": "receiver",
							"type": "address"
						},
						{
							"indexed": false,
							"internalType": "address",
							"name": "token",
							"type": "address"
						},
						{
							"indexed": false,
							"internalType": "uint256",
							"name": "tokenAmount",
							"type": "uint256"
						},
						{
							"indexed": false,
							"internalType": "address",
							"name": "feeToken",
							"type": "address"
						},
						{
							"indexed": false,
							"internalType": "uint256",
							"name": "fees",
							"type": "uint256"
						}
					],
					"name": "TokensTransferred",
					"type": "event"
				},
				{
					"inputs": [],
					"name": "acceptOwnership",
					"outputs": [],
					"stateMutability": "nonpayable",
					"type": "function"
				},
				{
					"inputs": [
						{
							"internalType": "uint64",
							"name": "_destinationChainSelector",
							"type": "uint64"
						},
						{
							"internalType": "bool",
							"name": "allowed",
							"type": "bool"
						}
					],
					"name": "allowlistDestinationChain",
					"outputs": [],
					"stateMutability": "nonpayable",
					"type": "function"
				},
				{
					"inputs": [
						{
							"internalType": "uint64",
							"name": "",
							"type": "uint64"
						}
					],
					"name": "allowlistedChains",
					"outputs": [
						{
							"internalType": "bool",
							"name": "",
							"type": "bool"
						}
					],
					"stateMutability": "view",
					"type": "function"
				},
				{
					"inputs": [],
					"name": "owner",
					"outputs": [
						{
							"internalType": "address",
							"name": "",
							"type": "address"
						}
					],
					"stateMutability": "view",
					"type": "function"
				},
				{
					"inputs": [
						{
							"internalType": "address",
							"name": "to",
							"type": "address"
						}
					],
					"name": "transferOwnership",
					"outputs": [],
					"stateMutability": "nonpayable",
					"type": "function"
				},
				{
					"inputs": [
						{
							"internalType": "uint64",
							"name": "_destinationChainSelector",
							"type": "uint64"
						},
						{
							"internalType": "address",
							"name": "_receiver",
							"type": "address"
						},
						{
							"internalType": "address",
							"name": "_token",
							"type": "address"
						},
						{
							"internalType": "uint256",
							"name": "_amount",
							"type": "uint256"
						}
					],
					"name": "transferTokensPayLINK",
					"outputs": [
						{
							"internalType": "bytes32",
							"name": "messageId",
							"type": "bytes32"
						}
					],
					"stateMutability": "nonpayable",
					"type": "function"
				},
				{
					"inputs": [
						{
							"internalType": "uint64",
							"name": "_destinationChainSelector",
							"type": "uint64"
						},
						{
							"internalType": "address",
							"name": "_receiver",
							"type": "address"
						},
						{
							"internalType": "address",
							"name": "_token",
							"type": "address"
						},
						{
							"internalType": "uint256",
							"name": "_amount",
							"type": "uint256"
						}
					],
					"name": "transferTokensPayNative",
					"outputs": [
						{
							"internalType": "bytes32",
							"name": "messageId",
							"type": "bytes32"
						}
					],
					"stateMutability": "nonpayable",
					"type": "function"
				},
				{
					"inputs": [
						{
							"internalType": "address",
							"name": "_beneficiary",
							"type": "address"
						}
					],
					"name": "withdraw",
					"outputs": [],
					"stateMutability": "nonpayable",
					"type": "function"
				},
				{
					"inputs": [
						{
							"internalType": "address",
							"name": "_beneficiary",
							"type": "address"
						},
						{
							"internalType": "address",
							"name": "_token",
							"type": "address"
						}
					],
					"name": "withdrawToken",
					"outputs": [],
					"stateMutability": "nonpayable",
					"type": "function"
				},
				{
					"stateMutability": "payable",
					"type": "receive"
				}
			],
			"devdoc": {
				"kind": "dev",
				"methods": {},
				"version": 1
			},
			"evm": {
				"assembly": "    /* \"contracts/blockmagic_hackaton/ccip/TokenTransferor.sol\":620:6036  contract TokenTransferor is OwnerIsCreator {... */\n  mstore(0x40, 0x80)\n    /* \"contracts/blockmagic_hackaton/ccip/TokenTransferor.sol\":1392:1526  constructor(address _router, address _link) {... */\n  callvalue\n  dup1\n  iszero\n  tag_1\n  jumpi\n  0x00\n  dup1\n  revert\ntag_1:\n  pop\n  mload(0x40)\n  sub(codesize, bytecodeSize)\n  dup1\n  bytecodeSize\n  dup4\n  codecopy\n  dup2\n  dup2\n  add\n  0x40\n  mstore\n  dup2\n  add\n  swap1\n  tag_2\n  swap2\n  swap1\n  tag_3\n  jump\t// in\ntag_2:\n    /* \"@chainlink/contracts-ccip/src/v0.8/shared/access/OwnerIsCreator.sol\":291:301  msg.sender */\n  caller\n    /* \"@chainlink/contracts-ccip/src/v0.8/shared/access/ConfirmedOwner.sol\":355:363  newOwner */\n  dup1\n    /* \"@chainlink/contracts-ccip/src/v0.8/shared/access/ConfirmedOwner.sol\":373:374  0 */\n  0x00\n    /* \"@chainlink/contracts-ccip/src/v0.8/shared/access/ConfirmedOwnerWithProposal.sol\":614:615  0 */\n  dup1\n    /* \"@chainlink/contracts-ccip/src/v0.8/shared/access/ConfirmedOwnerWithProposal.sol\":594:616  newOwner != address(0) */\n  0xffffffffffffffffffffffffffffffffffffffff\n  and\n    /* \"@chainlink/contracts-ccip/src/v0.8/shared/access/ConfirmedOwnerWithProposal.sol\":594:602  newOwner */\n  dup3\n    /* \"@chainlink/contracts-ccip/src/v0.8/shared/access/ConfirmedOwnerWithProposal.sol\":594:616  newOwner != address(0) */\n  0xffffffffffffffffffffffffffffffffffffffff\n  and\n  sub\n    /* \"@chainlink/contracts-ccip/src/v0.8/shared/access/ConfirmedOwnerWithProposal.sol\":586:645  require(newOwner != address(0), \"Cannot set owner to zero\") */\n  tag_9\n  jumpi\n  mload(0x40)\n  0x08c379a000000000000000000000000000000000000000000000000000000000\n  dup2\n  mstore\n  0x04\n  add\n  tag_10\n  swap1\n  tag_11\n  jump\t// in\ntag_10:\n  mload(0x40)\n  dup1\n  swap2\n  sub\n  swap1\n  revert\ntag_9:\n    /* \"@chainlink/contracts-ccip/src/v0.8/shared/access/ConfirmedOwnerWithProposal.sol\":662:670  newOwner */\n  dup2\n    /* \"@chainlink/contracts-ccip/src/v0.8/shared/access/ConfirmedOwnerWithProposal.sol\":652:659  s_owner */\n  0x00\n  dup1\n    /* \"@chainlink/contracts-ccip/src/v0.8/shared/access/ConfirmedOwnerWithProposal.sol\":652:670  s_owner = newOwner */\n  0x0100\n  exp\n  dup2\n  sload\n  dup2\n  0xffffffffffffffffffffffffffffffffffffffff\n  mul\n  not\n  and\n  swap1\n  dup4\n  0xffffffffffffffffffffffffffffffffffffffff\n  and\n  mul\n  or\n  swap1\n  sstore\n  pop\n    /* \"@chainlink/contracts-ccip/src/v0.8/shared/access/ConfirmedOwnerWithProposal.sol\":704:705  0 */\n  0x00\n    /* \"@chainlink/contracts-ccip/src/v0.8/shared/access/ConfirmedOwnerWithProposal.sol\":680:706  pendingOwner != address(0) */\n  0xffffffffffffffffffffffffffffffffffffffff\n  and\n    /* \"@chainlink/contracts-ccip/src/v0.8/shared/access/ConfirmedOwnerWithProposal.sol\":680:692  pendingOwner */\n  dup2\n    /* \"@chainlink/contracts-ccip/src/v0.8/shared/access/ConfirmedOwnerWithProposal.sol\":680:706  pendingOwner != address(0) */\n  0xffffffffffffffffffffffffffffffffffffffff\n  and\n  eq\n    /* \"@chainlink/contracts-ccip/src/v0.8/shared/access/ConfirmedOwnerWithProposal.sol\":676:755  if (pendingOwner != address(0)) {... */\n  tag_12\n  jumpi\n    /* \"@chainlink/contracts-ccip/src/v0.8/shared/access/ConfirmedOwnerWithProposal.sol\":716:748  _transferOwnership(pendingOwner) */\n  tag_13\n    /* \"@chainlink/contracts-ccip/src/v0.8/shared/access/ConfirmedOwnerWithProposal.sol\":735:747  pendingOwner */\n  dup2\n    /* \"@chainlink/contracts-ccip/src/v0.8/shared/access/ConfirmedOwnerWithProposal.sol\":716:734  _transferOwnership */\n  shl(0x20, tag_14)\n    /* \"@chainlink/contracts-ccip/src/v0.8/shared/access/ConfirmedOwnerWithProposal.sol\":716:748  _transferOwnership(pendingOwner) */\n  0x20\n  shr\n  jump\t// in\ntag_13:\n    /* \"@chainlink/contracts-ccip/src/v0.8/shared/access/ConfirmedOwnerWithProposal.sol\":676:755  if (pendingOwner != address(0)) {... */\ntag_12:\n    /* \"@chainlink/contracts-ccip/src/v0.8/shared/access/ConfirmedOwnerWithProposal.sol\":481:759  constructor(address newOwner, address pendingOwner) {... */\n  pop\n  pop\n    /* \"@chainlink/contracts-ccip/src/v0.8/shared/access/ConfirmedOwner.sol\":298:379  constructor(address newOwner) ConfirmedOwnerWithProposal(newOwner, address(0)) {} */\n  pop\n    /* \"contracts/blockmagic_hackaton/ccip/TokenTransferor.sol\":1472:1479  _router */\n  dup2\n    /* \"contracts/blockmagic_hackaton/ccip/TokenTransferor.sol\":1447:1455  s_router */\n  0x03\n  0x00\n    /* \"contracts/blockmagic_hackaton/ccip/TokenTransferor.sol\":1447:1480  s_router = IRouterClient(_router) */\n  0x0100\n  exp\n  dup2\n  sload\n  dup2\n  0xffffffffffffffffffffffffffffffffffffffff\n  mul\n  not\n  and\n  swap1\n  dup4\n  0xffffffffffffffffffffffffffffffffffffffff\n  and\n  mul\n  or\n  swap1\n  sstore\n  pop\n    /* \"contracts/blockmagic_hackaton/ccip/TokenTransferor.sol\":1512:1517  _link */\n  dup1\n    /* \"contracts/blockmagic_hackaton/ccip/TokenTransferor.sol\":1491:1502  s_linkToken */\n  0x04\n  0x00\n    /* \"contracts/blockmagic_hackaton/ccip/TokenTransferor.sol\":1491:1518  s_linkToken = IERC20(_link) */\n  0x0100\n  exp\n  dup2\n  sload\n  dup2\n  0xffffffffffffffffffffffffffffffffffffffff\n  mul\n  not\n  and\n  swap1\n  dup4\n  0xffffffffffffffffffffffffffffffffffffffff\n  and\n  mul\n  or\n  swap1\n  sstore\n  pop\n    /* \"contracts/blockmagic_hackaton/ccip/TokenTransferor.sol\":1392:1526  constructor(address _router, address _link) {... */\n  pop\n  pop\n    /* \"contracts/blockmagic_hackaton/ccip/TokenTransferor.sol\":620:6036  contract TokenTransferor is OwnerIsCreator {... */\n  jump(tag_18)\n    /* \"@chainlink/contracts-ccip/src/v0.8/shared/access/ConfirmedOwnerWithProposal.sol\":1528:1763  function _transferOwnership(address to) private {... */\ntag_14:\n    /* \"@chainlink/contracts-ccip/src/v0.8/shared/access/ConfirmedOwnerWithProposal.sol\":1643:1653  msg.sender */\n  caller\n    /* \"@chainlink/contracts-ccip/src/v0.8/shared/access/ConfirmedOwnerWithProposal.sol\":1637:1653  to != msg.sender */\n  0xffffffffffffffffffffffffffffffffffffffff\n  and\n    /* \"@chainlink/contracts-ccip/src/v0.8/shared/access/ConfirmedOwnerWithProposal.sol\":1637:1639  to */\n  dup2\n    /* \"@chainlink/contracts-ccip/src/v0.8/shared/access/ConfirmedOwnerWithProposal.sol\":1637:1653  to != msg.sender */\n  0xffffffffffffffffffffffffffffffffffffffff\n  and\n  sub\n    /* \"@chainlink/contracts-ccip/src/v0.8/shared/access/ConfirmedOwnerWithProposal.sol\":1629:1681  require(to != msg.sender, \"Cannot transfer to self\") */\n  tag_20\n  jumpi\n  mload(0x40)\n  0x08c379a000000000000000000000000000000000000000000000000000000000\n  dup2\n  mstore\n  0x04\n  add\n  tag_21\n  swap1\n  tag_22\n  jump\t// in\ntag_21:\n  mload(0x40)\n  dup1\n  swap2\n  sub\n  swap1\n  revert\ntag_20:\n    /* \"@chainlink/contracts-ccip/src/v0.8/shared/access/ConfirmedOwnerWithProposal.sol\":1705:1707  to */\n  dup1\n    /* \"@chainlink/contracts-ccip/src/v0.8/shared/access/ConfirmedOwnerWithProposal.sol\":1688:1702  s_pendingOwner */\n  0x01\n  0x00\n    /* \"@chainlink/contracts-ccip/src/v0.8/shared/access/ConfirmedOwnerWithProposal.sol\":1688:1707  s_pendingOwner = to */\n  0x0100\n  exp\n  dup2\n  sload\n  dup2\n  0xffffffffffffffffffffffffffffffffffffffff\n  mul\n  not\n  and\n  swap1\n  dup4\n  0xffffffffffffffffffffffffffffffffffffffff\n  and\n  mul\n  or\n  swap1\n  sstore\n  pop\n    /* \"@chainlink/contracts-ccip/src/v0.8/shared/access/ConfirmedOwnerWithProposal.sol\":1755:1757  to */\n  dup1\n    /* \"@chainlink/contracts-ccip/src/v0.8/shared/access/ConfirmedOwnerWithProposal.sol\":1719:1758  OwnershipTransferRequested(s_owner, to) */\n  0xffffffffffffffffffffffffffffffffffffffff\n  and\n    /* \"@chainlink/contracts-ccip/src/v0.8/shared/access/ConfirmedOwnerWithProposal.sol\":1746:1753  s_owner */\n  0x00\n  dup1\n  sload\n  swap1\n  0x0100\n  exp\n  swap1\n  div\n  0xffffffffffffffffffffffffffffffffffffffff\n  and\n    /* \"@chainlink/contracts-ccip/src/v0.8/shared/access/ConfirmedOwnerWithProposal.sol\":1719:1758  OwnershipTransferRequested(s_owner, to) */\n  0xffffffffffffffffffffffffffffffffffffffff\n  and\n  0xed8889f560326eb138920d842192f0eb3dd22b4f139c87a2c57538e05bae1278\n  mload(0x40)\n  mload(0x40)\n  dup1\n  swap2\n  sub\n  swap1\n  log3\n    /* \"@chainlink/contracts-ccip/src/v0.8/shared/access/ConfirmedOwnerWithProposal.sol\":1528:1763  function _transferOwnership(address to) private {... */\n  pop\n  jump\t// out\n    /* \"#utility.yul\":88:205   */\ntag_24:\n    /* \"#utility.yul\":197:198   */\n  0x00\n    /* \"#utility.yul\":194:195   */\n  dup1\n    /* \"#utility.yul\":187:199   */\n  revert\n    /* \"#utility.yul\":334:460   */\ntag_26:\n    /* \"#utility.yul\":371:378   */\n  0x00\n    /* \"#utility.yul\":411:453   */\n  0xffffffffffffffffffffffffffffffffffffffff\n    /* \"#utility.yul\":404:409   */\n  dup3\n    /* \"#utility.yul\":400:454   */\n  and\n    /* \"#utility.yul\":389:454   */\n  swap1\n  pop\n    /* \"#utility.yul\":334:460   */\n  swap2\n  swap1\n  pop\n  jump\t// out\n    /* \"#utility.yul\":466:562   */\ntag_27:\n    /* \"#utility.yul\":503:510   */\n  0x00\n    /* \"#utility.yul\":532:556   */\n  tag_41\n    /* \"#utility.yul\":550:555   */\n  dup3\n    /* \"#utility.yul\":532:556   */\n  tag_26\n  jump\t// in\ntag_41:\n    /* \"#utility.yul\":521:556   */\n  swap1\n  pop\n    /* \"#utility.yul\":466:562   */\n  swap2\n  swap1\n  pop\n  jump\t// out\n    /* \"#utility.yul\":568:690   */\ntag_28:\n    /* \"#utility.yul\":641:665   */\n  tag_43\n    /* \"#utility.yul\":659:664   */\n  dup2\n    /* \"#utility.yul\":641:665   */\n  tag_27\n  jump\t// in\ntag_43:\n    /* \"#utility.yul\":634:639   */\n  dup2\n    /* \"#utility.yul\":631:666   */\n  eq\n    /* \"#utility.yul\":621:684   */\n  tag_44\n  jumpi\n    /* \"#utility.yul\":680:681   */\n  0x00\n    /* \"#utility.yul\":677:678   */\n  dup1\n    /* \"#utility.yul\":670:682   */\n  revert\n    /* \"#utility.yul\":621:684   */\ntag_44:\n    /* \"#utility.yul\":568:690   */\n  pop\n  jump\t// out\n    /* \"#utility.yul\":696:839   */\ntag_29:\n    /* \"#utility.yul\":753:758   */\n  0x00\n    /* \"#utility.yul\":784:790   */\n  dup2\n    /* \"#utility.yul\":778:791   */\n  mload\n    /* \"#utility.yul\":769:791   */\n  swap1\n  pop\n    /* \"#utility.yul\":800:833   */\n  tag_46\n    /* \"#utility.yul\":827:832   */\n  dup2\n    /* \"#utility.yul\":800:833   */\n  tag_28\n  jump\t// in\ntag_46:\n    /* \"#utility.yul\":696:839   */\n  swap3\n  swap2\n  pop\n  pop\n  jump\t// out\n    /* \"#utility.yul\":845:1352   */\ntag_3:\n    /* \"#utility.yul\":924:930   */\n  0x00\n    /* \"#utility.yul\":932:938   */\n  dup1\n    /* \"#utility.yul\":981:983   */\n  0x40\n    /* \"#utility.yul\":969:978   */\n  dup4\n    /* \"#utility.yul\":960:967   */\n  dup6\n    /* \"#utility.yul\":956:979   */\n  sub\n    /* \"#utility.yul\":952:984   */\n  slt\n    /* \"#utility.yul\":949:1068   */\n  iszero\n  tag_48\n  jumpi\n    /* \"#utility.yul\":987:1066   */\n  tag_49\n  tag_24\n  jump\t// in\ntag_49:\n    /* \"#utility.yul\":949:1068   */\ntag_48:\n    /* \"#utility.yul\":1107:1108   */\n  0x00\n    /* \"#utility.yul\":1132:1196   */\n  tag_50\n    /* \"#utility.yul\":1188:1195   */\n  dup6\n    /* \"#utility.yul\":1179:1185   */\n  dup3\n    /* \"#utility.yul\":1168:1177   */\n  dup7\n    /* \"#utility.yul\":1164:1186   */\n  add\n    /* \"#utility.yul\":1132:1196   */\n  tag_29\n  jump\t// in\ntag_50:\n    /* \"#utility.yul\":1122:1196   */\n  swap3\n  pop\n    /* \"#utility.yul\":1078:1206   */\n  pop\n    /* \"#utility.yul\":1245:1247   */\n  0x20\n    /* \"#utility.yul\":1271:1335   */\n  tag_51\n    /* \"#utility.yul\":1327:1334   */\n  dup6\n    /* \"#utility.yul\":1318:1324   */\n  dup3\n    /* \"#utility.yul\":1307:1316   */\n  dup7\n    /* \"#utility.yul\":1303:1325   */\n  add\n    /* \"#utility.yul\":1271:1335   */\n  tag_29\n  jump\t// in\ntag_51:\n    /* \"#utility.yul\":1261:1335   */\n  swap2\n  pop\n    /* \"#utility.yul\":1216:1345   */\n  pop\n    /* \"#utility.yul\":845:1352   */\n  swap3\n  pop\n  swap3\n  swap1\n  pop\n  jump\t// out\n    /* \"#utility.yul\":1358:1527   */\ntag_30:\n    /* \"#utility.yul\":1442:1453   */\n  0x00\n    /* \"#utility.yul\":1476:1482   */\n  dup3\n    /* \"#utility.yul\":1471:1474   */\n  dup3\n    /* \"#utility.yul\":1464:1483   */\n  mstore\n    /* \"#utility.yul\":1516:1520   */\n  0x20\n    /* \"#utility.yul\":1511:1514   */\n  dup3\n    /* \"#utility.yul\":1507:1521   */\n  add\n    /* \"#utility.yul\":1492:1521   */\n  swap1\n  pop\n    /* \"#utility.yul\":1358:1527   */\n  swap3\n  swap2\n  pop\n  pop\n  jump\t// out\n    /* \"#utility.yul\":1533:1707   */\ntag_31:\n    /* \"#utility.yul\":1673:1699   */\n  0x43616e6e6f7420736574206f776e657220746f207a65726f0000000000000000\n    /* \"#utility.yul\":1669:1670   */\n  0x00\n    /* \"#utility.yul\":1661:1667   */\n  dup3\n    /* \"#utility.yul\":1657:1671   */\n  add\n    /* \"#utility.yul\":1650:1700   */\n  mstore\n    /* \"#utility.yul\":1533:1707   */\n  pop\n  jump\t// out\n    /* \"#utility.yul\":1713:2079   */\ntag_32:\n    /* \"#utility.yul\":1855:1858   */\n  0x00\n    /* \"#utility.yul\":1876:1943   */\n  tag_55\n    /* \"#utility.yul\":1940:1942   */\n  0x18\n    /* \"#utility.yul\":1935:1938   */\n  dup4\n    /* \"#utility.yul\":1876:1943   */\n  tag_30\n  jump\t// in\ntag_55:\n    /* \"#utility.yul\":1869:1943   */\n  swap2\n  pop\n    /* \"#utility.yul\":1952:2045   */\n  tag_56\n    /* \"#utility.yul\":2041:2044   */\n  dup3\n    /* \"#utility.yul\":1952:2045   */\n  tag_31\n  jump\t// in\ntag_56:\n    /* \"#utility.yul\":2070:2072   */\n  0x20\n    /* \"#utility.yul\":2065:2068   */\n  dup3\n    /* \"#utility.yul\":2061:2073   */\n  add\n    /* \"#utility.yul\":2054:2073   */\n  swap1\n  pop\n    /* \"#utility.yul\":1713:2079   */\n  swap2\n  swap1\n  pop\n  jump\t// out\n    /* \"#utility.yul\":2085:2504   */\ntag_11:\n    /* \"#utility.yul\":2251:2255   */\n  0x00\n    /* \"#utility.yul\":2289:2291   */\n  0x20\n    /* \"#utility.yul\":2278:2287   */\n  dup3\n    /* \"#utility.yul\":2274:2292   */\n  add\n    /* \"#utility.yul\":2266:2292   */\n  swap1\n  pop\n    /* \"#utility.yul\":2338:2347   */\n  dup2\n    /* \"#utility.yul\":2332:2336   */\n  dup2\n    /* \"#utility.yul\":2328:2348   */\n  sub\n    /* \"#utility.yul\":2324:2325   */\n  0x00\n    /* \"#utility.yul\":2313:2322   */\n  dup4\n    /* \"#utility.yul\":2309:2326   */\n  add\n    /* \"#utility.yul\":2302:2349   */\n  mstore\n    /* \"#utility.yul\":2366:2497   */\n  tag_58\n    /* \"#utility.yul\":2492:2496   */\n  dup2\n    /* \"#utility.yul\":2366:2497   */\n  tag_32\n  jump\t// in\ntag_58:\n    /* \"#utility.yul\":2358:2497   */\n  swap1\n  pop\n    /* \"#utility.yul\":2085:2504   */\n  swap2\n  swap1\n  pop\n  jump\t// out\n    /* \"#utility.yul\":2510:2683   */\ntag_33:\n    /* \"#utility.yul\":2650:2675   */\n  0x43616e6e6f74207472616e7366657220746f2073656c66000000000000000000\n    /* \"#utility.yul\":2646:2647   */\n  0x00\n    /* \"#utility.yul\":2638:2644   */\n  dup3\n    /* \"#utility.yul\":2634:2648   */\n  add\n    /* \"#utility.yul\":2627:2676   */\n  mstore\n    /* \"#utility.yul\":2510:2683   */\n  pop\n  jump\t// out\n    /* \"#utility.yul\":2689:3055   */\ntag_34:\n    /* \"#utility.yul\":2831:2834   */\n  0x00\n    /* \"#utility.yul\":2852:2919   */\n  tag_61\n    /* \"#utility.yul\":2916:2918   */\n  0x17\n    /* \"#utility.yul\":2911:2914   */\n  dup4\n    /* \"#utility.yul\":2852:2919   */\n  tag_30\n  jump\t// in\ntag_61:\n    /* \"#utility.yul\":2845:2919   */\n  swap2\n  pop\n    /* \"#utility.yul\":2928:3021   */\n  tag_62\n    /* \"#utility.yul\":3017:3020   */\n  dup3\n    /* \"#utility.yul\":2928:3021   */\n  tag_33\n  jump\t// in\ntag_62:\n    /* \"#utility.yul\":3046:3048   */\n  0x20\n    /* \"#utility.yul\":3041:3044   */\n  dup3\n    /* \"#utility.yul\":3037:3049   */\n  add\n    /* \"#utility.yul\":3030:3049   */\n  swap1\n  pop\n    /* \"#utility.yul\":2689:3055   */\n  swap2\n  swap1\n  pop\n  jump\t// out\n    /* \"#utility.yul\":3061:3480   */\ntag_22:\n    /* \"#utility.yul\":3227:3231   */\n  0x00\n    /* \"#utility.yul\":3265:3267   */\n  0x20\n    /* \"#utility.yul\":3254:3263   */\n  dup3\n    /* \"#utility.yul\":3250:3268   */\n  add\n    /* \"#utility.yul\":3242:3268   */\n  swap1\n  pop\n    /* \"#utility.yul\":3314:3323   */\n  dup2\n    /* \"#utility.yul\":3308:3312   */\n  dup2\n    /* \"#utility.yul\":3304:3324   */\n  sub\n    /* \"#utility.yul\":3300:3301   */\n  0x00\n    /* \"#utility.yul\":3289:3298   */\n  dup4\n    /* \"#utility.yul\":3285:3302   */\n  add\n    /* \"#utility.yul\":3278:3325   */\n  mstore\n    /* \"#utility.yul\":3342:3473   */\n  tag_64\n    /* \"#utility.yul\":3468:3472   */\n  dup2\n    /* \"#utility.yul\":3342:3473   */\n  tag_34\n  jump\t// in\ntag_64:\n    /* \"#utility.yul\":3334:3473   */\n  swap1\n  pop\n    /* \"#utility.yul\":3061:3480   */\n  swap2\n  swap1\n  pop\n  jump\t// out\n    /* \"contracts/blockmagic_hackaton/ccip/TokenTransferor.sol\":620:6036  contract TokenTransferor is OwnerIsCreator {... */\ntag_18:\n  dataSize(sub_0)\n  dup1\n  dataOffset(sub_0)\n  0x00\n  codecopy\n  0x00\n  return\nstop\n\nsub_0: assembly {\n        /* \"contracts/blockmagic_hackaton/ccip/TokenTransferor.sol\":620:6036  contract TokenTransferor is OwnerIsCreator {... */\n      mstore(0x40, 0x80)\n      jumpi(tag_1, lt(calldatasize, 0x04))\n      shr(0xe0, calldataload(0x00))\n      dup1\n      0x79ba5097\n      gt\n      tag_12\n      jumpi\n      dup1\n      0x79ba5097\n      eq\n      tag_7\n      jumpi\n      dup1\n      0x8da5cb5b\n      eq\n      tag_8\n      jumpi\n      dup1\n      0x95e1402c\n      eq\n      tag_9\n      jumpi\n      dup1\n      0x96d3b83d\n      eq\n      tag_10\n      jumpi\n      dup1\n      0xf2fde38b\n      eq\n      tag_11\n      jumpi\n      jump(tag_2)\n    tag_12:\n      dup1\n      0x0bb106eb\n      eq\n      tag_3\n      jumpi\n      dup1\n      0x3aeac4e1\n      eq\n      tag_4\n      jumpi\n      dup1\n      0x51419b4b\n      eq\n      tag_5\n      jumpi\n      dup1\n      0x51cff8d9\n      eq\n      tag_6\n      jumpi\n      jump(tag_2)\n    tag_1:\n      jumpi(tag_2, calldatasize)\n      stop\n    tag_2:\n      0x00\n      dup1\n      revert\n        /* \"contracts/blockmagic_hackaton/ccip/TokenTransferor.sol\":1263:1311  mapping(uint64 => bool) public allowlistedChains */\n    tag_3:\n      callvalue\n      dup1\n      iszero\n      tag_15\n      jumpi\n      0x00\n      dup1\n      revert\n    tag_15:\n      pop\n      tag_16\n      0x04\n      dup1\n      calldatasize\n      sub\n      dup2\n      add\n      swap1\n      tag_17\n      swap2\n      swap1\n      tag_18\n      jump\t// in\n    tag_17:\n      tag_19\n      jump\t// in\n    tag_16:\n      mload(0x40)\n      tag_20\n      swap2\n      swap1\n      tag_21\n      jump\t// in\n    tag_20:\n      mload(0x40)\n      dup1\n      swap2\n      sub\n      swap1\n      return\n        /* \"contracts/blockmagic_hackaton/ccip/TokenTransferor.sol\":5737:6033  function withdrawToken(... */\n    tag_4:\n      callvalue\n      dup1\n      iszero\n      tag_22\n      jumpi\n      0x00\n      dup1\n      revert\n    tag_22:\n      pop\n      tag_23\n      0x04\n      dup1\n      calldatasize\n      sub\n      dup2\n      add\n      swap1\n      tag_24\n      swap2\n      swap1\n      tag_25\n      jump\t// in\n    tag_24:\n      tag_26\n      jump\t// in\n    tag_23:\n      stop\n        /* \"contracts/blockmagic_hackaton/ccip/TokenTransferor.sol\":3418:4621  function transferTokensPayNative(... */\n    tag_5:\n      callvalue\n      dup1\n      iszero\n      tag_27\n      jumpi\n      0x00\n      dup1\n      revert\n    tag_27:\n      pop\n      tag_28\n      0x04\n      dup1\n      calldatasize\n      sub\n      dup2\n      add\n      swap1\n      tag_29\n      swap2\n      swap1\n      tag_30\n      jump\t// in\n    tag_29:\n      tag_31\n      jump\t// in\n    tag_28:\n      mload(0x40)\n      tag_32\n      swap2\n      swap1\n      tag_33\n      jump\t// in\n    tag_32:\n      mload(0x40)\n      dup1\n      swap2\n      sub\n      swap1\n      return\n        /* \"contracts/blockmagic_hackaton/ccip/TokenTransferor.sol\":5410:5729  function withdraw(address _beneficiary) public onlyOwner {... */\n    tag_6:\n      callvalue\n      dup1\n      iszero\n      tag_34\n      jumpi\n      0x00\n      dup1\n      revert\n    tag_34:\n      pop\n      tag_35\n      0x04\n      dup1\n      calldatasize\n      sub\n      dup2\n      add\n      swap1\n      tag_36\n      swap2\n      swap1\n      tag_37\n      jump\t// in\n    tag_36:\n      tag_38\n      jump\t// in\n    tag_35:\n      stop\n        /* \"@chainlink/contracts-ccip/src/v0.8/shared/access/ConfirmedOwnerWithProposal.sol\":1022:1334  function acceptOwnership() external override {... */\n    tag_7:\n      callvalue\n      dup1\n      iszero\n      tag_39\n      jumpi\n      0x00\n      dup1\n      revert\n    tag_39:\n      pop\n      tag_40\n      tag_41\n      jump\t// in\n    tag_40:\n      stop\n        /* \"@chainlink/contracts-ccip/src/v0.8/shared/access/ConfirmedOwnerWithProposal.sol\":1374:1455  function owner() public view override returns (address) {... */\n    tag_8:\n      callvalue\n      dup1\n      iszero\n      tag_42\n      jumpi\n      0x00\n      dup1\n      revert\n    tag_42:\n      pop\n      tag_43\n      tag_44\n      jump\t// in\n    tag_43:\n      mload(0x40)\n      tag_45\n      swap2\n      swap1\n      tag_46\n      jump\t// in\n    tag_45:\n      mload(0x40)\n      dup1\n      swap2\n      sub\n      swap1\n      return\n        /* \"contracts/blockmagic_hackaton/ccip/TokenTransferor.sol\":2117:3410  function transferTokensPayLINK(... */\n    tag_9:\n      callvalue\n      dup1\n      iszero\n      tag_47\n      jumpi\n      0x00\n      dup1\n      revert\n    tag_47:\n      pop\n      tag_48\n      0x04\n      dup1\n      calldatasize\n      sub\n      dup2\n      add\n      swap1\n      tag_49\n      swap2\n      swap1\n      tag_30\n      jump\t// in\n    tag_49:\n      tag_50\n      jump\t// in\n    tag_48:\n      mload(0x40)\n      tag_51\n      swap2\n      swap1\n      tag_33\n      jump\t// in\n    tag_51:\n      mload(0x40)\n      dup1\n      swap2\n      sub\n      swap1\n      return\n        /* \"contracts/blockmagic_hackaton/ccip/TokenTransferor.sol\":1909:2109  function allowlistDestinationChain(... */\n    tag_10:\n      callvalue\n      dup1\n      iszero\n      tag_52\n      jumpi\n      0x00\n      dup1\n      revert\n    tag_52:\n      pop\n      tag_53\n      0x04\n      dup1\n      calldatasize\n      sub\n      dup2\n      add\n      swap1\n      tag_54\n      swap2\n      swap1\n      tag_55\n      jump\t// in\n    tag_54:\n      tag_56\n      jump\t// in\n    tag_53:\n      stop\n        /* \"@chainlink/contracts-ccip/src/v0.8/shared/access/ConfirmedOwnerWithProposal.sol\":843:941  function transferOwnership(address to) public override onlyOwner {... */\n    tag_11:\n      callvalue\n      dup1\n      iszero\n      tag_57\n      jumpi\n      0x00\n      dup1\n      revert\n    tag_57:\n      pop\n      tag_58\n      0x04\n      dup1\n      calldatasize\n      sub\n      dup2\n      add\n      swap1\n      tag_59\n      swap2\n      swap1\n      tag_37\n      jump\t// in\n    tag_59:\n      tag_60\n      jump\t// in\n    tag_58:\n      stop\n        /* \"contracts/blockmagic_hackaton/ccip/TokenTransferor.sol\":1263:1311  mapping(uint64 => bool) public allowlistedChains */\n    tag_19:\n      mstore(0x20, 0x02)\n      dup1\n      0x00\n      mstore\n      keccak256(0x00, 0x40)\n      0x00\n      swap2\n      pop\n      sload\n      swap1\n      0x0100\n      exp\n      swap1\n      div\n      0xff\n      and\n      dup2\n      jump\t// out\n        /* \"contracts/blockmagic_hackaton/ccip/TokenTransferor.sol\":5737:6033  function withdrawToken(... */\n    tag_26:\n        /* \"@chainlink/contracts-ccip/src/v0.8/shared/access/ConfirmedOwnerWithProposal.sol\":2059:2079  _validateOwnership() */\n      tag_62\n        /* \"@chainlink/contracts-ccip/src/v0.8/shared/access/ConfirmedOwnerWithProposal.sol\":2059:2077  _validateOwnership */\n      tag_63\n        /* \"@chainlink/contracts-ccip/src/v0.8/shared/access/ConfirmedOwnerWithProposal.sol\":2059:2079  _validateOwnership() */\n      jump\t// in\n    tag_62:\n        /* \"contracts/blockmagic_hackaton/ccip/TokenTransferor.sol\":5851:5865  uint256 amount */\n      0x00\n        /* \"contracts/blockmagic_hackaton/ccip/TokenTransferor.sol\":5875:5881  _token */\n      dup2\n        /* \"contracts/blockmagic_hackaton/ccip/TokenTransferor.sol\":5868:5892  IERC20(_token).balanceOf */\n      0xffffffffffffffffffffffffffffffffffffffff\n      and\n      0x70a08231\n        /* \"contracts/blockmagic_hackaton/ccip/TokenTransferor.sol\":5901:5905  this */\n      address\n        /* \"contracts/blockmagic_hackaton/ccip/TokenTransferor.sol\":5868:5907  IERC20(_token).balanceOf(address(this)) */\n      mload(0x40)\n      dup3\n      0xffffffff\n      and\n      0xe0\n      shl\n      dup2\n      mstore\n      0x04\n      add\n      tag_65\n      swap2\n      swap1\n      tag_46\n      jump\t// in\n    tag_65:\n      0x20\n      mload(0x40)\n      dup1\n      dup4\n      sub\n      dup2\n      dup7\n      gas\n      staticcall\n      iszero\n      dup1\n      iszero\n      tag_67\n      jumpi\n      returndatasize\n      0x00\n      dup1\n      returndatacopy\n      revert(0x00, returndatasize)\n    tag_67:\n      pop\n      pop\n      pop\n      pop\n      mload(0x40)\n      returndatasize\n      not(0x1f)\n      0x1f\n      dup3\n      add\n      and\n      dup3\n      add\n      dup1\n      0x40\n      mstore\n      pop\n      dup2\n      add\n      swap1\n      tag_68\n      swap2\n      swap1\n      tag_69\n      jump\t// in\n    tag_68:\n        /* \"contracts/blockmagic_hackaton/ccip/TokenTransferor.sol\":5851:5907  uint256 amount = IERC20(_token).balanceOf(address(this)) */\n      swap1\n      pop\n        /* \"contracts/blockmagic_hackaton/ccip/TokenTransferor.sol\":5934:5935  0 */\n      0x00\n        /* \"contracts/blockmagic_hackaton/ccip/TokenTransferor.sol\":5924:5930  amount */\n      dup2\n        /* \"contracts/blockmagic_hackaton/ccip/TokenTransferor.sol\":5924:5935  amount == 0 */\n      sub\n        /* \"contracts/blockmagic_hackaton/ccip/TokenTransferor.sol\":5920:5963  if (amount == 0) revert NothingToWithdraw() */\n      tag_70\n      jumpi\n        /* \"contracts/blockmagic_hackaton/ccip/TokenTransferor.sol\":5944:5963  NothingToWithdraw() */\n      mload(0x40)\n      0xd0d04f6000000000000000000000000000000000000000000000000000000000\n      dup2\n      mstore\n      0x04\n      add\n      mload(0x40)\n      dup1\n      swap2\n      sub\n      swap1\n      revert\n        /* \"contracts/blockmagic_hackaton/ccip/TokenTransferor.sol\":5920:5963  if (amount == 0) revert NothingToWithdraw() */\n    tag_70:\n        /* \"contracts/blockmagic_hackaton/ccip/TokenTransferor.sol\":5976:6025  IERC20(_token).safeTransfer(_beneficiary, amount) */\n      tag_71\n        /* \"contracts/blockmagic_hackaton/ccip/TokenTransferor.sol\":6004:6016  _beneficiary */\n      dup4\n        /* \"contracts/blockmagic_hackaton/ccip/TokenTransferor.sol\":6018:6024  amount */\n      dup3\n        /* \"contracts/blockmagic_hackaton/ccip/TokenTransferor.sol\":5983:5989  _token */\n      dup5\n        /* \"contracts/blockmagic_hackaton/ccip/TokenTransferor.sol\":5976:6003  IERC20(_token).safeTransfer */\n      0xffffffffffffffffffffffffffffffffffffffff\n      and\n      tag_72\n      swap1\n        /* \"contracts/blockmagic_hackaton/ccip/TokenTransferor.sol\":5976:6025  IERC20(_token).safeTransfer(_beneficiary, amount) */\n      swap3\n      swap2\n      swap1\n      0xffffffff\n      and\n      jump\t// in\n    tag_71:\n        /* \"contracts/blockmagic_hackaton/ccip/TokenTransferor.sol\":5840:6033  {... */\n      pop\n        /* \"contracts/blockmagic_hackaton/ccip/TokenTransferor.sol\":5737:6033  function withdrawToken(... */\n      pop\n      pop\n      jump\t// out\n        /* \"contracts/blockmagic_hackaton/ccip/TokenTransferor.sol\":3418:4621  function transferTokensPayNative(... */\n    tag_31:\n        /* \"contracts/blockmagic_hackaton/ccip/TokenTransferor.sol\":3729:3746  bytes32 messageId */\n      0x00\n        /* \"@chainlink/contracts-ccip/src/v0.8/shared/access/ConfirmedOwnerWithProposal.sol\":2059:2079  _validateOwnership() */\n      tag_74\n        /* \"@chainlink/contracts-ccip/src/v0.8/shared/access/ConfirmedOwnerWithProposal.sol\":2059:2077  _validateOwnership */\n      tag_63\n        /* \"@chainlink/contracts-ccip/src/v0.8/shared/access/ConfirmedOwnerWithProposal.sol\":2059:2079  _validateOwnership() */\n      jump\t// in\n    tag_74:\n        /* \"contracts/blockmagic_hackaton/ccip/TokenTransferor.sol\":3647:3672  _destinationChainSelector */\n      dup5\n        /* \"contracts/blockmagic_hackaton/ccip/TokenTransferor.sol\":1614:1631  allowlistedChains */\n      0x02\n        /* \"contracts/blockmagic_hackaton/ccip/TokenTransferor.sol\":1614:1658  allowlistedChains[_destinationChainSelector] */\n      0x00\n        /* \"contracts/blockmagic_hackaton/ccip/TokenTransferor.sol\":1632:1657  _destinationChainSelector */\n      dup3\n        /* \"contracts/blockmagic_hackaton/ccip/TokenTransferor.sol\":1614:1658  allowlistedChains[_destinationChainSelector] */\n      0xffffffffffffffff\n      and\n      0xffffffffffffffff\n      and\n      dup2\n      mstore\n      0x20\n      add\n      swap1\n      dup2\n      mstore\n      0x20\n      add\n      0x00\n      keccak256\n      0x00\n      swap1\n      sload\n      swap1\n      0x0100\n      exp\n      swap1\n      div\n      0xff\n      and\n        /* \"contracts/blockmagic_hackaton/ccip/TokenTransferor.sol\":1609:1737  if (!allowlistedChains[_destinationChainSelector])... */\n      tag_76\n      jumpi\n        /* \"contracts/blockmagic_hackaton/ccip/TokenTransferor.sol\":1711:1736  _destinationChainSelector */\n      dup1\n        /* \"contracts/blockmagic_hackaton/ccip/TokenTransferor.sol\":1680:1737  DestinationChainNotAllowlisted(_destinationChainSelector) */\n      mload(0x40)\n      0x0a503cdb00000000000000000000000000000000000000000000000000000000\n      dup2\n      mstore\n      0x04\n      add\n      tag_77\n      swap2\n      swap1\n      tag_78\n      jump\t// in\n    tag_77:\n      mload(0x40)\n      dup1\n      swap2\n      sub\n      swap1\n      revert\n        /* \"contracts/blockmagic_hackaton/ccip/TokenTransferor.sol\":1609:1737  if (!allowlistedChains[_destinationChainSelector])... */\n    tag_76:\n        /* \"contracts/blockmagic_hackaton/ccip/TokenTransferor.sol\":3700:3709  _receiver */\n      dup5\n        /* \"contracts/blockmagic_hackaton/ccip/TokenTransferor.sol\":1846:1847  0 */\n      0x00\n        /* \"contracts/blockmagic_hackaton/ccip/TokenTransferor.sol\":1825:1848  _receiver == address(0) */\n      0xffffffffffffffffffffffffffffffffffffffff\n      and\n        /* \"contracts/blockmagic_hackaton/ccip/TokenTransferor.sol\":1825:1834  _receiver */\n      dup2\n        /* \"contracts/blockmagic_hackaton/ccip/TokenTransferor.sol\":1825:1848  _receiver == address(0) */\n      0xffffffffffffffffffffffffffffffffffffffff\n      and\n      sub\n        /* \"contracts/blockmagic_hackaton/ccip/TokenTransferor.sol\":1821:1881  if (_receiver == address(0)) revert InvalidReceiverAddress() */\n      tag_80\n      jumpi\n        /* \"contracts/blockmagic_hackaton/ccip/TokenTransferor.sol\":1857:1881  InvalidReceiverAddress() */\n      mload(0x40)\n      0xa05ff47e00000000000000000000000000000000000000000000000000000000\n      dup2\n      mstore\n      0x04\n      add\n      mload(0x40)\n      dup1\n      swap2\n      sub\n      swap1\n      revert\n        /* \"contracts/blockmagic_hackaton/ccip/TokenTransferor.sol\":1821:1881  if (_receiver == address(0)) revert InvalidReceiverAddress() */\n    tag_80:\n        /* \"contracts/blockmagic_hackaton/ccip/TokenTransferor.sol\":3764:3807  Client.EVM2AnyMessage memory evm2AnyMessage */\n      0x00\n        /* \"contracts/blockmagic_hackaton/ccip/TokenTransferor.sol\":3810:3930  _buildCCIPMessage(... */\n      tag_82\n        /* \"contracts/blockmagic_hackaton/ccip/TokenTransferor.sol\":3842:3851  _receiver */\n      dup8\n        /* \"contracts/blockmagic_hackaton/ccip/TokenTransferor.sol\":3866:3872  _token */\n      dup8\n        /* \"contracts/blockmagic_hackaton/ccip/TokenTransferor.sol\":3887:3894  _amount */\n      dup8\n        /* \"contracts/blockmagic_hackaton/ccip/TokenTransferor.sol\":3917:3918  0 */\n      0x00\n        /* \"contracts/blockmagic_hackaton/ccip/TokenTransferor.sol\":3810:3827  _buildCCIPMessage */\n      tag_83\n        /* \"contracts/blockmagic_hackaton/ccip/TokenTransferor.sol\":3810:3930  _buildCCIPMessage(... */\n      jump\t// in\n    tag_82:\n        /* \"contracts/blockmagic_hackaton/ccip/TokenTransferor.sol\":3764:3930  Client.EVM2AnyMessage memory evm2AnyMessage = _buildCCIPMessage(... */\n      swap1\n      pop\n        /* \"contracts/blockmagic_hackaton/ccip/TokenTransferor.sol\":3943:3955  uint256 fees */\n      0x00\n        /* \"contracts/blockmagic_hackaton/ccip/TokenTransferor.sol\":3958:3966  s_router */\n      0x03\n      0x00\n      swap1\n      sload\n      swap1\n      0x0100\n      exp\n      swap1\n      div\n      0xffffffffffffffffffffffffffffffffffffffff\n      and\n        /* \"contracts/blockmagic_hackaton/ccip/TokenTransferor.sol\":3958:3973  s_router.getFee */\n      0xffffffffffffffffffffffffffffffffffffffff\n      and\n      0x20487ded\n        /* \"contracts/blockmagic_hackaton/ccip/TokenTransferor.sol\":3988:4013  _destinationChainSelector */\n      dup11\n        /* \"contracts/blockmagic_hackaton/ccip/TokenTransferor.sol\":4028:4042  evm2AnyMessage */\n      dup5\n        /* \"contracts/blockmagic_hackaton/ccip/TokenTransferor.sol\":3958:4053  s_router.getFee(... */\n      mload(0x40)\n      dup4\n      0xffffffff\n      and\n      0xe0\n      shl\n      dup2\n      mstore\n      0x04\n      add\n      tag_84\n      swap3\n      swap2\n      swap1\n      tag_85\n      jump\t// in\n    tag_84:\n      0x20\n      mload(0x40)\n      dup1\n      dup4\n      sub\n      dup2\n      dup7\n      gas\n      staticcall\n      iszero\n      dup1\n      iszero\n      tag_87\n      jumpi\n      returndatasize\n      0x00\n      dup1\n      returndatacopy\n      revert(0x00, returndatasize)\n    tag_87:\n      pop\n      pop\n      pop\n      pop\n      mload(0x40)\n      returndatasize\n      not(0x1f)\n      0x1f\n      dup3\n      add\n      and\n      dup3\n      add\n      dup1\n      0x40\n      mstore\n      pop\n      dup2\n      add\n      swap1\n      tag_88\n      swap2\n      swap1\n      tag_69\n      jump\t// in\n    tag_88:\n        /* \"contracts/blockmagic_hackaton/ccip/TokenTransferor.sol\":3943:4053  uint256 fees = s_router.getFee(... */\n      swap1\n      pop\n        /* \"contracts/blockmagic_hackaton/ccip/TokenTransferor.sol\":4077:4098  address(this).balance */\n      selfbalance\n        /* \"contracts/blockmagic_hackaton/ccip/TokenTransferor.sol\":4070:4074  fees */\n      dup2\n        /* \"contracts/blockmagic_hackaton/ccip/TokenTransferor.sol\":4070:4098  fees > address(this).balance */\n      gt\n        /* \"contracts/blockmagic_hackaton/ccip/TokenTransferor.sol\":4066:4165  if (fees > address(this).balance)... */\n      iszero\n      tag_89\n      jumpi\n        /* \"contracts/blockmagic_hackaton/ccip/TokenTransferor.sol\":4137:4158  address(this).balance */\n      selfbalance\n        /* \"contracts/blockmagic_hackaton/ccip/TokenTransferor.sol\":4160:4164  fees */\n      dup2\n        /* \"contracts/blockmagic_hackaton/ccip/TokenTransferor.sol\":4120:4165  NotEnoughBalance(address(this).balance, fees) */\n      mload(0x40)\n      0x8f0f420600000000000000000000000000000000000000000000000000000000\n      dup2\n      mstore\n      0x04\n      add\n      tag_90\n      swap3\n      swap2\n      swap1\n      tag_91\n      jump\t// in\n    tag_90:\n      mload(0x40)\n      dup1\n      swap2\n      sub\n      swap1\n      revert\n        /* \"contracts/blockmagic_hackaton/ccip/TokenTransferor.sol\":4066:4165  if (fees > address(this).balance)... */\n    tag_89:\n        /* \"contracts/blockmagic_hackaton/ccip/TokenTransferor.sol\":4185:4191  _token */\n      dup7\n        /* \"contracts/blockmagic_hackaton/ccip/TokenTransferor.sol\":4178:4200  IERC20(_token).approve */\n      0xffffffffffffffffffffffffffffffffffffffff\n      and\n      0x095ea7b3\n        /* \"contracts/blockmagic_hackaton/ccip/TokenTransferor.sol\":4209:4217  s_router */\n      0x03\n      0x00\n      swap1\n      sload\n      swap1\n      0x0100\n      exp\n      swap1\n      div\n      0xffffffffffffffffffffffffffffffffffffffff\n      and\n        /* \"contracts/blockmagic_hackaton/ccip/TokenTransferor.sol\":4220:4227  _amount */\n      dup9\n        /* \"contracts/blockmagic_hackaton/ccip/TokenTransferor.sol\":4178:4228  IERC20(_token).approve(address(s_router), _amount) */\n      mload(0x40)\n      dup4\n      0xffffffff\n      and\n      0xe0\n      shl\n      dup2\n      mstore\n      0x04\n      add\n      tag_92\n      swap3\n      swap2\n      swap1\n      tag_93\n      jump\t// in\n    tag_92:\n      0x20\n      mload(0x40)\n      dup1\n      dup4\n      sub\n      dup2\n      0x00\n      dup8\n      gas\n      call\n      iszero\n      dup1\n      iszero\n      tag_95\n      jumpi\n      returndatasize\n      0x00\n      dup1\n      returndatacopy\n      revert(0x00, returndatasize)\n    tag_95:\n      pop\n      pop\n      pop\n      pop\n      mload(0x40)\n      returndatasize\n      not(0x1f)\n      0x1f\n      dup3\n      add\n      and\n      dup3\n      add\n      dup1\n      0x40\n      mstore\n      pop\n      dup2\n      add\n      swap1\n      tag_96\n      swap2\n      swap1\n      tag_97\n      jump\t// in\n    tag_96:\n      pop\n        /* \"contracts/blockmagic_hackaton/ccip/TokenTransferor.sol\":4253:4261  s_router */\n      0x03\n      0x00\n      swap1\n      sload\n      swap1\n      0x0100\n      exp\n      swap1\n      div\n      0xffffffffffffffffffffffffffffffffffffffff\n      and\n        /* \"contracts/blockmagic_hackaton/ccip/TokenTransferor.sol\":4253:4270  s_router.ccipSend */\n      0xffffffffffffffffffffffffffffffffffffffff\n      and\n      0x96f4e9f9\n        /* \"contracts/blockmagic_hackaton/ccip/TokenTransferor.sol\":4278:4282  fees */\n      dup3\n        /* \"contracts/blockmagic_hackaton/ccip/TokenTransferor.sol\":4298:4323  _destinationChainSelector */\n      dup12\n        /* \"contracts/blockmagic_hackaton/ccip/TokenTransferor.sol\":4338:4352  evm2AnyMessage */\n      dup6\n        /* \"contracts/blockmagic_hackaton/ccip/TokenTransferor.sol\":4253:4363  s_router.ccipSend{value: fees}(... */\n      mload(0x40)\n      dup5\n      0xffffffff\n      and\n      0xe0\n      shl\n      dup2\n      mstore\n      0x04\n      add\n      tag_98\n      swap3\n      swap2\n      swap1\n      tag_85\n      jump\t// in\n    tag_98:\n      0x20\n      mload(0x40)\n      dup1\n      dup4\n      sub\n      dup2\n      dup6\n      dup9\n      gas\n      call\n      iszero\n      dup1\n      iszero\n      tag_100\n      jumpi\n      returndatasize\n      0x00\n      dup1\n      returndatacopy\n      revert(0x00, returndatasize)\n    tag_100:\n      pop\n      pop\n      pop\n      pop\n      pop\n      mload(0x40)\n      returndatasize\n      not(0x1f)\n      0x1f\n      dup3\n      add\n      and\n      dup3\n      add\n      dup1\n      0x40\n      mstore\n      pop\n      dup2\n      add\n      swap1\n      tag_101\n      swap2\n      swap1\n      tag_102\n      jump\t// in\n    tag_101:\n        /* \"contracts/blockmagic_hackaton/ccip/TokenTransferor.sol\":4241:4363  messageId = s_router.ccipSend{value: fees}(... */\n      swap5\n      pop\n        /* \"contracts/blockmagic_hackaton/ccip/TokenTransferor.sol\":4437:4462  _destinationChainSelector */\n      dup9\n        /* \"contracts/blockmagic_hackaton/ccip/TokenTransferor.sol\":4381:4584  TokensTransferred(... */\n      0xffffffffffffffff\n      and\n        /* \"contracts/blockmagic_hackaton/ccip/TokenTransferor.sol\":4413:4422  messageId */\n      dup6\n        /* \"contracts/blockmagic_hackaton/ccip/TokenTransferor.sol\":4381:4584  TokensTransferred(... */\n      0xc15fb748c32ba4eb29c1c311e78533f93b4425eab49ea87c6fe4279ecadca043\n        /* \"contracts/blockmagic_hackaton/ccip/TokenTransferor.sol\":4477:4486  _receiver */\n      dup11\n        /* \"contracts/blockmagic_hackaton/ccip/TokenTransferor.sol\":4501:4507  _token */\n      dup11\n        /* \"contracts/blockmagic_hackaton/ccip/TokenTransferor.sol\":4522:4529  _amount */\n      dup11\n        /* \"contracts/blockmagic_hackaton/ccip/TokenTransferor.sol\":4552:4553  0 */\n      0x00\n        /* \"contracts/blockmagic_hackaton/ccip/TokenTransferor.sol\":4569:4573  fees */\n      dup8\n        /* \"contracts/blockmagic_hackaton/ccip/TokenTransferor.sol\":4381:4584  TokensTransferred(... */\n      mload(0x40)\n      tag_103\n      swap6\n      swap5\n      swap4\n      swap3\n      swap2\n      swap1\n      tag_104\n      jump\t// in\n    tag_103:\n      mload(0x40)\n      dup1\n      swap2\n      sub\n      swap1\n      log3\n        /* \"contracts/blockmagic_hackaton/ccip/TokenTransferor.sol\":4597:4613  return messageId */\n      pop\n      pop\n        /* \"contracts/blockmagic_hackaton/ccip/TokenTransferor.sol\":1748:1749  _ */\n      pop\n        /* \"@chainlink/contracts-ccip/src/v0.8/shared/access/ConfirmedOwnerWithProposal.sol\":2085:2086  _ */\n      pop\n        /* \"contracts/blockmagic_hackaton/ccip/TokenTransferor.sol\":3418:4621  function transferTokensPayNative(... */\n      swap5\n      swap4\n      pop\n      pop\n      pop\n      pop\n      jump\t// out\n        /* \"contracts/blockmagic_hackaton/ccip/TokenTransferor.sol\":5410:5729  function withdraw(address _beneficiary) public onlyOwner {... */\n    tag_38:\n        /* \"@chainlink/contracts-ccip/src/v0.8/shared/access/ConfirmedOwnerWithProposal.sol\":2059:2079  _validateOwnership() */\n      tag_106\n        /* \"@chainlink/contracts-ccip/src/v0.8/shared/access/ConfirmedOwnerWithProposal.sol\":2059:2077  _validateOwnership */\n      tag_63\n        /* \"@chainlink/contracts-ccip/src/v0.8/shared/access/ConfirmedOwnerWithProposal.sol\":2059:2079  _validateOwnership() */\n      jump\t// in\n    tag_106:\n        /* \"contracts/blockmagic_hackaton/ccip/TokenTransferor.sol\":5478:5492  uint256 amount */\n      0x00\n        /* \"contracts/blockmagic_hackaton/ccip/TokenTransferor.sol\":5495:5516  address(this).balance */\n      selfbalance\n        /* \"contracts/blockmagic_hackaton/ccip/TokenTransferor.sol\":5478:5516  uint256 amount = address(this).balance */\n      swap1\n      pop\n        /* \"contracts/blockmagic_hackaton/ccip/TokenTransferor.sol\":5543:5544  0 */\n      0x00\n        /* \"contracts/blockmagic_hackaton/ccip/TokenTransferor.sol\":5533:5539  amount */\n      dup2\n        /* \"contracts/blockmagic_hackaton/ccip/TokenTransferor.sol\":5533:5544  amount == 0 */\n      sub\n        /* \"contracts/blockmagic_hackaton/ccip/TokenTransferor.sol\":5529:5572  if (amount == 0) revert NothingToWithdraw() */\n      tag_108\n      jumpi\n        /* \"contracts/blockmagic_hackaton/ccip/TokenTransferor.sol\":5553:5572  NothingToWithdraw() */\n      mload(0x40)\n      0xd0d04f6000000000000000000000000000000000000000000000000000000000\n      dup2\n      mstore\n      0x04\n      add\n      mload(0x40)\n      dup1\n      swap2\n      sub\n      swap1\n      revert\n        /* \"contracts/blockmagic_hackaton/ccip/TokenTransferor.sol\":5529:5572  if (amount == 0) revert NothingToWithdraw() */\n    tag_108:\n        /* \"contracts/blockmagic_hackaton/ccip/TokenTransferor.sol\":5586:5595  bool sent */\n      0x00\n        /* \"contracts/blockmagic_hackaton/ccip/TokenTransferor.sol\":5601:5613  _beneficiary */\n      dup3\n        /* \"contracts/blockmagic_hackaton/ccip/TokenTransferor.sol\":5601:5618  _beneficiary.call */\n      0xffffffffffffffffffffffffffffffffffffffff\n      and\n        /* \"contracts/blockmagic_hackaton/ccip/TokenTransferor.sol\":5626:5632  amount */\n      dup3\n        /* \"contracts/blockmagic_hackaton/ccip/TokenTransferor.sol\":5601:5637  _beneficiary.call{value: amount}(\"\") */\n      mload(0x40)\n      tag_109\n      swap1\n      tag_110\n      jump\t// in\n    tag_109:\n      0x00\n      mload(0x40)\n      dup1\n      dup4\n      sub\n      dup2\n      dup6\n      dup8\n      gas\n      call\n      swap3\n      pop\n      pop\n      pop\n      returndatasize\n      dup1\n      0x00\n      dup2\n      eq\n      tag_113\n      jumpi\n      mload(0x40)\n      swap2\n      pop\n      and(add(returndatasize, 0x3f), not(0x1f))\n      dup3\n      add\n      0x40\n      mstore\n      returndatasize\n      dup3\n      mstore\n      returndatasize\n      0x00\n      0x20\n      dup5\n      add\n      returndatacopy\n      jump(tag_112)\n    tag_113:\n      0x60\n      swap2\n      pop\n    tag_112:\n      pop\n        /* \"contracts/blockmagic_hackaton/ccip/TokenTransferor.sol\":5585:5637  (bool sent, ) = _beneficiary.call{value: amount}(\"\") */\n      pop\n      swap1\n      pop\n        /* \"contracts/blockmagic_hackaton/ccip/TokenTransferor.sol\":5655:5659  sent */\n      dup1\n        /* \"contracts/blockmagic_hackaton/ccip/TokenTransferor.sol\":5650:5721  if (!sent) revert FailedToWithdrawEth(msg.sender, _beneficiary, amount) */\n      tag_114\n      jumpi\n        /* \"contracts/blockmagic_hackaton/ccip/TokenTransferor.sol\":5688:5698  msg.sender */\n      caller\n        /* \"contracts/blockmagic_hackaton/ccip/TokenTransferor.sol\":5700:5712  _beneficiary */\n      dup4\n        /* \"contracts/blockmagic_hackaton/ccip/TokenTransferor.sol\":5714:5720  amount */\n      dup4\n        /* \"contracts/blockmagic_hackaton/ccip/TokenTransferor.sol\":5668:5721  FailedToWithdrawEth(msg.sender, _beneficiary, amount) */\n      mload(0x40)\n      0x9d11f56300000000000000000000000000000000000000000000000000000000\n      dup2\n      mstore\n      0x04\n      add\n      tag_115\n      swap4\n      swap3\n      swap2\n      swap1\n      tag_116\n      jump\t// in\n    tag_115:\n      mload(0x40)\n      dup1\n      swap2\n      sub\n      swap1\n      revert\n        /* \"contracts/blockmagic_hackaton/ccip/TokenTransferor.sol\":5650:5721  if (!sent) revert FailedToWithdrawEth(msg.sender, _beneficiary, amount) */\n    tag_114:\n        /* \"contracts/blockmagic_hackaton/ccip/TokenTransferor.sol\":5467:5729  {... */\n      pop\n      pop\n        /* \"contracts/blockmagic_hackaton/ccip/TokenTransferor.sol\":5410:5729  function withdraw(address _beneficiary) public onlyOwner {... */\n      pop\n      jump\t// out\n        /* \"@chainlink/contracts-ccip/src/v0.8/shared/access/ConfirmedOwnerWithProposal.sol\":1022:1334  function acceptOwnership() external override {... */\n    tag_41:\n        /* \"@chainlink/contracts-ccip/src/v0.8/shared/access/ConfirmedOwnerWithProposal.sol\":1142:1156  s_pendingOwner */\n      0x01\n      0x00\n      swap1\n      sload\n      swap1\n      0x0100\n      exp\n      swap1\n      div\n      0xffffffffffffffffffffffffffffffffffffffff\n      and\n        /* \"@chainlink/contracts-ccip/src/v0.8/shared/access/ConfirmedOwnerWithProposal.sol\":1128:1156  msg.sender == s_pendingOwner */\n      0xffffffffffffffffffffffffffffffffffffffff\n      and\n        /* \"@chainlink/contracts-ccip/src/v0.8/shared/access/ConfirmedOwnerWithProposal.sol\":1128:1138  msg.sender */\n      caller\n        /* \"@chainlink/contracts-ccip/src/v0.8/shared/access/ConfirmedOwnerWithProposal.sol\":1128:1156  msg.sender == s_pendingOwner */\n      0xffffffffffffffffffffffffffffffffffffffff\n      and\n      eq\n        /* \"@chainlink/contracts-ccip/src/v0.8/shared/access/ConfirmedOwnerWithProposal.sol\":1120:1183  require(msg.sender == s_pendingOwner, \"Must be proposed owner\") */\n      tag_118\n      jumpi\n      mload(0x40)\n      0x08c379a000000000000000000000000000000000000000000000000000000000\n      dup2\n      mstore\n      0x04\n      add\n      tag_119\n      swap1\n      tag_120\n      jump\t// in\n    tag_119:\n      mload(0x40)\n      dup1\n      swap2\n      sub\n      swap1\n      revert\n    tag_118:\n        /* \"@chainlink/contracts-ccip/src/v0.8/shared/access/ConfirmedOwnerWithProposal.sol\":1190:1206  address oldOwner */\n      0x00\n        /* \"@chainlink/contracts-ccip/src/v0.8/shared/access/ConfirmedOwnerWithProposal.sol\":1209:1216  s_owner */\n      dup1\n      0x00\n      swap1\n      sload\n      swap1\n      0x0100\n      exp\n      swap1\n      div\n      0xffffffffffffffffffffffffffffffffffffffff\n      and\n        /* \"@chainlink/contracts-ccip/src/v0.8/shared/access/ConfirmedOwnerWithProposal.sol\":1190:1216  address oldOwner = s_owner */\n      swap1\n      pop\n        /* \"@chainlink/contracts-ccip/src/v0.8/shared/access/ConfirmedOwnerWithProposal.sol\":1232:1242  msg.sender */\n      caller\n        /* \"@chainlink/contracts-ccip/src/v0.8/shared/access/ConfirmedOwnerWithProposal.sol\":1222:1229  s_owner */\n      0x00\n      dup1\n        /* \"@chainlink/contracts-ccip/src/v0.8/shared/access/ConfirmedOwnerWithProposal.sol\":1222:1242  s_owner = msg.sender */\n      0x0100\n      exp\n      dup2\n      sload\n      dup2\n      0xffffffffffffffffffffffffffffffffffffffff\n      mul\n      not\n      and\n      swap1\n      dup4\n      0xffffffffffffffffffffffffffffffffffffffff\n      and\n      mul\n      or\n      swap1\n      sstore\n      pop\n        /* \"@chainlink/contracts-ccip/src/v0.8/shared/access/ConfirmedOwnerWithProposal.sol\":1273:1274  0 */\n      0x00\n        /* \"@chainlink/contracts-ccip/src/v0.8/shared/access/ConfirmedOwnerWithProposal.sol\":1248:1262  s_pendingOwner */\n      0x01\n      0x00\n        /* \"@chainlink/contracts-ccip/src/v0.8/shared/access/ConfirmedOwnerWithProposal.sol\":1248:1275  s_pendingOwner = address(0) */\n      0x0100\n      exp\n      dup2\n      sload\n      dup2\n      0xffffffffffffffffffffffffffffffffffffffff\n      mul\n      not\n      and\n      swap1\n      dup4\n      0xffffffffffffffffffffffffffffffffffffffff\n      and\n      mul\n      or\n      swap1\n      sstore\n      pop\n        /* \"@chainlink/contracts-ccip/src/v0.8/shared/access/ConfirmedOwnerWithProposal.sol\":1318:1328  msg.sender */\n      caller\n        /* \"@chainlink/contracts-ccip/src/v0.8/shared/access/ConfirmedOwnerWithProposal.sol\":1287:1329  OwnershipTransferred(oldOwner, msg.sender) */\n      0xffffffffffffffffffffffffffffffffffffffff\n      and\n        /* \"@chainlink/contracts-ccip/src/v0.8/shared/access/ConfirmedOwnerWithProposal.sol\":1308:1316  oldOwner */\n      dup2\n        /* \"@chainlink/contracts-ccip/src/v0.8/shared/access/ConfirmedOwnerWithProposal.sol\":1287:1329  OwnershipTransferred(oldOwner, msg.sender) */\n      0xffffffffffffffffffffffffffffffffffffffff\n      and\n      0x8be0079c531659141344cd1fd0a4f28419497f9722a3daafe3b4186f6b6457e0\n      mload(0x40)\n      mload(0x40)\n      dup1\n      swap2\n      sub\n      swap1\n      log3\n        /* \"@chainlink/contracts-ccip/src/v0.8/shared/access/ConfirmedOwnerWithProposal.sol\":1067:1334  {... */\n      pop\n        /* \"@chainlink/contracts-ccip/src/v0.8/shared/access/ConfirmedOwnerWithProposal.sol\":1022:1334  function acceptOwnership() external override {... */\n      jump\t// out\n        /* \"@chainlink/contracts-ccip/src/v0.8/shared/access/ConfirmedOwnerWithProposal.sol\":1374:1455  function owner() public view override returns (address) {... */\n    tag_44:\n        /* \"@chainlink/contracts-ccip/src/v0.8/shared/access/ConfirmedOwnerWithProposal.sol\":1421:1428  address */\n      0x00\n        /* \"@chainlink/contracts-ccip/src/v0.8/shared/access/ConfirmedOwnerWithProposal.sol\":1443:1450  s_owner */\n      dup1\n      0x00\n      swap1\n      sload\n      swap1\n      0x0100\n      exp\n      swap1\n      div\n      0xffffffffffffffffffffffffffffffffffffffff\n      and\n        /* \"@chainlink/contracts-ccip/src/v0.8/shared/access/ConfirmedOwnerWithProposal.sol\":1436:1450  return s_owner */\n      swap1\n      pop\n        /* \"@chainlink/contracts-ccip/src/v0.8/shared/access/ConfirmedOwnerWithProposal.sol\":1374:1455  function owner() public view override returns (address) {... */\n      swap1\n      jump\t// out\n        /* \"contracts/blockmagic_hackaton/ccip/TokenTransferor.sol\":2117:3410  function transferTokensPayLINK(... */\n    tag_50:\n        /* \"contracts/blockmagic_hackaton/ccip/TokenTransferor.sol\":2426:2443  bytes32 messageId */\n      0x00\n        /* \"@chainlink/contracts-ccip/src/v0.8/shared/access/ConfirmedOwnerWithProposal.sol\":2059:2079  _validateOwnership() */\n      tag_123\n        /* \"@chainlink/contracts-ccip/src/v0.8/shared/access/ConfirmedOwnerWithProposal.sol\":2059:2077  _validateOwnership */\n      tag_63\n        /* \"@chainlink/contracts-ccip/src/v0.8/shared/access/ConfirmedOwnerWithProposal.sol\":2059:2079  _validateOwnership() */\n      jump\t// in\n    tag_123:\n        /* \"contracts/blockmagic_hackaton/ccip/TokenTransferor.sol\":2344:2369  _destinationChainSelector */\n      dup5\n        /* \"contracts/blockmagic_hackaton/ccip/TokenTransferor.sol\":1614:1631  allowlistedChains */\n      0x02\n        /* \"contracts/blockmagic_hackaton/ccip/TokenTransferor.sol\":1614:1658  allowlistedChains[_destinationChainSelector] */\n      0x00\n        /* \"contracts/blockmagic_hackaton/ccip/TokenTransferor.sol\":1632:1657  _destinationChainSelector */\n      dup3\n        /* \"contracts/blockmagic_hackaton/ccip/TokenTransferor.sol\":1614:1658  allowlistedChains[_destinationChainSelector] */\n      0xffffffffffffffff\n      and\n      0xffffffffffffffff\n      and\n      dup2\n      mstore\n      0x20\n      add\n      swap1\n      dup2\n      mstore\n      0x20\n      add\n      0x00\n      keccak256\n      0x00\n      swap1\n      sload\n      swap1\n      0x0100\n      exp\n      swap1\n      div\n      0xff\n      and\n        /* \"contracts/blockmagic_hackaton/ccip/TokenTransferor.sol\":1609:1737  if (!allowlistedChains[_destinationChainSelector])... */\n      tag_125\n      jumpi\n        /* \"contracts/blockmagic_hackaton/ccip/TokenTransferor.sol\":1711:1736  _destinationChainSelector */\n      dup1\n        /* \"contracts/blockmagic_hackaton/ccip/TokenTransferor.sol\":1680:1737  DestinationChainNotAllowlisted(_destinationChainSelector) */\n      mload(0x40)\n      0x0a503cdb00000000000000000000000000000000000000000000000000000000\n      dup2\n      mstore\n      0x04\n      add\n      tag_126\n      swap2\n      swap1\n      tag_78\n      jump\t// in\n    tag_126:\n      mload(0x40)\n      dup1\n      swap2\n      sub\n      swap1\n      revert\n        /* \"contracts/blockmagic_hackaton/ccip/TokenTransferor.sol\":1609:1737  if (!allowlistedChains[_destinationChainSelector])... */\n    tag_125:\n        /* \"contracts/blockmagic_hackaton/ccip/TokenTransferor.sol\":2397:2406  _receiver */\n      dup5\n        /* \"contracts/blockmagic_hackaton/ccip/TokenTransferor.sol\":1846:1847  0 */\n      0x00\n        /* \"contracts/blockmagic_hackaton/ccip/TokenTransferor.sol\":1825:1848  _receiver == address(0) */\n      0xffffffffffffffffffffffffffffffffffffffff\n      and\n        /* \"contracts/blockmagic_hackaton/ccip/TokenTransferor.sol\":1825:1834  _receiver */\n      dup2\n        /* \"contracts/blockmagic_hackaton/ccip/TokenTransferor.sol\":1825:1848  _receiver == address(0) */\n      0xffffffffffffffffffffffffffffffffffffffff\n      and\n      sub\n        /* \"contracts/blockmagic_hackaton/ccip/TokenTransferor.sol\":1821:1881  if (_receiver == address(0)) revert InvalidReceiverAddress() */\n      tag_128\n      jumpi\n        /* \"contracts/blockmagic_hackaton/ccip/TokenTransferor.sol\":1857:1881  InvalidReceiverAddress() */\n      mload(0x40)\n      0xa05ff47e00000000000000000000000000000000000000000000000000000000\n      dup2\n      mstore\n      0x04\n      add\n      mload(0x40)\n      dup1\n      swap2\n      sub\n      swap1\n      revert\n        /* \"contracts/blockmagic_hackaton/ccip/TokenTransferor.sol\":1821:1881  if (_receiver == address(0)) revert InvalidReceiverAddress() */\n    tag_128:\n        /* \"contracts/blockmagic_hackaton/ccip/TokenTransferor.sol\":2461:2504  Client.EVM2AnyMessage memory evm2AnyMessage */\n      0x00\n        /* \"contracts/blockmagic_hackaton/ccip/TokenTransferor.sol\":2507:2637  _buildCCIPMessage(... */\n      tag_130\n        /* \"contracts/blockmagic_hackaton/ccip/TokenTransferor.sol\":2539:2548  _receiver */\n      dup8\n        /* \"contracts/blockmagic_hackaton/ccip/TokenTransferor.sol\":2563:2569  _token */\n      dup8\n        /* \"contracts/blockmagic_hackaton/ccip/TokenTransferor.sol\":2584:2591  _amount */\n      dup8\n        /* \"contracts/blockmagic_hackaton/ccip/TokenTransferor.sol\":2614:2625  s_linkToken */\n      0x04\n      0x00\n      swap1\n      sload\n      swap1\n      0x0100\n      exp\n      swap1\n      div\n      0xffffffffffffffffffffffffffffffffffffffff\n      and\n        /* \"contracts/blockmagic_hackaton/ccip/TokenTransferor.sol\":2507:2524  _buildCCIPMessage */\n      tag_83\n        /* \"contracts/blockmagic_hackaton/ccip/TokenTransferor.sol\":2507:2637  _buildCCIPMessage(... */\n      jump\t// in\n    tag_130:\n        /* \"contracts/blockmagic_hackaton/ccip/TokenTransferor.sol\":2461:2637  Client.EVM2AnyMessage memory evm2AnyMessage = _buildCCIPMessage(... */\n      swap1\n      pop\n        /* \"contracts/blockmagic_hackaton/ccip/TokenTransferor.sol\":2650:2662  uint256 fees */\n      0x00\n        /* \"contracts/blockmagic_hackaton/ccip/TokenTransferor.sol\":2665:2673  s_router */\n      0x03\n      0x00\n      swap1\n      sload\n      swap1\n      0x0100\n      exp\n      swap1\n      div\n      0xffffffffffffffffffffffffffffffffffffffff\n      and\n        /* \"contracts/blockmagic_hackaton/ccip/TokenTransferor.sol\":2665:2680  s_router.getFee */\n      0xffffffffffffffffffffffffffffffffffffffff\n      and\n      0x20487ded\n        /* \"contracts/blockmagic_hackaton/ccip/TokenTransferor.sol\":2695:2720  _destinationChainSelector */\n      dup11\n        /* \"contracts/blockmagic_hackaton/ccip/TokenTransferor.sol\":2735:2749  evm2AnyMessage */\n      dup5\n        /* \"contracts/blockmagic_hackaton/ccip/TokenTransferor.sol\":2665:2760  s_router.getFee(... */\n      mload(0x40)\n      dup4\n      0xffffffff\n      and\n      0xe0\n      shl\n      dup2\n      mstore\n      0x04\n      add\n      tag_131\n      swap3\n      swap2\n      swap1\n      tag_85\n      jump\t// in\n    tag_131:\n      0x20\n      mload(0x40)\n      dup1\n      dup4\n      sub\n      dup2\n      dup7\n      gas\n      staticcall\n      iszero\n      dup1\n      iszero\n      tag_133\n      jumpi\n      returndatasize\n      0x00\n      dup1\n      returndatacopy\n      revert(0x00, returndatasize)\n    tag_133:\n      pop\n      pop\n      pop\n      pop\n      mload(0x40)\n      returndatasize\n      not(0x1f)\n      0x1f\n      dup3\n      add\n      and\n      dup3\n      add\n      dup1\n      0x40\n      mstore\n      pop\n      dup2\n      add\n      swap1\n      tag_134\n      swap2\n      swap1\n      tag_69\n      jump\t// in\n    tag_134:\n        /* \"contracts/blockmagic_hackaton/ccip/TokenTransferor.sol\":2650:2760  uint256 fees = s_router.getFee(... */\n      swap1\n      pop\n        /* \"contracts/blockmagic_hackaton/ccip/TokenTransferor.sol\":2784:2795  s_linkToken */\n      0x04\n      0x00\n      swap1\n      sload\n      swap1\n      0x0100\n      exp\n      swap1\n      div\n      0xffffffffffffffffffffffffffffffffffffffff\n      and\n        /* \"contracts/blockmagic_hackaton/ccip/TokenTransferor.sol\":2784:2805  s_linkToken.balanceOf */\n      0xffffffffffffffffffffffffffffffffffffffff\n      and\n      0x70a08231\n        /* \"contracts/blockmagic_hackaton/ccip/TokenTransferor.sol\":2814:2818  this */\n      address\n        /* \"contracts/blockmagic_hackaton/ccip/TokenTransferor.sol\":2784:2820  s_linkToken.balanceOf(address(this)) */\n      mload(0x40)\n      dup3\n      0xffffffff\n      and\n      0xe0\n      shl\n      dup2\n      mstore\n      0x04\n      add\n      tag_135\n      swap2\n      swap1\n      tag_46\n      jump\t// in\n    tag_135:\n      0x20\n      mload(0x40)\n      dup1\n      dup4\n      sub\n      dup2\n      dup7\n      gas\n      staticcall\n      iszero\n      dup1\n      iszero\n      tag_137\n      jumpi\n      returndatasize\n      0x00\n      dup1\n      returndatacopy\n      revert(0x00, returndatasize)\n    tag_137:\n      pop\n      pop\n      pop\n      pop\n      mload(0x40)\n      returndatasize\n      not(0x1f)\n      0x1f\n      dup3\n      add\n      and\n      dup3\n      add\n      dup1\n      0x40\n      mstore\n      pop\n      dup2\n      add\n      swap1\n      tag_138\n      swap2\n      swap1\n      tag_69\n      jump\t// in\n    tag_138:\n        /* \"contracts/blockmagic_hackaton/ccip/TokenTransferor.sol\":2777:2781  fees */\n      dup2\n        /* \"contracts/blockmagic_hackaton/ccip/TokenTransferor.sol\":2777:2820  fees > s_linkToken.balanceOf(address(this)) */\n      gt\n        /* \"contracts/blockmagic_hackaton/ccip/TokenTransferor.sol\":2773:2902  if (fees > s_linkToken.balanceOf(address(this)))... */\n      iszero\n      tag_139\n      jumpi\n        /* \"contracts/blockmagic_hackaton/ccip/TokenTransferor.sol\":2859:2870  s_linkToken */\n      0x04\n      0x00\n      swap1\n      sload\n      swap1\n      0x0100\n      exp\n      swap1\n      div\n      0xffffffffffffffffffffffffffffffffffffffff\n      and\n        /* \"contracts/blockmagic_hackaton/ccip/TokenTransferor.sol\":2859:2880  s_linkToken.balanceOf */\n      0xffffffffffffffffffffffffffffffffffffffff\n      and\n      0x70a08231\n        /* \"contracts/blockmagic_hackaton/ccip/TokenTransferor.sol\":2889:2893  this */\n      address\n        /* \"contracts/blockmagic_hackaton/ccip/TokenTransferor.sol\":2859:2895  s_linkToken.balanceOf(address(this)) */\n      mload(0x40)\n      dup3\n      0xffffffff\n      and\n      0xe0\n      shl\n      dup2\n      mstore\n      0x04\n      add\n      tag_140\n      swap2\n      swap1\n      tag_46\n      jump\t// in\n    tag_140:\n      0x20\n      mload(0x40)\n      dup1\n      dup4\n      sub\n      dup2\n      dup7\n      gas\n      staticcall\n      iszero\n      dup1\n      iszero\n      tag_142\n      jumpi\n      returndatasize\n      0x00\n      dup1\n      returndatacopy\n      revert(0x00, returndatasize)\n    tag_142:\n      pop\n      pop\n      pop\n      pop\n      mload(0x40)\n      returndatasize\n      not(0x1f)\n      0x1f\n      dup3\n      add\n      and\n      dup3\n      add\n      dup1\n      0x40\n      mstore\n      pop\n      dup2\n      add\n      swap1\n      tag_143\n      swap2\n      swap1\n      tag_69\n      jump\t// in\n    tag_143:\n        /* \"contracts/blockmagic_hackaton/ccip/TokenTransferor.sol\":2897:2901  fees */\n      dup2\n        /* \"contracts/blockmagic_hackaton/ccip/TokenTransferor.sol\":2842:2902  NotEnoughBalance(s_linkToken.balanceOf(address(this)), fees) */\n      mload(0x40)\n      0x8f0f420600000000000000000000000000000000000000000000000000000000\n      dup2\n      mstore\n      0x04\n      add\n      tag_144\n      swap3\n      swap2\n      swap1\n      tag_91\n      jump\t// in\n    tag_144:\n      mload(0x40)\n      dup1\n      swap2\n      sub\n      swap1\n      revert\n        /* \"contracts/blockmagic_hackaton/ccip/TokenTransferor.sol\":2773:2902  if (fees > s_linkToken.balanceOf(address(this)))... */\n    tag_139:\n        /* \"contracts/blockmagic_hackaton/ccip/TokenTransferor.sol\":2915:2926  s_linkToken */\n      0x04\n      0x00\n      swap1\n      sload\n      swap1\n      0x0100\n      exp\n      swap1\n      div\n      0xffffffffffffffffffffffffffffffffffffffff\n      and\n        /* \"contracts/blockmagic_hackaton/ccip/TokenTransferor.sol\":2915:2934  s_linkToken.approve */\n      0xffffffffffffffffffffffffffffffffffffffff\n      and\n      0x095ea7b3\n        /* \"contracts/blockmagic_hackaton/ccip/TokenTransferor.sol\":2943:2951  s_router */\n      0x03\n      0x00\n      swap1\n      sload\n      swap1\n      0x0100\n      exp\n      swap1\n      div\n      0xffffffffffffffffffffffffffffffffffffffff\n      and\n        /* \"contracts/blockmagic_hackaton/ccip/TokenTransferor.sol\":2954:2958  fees */\n      dup4\n        /* \"contracts/blockmagic_hackaton/ccip/TokenTransferor.sol\":2915:2959  s_linkToken.approve(address(s_router), fees) */\n      mload(0x40)\n      dup4\n      0xffffffff\n      and\n      0xe0\n      shl\n      dup2\n      mstore\n      0x04\n      add\n      tag_145\n      swap3\n      swap2\n      swap1\n      tag_93\n      jump\t// in\n    tag_145:\n      0x20\n      mload(0x40)\n      dup1\n      dup4\n      sub\n      dup2\n      0x00\n      dup8\n      gas\n      call\n      iszero\n      dup1\n      iszero\n      tag_147\n      jumpi\n      returndatasize\n      0x00\n      dup1\n      returndatacopy\n      revert(0x00, returndatasize)\n    tag_147:\n      pop\n      pop\n      pop\n      pop\n      mload(0x40)\n      returndatasize\n      not(0x1f)\n      0x1f\n      dup3\n      add\n      and\n      dup3\n      add\n      dup1\n      0x40\n      mstore\n      pop\n      dup2\n      add\n      swap1\n      tag_148\n      swap2\n      swap1\n      tag_97\n      jump\t// in\n    tag_148:\n      pop\n        /* \"contracts/blockmagic_hackaton/ccip/TokenTransferor.sol\":2977:2983  _token */\n      dup7\n        /* \"contracts/blockmagic_hackaton/ccip/TokenTransferor.sol\":2970:2992  IERC20(_token).approve */\n      0xffffffffffffffffffffffffffffffffffffffff\n      and\n      0x095ea7b3\n        /* \"contracts/blockmagic_hackaton/ccip/TokenTransferor.sol\":3001:3009  s_router */\n      0x03\n      0x00\n      swap1\n      sload\n      swap1\n      0x0100\n      exp\n      swap1\n      div\n      0xffffffffffffffffffffffffffffffffffffffff\n      and\n        /* \"contracts/blockmagic_hackaton/ccip/TokenTransferor.sol\":3012:3019  _amount */\n      dup9\n        /* \"contracts/blockmagic_hackaton/ccip/TokenTransferor.sol\":2970:3020  IERC20(_token).approve(address(s_router), _amount) */\n      mload(0x40)\n      dup4\n      0xffffffff\n      and\n      0xe0\n      shl\n      dup2\n      mstore\n      0x04\n      add\n      tag_149\n      swap3\n      swap2\n      swap1\n      tag_93\n      jump\t// in\n    tag_149:\n      0x20\n      mload(0x40)\n      dup1\n      dup4\n      sub\n      dup2\n      0x00\n      dup8\n      gas\n      call\n      iszero\n      dup1\n      iszero\n      tag_151\n      jumpi\n      returndatasize\n      0x00\n      dup1\n      returndatacopy\n      revert(0x00, returndatasize)\n    tag_151:\n      pop\n      pop\n      pop\n      pop\n      mload(0x40)\n      returndatasize\n      not(0x1f)\n      0x1f\n      dup3\n      add\n      and\n      dup3\n      add\n      dup1\n      0x40\n      mstore\n      pop\n      dup2\n      add\n      swap1\n      tag_152\n      swap2\n      swap1\n      tag_97\n      jump\t// in\n    tag_152:\n      pop\n        /* \"contracts/blockmagic_hackaton/ccip/TokenTransferor.sol\":3045:3053  s_router */\n      0x03\n      0x00\n      swap1\n      sload\n      swap1\n      0x0100\n      exp\n      swap1\n      div\n      0xffffffffffffffffffffffffffffffffffffffff\n      and\n        /* \"contracts/blockmagic_hackaton/ccip/TokenTransferor.sol\":3045:3062  s_router.ccipSend */\n      0xffffffffffffffffffffffffffffffffffffffff\n      and\n      0x96f4e9f9\n        /* \"contracts/blockmagic_hackaton/ccip/TokenTransferor.sol\":3077:3102  _destinationChainSelector */\n      dup11\n        /* \"contracts/blockmagic_hackaton/ccip/TokenTransferor.sol\":3117:3131  evm2AnyMessage */\n      dup5\n        /* \"contracts/blockmagic_hackaton/ccip/TokenTransferor.sol\":3045:3142  s_router.ccipSend(... */\n      mload(0x40)\n      dup4\n      0xffffffff\n      and\n      0xe0\n      shl\n      dup2\n      mstore\n      0x04\n      add\n      tag_153\n      swap3\n      swap2\n      swap1\n      tag_85\n      jump\t// in\n    tag_153:\n      0x20\n      mload(0x40)\n      dup1\n      dup4\n      sub\n      dup2\n      0x00\n      dup8\n      gas\n      call\n      iszero\n      dup1\n      iszero\n      tag_155\n      jumpi\n      returndatasize\n      0x00\n      dup1\n      returndatacopy\n      revert(0x00, returndatasize)\n    tag_155:\n      pop\n      pop\n      pop\n      pop\n      mload(0x40)\n      returndatasize\n      not(0x1f)\n      0x1f\n      dup3\n      add\n      and\n      dup3\n      add\n      dup1\n      0x40\n      mstore\n      pop\n      dup2\n      add\n      swap1\n      tag_156\n      swap2\n      swap1\n      tag_102\n      jump\t// in\n    tag_156:\n        /* \"contracts/blockmagic_hackaton/ccip/TokenTransferor.sol\":3033:3142  messageId = s_router.ccipSend(... */\n      swap5\n      pop\n        /* \"contracts/blockmagic_hackaton/ccip/TokenTransferor.sol\":3216:3241  _destinationChainSelector */\n      dup9\n        /* \"contracts/blockmagic_hackaton/ccip/TokenTransferor.sol\":3160:3373  TokensTransferred(... */\n      0xffffffffffffffff\n      and\n        /* \"contracts/blockmagic_hackaton/ccip/TokenTransferor.sol\":3192:3201  messageId */\n      dup6\n        /* \"contracts/blockmagic_hackaton/ccip/TokenTransferor.sol\":3160:3373  TokensTransferred(... */\n      0xc15fb748c32ba4eb29c1c311e78533f93b4425eab49ea87c6fe4279ecadca043\n        /* \"contracts/blockmagic_hackaton/ccip/TokenTransferor.sol\":3256:3265  _receiver */\n      dup11\n        /* \"contracts/blockmagic_hackaton/ccip/TokenTransferor.sol\":3280:3286  _token */\n      dup11\n        /* \"contracts/blockmagic_hackaton/ccip/TokenTransferor.sol\":3301:3308  _amount */\n      dup11\n        /* \"contracts/blockmagic_hackaton/ccip/TokenTransferor.sol\":3331:3342  s_linkToken */\n      0x04\n      0x00\n      swap1\n      sload\n      swap1\n      0x0100\n      exp\n      swap1\n      div\n      0xffffffffffffffffffffffffffffffffffffffff\n      and\n        /* \"contracts/blockmagic_hackaton/ccip/TokenTransferor.sol\":3358:3362  fees */\n      dup8\n        /* \"contracts/blockmagic_hackaton/ccip/TokenTransferor.sol\":3160:3373  TokensTransferred(... */\n      mload(0x40)\n      tag_157\n      swap6\n      swap5\n      swap4\n      swap3\n      swap2\n      swap1\n      tag_104\n      jump\t// in\n    tag_157:\n      mload(0x40)\n      dup1\n      swap2\n      sub\n      swap1\n      log3\n        /* \"contracts/blockmagic_hackaton/ccip/TokenTransferor.sol\":3386:3402  return messageId */\n      pop\n      pop\n        /* \"contracts/blockmagic_hackaton/ccip/TokenTransferor.sol\":1748:1749  _ */\n      pop\n        /* \"@chainlink/contracts-ccip/src/v0.8/shared/access/ConfirmedOwnerWithProposal.sol\":2085:2086  _ */\n      pop\n        /* \"contracts/blockmagic_hackaton/ccip/TokenTransferor.sol\":2117:3410  function transferTokensPayLINK(... */\n      swap5\n      swap4\n      pop\n      pop\n      pop\n      pop\n      jump\t// out\n        /* \"contracts/blockmagic_hackaton/ccip/TokenTransferor.sol\":1909:2109  function allowlistDestinationChain(... */\n    tag_56:\n        /* \"@chainlink/contracts-ccip/src/v0.8/shared/access/ConfirmedOwnerWithProposal.sol\":2059:2079  _validateOwnership() */\n      tag_159\n        /* \"@chainlink/contracts-ccip/src/v0.8/shared/access/ConfirmedOwnerWithProposal.sol\":2059:2077  _validateOwnership */\n      tag_63\n        /* \"@chainlink/contracts-ccip/src/v0.8/shared/access/ConfirmedOwnerWithProposal.sol\":2059:2079  _validateOwnership() */\n      jump\t// in\n    tag_159:\n        /* \"contracts/blockmagic_hackaton/ccip/TokenTransferor.sol\":2094:2101  allowed */\n      dup1\n        /* \"contracts/blockmagic_hackaton/ccip/TokenTransferor.sol\":2047:2064  allowlistedChains */\n      0x02\n        /* \"contracts/blockmagic_hackaton/ccip/TokenTransferor.sol\":2047:2091  allowlistedChains[_destinationChainSelector] */\n      0x00\n        /* \"contracts/blockmagic_hackaton/ccip/TokenTransferor.sol\":2065:2090  _destinationChainSelector */\n      dup5\n        /* \"contracts/blockmagic_hackaton/ccip/TokenTransferor.sol\":2047:2091  allowlistedChains[_destinationChainSelector] */\n      0xffffffffffffffff\n      and\n      0xffffffffffffffff\n      and\n      dup2\n      mstore\n      0x20\n      add\n      swap1\n      dup2\n      mstore\n      0x20\n      add\n      0x00\n      keccak256\n      0x00\n        /* \"contracts/blockmagic_hackaton/ccip/TokenTransferor.sol\":2047:2101  allowlistedChains[_destinationChainSelector] = allowed */\n      0x0100\n      exp\n      dup2\n      sload\n      dup2\n      0xff\n      mul\n      not\n      and\n      swap1\n      dup4\n      iszero\n      iszero\n      mul\n      or\n      swap1\n      sstore\n      pop\n        /* \"contracts/blockmagic_hackaton/ccip/TokenTransferor.sol\":1909:2109  function allowlistDestinationChain(... */\n      pop\n      pop\n      jump\t// out\n        /* \"@chainlink/contracts-ccip/src/v0.8/shared/access/ConfirmedOwnerWithProposal.sol\":843:941  function transferOwnership(address to) public override onlyOwner {... */\n    tag_60:\n        /* \"@chainlink/contracts-ccip/src/v0.8/shared/access/ConfirmedOwnerWithProposal.sol\":2059:2079  _validateOwnership() */\n      tag_162\n        /* \"@chainlink/contracts-ccip/src/v0.8/shared/access/ConfirmedOwnerWithProposal.sol\":2059:2077  _validateOwnership */\n      tag_63\n        /* \"@chainlink/contracts-ccip/src/v0.8/shared/access/ConfirmedOwnerWithProposal.sol\":2059:2079  _validateOwnership() */\n      jump\t// in\n    tag_162:\n        /* \"@chainlink/contracts-ccip/src/v0.8/shared/access/ConfirmedOwnerWithProposal.sol\":914:936  _transferOwnership(to) */\n      tag_164\n        /* \"@chainlink/contracts-ccip/src/v0.8/shared/access/ConfirmedOwnerWithProposal.sol\":933:935  to */\n      dup2\n        /* \"@chainlink/contracts-ccip/src/v0.8/shared/access/ConfirmedOwnerWithProposal.sol\":914:932  _transferOwnership */\n      tag_165\n        /* \"@chainlink/contracts-ccip/src/v0.8/shared/access/ConfirmedOwnerWithProposal.sol\":914:936  _transferOwnership(to) */\n      jump\t// in\n    tag_164:\n        /* \"@chainlink/contracts-ccip/src/v0.8/shared/access/ConfirmedOwnerWithProposal.sol\":843:941  function transferOwnership(address to) public override onlyOwner {... */\n      pop\n      jump\t// out\n        /* \"@chainlink/contracts-ccip/src/v0.8/shared/access/ConfirmedOwnerWithProposal.sol\":1797:1955  function _validateOwnership() internal view {... */\n    tag_63:\n        /* \"@chainlink/contracts-ccip/src/v0.8/shared/access/ConfirmedOwnerWithProposal.sol\":1916:1923  s_owner */\n      0x00\n      dup1\n      sload\n      swap1\n      0x0100\n      exp\n      swap1\n      div\n      0xffffffffffffffffffffffffffffffffffffffff\n      and\n        /* \"@chainlink/contracts-ccip/src/v0.8/shared/access/ConfirmedOwnerWithProposal.sol\":1902:1923  msg.sender == s_owner */\n      0xffffffffffffffffffffffffffffffffffffffff\n      and\n        /* \"@chainlink/contracts-ccip/src/v0.8/shared/access/ConfirmedOwnerWithProposal.sol\":1902:1912  msg.sender */\n      caller\n        /* \"@chainlink/contracts-ccip/src/v0.8/shared/access/ConfirmedOwnerWithProposal.sol\":1902:1923  msg.sender == s_owner */\n      0xffffffffffffffffffffffffffffffffffffffff\n      and\n      eq\n        /* \"@chainlink/contracts-ccip/src/v0.8/shared/access/ConfirmedOwnerWithProposal.sol\":1894:1950  require(msg.sender == s_owner, \"Only callable by owner\") */\n      tag_167\n      jumpi\n      mload(0x40)\n      0x08c379a000000000000000000000000000000000000000000000000000000000\n      dup2\n      mstore\n      0x04\n      add\n      tag_168\n      swap1\n      tag_169\n      jump\t// in\n    tag_168:\n      mload(0x40)\n      dup1\n      swap2\n      sub\n      swap1\n      revert\n    tag_167:\n        /* \"@chainlink/contracts-ccip/src/v0.8/shared/access/ConfirmedOwnerWithProposal.sol\":1797:1955  function _validateOwnership() internal view {... */\n      jump\t// out\n        /* \"@chainlink/contracts-ccip/src/v0.8/vendor/openzeppelin-solidity/v4.8.3/contracts/token/ERC20/utils/SafeERC20.sol\":759:928  function safeTransfer(IERC20 token, address to, uint256 value) internal {... */\n    tag_72:\n        /* \"@chainlink/contracts-ccip/src/v0.8/vendor/openzeppelin-solidity/v4.8.3/contracts/token/ERC20/utils/SafeERC20.sol\":837:923  _callOptionalReturn(token, abi.encodeWithSelector(token.transfer.selector, to, value)) */\n      tag_171\n        /* \"@chainlink/contracts-ccip/src/v0.8/vendor/openzeppelin-solidity/v4.8.3/contracts/token/ERC20/utils/SafeERC20.sol\":857:862  token */\n      dup4\n        /* \"@chainlink/contracts-ccip/src/v0.8/vendor/openzeppelin-solidity/v4.8.3/contracts/token/ERC20/utils/SafeERC20.sol\":887:910  token.transfer.selector */\n      shl(0xe0, 0xa9059cbb)\n        /* \"@chainlink/contracts-ccip/src/v0.8/vendor/openzeppelin-solidity/v4.8.3/contracts/token/ERC20/utils/SafeERC20.sol\":912:914  to */\n      dup5\n        /* \"@chainlink/contracts-ccip/src/v0.8/vendor/openzeppelin-solidity/v4.8.3/contracts/token/ERC20/utils/SafeERC20.sol\":916:921  value */\n      dup5\n        /* \"@chainlink/contracts-ccip/src/v0.8/vendor/openzeppelin-solidity/v4.8.3/contracts/token/ERC20/utils/SafeERC20.sol\":864:922  abi.encodeWithSelector(token.transfer.selector, to, value) */\n      add(0x24, mload(0x40))\n      tag_172\n      swap3\n      swap2\n      swap1\n      tag_93\n      jump\t// in\n    tag_172:\n      mload(0x40)\n      0x20\n      dup2\n      dup4\n      sub\n      sub\n      dup2\n      mstore\n      swap1\n      0x40\n      mstore\n      swap1\n      not(0xffffffffffffffffffffffffffffffffffffffffffffffffffffffff)\n      and\n      0x20\n      dup3\n      add\n      dup1\n      mload\n      0xffffffffffffffffffffffffffffffffffffffffffffffffffffffff\n      dup4\n      dup2\n      dup4\n      and\n      or\n      dup4\n      mstore\n      pop\n      pop\n      pop\n      pop\n        /* \"@chainlink/contracts-ccip/src/v0.8/vendor/openzeppelin-solidity/v4.8.3/contracts/token/ERC20/utils/SafeERC20.sol\":837:856  _callOptionalReturn */\n      tag_173\n        /* \"@chainlink/contracts-ccip/src/v0.8/vendor/openzeppelin-solidity/v4.8.3/contracts/token/ERC20/utils/SafeERC20.sol\":837:923  _callOptionalReturn(token, abi.encodeWithSelector(token.transfer.selector, to, value)) */\n      jump\t// in\n    tag_171:\n        /* \"@chainlink/contracts-ccip/src/v0.8/vendor/openzeppelin-solidity/v4.8.3/contracts/token/ERC20/utils/SafeERC20.sol\":759:928  function safeTransfer(IERC20 token, address to, uint256 value) internal {... */\n      pop\n      pop\n      pop\n      jump\t// out\n        /* \"contracts/blockmagic_hackaton/ccip/TokenTransferor.sol\":4629:5365  function _buildCCIPMessage(... */\n    tag_83:\n        /* \"contracts/blockmagic_hackaton/ccip/TokenTransferor.sol\":4799:4827  Client.EVM2AnyMessage memory */\n      tag_174\n      tag_175\n      jump\t// in\n    tag_174:\n        /* \"contracts/blockmagic_hackaton/ccip/TokenTransferor.sol\":4840:4883  Client.EVMTokenAmount[] memory tokenAmounts */\n      0x00\n        /* \"contracts/blockmagic_hackaton/ccip/TokenTransferor.sol\":4914:4915  1 */\n      0x01\n        /* \"contracts/blockmagic_hackaton/ccip/TokenTransferor.sol\":4886:4916  new Client.EVMTokenAmount[](1) */\n      0xffffffffffffffff\n      dup2\n      gt\n      iszero\n      tag_177\n      jumpi\n      tag_178\n      tag_179\n      jump\t// in\n    tag_178:\n    tag_177:\n      mload(0x40)\n      swap1\n      dup1\n      dup3\n      mstore\n      dup1\n      0x20\n      mul\n      0x20\n      add\n      dup3\n      add\n      0x40\n      mstore\n      dup1\n      iszero\n      tag_180\n      jumpi\n      dup2\n      0x20\n      add\n    tag_181:\n      tag_182\n      tag_183\n      jump\t// in\n    tag_182:\n      dup2\n      mstore\n      0x20\n      add\n      swap1\n      0x01\n      swap1\n      sub\n      swap1\n      dup2\n      tag_181\n      jumpi\n      swap1\n      pop\n    tag_180:\n      pop\n        /* \"contracts/blockmagic_hackaton/ccip/TokenTransferor.sol\":4840:4916  Client.EVMTokenAmount[] memory tokenAmounts = new Client.EVMTokenAmount[](1) */\n      swap1\n      pop\n        /* \"contracts/blockmagic_hackaton/ccip/TokenTransferor.sol\":4945:5037  Client.EVMTokenAmount({... */\n      mload(0x40)\n      dup1\n      0x40\n      add\n      0x40\n      mstore\n      dup1\n        /* \"contracts/blockmagic_hackaton/ccip/TokenTransferor.sol\":4989:4995  _token */\n      dup7\n        /* \"contracts/blockmagic_hackaton/ccip/TokenTransferor.sol\":4945:5037  Client.EVMTokenAmount({... */\n      0xffffffffffffffffffffffffffffffffffffffff\n      and\n      dup2\n      mstore\n      0x20\n      add\n        /* \"contracts/blockmagic_hackaton/ccip/TokenTransferor.sol\":5018:5025  _amount */\n      dup6\n        /* \"contracts/blockmagic_hackaton/ccip/TokenTransferor.sol\":4945:5037  Client.EVMTokenAmount({... */\n      dup2\n      mstore\n      pop\n        /* \"contracts/blockmagic_hackaton/ccip/TokenTransferor.sol\":4927:4939  tokenAmounts */\n      dup2\n        /* \"contracts/blockmagic_hackaton/ccip/TokenTransferor.sol\":4940:4941  0 */\n      0x00\n        /* \"contracts/blockmagic_hackaton/ccip/TokenTransferor.sol\":4927:4942  tokenAmounts[0] */\n      dup2\n      mload\n      dup2\n      lt\n      tag_184\n      jumpi\n      tag_185\n      tag_186\n      jump\t// in\n    tag_185:\n    tag_184:\n      0x20\n      mul\n      0x20\n      add\n      add\n        /* \"contracts/blockmagic_hackaton/ccip/TokenTransferor.sol\":4927:5037  tokenAmounts[0] = Client.EVMTokenAmount({... */\n      dup2\n      swap1\n      mstore\n      pop\n        /* \"contracts/blockmagic_hackaton/ccip/TokenTransferor.sol\":5057:5357  Client.EVM2AnyMessage({... */\n      mload(0x40)\n      dup1\n      0xa0\n      add\n      0x40\n      mstore\n      dup1\n        /* \"contracts/blockmagic_hackaton/ccip/TokenTransferor.sol\":5115:5124  _receiver */\n      dup8\n        /* \"contracts/blockmagic_hackaton/ccip/TokenTransferor.sol\":5104:5125  abi.encode(_receiver) */\n      add(0x20, mload(0x40))\n      tag_187\n      swap2\n      swap1\n      tag_46\n      jump\t// in\n    tag_187:\n      mload(0x40)\n      0x20\n      dup2\n      dup4\n      sub\n      sub\n      dup2\n      mstore\n      swap1\n      0x40\n      mstore\n        /* \"contracts/blockmagic_hackaton/ccip/TokenTransferor.sol\":5057:5357  Client.EVM2AnyMessage({... */\n      dup2\n      mstore\n      0x20\n      add\n      mload(0x40)\n      dup1\n      0x20\n      add\n      0x40\n      mstore\n      dup1\n      0x00\n      dup2\n      mstore\n      pop\n      dup2\n      mstore\n      0x20\n      add\n        /* \"contracts/blockmagic_hackaton/ccip/TokenTransferor.sol\":5177:5189  tokenAmounts */\n      dup3\n        /* \"contracts/blockmagic_hackaton/ccip/TokenTransferor.sol\":5057:5357  Client.EVM2AnyMessage({... */\n      dup2\n      mstore\n      0x20\n      add\n        /* \"contracts/blockmagic_hackaton/ccip/TokenTransferor.sol\":5329:5345  _feeTokenAddress */\n      dup5\n        /* \"contracts/blockmagic_hackaton/ccip/TokenTransferor.sol\":5057:5357  Client.EVM2AnyMessage({... */\n      0xffffffffffffffffffffffffffffffffffffffff\n      and\n      dup2\n      mstore\n      0x20\n      add\n        /* \"contracts/blockmagic_hackaton/ccip/TokenTransferor.sol\":5215:5304  Client._argsToBytes(... */\n      tag_188\n        /* \"contracts/blockmagic_hackaton/ccip/TokenTransferor.sol\":5253:5289  Client.EVMExtraArgsV1({gasLimit: 0}) */\n      mload(0x40)\n      dup1\n      0x20\n      add\n      0x40\n      mstore\n      dup1\n        /* \"contracts/blockmagic_hackaton/ccip/TokenTransferor.sol\":5286:5287  0 */\n      0x00\n        /* \"contracts/blockmagic_hackaton/ccip/TokenTransferor.sol\":5253:5289  Client.EVMExtraArgsV1({gasLimit: 0}) */\n      dup2\n      mstore\n      pop\n        /* \"contracts/blockmagic_hackaton/ccip/TokenTransferor.sol\":5215:5234  Client._argsToBytes */\n      tag_189\n        /* \"contracts/blockmagic_hackaton/ccip/TokenTransferor.sol\":5215:5304  Client._argsToBytes(... */\n      jump\t// in\n    tag_188:\n        /* \"contracts/blockmagic_hackaton/ccip/TokenTransferor.sol\":5057:5357  Client.EVM2AnyMessage({... */\n      dup2\n      mstore\n      pop\n        /* \"contracts/blockmagic_hackaton/ccip/TokenTransferor.sol\":5050:5357  return Client.EVM2AnyMessage({... */\n      swap2\n      pop\n      pop\n        /* \"contracts/blockmagic_hackaton/ccip/TokenTransferor.sol\":4629:5365  function _buildCCIPMessage(... */\n      swap5\n      swap4\n      pop\n      pop\n      pop\n      pop\n      jump\t// out\n        /* \"@chainlink/contracts-ccip/src/v0.8/shared/access/ConfirmedOwnerWithProposal.sol\":1528:1763  function _transferOwnership(address to) private {... */\n    tag_165:\n        /* \"@chainlink/contracts-ccip/src/v0.8/shared/access/ConfirmedOwnerWithProposal.sol\":1643:1653  msg.sender */\n      caller\n        /* \"@chainlink/contracts-ccip/src/v0.8/shared/access/ConfirmedOwnerWithProposal.sol\":1637:1653  to != msg.sender */\n      0xffffffffffffffffffffffffffffffffffffffff\n      and\n        /* \"@chainlink/contracts-ccip/src/v0.8/shared/access/ConfirmedOwnerWithProposal.sol\":1637:1639  to */\n      dup2\n        /* \"@chainlink/contracts-ccip/src/v0.8/shared/access/ConfirmedOwnerWithProposal.sol\":1637:1653  to != msg.sender */\n      0xffffffffffffffffffffffffffffffffffffffff\n      and\n      sub\n        /* \"@chainlink/contracts-ccip/src/v0.8/shared/access/ConfirmedOwnerWithProposal.sol\":1629:1681  require(to != msg.sender, \"Cannot transfer to self\") */\n      tag_191\n      jumpi\n      mload(0x40)\n      0x08c379a000000000000000000000000000000000000000000000000000000000\n      dup2\n      mstore\n      0x04\n      add\n      tag_192\n      swap1\n      tag_193\n      jump\t// in\n    tag_192:\n      mload(0x40)\n      dup1\n      swap2\n      sub\n      swap1\n      revert\n    tag_191:\n        /* \"@chainlink/contracts-ccip/src/v0.8/shared/access/ConfirmedOwnerWithProposal.sol\":1705:1707  to */\n      dup1\n        /* \"@chainlink/contracts-ccip/src/v0.8/shared/access/ConfirmedOwnerWithProposal.sol\":1688:1702  s_pendingOwner */\n      0x01\n      0x00\n        /* \"@chainlink/contracts-ccip/src/v0.8/shared/access/ConfirmedOwnerWithProposal.sol\":1688:1707  s_pendingOwner = to */\n      0x0100\n      exp\n      dup2\n      sload\n      dup2\n      0xffffffffffffffffffffffffffffffffffffffff\n      mul\n      not\n      and\n      swap1\n      dup4\n      0xffffffffffffffffffffffffffffffffffffffff\n      and\n      mul\n      or\n      swap1\n      sstore\n      pop\n        /* \"@chainlink/contracts-ccip/src/v0.8/shared/access/ConfirmedOwnerWithProposal.sol\":1755:1757  to */\n      dup1\n        /* \"@chainlink/contracts-ccip/src/v0.8/shared/access/ConfirmedOwnerWithProposal.sol\":1719:1758  OwnershipTransferRequested(s_owner, to) */\n      0xffffffffffffffffffffffffffffffffffffffff\n      and\n        /* \"@chainlink/contracts-ccip/src/v0.8/shared/access/ConfirmedOwnerWithProposal.sol\":1746:1753  s_owner */\n      0x00\n      dup1\n      sload\n      swap1\n      0x0100\n      exp\n      swap1\n      div\n      0xffffffffffffffffffffffffffffffffffffffff\n      and\n        /* \"@chainlink/contracts-ccip/src/v0.8/shared/access/ConfirmedOwnerWithProposal.sol\":1719:1758  OwnershipTransferRequested(s_owner, to) */\n      0xffffffffffffffffffffffffffffffffffffffff\n      and\n      0xed8889f560326eb138920d842192f0eb3dd22b4f139c87a2c57538e05bae1278\n      mload(0x40)\n      mload(0x40)\n      dup1\n      swap2\n      sub\n      swap1\n      log3\n        /* \"@chainlink/contracts-ccip/src/v0.8/shared/access/ConfirmedOwnerWithProposal.sol\":1528:1763  function _transferOwnership(address to) private {... */\n      pop\n      jump\t// out\n        /* \"@chainlink/contracts-ccip/src/v0.8/vendor/openzeppelin-solidity/v4.8.3/contracts/token/ERC20/utils/SafeERC20.sol\":3401:4069  function _callOptionalReturn(IERC20 token, bytes memory data) private {... */\n    tag_173:\n        /* \"@chainlink/contracts-ccip/src/v0.8/vendor/openzeppelin-solidity/v4.8.3/contracts/token/ERC20/utils/SafeERC20.sol\":3804:3827  bytes memory returndata */\n      0x00\n        /* \"@chainlink/contracts-ccip/src/v0.8/vendor/openzeppelin-solidity/v4.8.3/contracts/token/ERC20/utils/SafeERC20.sol\":3830:3899  address(token).functionCall(data, \"SafeERC20: low-level call failed\") */\n      tag_195\n        /* \"@chainlink/contracts-ccip/src/v0.8/vendor/openzeppelin-solidity/v4.8.3/contracts/token/ERC20/utils/SafeERC20.sol\":3858:3862  data */\n      dup3\n        /* \"@chainlink/contracts-ccip/src/v0.8/vendor/openzeppelin-solidity/v4.8.3/contracts/token/ERC20/utils/SafeERC20.sol\":3830:3899  address(token).functionCall(data, \"SafeERC20: low-level call failed\") */\n      mload(0x40)\n      dup1\n      0x40\n      add\n      0x40\n      mstore\n      dup1\n      0x20\n      dup2\n      mstore\n      0x20\n      add\n      0x5361666545524332303a206c6f772d6c6576656c2063616c6c206661696c6564\n      dup2\n      mstore\n      pop\n        /* \"@chainlink/contracts-ccip/src/v0.8/vendor/openzeppelin-solidity/v4.8.3/contracts/token/ERC20/utils/SafeERC20.sol\":3838:3843  token */\n      dup6\n        /* \"@chainlink/contracts-ccip/src/v0.8/vendor/openzeppelin-solidity/v4.8.3/contracts/token/ERC20/utils/SafeERC20.sol\":3830:3857  address(token).functionCall */\n      0xffffffffffffffffffffffffffffffffffffffff\n      and\n      tag_196\n      swap1\n        /* \"@chainlink/contracts-ccip/src/v0.8/vendor/openzeppelin-solidity/v4.8.3/contracts/token/ERC20/utils/SafeERC20.sol\":3830:3899  address(token).functionCall(data, \"SafeERC20: low-level call failed\") */\n      swap3\n      swap2\n      swap1\n      0xffffffff\n      and\n      jump\t// in\n    tag_195:\n        /* \"@chainlink/contracts-ccip/src/v0.8/vendor/openzeppelin-solidity/v4.8.3/contracts/token/ERC20/utils/SafeERC20.sol\":3804:3899  bytes memory returndata = address(token).functionCall(data, \"SafeERC20: low-level call failed\") */\n      swap1\n      pop\n        /* \"@chainlink/contracts-ccip/src/v0.8/vendor/openzeppelin-solidity/v4.8.3/contracts/token/ERC20/utils/SafeERC20.sol\":3929:3930  0 */\n      0x00\n        /* \"@chainlink/contracts-ccip/src/v0.8/vendor/openzeppelin-solidity/v4.8.3/contracts/token/ERC20/utils/SafeERC20.sol\":3909:3919  returndata */\n      dup2\n        /* \"@chainlink/contracts-ccip/src/v0.8/vendor/openzeppelin-solidity/v4.8.3/contracts/token/ERC20/utils/SafeERC20.sol\":3909:3926  returndata.length */\n      mload\n        /* \"@chainlink/contracts-ccip/src/v0.8/vendor/openzeppelin-solidity/v4.8.3/contracts/token/ERC20/utils/SafeERC20.sol\":3909:3930  returndata.length > 0 */\n      gt\n        /* \"@chainlink/contracts-ccip/src/v0.8/vendor/openzeppelin-solidity/v4.8.3/contracts/token/ERC20/utils/SafeERC20.sol\":3905:4065  if (returndata.length > 0) {... */\n      iszero\n      tag_197\n      jumpi\n        /* \"@chainlink/contracts-ccip/src/v0.8/vendor/openzeppelin-solidity/v4.8.3/contracts/token/ERC20/utils/SafeERC20.sol\":3992:4002  returndata */\n      dup1\n        /* \"@chainlink/contracts-ccip/src/v0.8/vendor/openzeppelin-solidity/v4.8.3/contracts/token/ERC20/utils/SafeERC20.sol\":3981:4011  abi.decode(returndata, (bool)) */\n      dup1\n      0x20\n      add\n      swap1\n      mload\n      dup2\n      add\n      swap1\n      tag_198\n      swap2\n      swap1\n      tag_97\n      jump\t// in\n    tag_198:\n        /* \"@chainlink/contracts-ccip/src/v0.8/vendor/openzeppelin-solidity/v4.8.3/contracts/token/ERC20/utils/SafeERC20.sol\":3973:4058  require(abi.decode(returndata, (bool)), \"SafeERC20: ERC20 operation did not succeed\") */\n      tag_199\n      jumpi\n      mload(0x40)\n      0x08c379a000000000000000000000000000000000000000000000000000000000\n      dup2\n      mstore\n      0x04\n      add\n      tag_200\n      swap1\n      tag_201\n      jump\t// in\n    tag_200:\n      mload(0x40)\n      dup1\n      swap2\n      sub\n      swap1\n      revert\n    tag_199:\n        /* \"@chainlink/contracts-ccip/src/v0.8/vendor/openzeppelin-solidity/v4.8.3/contracts/token/ERC20/utils/SafeERC20.sol\":3905:4065  if (returndata.length > 0) {... */\n    tag_197:\n        /* \"@chainlink/contracts-ccip/src/v0.8/vendor/openzeppelin-solidity/v4.8.3/contracts/token/ERC20/utils/SafeERC20.sol\":3471:4069  {... */\n      pop\n        /* \"@chainlink/contracts-ccip/src/v0.8/vendor/openzeppelin-solidity/v4.8.3/contracts/token/ERC20/utils/SafeERC20.sol\":3401:4069  function _callOptionalReturn(IERC20 token, bytes memory data) private {... */\n      pop\n      pop\n      jump\t// out\n        /* \"@chainlink/contracts-ccip/src/v0.8/ccip/libraries/Client.sol\":1285:1455  function _argsToBytes(EVMExtraArgsV1 memory extraArgs) internal pure returns (bytes memory bts) {... */\n    tag_189:\n        /* \"@chainlink/contracts-ccip/src/v0.8/ccip/libraries/Client.sol\":1363:1379  bytes memory bts */\n      0x60\n        /* \"@chainlink/contracts-ccip/src/v0.8/ccip/libraries/Client.sol\":1218:1228  0x97a657c9 */\n      0x97a657c9\n        /* \"@chainlink/contracts-ccip/src/v0.8/ccip/libraries/Client.sol\":1417:1438  EVM_EXTRA_ARGS_V1_TAG */\n      0xe0\n      shl\n        /* \"@chainlink/contracts-ccip/src/v0.8/ccip/libraries/Client.sol\":1440:1449  extraArgs */\n      dup3\n        /* \"@chainlink/contracts-ccip/src/v0.8/ccip/libraries/Client.sol\":1394:1450  abi.encodeWithSelector(EVM_EXTRA_ARGS_V1_TAG, extraArgs) */\n      add(0x24, mload(0x40))\n      tag_203\n      swap2\n      swap1\n      tag_204\n      jump\t// in\n    tag_203:\n      mload(0x40)\n      0x20\n      dup2\n      dup4\n      sub\n      sub\n      dup2\n      mstore\n      swap1\n      0x40\n      mstore\n      swap1\n      not(0xffffffffffffffffffffffffffffffffffffffffffffffffffffffff)\n      and\n      0x20\n      dup3\n      add\n      dup1\n      mload\n      0xffffffffffffffffffffffffffffffffffffffffffffffffffffffff\n      dup4\n      dup2\n      dup4\n      and\n      or\n      dup4\n      mstore\n      pop\n      pop\n      pop\n      pop\n        /* \"@chainlink/contracts-ccip/src/v0.8/ccip/libraries/Client.sol\":1387:1450  return abi.encodeWithSelector(EVM_EXTRA_ARGS_V1_TAG, extraArgs) */\n      swap1\n      pop\n        /* \"@chainlink/contracts-ccip/src/v0.8/ccip/libraries/Client.sol\":1285:1455  function _argsToBytes(EVMExtraArgsV1 memory extraArgs) internal pure returns (bytes memory bts) {... */\n      swap2\n      swap1\n      pop\n      jump\t// out\n        /* \"@chainlink/contracts-ccip/src/v0.8/vendor/openzeppelin-solidity/v4.8.3/contracts/utils/Address.sol\":3695:3882  function functionCall(address target, bytes memory data, string memory errorMessage) internal returns (bytes memory) {... */\n    tag_196:\n        /* \"@chainlink/contracts-ccip/src/v0.8/vendor/openzeppelin-solidity/v4.8.3/contracts/utils/Address.sol\":3798:3810  bytes memory */\n      0x60\n        /* \"@chainlink/contracts-ccip/src/v0.8/vendor/openzeppelin-solidity/v4.8.3/contracts/utils/Address.sol\":3825:3877  functionCallWithValue(target, data, 0, errorMessage) */\n      tag_206\n        /* \"@chainlink/contracts-ccip/src/v0.8/vendor/openzeppelin-solidity/v4.8.3/contracts/utils/Address.sol\":3847:3853  target */\n      dup5\n        /* \"@chainlink/contracts-ccip/src/v0.8/vendor/openzeppelin-solidity/v4.8.3/contracts/utils/Address.sol\":3855:3859  data */\n      dup5\n        /* \"@chainlink/contracts-ccip/src/v0.8/vendor/openzeppelin-solidity/v4.8.3/contracts/utils/Address.sol\":3861:3862  0 */\n      0x00\n        /* \"@chainlink/contracts-ccip/src/v0.8/vendor/openzeppelin-solidity/v4.8.3/contracts/utils/Address.sol\":3864:3876  errorMessage */\n      dup6\n        /* \"@chainlink/contracts-ccip/src/v0.8/vendor/openzeppelin-solidity/v4.8.3/contracts/utils/Address.sol\":3825:3846  functionCallWithValue */\n      tag_207\n        /* \"@chainlink/contracts-ccip/src/v0.8/vendor/openzeppelin-solidity/v4.8.3/contracts/utils/Address.sol\":3825:3877  functionCallWithValue(target, data, 0, errorMessage) */\n      jump\t// in\n    tag_206:\n        /* \"@chainlink/contracts-ccip/src/v0.8/vendor/openzeppelin-solidity/v4.8.3/contracts/utils/Address.sol\":3818:3877  return functionCallWithValue(target, data, 0, errorMessage) */\n      swap1\n      pop\n        /* \"@chainlink/contracts-ccip/src/v0.8/vendor/openzeppelin-solidity/v4.8.3/contracts/utils/Address.sol\":3695:3882  function functionCall(address target, bytes memory data, string memory errorMessage) internal returns (bytes memory) {... */\n      swap4\n      swap3\n      pop\n      pop\n      pop\n      jump\t// out\n        /* \"@chainlink/contracts-ccip/src/v0.8/vendor/openzeppelin-solidity/v4.8.3/contracts/utils/Address.sol\":4672:5086  function functionCallWithValue(... */\n    tag_207:\n        /* \"@chainlink/contracts-ccip/src/v0.8/vendor/openzeppelin-solidity/v4.8.3/contracts/utils/Address.sol\":4819:4831  bytes memory */\n      0x60\n        /* \"@chainlink/contracts-ccip/src/v0.8/vendor/openzeppelin-solidity/v4.8.3/contracts/utils/Address.sol\":4872:4877  value */\n      dup3\n        /* \"@chainlink/contracts-ccip/src/v0.8/vendor/openzeppelin-solidity/v4.8.3/contracts/utils/Address.sol\":4847:4868  address(this).balance */\n      selfbalance\n        /* \"@chainlink/contracts-ccip/src/v0.8/vendor/openzeppelin-solidity/v4.8.3/contracts/utils/Address.sol\":4847:4877  address(this).balance >= value */\n      lt\n      iszero\n        /* \"@chainlink/contracts-ccip/src/v0.8/vendor/openzeppelin-solidity/v4.8.3/contracts/utils/Address.sol\":4839:4920  require(address(this).balance >= value, \"Address: insufficient balance for call\") */\n      tag_209\n      jumpi\n      mload(0x40)\n      0x08c379a000000000000000000000000000000000000000000000000000000000\n      dup2\n      mstore\n      0x04\n      add\n      tag_210\n      swap1\n      tag_211\n      jump\t// in\n    tag_210:\n      mload(0x40)\n      dup1\n      swap2\n      sub\n      swap1\n      revert\n    tag_209:\n        /* \"@chainlink/contracts-ccip/src/v0.8/vendor/openzeppelin-solidity/v4.8.3/contracts/utils/Address.sol\":4927:4939  bool success */\n      0x00\n        /* \"@chainlink/contracts-ccip/src/v0.8/vendor/openzeppelin-solidity/v4.8.3/contracts/utils/Address.sol\":4941:4964  bytes memory returndata */\n      dup1\n        /* \"@chainlink/contracts-ccip/src/v0.8/vendor/openzeppelin-solidity/v4.8.3/contracts/utils/Address.sol\":4968:4974  target */\n      dup7\n        /* \"@chainlink/contracts-ccip/src/v0.8/vendor/openzeppelin-solidity/v4.8.3/contracts/utils/Address.sol\":4968:4979  target.call */\n      0xffffffffffffffffffffffffffffffffffffffff\n      and\n        /* \"@chainlink/contracts-ccip/src/v0.8/vendor/openzeppelin-solidity/v4.8.3/contracts/utils/Address.sol\":4987:4992  value */\n      dup6\n        /* \"@chainlink/contracts-ccip/src/v0.8/vendor/openzeppelin-solidity/v4.8.3/contracts/utils/Address.sol\":4994:4998  data */\n      dup8\n        /* \"@chainlink/contracts-ccip/src/v0.8/vendor/openzeppelin-solidity/v4.8.3/contracts/utils/Address.sol\":4968:4999  target.call{value: value}(data) */\n      mload(0x40)\n      tag_212\n      swap2\n      swap1\n      tag_213\n      jump\t// in\n    tag_212:\n      0x00\n      mload(0x40)\n      dup1\n      dup4\n      sub\n      dup2\n      dup6\n      dup8\n      gas\n      call\n      swap3\n      pop\n      pop\n      pop\n      returndatasize\n      dup1\n      0x00\n      dup2\n      eq\n      tag_216\n      jumpi\n      mload(0x40)\n      swap2\n      pop\n      and(add(returndatasize, 0x3f), not(0x1f))\n      dup3\n      add\n      0x40\n      mstore\n      returndatasize\n      dup3\n      mstore\n      returndatasize\n      0x00\n      0x20\n      dup5\n      add\n      returndatacopy\n      jump(tag_215)\n    tag_216:\n      0x60\n      swap2\n      pop\n    tag_215:\n      pop\n        /* \"@chainlink/contracts-ccip/src/v0.8/vendor/openzeppelin-solidity/v4.8.3/contracts/utils/Address.sol\":4926:4999  (bool success, bytes memory returndata) = target.call{value: value}(data) */\n      swap2\n      pop\n      swap2\n      pop\n        /* \"@chainlink/contracts-ccip/src/v0.8/vendor/openzeppelin-solidity/v4.8.3/contracts/utils/Address.sol\":5012:5081  verifyCallResultFromTarget(target, success, returndata, errorMessage) */\n      tag_217\n        /* \"@chainlink/contracts-ccip/src/v0.8/vendor/openzeppelin-solidity/v4.8.3/contracts/utils/Address.sol\":5039:5045  target */\n      dup8\n        /* \"@chainlink/contracts-ccip/src/v0.8/vendor/openzeppelin-solidity/v4.8.3/contracts/utils/Address.sol\":5047:5054  success */\n      dup4\n        /* \"@chainlink/contracts-ccip/src/v0.8/vendor/openzeppelin-solidity/v4.8.3/contracts/utils/Address.sol\":5056:5066  returndata */\n      dup4\n        /* \"@chainlink/contracts-ccip/src/v0.8/vendor/openzeppelin-solidity/v4.8.3/contracts/utils/Address.sol\":5068:5080  errorMessage */\n      dup8\n        /* \"@chainlink/contracts-ccip/src/v0.8/vendor/openzeppelin-solidity/v4.8.3/contracts/utils/Address.sol\":5012:5038  verifyCallResultFromTarget */\n      tag_218\n        /* \"@chainlink/contracts-ccip/src/v0.8/vendor/openzeppelin-solidity/v4.8.3/contracts/utils/Address.sol\":5012:5081  verifyCallResultFromTarget(target, success, returndata, errorMessage) */\n      jump\t// in\n    tag_217:\n        /* \"@chainlink/contracts-ccip/src/v0.8/vendor/openzeppelin-solidity/v4.8.3/contracts/utils/Address.sol\":5005:5081  return verifyCallResultFromTarget(target, success, returndata, errorMessage) */\n      swap3\n      pop\n      pop\n      pop\n        /* \"@chainlink/contracts-ccip/src/v0.8/vendor/openzeppelin-solidity/v4.8.3/contracts/utils/Address.sol\":4672:5086  function functionCallWithValue(... */\n      swap5\n      swap4\n      pop\n      pop\n      pop\n      pop\n      jump\t// out\n        /* \"@chainlink/contracts-ccip/src/v0.8/vendor/openzeppelin-solidity/v4.8.3/contracts/utils/Address.sol\":7016:7564  function verifyCallResultFromTarget(... */\n    tag_218:\n        /* \"@chainlink/contracts-ccip/src/v0.8/vendor/openzeppelin-solidity/v4.8.3/contracts/utils/Address.sol\":7178:7190  bytes memory */\n      0x60\n        /* \"@chainlink/contracts-ccip/src/v0.8/vendor/openzeppelin-solidity/v4.8.3/contracts/utils/Address.sol\":7202:7209  success */\n      dup4\n        /* \"@chainlink/contracts-ccip/src/v0.8/vendor/openzeppelin-solidity/v4.8.3/contracts/utils/Address.sol\":7198:7560  if (success) {... */\n      iszero\n      tag_220\n      jumpi\n        /* \"@chainlink/contracts-ccip/src/v0.8/vendor/openzeppelin-solidity/v4.8.3/contracts/utils/Address.sol\":7244:7245  0 */\n      0x00\n        /* \"@chainlink/contracts-ccip/src/v0.8/vendor/openzeppelin-solidity/v4.8.3/contracts/utils/Address.sol\":7223:7233  returndata */\n      dup4\n        /* \"@chainlink/contracts-ccip/src/v0.8/vendor/openzeppelin-solidity/v4.8.3/contracts/utils/Address.sol\":7223:7240  returndata.length */\n      mload\n        /* \"@chainlink/contracts-ccip/src/v0.8/vendor/openzeppelin-solidity/v4.8.3/contracts/utils/Address.sol\":7223:7245  returndata.length == 0 */\n      sub\n        /* \"@chainlink/contracts-ccip/src/v0.8/vendor/openzeppelin-solidity/v4.8.3/contracts/utils/Address.sol\":7219:7475  if (returndata.length == 0) {... */\n      tag_221\n      jumpi\n        /* \"@chainlink/contracts-ccip/src/v0.8/vendor/openzeppelin-solidity/v4.8.3/contracts/utils/Address.sol\":7414:7432  isContract(target) */\n      tag_222\n        /* \"@chainlink/contracts-ccip/src/v0.8/vendor/openzeppelin-solidity/v4.8.3/contracts/utils/Address.sol\":7425:7431  target */\n      dup6\n        /* \"@chainlink/contracts-ccip/src/v0.8/vendor/openzeppelin-solidity/v4.8.3/contracts/utils/Address.sol\":7414:7424  isContract */\n      tag_223\n        /* \"@chainlink/contracts-ccip/src/v0.8/vendor/openzeppelin-solidity/v4.8.3/contracts/utils/Address.sol\":7414:7432  isContract(target) */\n      jump\t// in\n    tag_222:\n        /* \"@chainlink/contracts-ccip/src/v0.8/vendor/openzeppelin-solidity/v4.8.3/contracts/utils/Address.sol\":7406:7466  require(isContract(target), \"Address: call to non-contract\") */\n      tag_224\n      jumpi\n      mload(0x40)\n      0x08c379a000000000000000000000000000000000000000000000000000000000\n      dup2\n      mstore\n      0x04\n      add\n      tag_225\n      swap1\n      tag_226\n      jump\t// in\n    tag_225:\n      mload(0x40)\n      dup1\n      swap2\n      sub\n      swap1\n      revert\n    tag_224:\n        /* \"@chainlink/contracts-ccip/src/v0.8/vendor/openzeppelin-solidity/v4.8.3/contracts/utils/Address.sol\":7219:7475  if (returndata.length == 0) {... */\n    tag_221:\n        /* \"@chainlink/contracts-ccip/src/v0.8/vendor/openzeppelin-solidity/v4.8.3/contracts/utils/Address.sol\":7489:7499  returndata */\n      dup3\n        /* \"@chainlink/contracts-ccip/src/v0.8/vendor/openzeppelin-solidity/v4.8.3/contracts/utils/Address.sol\":7482:7499  return returndata */\n      swap1\n      pop\n      jump(tag_219)\n        /* \"@chainlink/contracts-ccip/src/v0.8/vendor/openzeppelin-solidity/v4.8.3/contracts/utils/Address.sol\":7198:7560  if (success) {... */\n    tag_220:\n        /* \"@chainlink/contracts-ccip/src/v0.8/vendor/openzeppelin-solidity/v4.8.3/contracts/utils/Address.sol\":7520:7553  _revert(returndata, errorMessage) */\n      tag_228\n        /* \"@chainlink/contracts-ccip/src/v0.8/vendor/openzeppelin-solidity/v4.8.3/contracts/utils/Address.sol\":7528:7538  returndata */\n      dup4\n        /* \"@chainlink/contracts-ccip/src/v0.8/vendor/openzeppelin-solidity/v4.8.3/contracts/utils/Address.sol\":7540:7552  errorMessage */\n      dup4\n        /* \"@chainlink/contracts-ccip/src/v0.8/vendor/openzeppelin-solidity/v4.8.3/contracts/utils/Address.sol\":7520:7527  _revert */\n      tag_229\n        /* \"@chainlink/contracts-ccip/src/v0.8/vendor/openzeppelin-solidity/v4.8.3/contracts/utils/Address.sol\":7520:7553  _revert(returndata, errorMessage) */\n      jump\t// in\n    tag_228:\n        /* \"@chainlink/contracts-ccip/src/v0.8/vendor/openzeppelin-solidity/v4.8.3/contracts/utils/Address.sol\":7016:7564  function verifyCallResultFromTarget(... */\n    tag_219:\n      swap5\n      swap4\n      pop\n      pop\n      pop\n      pop\n      jump\t// out\n        /* \"@chainlink/contracts-ccip/src/v0.8/vendor/openzeppelin-solidity/v4.8.3/contracts/utils/Address.sol\":1121:1423  function isContract(address account) internal view returns (bool) {... */\n    tag_223:\n        /* \"@chainlink/contracts-ccip/src/v0.8/vendor/openzeppelin-solidity/v4.8.3/contracts/utils/Address.sol\":1181:1185  bool */\n      0x00\n        /* \"@chainlink/contracts-ccip/src/v0.8/vendor/openzeppelin-solidity/v4.8.3/contracts/utils/Address.sol\":1417:1418  0 */\n      dup1\n        /* \"@chainlink/contracts-ccip/src/v0.8/vendor/openzeppelin-solidity/v4.8.3/contracts/utils/Address.sol\":1395:1402  account */\n      dup3\n        /* \"@chainlink/contracts-ccip/src/v0.8/vendor/openzeppelin-solidity/v4.8.3/contracts/utils/Address.sol\":1395:1414  account.code.length */\n      0xffffffffffffffffffffffffffffffffffffffff\n      and\n      extcodesize\n        /* \"@chainlink/contracts-ccip/src/v0.8/vendor/openzeppelin-solidity/v4.8.3/contracts/utils/Address.sol\":1395:1418  account.code.length > 0 */\n      gt\n        /* \"@chainlink/contracts-ccip/src/v0.8/vendor/openzeppelin-solidity/v4.8.3/contracts/utils/Address.sol\":1388:1418  return account.code.length > 0 */\n      swap1\n      pop\n        /* \"@chainlink/contracts-ccip/src/v0.8/vendor/openzeppelin-solidity/v4.8.3/contracts/utils/Address.sol\":1121:1423  function isContract(address account) internal view returns (bool) {... */\n      swap2\n      swap1\n      pop\n      jump\t// out\n        /* \"@chainlink/contracts-ccip/src/v0.8/vendor/openzeppelin-solidity/v4.8.3/contracts/utils/Address.sol\":8030:8506  function _revert(bytes memory returndata, string memory errorMessage) private pure {... */\n    tag_229:\n        /* \"@chainlink/contracts-ccip/src/v0.8/vendor/openzeppelin-solidity/v4.8.3/contracts/utils/Address.sol\":8201:8202  0 */\n      0x00\n        /* \"@chainlink/contracts-ccip/src/v0.8/vendor/openzeppelin-solidity/v4.8.3/contracts/utils/Address.sol\":8181:8191  returndata */\n      dup3\n        /* \"@chainlink/contracts-ccip/src/v0.8/vendor/openzeppelin-solidity/v4.8.3/contracts/utils/Address.sol\":8181:8198  returndata.length */\n      mload\n        /* \"@chainlink/contracts-ccip/src/v0.8/vendor/openzeppelin-solidity/v4.8.3/contracts/utils/Address.sol\":8181:8202  returndata.length > 0 */\n      gt\n        /* \"@chainlink/contracts-ccip/src/v0.8/vendor/openzeppelin-solidity/v4.8.3/contracts/utils/Address.sol\":8177:8502  if (returndata.length > 0) {... */\n      iszero\n      tag_232\n      jumpi\n        /* \"@chainlink/contracts-ccip/src/v0.8/vendor/openzeppelin-solidity/v4.8.3/contracts/utils/Address.sol\":8383:8393  returndata */\n      dup2\n        /* \"@chainlink/contracts-ccip/src/v0.8/vendor/openzeppelin-solidity/v4.8.3/contracts/utils/Address.sol\":8377:8394  mload(returndata) */\n      mload\n        /* \"@chainlink/contracts-ccip/src/v0.8/vendor/openzeppelin-solidity/v4.8.3/contracts/utils/Address.sol\":8431:8446  returndata_size */\n      dup1\n        /* \"@chainlink/contracts-ccip/src/v0.8/vendor/openzeppelin-solidity/v4.8.3/contracts/utils/Address.sol\":8418:8428  returndata */\n      dup4\n        /* \"@chainlink/contracts-ccip/src/v0.8/vendor/openzeppelin-solidity/v4.8.3/contracts/utils/Address.sol\":8414:8416  32 */\n      0x20\n        /* \"@chainlink/contracts-ccip/src/v0.8/vendor/openzeppelin-solidity/v4.8.3/contracts/utils/Address.sol\":8410:8429  add(32, returndata) */\n      add\n        /* \"@chainlink/contracts-ccip/src/v0.8/vendor/openzeppelin-solidity/v4.8.3/contracts/utils/Address.sol\":8403:8447  revert(add(32, returndata), returndata_size) */\n      revert\n        /* \"@chainlink/contracts-ccip/src/v0.8/vendor/openzeppelin-solidity/v4.8.3/contracts/utils/Address.sol\":8177:8502  if (returndata.length > 0) {... */\n    tag_232:\n        /* \"@chainlink/contracts-ccip/src/v0.8/vendor/openzeppelin-solidity/v4.8.3/contracts/utils/Address.sol\":8482:8494  errorMessage */\n      dup1\n        /* \"@chainlink/contracts-ccip/src/v0.8/vendor/openzeppelin-solidity/v4.8.3/contracts/utils/Address.sol\":8475:8495  revert(errorMessage) */\n      mload(0x40)\n      0x08c379a000000000000000000000000000000000000000000000000000000000\n      dup2\n      mstore\n      0x04\n      add\n      tag_234\n      swap2\n      swap1\n      tag_235\n      jump\t// in\n    tag_234:\n      mload(0x40)\n      dup1\n      swap2\n      sub\n      swap1\n      revert\n    tag_175:\n      mload(0x40)\n      dup1\n      0xa0\n      add\n      0x40\n      mstore\n      dup1\n      0x60\n      dup2\n      mstore\n      0x20\n      add\n      0x60\n      dup2\n      mstore\n      0x20\n      add\n      0x60\n      dup2\n      mstore\n      0x20\n      add\n      and(0xffffffffffffffffffffffffffffffffffffffff, 0x00)\n      dup2\n      mstore\n      0x20\n      add\n      0x60\n      dup2\n      mstore\n      pop\n      swap1\n      jump\t// out\n    tag_183:\n      mload(0x40)\n      dup1\n      0x40\n      add\n      0x40\n      mstore\n      dup1\n      and(0xffffffffffffffffffffffffffffffffffffffff, 0x00)\n      dup2\n      mstore\n      0x20\n      add\n      0x00\n      dup2\n      mstore\n      pop\n      swap1\n      jump\t// out\n        /* \"#utility.yul\":88:205   */\n    tag_237:\n        /* \"#utility.yul\":197:198   */\n      0x00\n        /* \"#utility.yul\":194:195   */\n      dup1\n        /* \"#utility.yul\":187:199   */\n      revert\n        /* \"#utility.yul\":334:435   */\n    tag_239:\n        /* \"#utility.yul\":370:377   */\n      0x00\n        /* \"#utility.yul\":410:428   */\n      0xffffffffffffffff\n        /* \"#utility.yul\":403:408   */\n      dup3\n        /* \"#utility.yul\":399:429   */\n      and\n        /* \"#utility.yul\":388:429   */\n      swap1\n      pop\n        /* \"#utility.yul\":334:435   */\n      swap2\n      swap1\n      pop\n      jump\t// out\n        /* \"#utility.yul\":441:561   */\n    tag_240:\n        /* \"#utility.yul\":513:536   */\n      tag_303\n        /* \"#utility.yul\":530:535   */\n      dup2\n        /* \"#utility.yul\":513:536   */\n      tag_239\n      jump\t// in\n    tag_303:\n        /* \"#utility.yul\":506:511   */\n      dup2\n        /* \"#utility.yul\":503:537   */\n      eq\n        /* \"#utility.yul\":493:555   */\n      tag_304\n      jumpi\n        /* \"#utility.yul\":551:552   */\n      0x00\n        /* \"#utility.yul\":548:549   */\n      dup1\n        /* \"#utility.yul\":541:553   */\n      revert\n        /* \"#utility.yul\":493:555   */\n    tag_304:\n        /* \"#utility.yul\":441:561   */\n      pop\n      jump\t// out\n        /* \"#utility.yul\":567:704   */\n    tag_241:\n        /* \"#utility.yul\":612:617   */\n      0x00\n        /* \"#utility.yul\":650:656   */\n      dup2\n        /* \"#utility.yul\":637:657   */\n      calldataload\n        /* \"#utility.yul\":628:657   */\n      swap1\n      pop\n        /* \"#utility.yul\":666:698   */\n      tag_306\n        /* \"#utility.yul\":692:697   */\n      dup2\n        /* \"#utility.yul\":666:698   */\n      tag_240\n      jump\t// in\n    tag_306:\n        /* \"#utility.yul\":567:704   */\n      swap3\n      swap2\n      pop\n      pop\n      jump\t// out\n        /* \"#utility.yul\":710:1037   */\n    tag_18:\n        /* \"#utility.yul\":768:774   */\n      0x00\n        /* \"#utility.yul\":817:819   */\n      0x20\n        /* \"#utility.yul\":805:814   */\n      dup3\n        /* \"#utility.yul\":796:803   */\n      dup5\n        /* \"#utility.yul\":792:815   */\n      sub\n        /* \"#utility.yul\":788:820   */\n      slt\n        /* \"#utility.yul\":785:904   */\n      iszero\n      tag_308\n      jumpi\n        /* \"#utility.yul\":823:902   */\n      tag_309\n      tag_237\n      jump\t// in\n    tag_309:\n        /* \"#utility.yul\":785:904   */\n    tag_308:\n        /* \"#utility.yul\":943:944   */\n      0x00\n        /* \"#utility.yul\":968:1020   */\n      tag_310\n        /* \"#utility.yul\":1012:1019   */\n      dup5\n        /* \"#utility.yul\":1003:1009   */\n      dup3\n        /* \"#utility.yul\":992:1001   */\n      dup6\n        /* \"#utility.yul\":988:1010   */\n      add\n        /* \"#utility.yul\":968:1020   */\n      tag_241\n      jump\t// in\n    tag_310:\n        /* \"#utility.yul\":958:1020   */\n      swap2\n      pop\n        /* \"#utility.yul\":914:1030   */\n      pop\n        /* \"#utility.yul\":710:1037   */\n      swap3\n      swap2\n      pop\n      pop\n      jump\t// out\n        /* \"#utility.yul\":1043:1133   */\n    tag_242:\n        /* \"#utility.yul\":1077:1084   */\n      0x00\n        /* \"#utility.yul\":1120:1125   */\n      dup2\n        /* \"#utility.yul\":1113:1126   */\n      iszero\n        /* \"#utility.yul\":1106:1127   */\n      iszero\n        /* \"#utility.yul\":1095:1127   */\n      swap1\n      pop\n        /* \"#utility.yul\":1043:1133   */\n      swap2\n      swap1\n      pop\n      jump\t// out\n        /* \"#utility.yul\":1139:1248   */\n    tag_243:\n        /* \"#utility.yul\":1220:1241   */\n      tag_313\n        /* \"#utility.yul\":1235:1240   */\n      dup2\n        /* \"#utility.yul\":1220:1241   */\n      tag_242\n      jump\t// in\n    tag_313:\n        /* \"#utility.yul\":1215:1218   */\n      dup3\n        /* \"#utility.yul\":1208:1242   */\n      mstore\n        /* \"#utility.yul\":1139:1248   */\n      pop\n      pop\n      jump\t// out\n        /* \"#utility.yul\":1254:1464   */\n    tag_21:\n        /* \"#utility.yul\":1341:1345   */\n      0x00\n        /* \"#utility.yul\":1379:1381   */\n      0x20\n        /* \"#utility.yul\":1368:1377   */\n      dup3\n        /* \"#utility.yul\":1364:1382   */\n      add\n        /* \"#utility.yul\":1356:1382   */\n      swap1\n      pop\n        /* \"#utility.yul\":1392:1457   */\n      tag_315\n        /* \"#utility.yul\":1454:1455   */\n      0x00\n        /* \"#utility.yul\":1443:1452   */\n      dup4\n        /* \"#utility.yul\":1439:1456   */\n      add\n        /* \"#utility.yul\":1430:1436   */\n      dup5\n        /* \"#utility.yul\":1392:1457   */\n      tag_243\n      jump\t// in\n    tag_315:\n        /* \"#utility.yul\":1254:1464   */\n      swap3\n      swap2\n      pop\n      pop\n      jump\t// out\n        /* \"#utility.yul\":1470:1596   */\n    tag_244:\n        /* \"#utility.yul\":1507:1514   */\n      0x00\n        /* \"#utility.yul\":1547:1589   */\n      0xffffffffffffffffffffffffffffffffffffffff\n        /* \"#utility.yul\":1540:1545   */\n      dup3\n        /* \"#utility.yul\":1536:1590   */\n      and\n        /* \"#utility.yul\":1525:1590   */\n      swap1\n      pop\n        /* \"#utility.yul\":1470:1596   */\n      swap2\n      swap1\n      pop\n      jump\t// out\n        /* \"#utility.yul\":1602:1698   */\n    tag_245:\n        /* \"#utility.yul\":1639:1646   */\n      0x00\n        /* \"#utility.yul\":1668:1692   */\n      tag_318\n        /* \"#utility.yul\":1686:1691   */\n      dup3\n        /* \"#utility.yul\":1668:1692   */\n      tag_244\n      jump\t// in\n    tag_318:\n        /* \"#utility.yul\":1657:1692   */\n      swap1\n      pop\n        /* \"#utility.yul\":1602:1698   */\n      swap2\n      swap1\n      pop\n      jump\t// out\n        /* \"#utility.yul\":1704:1826   */\n    tag_246:\n        /* \"#utility.yul\":1777:1801   */\n      tag_320\n        /* \"#utility.yul\":1795:1800   */\n      dup2\n        /* \"#utility.yul\":1777:1801   */\n      tag_245\n      jump\t// in\n    tag_320:\n        /* \"#utility.yul\":1770:1775   */\n      dup2\n        /* \"#utility.yul\":1767:1802   */\n      eq\n        /* \"#utility.yul\":1757:1820   */\n      tag_321\n      jumpi\n        /* \"#utility.yul\":1816:1817   */\n      0x00\n        /* \"#utility.yul\":1813:1814   */\n      dup1\n        /* \"#utility.yul\":1806:1818   */\n      revert\n        /* \"#utility.yul\":1757:1820   */\n    tag_321:\n        /* \"#utility.yul\":1704:1826   */\n      pop\n      jump\t// out\n        /* \"#utility.yul\":1832:1971   */\n    tag_247:\n        /* \"#utility.yul\":1878:1883   */\n      0x00\n        /* \"#utility.yul\":1916:1922   */\n      dup2\n        /* \"#utility.yul\":1903:1923   */\n      calldataload\n        /* \"#utility.yul\":1894:1923   */\n      swap1\n      pop\n        /* \"#utility.yul\":1932:1965   */\n      tag_323\n        /* \"#utility.yul\":1959:1964   */\n      dup2\n        /* \"#utility.yul\":1932:1965   */\n      tag_246\n      jump\t// in\n    tag_323:\n        /* \"#utility.yul\":1832:1971   */\n      swap3\n      swap2\n      pop\n      pop\n      jump\t// out\n        /* \"#utility.yul\":1977:2451   */\n    tag_25:\n        /* \"#utility.yul\":2045:2051   */\n      0x00\n        /* \"#utility.yul\":2053:2059   */\n      dup1\n        /* \"#utility.yul\":2102:2104   */\n      0x40\n        /* \"#utility.yul\":2090:2099   */\n      dup4\n        /* \"#utility.yul\":2081:2088   */\n      dup6\n        /* \"#utility.yul\":2077:2100   */\n      sub\n        /* \"#utility.yul\":2073:2105   */\n      slt\n        /* \"#utility.yul\":2070:2189   */\n      iszero\n      tag_325\n      jumpi\n        /* \"#utility.yul\":2108:2187   */\n      tag_326\n      tag_237\n      jump\t// in\n    tag_326:\n        /* \"#utility.yul\":2070:2189   */\n    tag_325:\n        /* \"#utility.yul\":2228:2229   */\n      0x00\n        /* \"#utility.yul\":2253:2306   */\n      tag_327\n        /* \"#utility.yul\":2298:2305   */\n      dup6\n        /* \"#utility.yul\":2289:2295   */\n      dup3\n        /* \"#utility.yul\":2278:2287   */\n      dup7\n        /* \"#utility.yul\":2274:2296   */\n      add\n        /* \"#utility.yul\":2253:2306   */\n      tag_247\n      jump\t// in\n    tag_327:\n        /* \"#utility.yul\":2243:2306   */\n      swap3\n      pop\n        /* \"#utility.yul\":2199:2316   */\n      pop\n        /* \"#utility.yul\":2355:2357   */\n      0x20\n        /* \"#utility.yul\":2381:2434   */\n      tag_328\n        /* \"#utility.yul\":2426:2433   */\n      dup6\n        /* \"#utility.yul\":2417:2423   */\n      dup3\n        /* \"#utility.yul\":2406:2415   */\n      dup7\n        /* \"#utility.yul\":2402:2424   */\n      add\n        /* \"#utility.yul\":2381:2434   */\n      tag_247\n      jump\t// in\n    tag_328:\n        /* \"#utility.yul\":2371:2434   */\n      swap2\n      pop\n        /* \"#utility.yul\":2326:2444   */\n      pop\n        /* \"#utility.yul\":1977:2451   */\n      swap3\n      pop\n      swap3\n      swap1\n      pop\n      jump\t// out\n        /* \"#utility.yul\":2457:2534   */\n    tag_248:\n        /* \"#utility.yul\":2494:2501   */\n      0x00\n        /* \"#utility.yul\":2523:2528   */\n      dup2\n        /* \"#utility.yul\":2512:2528   */\n      swap1\n      pop\n        /* \"#utility.yul\":2457:2534   */\n      swap2\n      swap1\n      pop\n      jump\t// out\n        /* \"#utility.yul\":2540:2662   */\n    tag_249:\n        /* \"#utility.yul\":2613:2637   */\n      tag_331\n        /* \"#utility.yul\":2631:2636   */\n      dup2\n        /* \"#utility.yul\":2613:2637   */\n      tag_248\n      jump\t// in\n    tag_331:\n        /* \"#utility.yul\":2606:2611   */\n      dup2\n        /* \"#utility.yul\":2603:2638   */\n      eq\n        /* \"#utility.yul\":2593:2656   */\n      tag_332\n      jumpi\n        /* \"#utility.yul\":2652:2653   */\n      0x00\n        /* \"#utility.yul\":2649:2650   */\n      dup1\n        /* \"#utility.yul\":2642:2654   */\n      revert\n        /* \"#utility.yul\":2593:2656   */\n    tag_332:\n        /* \"#utility.yul\":2540:2662   */\n      pop\n      jump\t// out\n        /* \"#utility.yul\":2668:2807   */\n    tag_250:\n        /* \"#utility.yul\":2714:2719   */\n      0x00\n        /* \"#utility.yul\":2752:2758   */\n      dup2\n        /* \"#utility.yul\":2739:2759   */\n      calldataload\n        /* \"#utility.yul\":2730:2759   */\n      swap1\n      pop\n        /* \"#utility.yul\":2768:2801   */\n      tag_334\n        /* \"#utility.yul\":2795:2800   */\n      dup2\n        /* \"#utility.yul\":2768:2801   */\n      tag_249\n      jump\t// in\n    tag_334:\n        /* \"#utility.yul\":2668:2807   */\n      swap3\n      swap2\n      pop\n      pop\n      jump\t// out\n        /* \"#utility.yul\":2813:3576   */\n    tag_30:\n        /* \"#utility.yul\":2898:2904   */\n      0x00\n        /* \"#utility.yul\":2906:2912   */\n      dup1\n        /* \"#utility.yul\":2914:2920   */\n      0x00\n        /* \"#utility.yul\":2922:2928   */\n      dup1\n        /* \"#utility.yul\":2971:2974   */\n      0x80\n        /* \"#utility.yul\":2959:2968   */\n      dup6\n        /* \"#utility.yul\":2950:2957   */\n      dup8\n        /* \"#utility.yul\":2946:2969   */\n      sub\n        /* \"#utility.yul\":2942:2975   */\n      slt\n        /* \"#utility.yul\":2939:3059   */\n      iszero\n      tag_336\n      jumpi\n        /* \"#utility.yul\":2978:3057   */\n      tag_337\n      tag_237\n      jump\t// in\n    tag_337:\n        /* \"#utility.yul\":2939:3059   */\n    tag_336:\n        /* \"#utility.yul\":3098:3099   */\n      0x00\n        /* \"#utility.yul\":3123:3175   */\n      tag_338\n        /* \"#utility.yul\":3167:3174   */\n      dup8\n        /* \"#utility.yul\":3158:3164   */\n      dup3\n        /* \"#utility.yul\":3147:3156   */\n      dup9\n        /* \"#utility.yul\":3143:3165   */\n      add\n        /* \"#utility.yul\":3123:3175   */\n      tag_241\n      jump\t// in\n    tag_338:\n        /* \"#utility.yul\":3113:3175   */\n      swap5\n      pop\n        /* \"#utility.yul\":3069:3185   */\n      pop\n        /* \"#utility.yul\":3224:3226   */\n      0x20\n        /* \"#utility.yul\":3250:3303   */\n      tag_339\n        /* \"#utility.yul\":3295:3302   */\n      dup8\n        /* \"#utility.yul\":3286:3292   */\n      dup3\n        /* \"#utility.yul\":3275:3284   */\n      dup9\n        /* \"#utility.yul\":3271:3293   */\n      add\n        /* \"#utility.yul\":3250:3303   */\n      tag_247\n      jump\t// in\n    tag_339:\n        /* \"#utility.yul\":3240:3303   */\n      swap4\n      pop\n        /* \"#utility.yul\":3195:3313   */\n      pop\n        /* \"#utility.yul\":3352:3354   */\n      0x40\n        /* \"#utility.yul\":3378:3431   */\n      tag_340\n        /* \"#utility.yul\":3423:3430   */\n      dup8\n        /* \"#utility.yul\":3414:3420   */\n      dup3\n        /* \"#utility.yul\":3403:3412   */\n      dup9\n        /* \"#utility.yul\":3399:3421   */\n      add\n        /* \"#utility.yul\":3378:3431   */\n      tag_247\n      jump\t// in\n    tag_340:\n        /* \"#utility.yul\":3368:3431   */\n      swap3\n      pop\n        /* \"#utility.yul\":3323:3441   */\n      pop\n        /* \"#utility.yul\":3480:3482   */\n      0x60\n        /* \"#utility.yul\":3506:3559   */\n      tag_341\n        /* \"#utility.yul\":3551:3558   */\n      dup8\n        /* \"#utility.yul\":3542:3548   */\n      dup3\n        /* \"#utility.yul\":3531:3540   */\n      dup9\n        /* \"#utility.yul\":3527:3549   */\n      add\n        /* \"#utility.yul\":3506:3559   */\n      tag_250\n      jump\t// in\n    tag_341:\n        /* \"#utility.yul\":3496:3559   */\n      swap2\n      pop\n        /* \"#utility.yul\":3451:3569   */\n      pop\n        /* \"#utility.yul\":2813:3576   */\n      swap3\n      swap6\n      swap2\n      swap5\n      pop\n      swap3\n      pop\n      jump\t// out\n        /* \"#utility.yul\":3582:3659   */\n    tag_251:\n        /* \"#utility.yul\":3619:3626   */\n      0x00\n        /* \"#utility.yul\":3648:3653   */\n      dup2\n        /* \"#utility.yul\":3637:3653   */\n      swap1\n      pop\n        /* \"#utility.yul\":3582:3659   */\n      swap2\n      swap1\n      pop\n      jump\t// out\n        /* \"#utility.yul\":3665:3783   */\n    tag_252:\n        /* \"#utility.yul\":3752:3776   */\n      tag_344\n        /* \"#utility.yul\":3770:3775   */\n      dup2\n        /* \"#utility.yul\":3752:3776   */\n      tag_251\n      jump\t// in\n    tag_344:\n        /* \"#utility.yul\":3747:3750   */\n      dup3\n        /* \"#utility.yul\":3740:3777   */\n      mstore\n        /* \"#utility.yul\":3665:3783   */\n      pop\n      pop\n      jump\t// out\n        /* \"#utility.yul\":3789:4011   */\n    tag_33:\n        /* \"#utility.yul\":3882:3886   */\n      0x00\n        /* \"#utility.yul\":3920:3922   */\n      0x20\n        /* \"#utility.yul\":3909:3918   */\n      dup3\n        /* \"#utility.yul\":3905:3923   */\n      add\n        /* \"#utility.yul\":3897:3923   */\n      swap1\n      pop\n        /* \"#utility.yul\":3933:4004   */\n      tag_346\n        /* \"#utility.yul\":4001:4002   */\n      0x00\n        /* \"#utility.yul\":3990:3999   */\n      dup4\n        /* \"#utility.yul\":3986:4003   */\n      add\n        /* \"#utility.yul\":3977:3983   */\n      dup5\n        /* \"#utility.yul\":3933:4004   */\n      tag_252\n      jump\t// in\n    tag_346:\n        /* \"#utility.yul\":3789:4011   */\n      swap3\n      swap2\n      pop\n      pop\n      jump\t// out\n        /* \"#utility.yul\":4017:4346   */\n    tag_37:\n        /* \"#utility.yul\":4076:4082   */\n      0x00\n        /* \"#utility.yul\":4125:4127   */\n      0x20\n        /* \"#utility.yul\":4113:4122   */\n      dup3\n        /* \"#utility.yul\":4104:4111   */\n      dup5\n        /* \"#utility.yul\":4100:4123   */\n      sub\n        /* \"#utility.yul\":4096:4128   */\n      slt\n        /* \"#utility.yul\":4093:4212   */\n      iszero\n      tag_348\n      jumpi\n        /* \"#utility.yul\":4131:4210   */\n      tag_349\n      tag_237\n      jump\t// in\n    tag_349:\n        /* \"#utility.yul\":4093:4212   */\n    tag_348:\n        /* \"#utility.yul\":4251:4252   */\n      0x00\n        /* \"#utility.yul\":4276:4329   */\n      tag_350\n        /* \"#utility.yul\":4321:4328   */\n      dup5\n        /* \"#utility.yul\":4312:4318   */\n      dup3\n        /* \"#utility.yul\":4301:4310   */\n      dup6\n        /* \"#utility.yul\":4297:4319   */\n      add\n        /* \"#utility.yul\":4276:4329   */\n      tag_247\n      jump\t// in\n    tag_350:\n        /* \"#utility.yul\":4266:4329   */\n      swap2\n      pop\n        /* \"#utility.yul\":4222:4339   */\n      pop\n        /* \"#utility.yul\":4017:4346   */\n      swap3\n      swap2\n      pop\n      pop\n      jump\t// out\n        /* \"#utility.yul\":4352:4470   */\n    tag_253:\n        /* \"#utility.yul\":4439:4463   */\n      tag_352\n        /* \"#utility.yul\":4457:4462   */\n      dup2\n        /* \"#utility.yul\":4439:4463   */\n      tag_245\n      jump\t// in\n    tag_352:\n        /* \"#utility.yul\":4434:4437   */\n      dup3\n        /* \"#utility.yul\":4427:4464   */\n      mstore\n        /* \"#utility.yul\":4352:4470   */\n      pop\n      pop\n      jump\t// out\n        /* \"#utility.yul\":4476:4698   */\n    tag_46:\n        /* \"#utility.yul\":4569:4573   */\n      0x00\n        /* \"#utility.yul\":4607:4609   */\n      0x20\n        /* \"#utility.yul\":4596:4605   */\n      dup3\n        /* \"#utility.yul\":4592:4610   */\n      add\n        /* \"#utility.yul\":4584:4610   */\n      swap1\n      pop\n        /* \"#utility.yul\":4620:4691   */\n      tag_354\n        /* \"#utility.yul\":4688:4689   */\n      0x00\n        /* \"#utility.yul\":4677:4686   */\n      dup4\n        /* \"#utility.yul\":4673:4690   */\n      add\n        /* \"#utility.yul\":4664:4670   */\n      dup5\n        /* \"#utility.yul\":4620:4691   */\n      tag_253\n      jump\t// in\n    tag_354:\n        /* \"#utility.yul\":4476:4698   */\n      swap3\n      swap2\n      pop\n      pop\n      jump\t// out\n        /* \"#utility.yul\":4704:4820   */\n    tag_254:\n        /* \"#utility.yul\":4774:4795   */\n      tag_356\n        /* \"#utility.yul\":4789:4794   */\n      dup2\n        /* \"#utility.yul\":4774:4795   */\n      tag_242\n      jump\t// in\n    tag_356:\n        /* \"#utility.yul\":4767:4772   */\n      dup2\n        /* \"#utility.yul\":4764:4796   */\n      eq\n        /* \"#utility.yul\":4754:4814   */\n      tag_357\n      jumpi\n        /* \"#utility.yul\":4810:4811   */\n      0x00\n        /* \"#utility.yul\":4807:4808   */\n      dup1\n        /* \"#utility.yul\":4800:4812   */\n      revert\n        /* \"#utility.yul\":4754:4814   */\n    tag_357:\n        /* \"#utility.yul\":4704:4820   */\n      pop\n      jump\t// out\n        /* \"#utility.yul\":4826:4959   */\n    tag_255:\n        /* \"#utility.yul\":4869:4874   */\n      0x00\n        /* \"#utility.yul\":4907:4913   */\n      dup2\n        /* \"#utility.yul\":4894:4914   */\n      calldataload\n        /* \"#utility.yul\":4885:4914   */\n      swap1\n      pop\n        /* \"#utility.yul\":4923:4953   */\n      tag_359\n        /* \"#utility.yul\":4947:4952   */\n      dup2\n        /* \"#utility.yul\":4923:4953   */\n      tag_254\n      jump\t// in\n    tag_359:\n        /* \"#utility.yul\":4826:4959   */\n      swap3\n      swap2\n      pop\n      pop\n      jump\t// out\n        /* \"#utility.yul\":4965:5431   */\n    tag_55:\n        /* \"#utility.yul\":5029:5035   */\n      0x00\n        /* \"#utility.yul\":5037:5043   */\n      dup1\n        /* \"#utility.yul\":5086:5088   */\n      0x40\n        /* \"#utility.yul\":5074:5083   */\n      dup4\n        /* \"#utility.yul\":5065:5072   */\n      dup6\n        /* \"#utility.yul\":5061:5084   */\n      sub\n        /* \"#utility.yul\":5057:5089   */\n      slt\n        /* \"#utility.yul\":5054:5173   */\n      iszero\n      tag_361\n      jumpi\n        /* \"#utility.yul\":5092:5171   */\n      tag_362\n      tag_237\n      jump\t// in\n    tag_362:\n        /* \"#utility.yul\":5054:5173   */\n    tag_361:\n        /* \"#utility.yul\":5212:5213   */\n      0x00\n        /* \"#utility.yul\":5237:5289   */\n      tag_363\n        /* \"#utility.yul\":5281:5288   */\n      dup6\n        /* \"#utility.yul\":5272:5278   */\n      dup3\n        /* \"#utility.yul\":5261:5270   */\n      dup7\n        /* \"#utility.yul\":5257:5279   */\n      add\n        /* \"#utility.yul\":5237:5289   */\n      tag_241\n      jump\t// in\n    tag_363:\n        /* \"#utility.yul\":5227:5289   */\n      swap3\n      pop\n        /* \"#utility.yul\":5183:5299   */\n      pop\n        /* \"#utility.yul\":5338:5340   */\n      0x20\n        /* \"#utility.yul\":5364:5414   */\n      tag_364\n        /* \"#utility.yul\":5406:5413   */\n      dup6\n        /* \"#utility.yul\":5397:5403   */\n      dup3\n        /* \"#utility.yul\":5386:5395   */\n      dup7\n        /* \"#utility.yul\":5382:5404   */\n      add\n        /* \"#utility.yul\":5364:5414   */\n      tag_255\n      jump\t// in\n    tag_364:\n        /* \"#utility.yul\":5354:5414   */\n      swap2\n      pop\n        /* \"#utility.yul\":5309:5424   */\n      pop\n        /* \"#utility.yul\":4965:5431   */\n      swap3\n      pop\n      swap3\n      swap1\n      pop\n      jump\t// out\n        /* \"#utility.yul\":5437:5580   */\n    tag_256:\n        /* \"#utility.yul\":5494:5499   */\n      0x00\n        /* \"#utility.yul\":5525:5531   */\n      dup2\n        /* \"#utility.yul\":5519:5532   */\n      mload\n        /* \"#utility.yul\":5510:5532   */\n      swap1\n      pop\n        /* \"#utility.yul\":5541:5574   */\n      tag_366\n        /* \"#utility.yul\":5568:5573   */\n      dup2\n        /* \"#utility.yul\":5541:5574   */\n      tag_249\n      jump\t// in\n    tag_366:\n        /* \"#utility.yul\":5437:5580   */\n      swap3\n      swap2\n      pop\n      pop\n      jump\t// out\n        /* \"#utility.yul\":5586:5937   */\n    tag_69:\n        /* \"#utility.yul\":5656:5662   */\n      0x00\n        /* \"#utility.yul\":5705:5707   */\n      0x20\n        /* \"#utility.yul\":5693:5702   */\n      dup3\n        /* \"#utility.yul\":5684:5691   */\n      dup5\n        /* \"#utility.yul\":5680:5703   */\n      sub\n        /* \"#utility.yul\":5676:5708   */\n      slt\n        /* \"#utility.yul\":5673:5792   */\n      iszero\n      tag_368\n      jumpi\n        /* \"#utility.yul\":5711:5790   */\n      tag_369\n      tag_237\n      jump\t// in\n    tag_369:\n        /* \"#utility.yul\":5673:5792   */\n    tag_368:\n        /* \"#utility.yul\":5831:5832   */\n      0x00\n        /* \"#utility.yul\":5856:5920   */\n      tag_370\n        /* \"#utility.yul\":5912:5919   */\n      dup5\n        /* \"#utility.yul\":5903:5909   */\n      dup3\n        /* \"#utility.yul\":5892:5901   */\n      dup6\n        /* \"#utility.yul\":5888:5910   */\n      add\n        /* \"#utility.yul\":5856:5920   */\n      tag_256\n      jump\t// in\n    tag_370:\n        /* \"#utility.yul\":5846:5920   */\n      swap2\n      pop\n        /* \"#utility.yul\":5802:5930   */\n      pop\n        /* \"#utility.yul\":5586:5937   */\n      swap3\n      swap2\n      pop\n      pop\n      jump\t// out\n        /* \"#utility.yul\":5943:6058   */\n    tag_257:\n        /* \"#utility.yul\":6028:6051   */\n      tag_372\n        /* \"#utility.yul\":6045:6050   */\n      dup2\n        /* \"#utility.yul\":6028:6051   */\n      tag_239\n      jump\t// in\n    tag_372:\n        /* \"#utility.yul\":6023:6026   */\n      dup3\n        /* \"#utility.yul\":6016:6052   */\n      mstore\n        /* \"#utility.yul\":5943:6058   */\n      pop\n      pop\n      jump\t// out\n        /* \"#utility.yul\":6064:6282   */\n    tag_78:\n        /* \"#utility.yul\":6155:6159   */\n      0x00\n        /* \"#utility.yul\":6193:6195   */\n      0x20\n        /* \"#utility.yul\":6182:6191   */\n      dup3\n        /* \"#utility.yul\":6178:6196   */\n      add\n        /* \"#utility.yul\":6170:6196   */\n      swap1\n      pop\n        /* \"#utility.yul\":6206:6275   */\n      tag_374\n        /* \"#utility.yul\":6272:6273   */\n      0x00\n        /* \"#utility.yul\":6261:6270   */\n      dup4\n        /* \"#utility.yul\":6257:6274   */\n      add\n        /* \"#utility.yul\":6248:6254   */\n      dup5\n        /* \"#utility.yul\":6206:6275   */\n      tag_257\n      jump\t// in\n    tag_374:\n        /* \"#utility.yul\":6064:6282   */\n      swap3\n      swap2\n      pop\n      pop\n      jump\t// out\n        /* \"#utility.yul\":6288:6386   */\n    tag_258:\n        /* \"#utility.yul\":6339:6345   */\n      0x00\n        /* \"#utility.yul\":6373:6378   */\n      dup2\n        /* \"#utility.yul\":6367:6379   */\n      mload\n        /* \"#utility.yul\":6357:6379   */\n      swap1\n      pop\n        /* \"#utility.yul\":6288:6386   */\n      swap2\n      swap1\n      pop\n      jump\t// out\n        /* \"#utility.yul\":6392:6550   */\n    tag_259:\n        /* \"#utility.yul\":6465:6476   */\n      0x00\n        /* \"#utility.yul\":6499:6505   */\n      dup3\n        /* \"#utility.yul\":6494:6497   */\n      dup3\n        /* \"#utility.yul\":6487:6506   */\n      mstore\n        /* \"#utility.yul\":6539:6543   */\n      0x20\n        /* \"#utility.yul\":6534:6537   */\n      dup3\n        /* \"#utility.yul\":6530:6544   */\n      add\n        /* \"#utility.yul\":6515:6544   */\n      swap1\n      pop\n        /* \"#utility.yul\":6392:6550   */\n      swap3\n      swap2\n      pop\n      pop\n      jump\t// out\n        /* \"#utility.yul\":6556:6802   */\n    tag_260:\n        /* \"#utility.yul\":6637:6638   */\n      0x00\n        /* \"#utility.yul\":6647:6760   */\n    tag_378:\n        /* \"#utility.yul\":6661:6667   */\n      dup4\n        /* \"#utility.yul\":6658:6659   */\n      dup2\n        /* \"#utility.yul\":6655:6668   */\n      lt\n        /* \"#utility.yul\":6647:6760   */\n      iszero\n      tag_380\n      jumpi\n        /* \"#utility.yul\":6746:6747   */\n      dup1\n        /* \"#utility.yul\":6741:6744   */\n      dup3\n        /* \"#utility.yul\":6737:6748   */\n      add\n        /* \"#utility.yul\":6731:6749   */\n      mload\n        /* \"#utility.yul\":6727:6728   */\n      dup2\n        /* \"#utility.yul\":6722:6725   */\n      dup5\n        /* \"#utility.yul\":6718:6729   */\n      add\n        /* \"#utility.yul\":6711:6750   */\n      mstore\n        /* \"#utility.yul\":6683:6685   */\n      0x20\n        /* \"#utility.yul\":6680:6681   */\n      dup2\n        /* \"#utility.yul\":6676:6686   */\n      add\n        /* \"#utility.yul\":6671:6686   */\n      swap1\n      pop\n        /* \"#utility.yul\":6647:6760   */\n      jump(tag_378)\n    tag_380:\n        /* \"#utility.yul\":6794:6795   */\n      0x00\n        /* \"#utility.yul\":6785:6791   */\n      dup5\n        /* \"#utility.yul\":6780:6783   */\n      dup5\n        /* \"#utility.yul\":6776:6792   */\n      add\n        /* \"#utility.yul\":6769:6796   */\n      mstore\n        /* \"#utility.yul\":6618:6802   */\n      pop\n        /* \"#utility.yul\":6556:6802   */\n      pop\n      pop\n      pop\n      jump\t// out\n        /* \"#utility.yul\":6808:6910   */\n    tag_261:\n        /* \"#utility.yul\":6849:6855   */\n      0x00\n        /* \"#utility.yul\":6900:6902   */\n      0x1f\n        /* \"#utility.yul\":6896:6903   */\n      not\n        /* \"#utility.yul\":6891:6893   */\n      0x1f\n        /* \"#utility.yul\":6884:6889   */\n      dup4\n        /* \"#utility.yul\":6880:6894   */\n      add\n        /* \"#utility.yul\":6876:6904   */\n      and\n        /* \"#utility.yul\":6866:6904   */\n      swap1\n      pop\n        /* \"#utility.yul\":6808:6910   */\n      swap2\n      swap1\n      pop\n      jump\t// out\n        /* \"#utility.yul\":6916:7269   */\n    tag_262:\n        /* \"#utility.yul\":6992:6995   */\n      0x00\n        /* \"#utility.yul\":7020:7058   */\n      tag_383\n        /* \"#utility.yul\":7052:7057   */\n      dup3\n        /* \"#utility.yul\":7020:7058   */\n      tag_258\n      jump\t// in\n    tag_383:\n        /* \"#utility.yul\":7074:7134   */\n      tag_384\n        /* \"#utility.yul\":7127:7133   */\n      dup2\n        /* \"#utility.yul\":7122:7125   */\n      dup6\n        /* \"#utility.yul\":7074:7134   */\n      tag_259\n      jump\t// in\n    tag_384:\n        /* \"#utility.yul\":7067:7134   */\n      swap4\n      pop\n        /* \"#utility.yul\":7143:7208   */\n      tag_385\n        /* \"#utility.yul\":7201:7207   */\n      dup2\n        /* \"#utility.yul\":7196:7199   */\n      dup6\n        /* \"#utility.yul\":7189:7193   */\n      0x20\n        /* \"#utility.yul\":7182:7187   */\n      dup7\n        /* \"#utility.yul\":7178:7194   */\n      add\n        /* \"#utility.yul\":7143:7208   */\n      tag_260\n      jump\t// in\n    tag_385:\n        /* \"#utility.yul\":7233:7262   */\n      tag_386\n        /* \"#utility.yul\":7255:7261   */\n      dup2\n        /* \"#utility.yul\":7233:7262   */\n      tag_261\n      jump\t// in\n    tag_386:\n        /* \"#utility.yul\":7228:7231   */\n      dup5\n        /* \"#utility.yul\":7224:7263   */\n      add\n        /* \"#utility.yul\":7217:7263   */\n      swap2\n      pop\n        /* \"#utility.yul\":6996:7269   */\n      pop\n        /* \"#utility.yul\":6916:7269   */\n      swap3\n      swap2\n      pop\n      pop\n      jump\t// out\n        /* \"#utility.yul\":7275:7419   */\n    tag_263:\n        /* \"#utility.yul\":7372:7378   */\n      0x00\n        /* \"#utility.yul\":7406:7411   */\n      dup2\n        /* \"#utility.yul\":7400:7412   */\n      mload\n        /* \"#utility.yul\":7390:7412   */\n      swap1\n      pop\n        /* \"#utility.yul\":7275:7419   */\n      swap2\n      swap1\n      pop\n      jump\t// out\n        /* \"#utility.yul\":7425:7629   */\n    tag_264:\n        /* \"#utility.yul\":7544:7555   */\n      0x00\n        /* \"#utility.yul\":7578:7584   */\n      dup3\n        /* \"#utility.yul\":7573:7576   */\n      dup3\n        /* \"#utility.yul\":7566:7585   */\n      mstore\n        /* \"#utility.yul\":7618:7622   */\n      0x20\n        /* \"#utility.yul\":7613:7616   */\n      dup3\n        /* \"#utility.yul\":7609:7623   */\n      add\n        /* \"#utility.yul\":7594:7623   */\n      swap1\n      pop\n        /* \"#utility.yul\":7425:7629   */\n      swap3\n      swap2\n      pop\n      pop\n      jump\t// out\n        /* \"#utility.yul\":7635:7797   */\n    tag_265:\n        /* \"#utility.yul\":7732:7736   */\n      0x00\n        /* \"#utility.yul\":7755:7758   */\n      dup2\n        /* \"#utility.yul\":7747:7758   */\n      swap1\n      pop\n        /* \"#utility.yul\":7785:7789   */\n      0x20\n        /* \"#utility.yul\":7780:7783   */\n      dup3\n        /* \"#utility.yul\":7776:7790   */\n      add\n        /* \"#utility.yul\":7768:7790   */\n      swap1\n      pop\n        /* \"#utility.yul\":7635:7797   */\n      swap2\n      swap1\n      pop\n      jump\t// out\n        /* \"#utility.yul\":7803:7911   */\n    tag_266:\n        /* \"#utility.yul\":7880:7904   */\n      tag_391\n        /* \"#utility.yul\":7898:7903   */\n      dup2\n        /* \"#utility.yul\":7880:7904   */\n      tag_245\n      jump\t// in\n    tag_391:\n        /* \"#utility.yul\":7875:7878   */\n      dup3\n        /* \"#utility.yul\":7868:7905   */\n      mstore\n        /* \"#utility.yul\":7803:7911   */\n      pop\n      pop\n      jump\t// out\n        /* \"#utility.yul\":7917:8025   */\n    tag_267:\n        /* \"#utility.yul\":7994:8018   */\n      tag_393\n        /* \"#utility.yul\":8012:8017   */\n      dup2\n        /* \"#utility.yul\":7994:8018   */\n      tag_248\n      jump\t// in\n    tag_393:\n        /* \"#utility.yul\":7989:7992   */\n      dup3\n        /* \"#utility.yul\":7982:8019   */\n      mstore\n        /* \"#utility.yul\":7917:8025   */\n      pop\n      pop\n      jump\t// out\n        /* \"#utility.yul\":8099:8609   */\n    tag_268:\n        /* \"#utility.yul\":8246:8250   */\n      0x40\n        /* \"#utility.yul\":8241:8244   */\n      dup3\n        /* \"#utility.yul\":8237:8251   */\n      add\n        /* \"#utility.yul\":8334:8338   */\n      0x00\n        /* \"#utility.yul\":8327:8332   */\n      dup3\n        /* \"#utility.yul\":8323:8339   */\n      add\n        /* \"#utility.yul\":8317:8340   */\n      mload\n        /* \"#utility.yul\":8353:8416   */\n      tag_395\n        /* \"#utility.yul\":8410:8414   */\n      0x00\n        /* \"#utility.yul\":8405:8408   */\n      dup6\n        /* \"#utility.yul\":8401:8415   */\n      add\n        /* \"#utility.yul\":8387:8399   */\n      dup3\n        /* \"#utility.yul\":8353:8416   */\n      tag_266\n      jump\t// in\n    tag_395:\n        /* \"#utility.yul\":8261:8426   */\n      pop\n        /* \"#utility.yul\":8510:8514   */\n      0x20\n        /* \"#utility.yul\":8503:8508   */\n      dup3\n        /* \"#utility.yul\":8499:8515   */\n      add\n        /* \"#utility.yul\":8493:8516   */\n      mload\n        /* \"#utility.yul\":8529:8592   */\n      tag_396\n        /* \"#utility.yul\":8586:8590   */\n      0x20\n        /* \"#utility.yul\":8581:8584   */\n      dup6\n        /* \"#utility.yul\":8577:8591   */\n      add\n        /* \"#utility.yul\":8563:8575   */\n      dup3\n        /* \"#utility.yul\":8529:8592   */\n      tag_267\n      jump\t// in\n    tag_396:\n        /* \"#utility.yul\":8436:8602   */\n      pop\n        /* \"#utility.yul\":8215:8609   */\n      pop\n        /* \"#utility.yul\":8099:8609   */\n      pop\n      pop\n      jump\t// out\n        /* \"#utility.yul\":8615:8914   */\n    tag_269:\n        /* \"#utility.yul\":8744:8754   */\n      0x00\n        /* \"#utility.yul\":8765:8871   */\n      tag_398\n        /* \"#utility.yul\":8867:8870   */\n      dup4\n        /* \"#utility.yul\":8859:8865   */\n      dup4\n        /* \"#utility.yul\":8765:8871   */\n      tag_268\n      jump\t// in\n    tag_398:\n        /* \"#utility.yul\":8903:8907   */\n      0x40\n        /* \"#utility.yul\":8898:8901   */\n      dup4\n        /* \"#utility.yul\":8894:8908   */\n      add\n        /* \"#utility.yul\":8880:8908   */\n      swap1\n      pop\n        /* \"#utility.yul\":8615:8914   */\n      swap3\n      swap2\n      pop\n      pop\n      jump\t// out\n        /* \"#utility.yul\":8920:9063   */\n    tag_270:\n        /* \"#utility.yul\":9020:9024   */\n      0x00\n        /* \"#utility.yul\":9052:9056   */\n      0x20\n        /* \"#utility.yul\":9047:9050   */\n      dup3\n        /* \"#utility.yul\":9043:9057   */\n      add\n        /* \"#utility.yul\":9035:9057   */\n      swap1\n      pop\n        /* \"#utility.yul\":8920:9063   */\n      swap2\n      swap1\n      pop\n      jump\t// out\n        /* \"#utility.yul\":9141:10093   */\n    tag_271:\n        /* \"#utility.yul\":9310:9313   */\n      0x00\n        /* \"#utility.yul\":9339:9423   */\n      tag_401\n        /* \"#utility.yul\":9417:9422   */\n      dup3\n        /* \"#utility.yul\":9339:9423   */\n      tag_263\n      jump\t// in\n    tag_401:\n        /* \"#utility.yul\":9439:9545   */\n      tag_402\n        /* \"#utility.yul\":9538:9544   */\n      dup2\n        /* \"#utility.yul\":9533:9536   */\n      dup6\n        /* \"#utility.yul\":9439:9545   */\n      tag_264\n      jump\t// in\n    tag_402:\n        /* \"#utility.yul\":9432:9545   */\n      swap4\n      pop\n        /* \"#utility.yul\":9569:9655   */\n      tag_403\n        /* \"#utility.yul\":9649:9654   */\n      dup4\n        /* \"#utility.yul\":9569:9655   */\n      tag_265\n      jump\t// in\n    tag_403:\n        /* \"#utility.yul\":9678:9685   */\n      dup1\n        /* \"#utility.yul\":9709:9710   */\n      0x00\n        /* \"#utility.yul\":9694:10068   */\n    tag_404:\n        /* \"#utility.yul\":9719:9725   */\n      dup4\n        /* \"#utility.yul\":9716:9717   */\n      dup2\n        /* \"#utility.yul\":9713:9726   */\n      lt\n        /* \"#utility.yul\":9694:10068   */\n      iszero\n      tag_406\n      jumpi\n        /* \"#utility.yul\":9795:9801   */\n      dup2\n        /* \"#utility.yul\":9789:9802   */\n      mload\n        /* \"#utility.yul\":9822:9945   */\n      tag_407\n        /* \"#utility.yul\":9941:9944   */\n      dup9\n        /* \"#utility.yul\":9926:9939   */\n      dup3\n        /* \"#utility.yul\":9822:9945   */\n      tag_269\n      jump\t// in\n    tag_407:\n        /* \"#utility.yul\":9815:9945   */\n      swap8\n      pop\n        /* \"#utility.yul\":9968:10058   */\n      tag_408\n        /* \"#utility.yul\":10051:10057   */\n      dup4\n        /* \"#utility.yul\":9968:10058   */\n      tag_270\n      jump\t// in\n    tag_408:\n        /* \"#utility.yul\":9958:10058   */\n      swap3\n      pop\n        /* \"#utility.yul\":9754:10068   */\n      pop\n        /* \"#utility.yul\":9741:9742   */\n      0x01\n        /* \"#utility.yul\":9738:9739   */\n      dup2\n        /* \"#utility.yul\":9734:9743   */\n      add\n        /* \"#utility.yul\":9729:9743   */\n      swap1\n      pop\n        /* \"#utility.yul\":9694:10068   */\n      jump(tag_404)\n    tag_406:\n        /* \"#utility.yul\":9698:9712   */\n      pop\n        /* \"#utility.yul\":10084:10087   */\n      dup6\n        /* \"#utility.yul\":10077:10087   */\n      swap4\n      pop\n        /* \"#utility.yul\":9315:10093   */\n      pop\n      pop\n      pop\n        /* \"#utility.yul\":9141:10093   */\n      swap3\n      swap2\n      pop\n      pop\n      jump\t// out\n        /* \"#utility.yul\":10167:11623   */\n    tag_272:\n        /* \"#utility.yul\":10296:10299   */\n      0x00\n        /* \"#utility.yul\":10332:10336   */\n      0xa0\n        /* \"#utility.yul\":10327:10330   */\n      dup4\n        /* \"#utility.yul\":10323:10337   */\n      add\n        /* \"#utility.yul\":10423:10427   */\n      0x00\n        /* \"#utility.yul\":10416:10421   */\n      dup4\n        /* \"#utility.yul\":10412:10428   */\n      add\n        /* \"#utility.yul\":10406:10429   */\n      mload\n        /* \"#utility.yul\":10476:10479   */\n      dup5\n        /* \"#utility.yul\":10470:10474   */\n      dup3\n        /* \"#utility.yul\":10466:10480   */\n      sub\n        /* \"#utility.yul\":10459:10463   */\n      0x00\n        /* \"#utility.yul\":10454:10457   */\n      dup7\n        /* \"#utility.yul\":10450:10464   */\n      add\n        /* \"#utility.yul\":10443:10481   */\n      mstore\n        /* \"#utility.yul\":10502:10573   */\n      tag_410\n        /* \"#utility.yul\":10568:10572   */\n      dup3\n        /* \"#utility.yul\":10554:10566   */\n      dup3\n        /* \"#utility.yul\":10502:10573   */\n      tag_262\n      jump\t// in\n    tag_410:\n        /* \"#utility.yul\":10494:10573   */\n      swap2\n      pop\n        /* \"#utility.yul\":10347:10584   */\n      pop\n        /* \"#utility.yul\":10666:10670   */\n      0x20\n        /* \"#utility.yul\":10659:10664   */\n      dup4\n        /* \"#utility.yul\":10655:10671   */\n      add\n        /* \"#utility.yul\":10649:10672   */\n      mload\n        /* \"#utility.yul\":10719:10722   */\n      dup5\n        /* \"#utility.yul\":10713:10717   */\n      dup3\n        /* \"#utility.yul\":10709:10723   */\n      sub\n        /* \"#utility.yul\":10702:10706   */\n      0x20\n        /* \"#utility.yul\":10697:10700   */\n      dup7\n        /* \"#utility.yul\":10693:10707   */\n      add\n        /* \"#utility.yul\":10686:10724   */\n      mstore\n        /* \"#utility.yul\":10745:10816   */\n      tag_411\n        /* \"#utility.yul\":10811:10815   */\n      dup3\n        /* \"#utility.yul\":10797:10809   */\n      dup3\n        /* \"#utility.yul\":10745:10816   */\n      tag_262\n      jump\t// in\n    tag_411:\n        /* \"#utility.yul\":10737:10816   */\n      swap2\n      pop\n        /* \"#utility.yul\":10594:10827   */\n      pop\n        /* \"#utility.yul\":10917:10921   */\n      0x40\n        /* \"#utility.yul\":10910:10915   */\n      dup4\n        /* \"#utility.yul\":10906:10922   */\n      add\n        /* \"#utility.yul\":10900:10923   */\n      mload\n        /* \"#utility.yul\":10970:10973   */\n      dup5\n        /* \"#utility.yul\":10964:10968   */\n      dup3\n        /* \"#utility.yul\":10960:10974   */\n      sub\n        /* \"#utility.yul\":10953:10957   */\n      0x40\n        /* \"#utility.yul\":10948:10951   */\n      dup7\n        /* \"#utility.yul\":10944:10958   */\n      add\n        /* \"#utility.yul\":10937:10975   */\n      mstore\n        /* \"#utility.yul\":10996:11159   */\n      tag_412\n        /* \"#utility.yul\":11154:11158   */\n      dup3\n        /* \"#utility.yul\":11140:11152   */\n      dup3\n        /* \"#utility.yul\":10996:11159   */\n      tag_271\n      jump\t// in\n    tag_412:\n        /* \"#utility.yul\":10988:11159   */\n      swap2\n      pop\n        /* \"#utility.yul\":10837:11170   */\n      pop\n        /* \"#utility.yul\":11256:11260   */\n      0x60\n        /* \"#utility.yul\":11249:11254   */\n      dup4\n        /* \"#utility.yul\":11245:11261   */\n      add\n        /* \"#utility.yul\":11239:11262   */\n      mload\n        /* \"#utility.yul\":11275:11338   */\n      tag_413\n        /* \"#utility.yul\":11332:11336   */\n      0x60\n        /* \"#utility.yul\":11327:11330   */\n      dup7\n        /* \"#utility.yul\":11323:11337   */\n      add\n        /* \"#utility.yul\":11309:11321   */\n      dup3\n        /* \"#utility.yul\":11275:11338   */\n      tag_266\n      jump\t// in\n    tag_413:\n        /* \"#utility.yul\":11180:11348   */\n      pop\n        /* \"#utility.yul\":11435:11439   */\n      0x80\n        /* \"#utility.yul\":11428:11433   */\n      dup4\n        /* \"#utility.yul\":11424:11440   */\n      add\n        /* \"#utility.yul\":11418:11441   */\n      mload\n        /* \"#utility.yul\":11488:11491   */\n      dup5\n        /* \"#utility.yul\":11482:11486   */\n      dup3\n        /* \"#utility.yul\":11478:11492   */\n      sub\n        /* \"#utility.yul\":11471:11475   */\n      0x80\n        /* \"#utility.yul\":11466:11469   */\n      dup7\n        /* \"#utility.yul\":11462:11476   */\n      add\n        /* \"#utility.yul\":11455:11493   */\n      mstore\n        /* \"#utility.yul\":11514:11585   */\n      tag_414\n        /* \"#utility.yul\":11580:11584   */\n      dup3\n        /* \"#utility.yul\":11566:11578   */\n      dup3\n        /* \"#utility.yul\":11514:11585   */\n      tag_262\n      jump\t// in\n    tag_414:\n        /* \"#utility.yul\":11506:11585   */\n      swap2\n      pop\n        /* \"#utility.yul\":11358:11596   */\n      pop\n        /* \"#utility.yul\":11613:11617   */\n      dup1\n        /* \"#utility.yul\":11606:11617   */\n      swap2\n      pop\n        /* \"#utility.yul\":10301:11623   */\n      pop\n        /* \"#utility.yul\":10167:11623   */\n      swap3\n      swap2\n      pop\n      pop\n      jump\t// out\n        /* \"#utility.yul\":11629:12128   */\n    tag_85:\n        /* \"#utility.yul\":11808:11812   */\n      0x00\n        /* \"#utility.yul\":11846:11848   */\n      0x40\n        /* \"#utility.yul\":11835:11844   */\n      dup3\n        /* \"#utility.yul\":11831:11849   */\n      add\n        /* \"#utility.yul\":11823:11849   */\n      swap1\n      pop\n        /* \"#utility.yul\":11859:11928   */\n      tag_416\n        /* \"#utility.yul\":11925:11926   */\n      0x00\n        /* \"#utility.yul\":11914:11923   */\n      dup4\n        /* \"#utility.yul\":11910:11927   */\n      add\n        /* \"#utility.yul\":11901:11907   */\n      dup6\n        /* \"#utility.yul\":11859:11928   */\n      tag_257\n      jump\t// in\n    tag_416:\n        /* \"#utility.yul\":11975:11984   */\n      dup2\n        /* \"#utility.yul\":11969:11973   */\n      dup2\n        /* \"#utility.yul\":11965:11985   */\n      sub\n        /* \"#utility.yul\":11960:11962   */\n      0x20\n        /* \"#utility.yul\":11949:11958   */\n      dup4\n        /* \"#utility.yul\":11945:11963   */\n      add\n        /* \"#utility.yul\":11938:11986   */\n      mstore\n        /* \"#utility.yul\":12003:12121   */\n      tag_417\n        /* \"#utility.yul\":12116:12120   */\n      dup2\n        /* \"#utility.yul\":12107:12113   */\n      dup5\n        /* \"#utility.yul\":12003:12121   */\n      tag_272\n      jump\t// in\n    tag_417:\n        /* \"#utility.yul\":11995:12121   */\n      swap1\n      pop\n        /* \"#utility.yul\":11629:12128   */\n      swap4\n      swap3\n      pop\n      pop\n      pop\n      jump\t// out\n        /* \"#utility.yul\":12134:12252   */\n    tag_273:\n        /* \"#utility.yul\":12221:12245   */\n      tag_419\n        /* \"#utility.yul\":12239:12244   */\n      dup2\n        /* \"#utility.yul\":12221:12245   */\n      tag_248\n      jump\t// in\n    tag_419:\n        /* \"#utility.yul\":12216:12219   */\n      dup3\n        /* \"#utility.yul\":12209:12246   */\n      mstore\n        /* \"#utility.yul\":12134:12252   */\n      pop\n      pop\n      jump\t// out\n        /* \"#utility.yul\":12258:12590   */\n    tag_91:\n        /* \"#utility.yul\":12379:12383   */\n      0x00\n        /* \"#utility.yul\":12417:12419   */\n      0x40\n        /* \"#utility.yul\":12406:12415   */\n      dup3\n        /* \"#utility.yul\":12402:12420   */\n      add\n        /* \"#utility.yul\":12394:12420   */\n      swap1\n      pop\n        /* \"#utility.yul\":12430:12501   */\n      tag_421\n        /* \"#utility.yul\":12498:12499   */\n      0x00\n        /* \"#utility.yul\":12487:12496   */\n      dup4\n        /* \"#utility.yul\":12483:12500   */\n      add\n        /* \"#utility.yul\":12474:12480   */\n      dup6\n        /* \"#utility.yul\":12430:12501   */\n      tag_273\n      jump\t// in\n    tag_421:\n        /* \"#utility.yul\":12511:12583   */\n      tag_422\n        /* \"#utility.yul\":12579:12581   */\n      0x20\n        /* \"#utility.yul\":12568:12577   */\n      dup4\n        /* \"#utility.yul\":12564:12582   */\n      add\n        /* \"#utility.yul\":12555:12561   */\n      dup5\n        /* \"#utility.yul\":12511:12583   */\n      tag_273\n      jump\t// in\n    tag_422:\n        /* \"#utility.yul\":12258:12590   */\n      swap4\n      swap3\n      pop\n      pop\n      pop\n      jump\t// out\n        /* \"#utility.yul\":12596:12928   */\n    tag_93:\n        /* \"#utility.yul\":12717:12721   */\n      0x00\n        /* \"#utility.yul\":12755:12757   */\n      0x40\n        /* \"#utility.yul\":12744:12753   */\n      dup3\n        /* \"#utility.yul\":12740:12758   */\n      add\n        /* \"#utility.yul\":12732:12758   */\n      swap1\n      pop\n        /* \"#utility.yul\":12768:12839   */\n      tag_424\n        /* \"#utility.yul\":12836:12837   */\n      0x00\n        /* \"#utility.yul\":12825:12834   */\n      dup4\n        /* \"#utility.yul\":12821:12838   */\n      add\n        /* \"#utility.yul\":12812:12818   */\n      dup6\n        /* \"#utility.yul\":12768:12839   */\n      tag_253\n      jump\t// in\n    tag_424:\n        /* \"#utility.yul\":12849:12921   */\n      tag_425\n        /* \"#utility.yul\":12917:12919   */\n      0x20\n        /* \"#utility.yul\":12906:12915   */\n      dup4\n        /* \"#utility.yul\":12902:12920   */\n      add\n        /* \"#utility.yul\":12893:12899   */\n      dup5\n        /* \"#utility.yul\":12849:12921   */\n      tag_273\n      jump\t// in\n    tag_425:\n        /* \"#utility.yul\":12596:12928   */\n      swap4\n      swap3\n      pop\n      pop\n      pop\n      jump\t// out\n        /* \"#utility.yul\":12934:13071   */\n    tag_274:\n        /* \"#utility.yul\":12988:12993   */\n      0x00\n        /* \"#utility.yul\":13019:13025   */\n      dup2\n        /* \"#utility.yul\":13013:13026   */\n      mload\n        /* \"#utility.yul\":13004:13026   */\n      swap1\n      pop\n        /* \"#utility.yul\":13035:13065   */\n      tag_427\n        /* \"#utility.yul\":13059:13064   */\n      dup2\n        /* \"#utility.yul\":13035:13065   */\n      tag_254\n      jump\t// in\n    tag_427:\n        /* \"#utility.yul\":12934:13071   */\n      swap3\n      swap2\n      pop\n      pop\n      jump\t// out\n        /* \"#utility.yul\":13077:13422   */\n    tag_97:\n        /* \"#utility.yul\":13144:13150   */\n      0x00\n        /* \"#utility.yul\":13193:13195   */\n      0x20\n        /* \"#utility.yul\":13181:13190   */\n      dup3\n        /* \"#utility.yul\":13172:13179   */\n      dup5\n        /* \"#utility.yul\":13168:13191   */\n      sub\n        /* \"#utility.yul\":13164:13196   */\n      slt\n        /* \"#utility.yul\":13161:13280   */\n      iszero\n      tag_429\n      jumpi\n        /* \"#utility.yul\":13199:13278   */\n      tag_430\n      tag_237\n      jump\t// in\n    tag_430:\n        /* \"#utility.yul\":13161:13280   */\n    tag_429:\n        /* \"#utility.yul\":13319:13320   */\n      0x00\n        /* \"#utility.yul\":13344:13405   */\n      tag_431\n        /* \"#utility.yul\":13397:13404   */\n      dup5\n        /* \"#utility.yul\":13388:13394   */\n      dup3\n        /* \"#utility.yul\":13377:13386   */\n      dup6\n        /* \"#utility.yul\":13373:13395   */\n      add\n        /* \"#utility.yul\":13344:13405   */\n      tag_274\n      jump\t// in\n    tag_431:\n        /* \"#utility.yul\":13334:13405   */\n      swap2\n      pop\n        /* \"#utility.yul\":13290:13415   */\n      pop\n        /* \"#utility.yul\":13077:13422   */\n      swap3\n      swap2\n      pop\n      pop\n      jump\t// out\n        /* \"#utility.yul\":13428:13550   */\n    tag_275:\n        /* \"#utility.yul\":13501:13525   */\n      tag_433\n        /* \"#utility.yul\":13519:13524   */\n      dup2\n        /* \"#utility.yul\":13501:13525   */\n      tag_251\n      jump\t// in\n    tag_433:\n        /* \"#utility.yul\":13494:13499   */\n      dup2\n        /* \"#utility.yul\":13491:13526   */\n      eq\n        /* \"#utility.yul\":13481:13544   */\n      tag_434\n      jumpi\n        /* \"#utility.yul\":13540:13541   */\n      0x00\n        /* \"#utility.yul\":13537:13538   */\n      dup1\n        /* \"#utility.yul\":13530:13542   */\n      revert\n        /* \"#utility.yul\":13481:13544   */\n    tag_434:\n        /* \"#utility.yul\":13428:13550   */\n      pop\n      jump\t// out\n        /* \"#utility.yul\":13556:13699   */\n    tag_276:\n        /* \"#utility.yul\":13613:13618   */\n      0x00\n        /* \"#utility.yul\":13644:13650   */\n      dup2\n        /* \"#utility.yul\":13638:13651   */\n      mload\n        /* \"#utility.yul\":13629:13651   */\n      swap1\n      pop\n        /* \"#utility.yul\":13660:13693   */\n      tag_436\n        /* \"#utility.yul\":13687:13692   */\n      dup2\n        /* \"#utility.yul\":13660:13693   */\n      tag_275\n      jump\t// in\n    tag_436:\n        /* \"#utility.yul\":13556:13699   */\n      swap3\n      swap2\n      pop\n      pop\n      jump\t// out\n        /* \"#utility.yul\":13705:14056   */\n    tag_102:\n        /* \"#utility.yul\":13775:13781   */\n      0x00\n        /* \"#utility.yul\":13824:13826   */\n      0x20\n        /* \"#utility.yul\":13812:13821   */\n      dup3\n        /* \"#utility.yul\":13803:13810   */\n      dup5\n        /* \"#utility.yul\":13799:13822   */\n      sub\n        /* \"#utility.yul\":13795:13827   */\n      slt\n        /* \"#utility.yul\":13792:13911   */\n      iszero\n      tag_438\n      jumpi\n        /* \"#utility.yul\":13830:13909   */\n      tag_439\n      tag_237\n      jump\t// in\n    tag_439:\n        /* \"#utility.yul\":13792:13911   */\n    tag_438:\n        /* \"#utility.yul\":13950:13951   */\n      0x00\n        /* \"#utility.yul\":13975:14039   */\n      tag_440\n        /* \"#utility.yul\":14031:14038   */\n      dup5\n        /* \"#utility.yul\":14022:14028   */\n      dup3\n        /* \"#utility.yul\":14011:14020   */\n      dup6\n        /* \"#utility.yul\":14007:14029   */\n      add\n        /* \"#utility.yul\":13975:14039   */\n      tag_276\n      jump\t// in\n    tag_440:\n        /* \"#utility.yul\":13965:14039   */\n      swap2\n      pop\n        /* \"#utility.yul\":13921:14049   */\n      pop\n        /* \"#utility.yul\":13705:14056   */\n      swap3\n      swap2\n      pop\n      pop\n      jump\t// out\n        /* \"#utility.yul\":14062:14726   */\n    tag_104:\n        /* \"#utility.yul\":14267:14271   */\n      0x00\n        /* \"#utility.yul\":14305:14308   */\n      0xa0\n        /* \"#utility.yul\":14294:14303   */\n      dup3\n        /* \"#utility.yul\":14290:14309   */\n      add\n        /* \"#utility.yul\":14282:14309   */\n      swap1\n      pop\n        /* \"#utility.yul\":14319:14390   */\n      tag_442\n        /* \"#utility.yul\":14387:14388   */\n      0x00\n        /* \"#utility.yul\":14376:14385   */\n      dup4\n        /* \"#utility.yul\":14372:14389   */\n      add\n        /* \"#utility.yul\":14363:14369   */\n      dup9\n        /* \"#utility.yul\":14319:14390   */\n      tag_253\n      jump\t// in\n    tag_442:\n        /* \"#utility.yul\":14400:14472   */\n      tag_443\n        /* \"#utility.yul\":14468:14470   */\n      0x20\n        /* \"#utility.yul\":14457:14466   */\n      dup4\n        /* \"#utility.yul\":14453:14471   */\n      add\n        /* \"#utility.yul\":14444:14450   */\n      dup8\n        /* \"#utility.yul\":14400:14472   */\n      tag_253\n      jump\t// in\n    tag_443:\n        /* \"#utility.yul\":14482:14554   */\n      tag_444\n        /* \"#utility.yul\":14550:14552   */\n      0x40\n        /* \"#utility.yul\":14539:14548   */\n      dup4\n        /* \"#utility.yul\":14535:14553   */\n      add\n        /* \"#utility.yul\":14526:14532   */\n      dup7\n        /* \"#utility.yul\":14482:14554   */\n      tag_273\n      jump\t// in\n    tag_444:\n        /* \"#utility.yul\":14564:14636   */\n      tag_445\n        /* \"#utility.yul\":14632:14634   */\n      0x60\n        /* \"#utility.yul\":14621:14630   */\n      dup4\n        /* \"#utility.yul\":14617:14635   */\n      add\n        /* \"#utility.yul\":14608:14614   */\n      dup6\n        /* \"#utility.yul\":14564:14636   */\n      tag_253\n      jump\t// in\n    tag_445:\n        /* \"#utility.yul\":14646:14719   */\n      tag_446\n        /* \"#utility.yul\":14714:14717   */\n      0x80\n        /* \"#utility.yul\":14703:14712   */\n      dup4\n        /* \"#utility.yul\":14699:14718   */\n      add\n        /* \"#utility.yul\":14690:14696   */\n      dup5\n        /* \"#utility.yul\":14646:14719   */\n      tag_273\n      jump\t// in\n    tag_446:\n        /* \"#utility.yul\":14062:14726   */\n      swap7\n      swap6\n      pop\n      pop\n      pop\n      pop\n      pop\n      pop\n      jump\t// out\n        /* \"#utility.yul\":14732:14879   */\n    tag_277:\n        /* \"#utility.yul\":14833:14844   */\n      0x00\n        /* \"#utility.yul\":14870:14873   */\n      dup2\n        /* \"#utility.yul\":14855:14873   */\n      swap1\n      pop\n        /* \"#utility.yul\":14732:14879   */\n      swap3\n      swap2\n      pop\n      pop\n      jump\t// out\n        /* \"#utility.yul\":14885:14999   */\n    tag_278:\n      pop\n      jump\t// out\n        /* \"#utility.yul\":15005:15403   */\n    tag_279:\n        /* \"#utility.yul\":15164:15167   */\n      0x00\n        /* \"#utility.yul\":15185:15268   */\n      tag_450\n        /* \"#utility.yul\":15266:15267   */\n      0x00\n        /* \"#utility.yul\":15261:15264   */\n      dup4\n        /* \"#utility.yul\":15185:15268   */\n      tag_277\n      jump\t// in\n    tag_450:\n        /* \"#utility.yul\":15178:15268   */\n      swap2\n      pop\n        /* \"#utility.yul\":15277:15370   */\n      tag_451\n        /* \"#utility.yul\":15366:15369   */\n      dup3\n        /* \"#utility.yul\":15277:15370   */\n      tag_278\n      jump\t// in\n    tag_451:\n        /* \"#utility.yul\":15395:15396   */\n      0x00\n        /* \"#utility.yul\":15390:15393   */\n      dup3\n        /* \"#utility.yul\":15386:15397   */\n      add\n        /* \"#utility.yul\":15379:15397   */\n      swap1\n      pop\n        /* \"#utility.yul\":15005:15403   */\n      swap2\n      swap1\n      pop\n      jump\t// out\n        /* \"#utility.yul\":15409:15788   */\n    tag_110:\n        /* \"#utility.yul\":15593:15596   */\n      0x00\n        /* \"#utility.yul\":15615:15762   */\n      tag_453\n        /* \"#utility.yul\":15758:15761   */\n      dup3\n        /* \"#utility.yul\":15615:15762   */\n      tag_279\n      jump\t// in\n    tag_453:\n        /* \"#utility.yul\":15608:15762   */\n      swap2\n      pop\n        /* \"#utility.yul\":15779:15782   */\n      dup2\n        /* \"#utility.yul\":15772:15782   */\n      swap1\n      pop\n        /* \"#utility.yul\":15409:15788   */\n      swap2\n      swap1\n      pop\n      jump\t// out\n        /* \"#utility.yul\":15794:16236   */\n    tag_116:\n        /* \"#utility.yul\":15943:15947   */\n      0x00\n        /* \"#utility.yul\":15981:15983   */\n      0x60\n        /* \"#utility.yul\":15970:15979   */\n      dup3\n        /* \"#utility.yul\":15966:15984   */\n      add\n        /* \"#utility.yul\":15958:15984   */\n      swap1\n      pop\n        /* \"#utility.yul\":15994:16065   */\n      tag_455\n        /* \"#utility.yul\":16062:16063   */\n      0x00\n        /* \"#utility.yul\":16051:16060   */\n      dup4\n        /* \"#utility.yul\":16047:16064   */\n      add\n        /* \"#utility.yul\":16038:16044   */\n      dup7\n        /* \"#utility.yul\":15994:16065   */\n      tag_253\n      jump\t// in\n    tag_455:\n        /* \"#utility.yul\":16075:16147   */\n      tag_456\n        /* \"#utility.yul\":16143:16145   */\n      0x20\n        /* \"#utility.yul\":16132:16141   */\n      dup4\n        /* \"#utility.yul\":16128:16146   */\n      add\n        /* \"#utility.yul\":16119:16125   */\n      dup6\n        /* \"#utility.yul\":16075:16147   */\n      tag_253\n      jump\t// in\n    tag_456:\n        /* \"#utility.yul\":16157:16229   */\n      tag_457\n        /* \"#utility.yul\":16225:16227   */\n      0x40\n        /* \"#utility.yul\":16214:16223   */\n      dup4\n        /* \"#utility.yul\":16210:16228   */\n      add\n        /* \"#utility.yul\":16201:16207   */\n      dup5\n        /* \"#utility.yul\":16157:16229   */\n      tag_273\n      jump\t// in\n    tag_457:\n        /* \"#utility.yul\":15794:16236   */\n      swap5\n      swap4\n      pop\n      pop\n      pop\n      pop\n      jump\t// out\n        /* \"#utility.yul\":16242:16411   */\n    tag_280:\n        /* \"#utility.yul\":16326:16337   */\n      0x00\n        /* \"#utility.yul\":16360:16366   */\n      dup3\n        /* \"#utility.yul\":16355:16358   */\n      dup3\n        /* \"#utility.yul\":16348:16367   */\n      mstore\n        /* \"#utility.yul\":16400:16404   */\n      0x20\n        /* \"#utility.yul\":16395:16398   */\n      dup3\n        /* \"#utility.yul\":16391:16405   */\n      add\n        /* \"#utility.yul\":16376:16405   */\n      swap1\n      pop\n        /* \"#utility.yul\":16242:16411   */\n      swap3\n      swap2\n      pop\n      pop\n      jump\t// out\n        /* \"#utility.yul\":16417:16589   */\n    tag_281:\n        /* \"#utility.yul\":16557:16581   */\n      0x4d7573742062652070726f706f736564206f776e657200000000000000000000\n        /* \"#utility.yul\":16553:16554   */\n      0x00\n        /* \"#utility.yul\":16545:16551   */\n      dup3\n        /* \"#utility.yul\":16541:16555   */\n      add\n        /* \"#utility.yul\":16534:16582   */\n      mstore\n        /* \"#utility.yul\":16417:16589   */\n      pop\n      jump\t// out\n        /* \"#utility.yul\":16595:16961   */\n    tag_282:\n        /* \"#utility.yul\":16737:16740   */\n      0x00\n        /* \"#utility.yul\":16758:16825   */\n      tag_461\n        /* \"#utility.yul\":16822:16824   */\n      0x16\n        /* \"#utility.yul\":16817:16820   */\n      dup4\n        /* \"#utility.yul\":16758:16825   */\n      tag_280\n      jump\t// in\n    tag_461:\n        /* \"#utility.yul\":16751:16825   */\n      swap2\n      pop\n        /* \"#utility.yul\":16834:16927   */\n      tag_462\n        /* \"#utility.yul\":16923:16926   */\n      dup3\n        /* \"#utility.yul\":16834:16927   */\n      tag_281\n      jump\t// in\n    tag_462:\n        /* \"#utility.yul\":16952:16954   */\n      0x20\n        /* \"#utility.yul\":16947:16950   */\n      dup3\n        /* \"#utility.yul\":16943:16955   */\n      add\n        /* \"#utility.yul\":16936:16955   */\n      swap1\n      pop\n        /* \"#utility.yul\":16595:16961   */\n      swap2\n      swap1\n      pop\n      jump\t// out\n        /* \"#utility.yul\":16967:17386   */\n    tag_120:\n        /* \"#utility.yul\":17133:17137   */\n      0x00\n        /* \"#utility.yul\":17171:17173   */\n      0x20\n        /* \"#utility.yul\":17160:17169   */\n      dup3\n        /* \"#utility.yul\":17156:17174   */\n      add\n        /* \"#utility.yul\":17148:17174   */\n      swap1\n      pop\n        /* \"#utility.yul\":17220:17229   */\n      dup2\n        /* \"#utility.yul\":17214:17218   */\n      dup2\n        /* \"#utility.yul\":17210:17230   */\n      sub\n        /* \"#utility.yul\":17206:17207   */\n      0x00\n        /* \"#utility.yul\":17195:17204   */\n      dup4\n        /* \"#utility.yul\":17191:17208   */\n      add\n        /* \"#utility.yul\":17184:17231   */\n      mstore\n        /* \"#utility.yul\":17248:17379   */\n      tag_464\n        /* \"#utility.yul\":17374:17378   */\n      dup2\n        /* \"#utility.yul\":17248:17379   */\n      tag_282\n      jump\t// in\n    tag_464:\n        /* \"#utility.yul\":17240:17379   */\n      swap1\n      pop\n        /* \"#utility.yul\":16967:17386   */\n      swap2\n      swap1\n      pop\n      jump\t// out\n        /* \"#utility.yul\":17392:17564   */\n    tag_283:\n        /* \"#utility.yul\":17532:17556   */\n      0x4f6e6c792063616c6c61626c65206279206f776e657200000000000000000000\n        /* \"#utility.yul\":17528:17529   */\n      0x00\n        /* \"#utility.yul\":17520:17526   */\n      dup3\n        /* \"#utility.yul\":17516:17530   */\n      add\n        /* \"#utility.yul\":17509:17557   */\n      mstore\n        /* \"#utility.yul\":17392:17564   */\n      pop\n      jump\t// out\n        /* \"#utility.yul\":17570:17936   */\n    tag_284:\n        /* \"#utility.yul\":17712:17715   */\n      0x00\n        /* \"#utility.yul\":17733:17800   */\n      tag_467\n        /* \"#utility.yul\":17797:17799   */\n      0x16\n        /* \"#utility.yul\":17792:17795   */\n      dup4\n        /* \"#utility.yul\":17733:17800   */\n      tag_280\n      jump\t// in\n    tag_467:\n        /* \"#utility.yul\":17726:17800   */\n      swap2\n      pop\n        /* \"#utility.yul\":17809:17902   */\n      tag_468\n        /* \"#utility.yul\":17898:17901   */\n      dup3\n        /* \"#utility.yul\":17809:17902   */\n      tag_283\n      jump\t// in\n    tag_468:\n        /* \"#utility.yul\":17927:17929   */\n      0x20\n        /* \"#utility.yul\":17922:17925   */\n      dup3\n        /* \"#utility.yul\":17918:17930   */\n      add\n        /* \"#utility.yul\":17911:17930   */\n      swap1\n      pop\n        /* \"#utility.yul\":17570:17936   */\n      swap2\n      swap1\n      pop\n      jump\t// out\n        /* \"#utility.yul\":17942:18361   */\n    tag_169:\n        /* \"#utility.yul\":18108:18112   */\n      0x00\n        /* \"#utility.yul\":18146:18148   */\n      0x20\n        /* \"#utility.yul\":18135:18144   */\n      dup3\n        /* \"#utility.yul\":18131:18149   */\n      add\n        /* \"#utility.yul\":18123:18149   */\n      swap1\n      pop\n        /* \"#utility.yul\":18195:18204   */\n      dup2\n        /* \"#utility.yul\":18189:18193   */\n      dup2\n        /* \"#utility.yul\":18185:18205   */\n      sub\n        /* \"#utility.yul\":18181:18182   */\n      0x00\n        /* \"#utility.yul\":18170:18179   */\n      dup4\n        /* \"#utility.yul\":18166:18183   */\n      add\n        /* \"#utility.yul\":18159:18206   */\n      mstore\n        /* \"#utility.yul\":18223:18354   */\n      tag_470\n        /* \"#utility.yul\":18349:18353   */\n      dup2\n        /* \"#utility.yul\":18223:18354   */\n      tag_284\n      jump\t// in\n    tag_470:\n        /* \"#utility.yul\":18215:18354   */\n      swap1\n      pop\n        /* \"#utility.yul\":17942:18361   */\n      swap2\n      swap1\n      pop\n      jump\t// out\n        /* \"#utility.yul\":18367:18547   */\n    tag_179:\n        /* \"#utility.yul\":18415:18492   */\n      0x4e487b7100000000000000000000000000000000000000000000000000000000\n        /* \"#utility.yul\":18412:18413   */\n      0x00\n        /* \"#utility.yul\":18405:18493   */\n      mstore\n        /* \"#utility.yul\":18512:18516   */\n      0x41\n        /* \"#utility.yul\":18509:18510   */\n      0x04\n        /* \"#utility.yul\":18502:18517   */\n      mstore\n        /* \"#utility.yul\":18536:18540   */\n      0x24\n        /* \"#utility.yul\":18533:18534   */\n      0x00\n        /* \"#utility.yul\":18526:18541   */\n      revert\n        /* \"#utility.yul\":18553:18733   */\n    tag_186:\n        /* \"#utility.yul\":18601:18678   */\n      0x4e487b7100000000000000000000000000000000000000000000000000000000\n        /* \"#utility.yul\":18598:18599   */\n      0x00\n        /* \"#utility.yul\":18591:18679   */\n      mstore\n        /* \"#utility.yul\":18698:18702   */\n      0x32\n        /* \"#utility.yul\":18695:18696   */\n      0x04\n        /* \"#utility.yul\":18688:18703   */\n      mstore\n        /* \"#utility.yul\":18722:18726   */\n      0x24\n        /* \"#utility.yul\":18719:18720   */\n      0x00\n        /* \"#utility.yul\":18712:18727   */\n      revert\n        /* \"#utility.yul\":18739:18912   */\n    tag_285:\n        /* \"#utility.yul\":18879:18904   */\n      0x43616e6e6f74207472616e7366657220746f2073656c66000000000000000000\n        /* \"#utility.yul\":18875:18876   */\n      0x00\n        /* \"#utility.yul\":18867:18873   */\n      dup3\n        /* \"#utility.yul\":18863:18877   */\n      add\n        /* \"#utility.yul\":18856:18905   */\n      mstore\n        /* \"#utility.yul\":18739:18912   */\n      pop\n      jump\t// out\n        /* \"#utility.yul\":18918:19284   */\n    tag_286:\n        /* \"#utility.yul\":19060:19063   */\n      0x00\n        /* \"#utility.yul\":19081:19148   */\n      tag_475\n        /* \"#utility.yul\":19145:19147   */\n      0x17\n        /* \"#utility.yul\":19140:19143   */\n      dup4\n        /* \"#utility.yul\":19081:19148   */\n      tag_280\n      jump\t// in\n    tag_475:\n        /* \"#utility.yul\":19074:19148   */\n      swap2\n      pop\n        /* \"#utility.yul\":19157:19250   */\n      tag_476\n        /* \"#utility.yul\":19246:19249   */\n      dup3\n        /* \"#utility.yul\":19157:19250   */\n      tag_285\n      jump\t// in\n    tag_476:\n        /* \"#utility.yul\":19275:19277   */\n      0x20\n        /* \"#utility.yul\":19270:19273   */\n      dup3\n        /* \"#utility.yul\":19266:19278   */\n      add\n        /* \"#utility.yul\":19259:19278   */\n      swap1\n      pop\n        /* \"#utility.yul\":18918:19284   */\n      swap2\n      swap1\n      pop\n      jump\t// out\n        /* \"#utility.yul\":19290:19709   */\n    tag_193:\n        /* \"#utility.yul\":19456:19460   */\n      0x00\n        /* \"#utility.yul\":19494:19496   */\n      0x20\n        /* \"#utility.yul\":19483:19492   */\n      dup3\n        /* \"#utility.yul\":19479:19497   */\n      add\n        /* \"#utility.yul\":19471:19497   */\n      swap1\n      pop\n        /* \"#utility.yul\":19543:19552   */\n      dup2\n        /* \"#utility.yul\":19537:19541   */\n      dup2\n        /* \"#utility.yul\":19533:19553   */\n      sub\n        /* \"#utility.yul\":19529:19530   */\n      0x00\n        /* \"#utility.yul\":19518:19527   */\n      dup4\n        /* \"#utility.yul\":19514:19531   */\n      add\n        /* \"#utility.yul\":19507:19554   */\n      mstore\n        /* \"#utility.yul\":19571:19702   */\n      tag_478\n        /* \"#utility.yul\":19697:19701   */\n      dup2\n        /* \"#utility.yul\":19571:19702   */\n      tag_286\n      jump\t// in\n    tag_478:\n        /* \"#utility.yul\":19563:19702   */\n      swap1\n      pop\n        /* \"#utility.yul\":19290:19709   */\n      swap2\n      swap1\n      pop\n      jump\t// out\n        /* \"#utility.yul\":19715:19944   */\n    tag_287:\n        /* \"#utility.yul\":19855:19889   */\n      0x5361666545524332303a204552433230206f7065726174696f6e20646964206e\n        /* \"#utility.yul\":19851:19852   */\n      0x00\n        /* \"#utility.yul\":19843:19849   */\n      dup3\n        /* \"#utility.yul\":19839:19853   */\n      add\n        /* \"#utility.yul\":19832:19890   */\n      mstore\n        /* \"#utility.yul\":19924:19936   */\n      0x6f74207375636365656400000000000000000000000000000000000000000000\n        /* \"#utility.yul\":19919:19921   */\n      0x20\n        /* \"#utility.yul\":19911:19917   */\n      dup3\n        /* \"#utility.yul\":19907:19922   */\n      add\n        /* \"#utility.yul\":19900:19937   */\n      mstore\n        /* \"#utility.yul\":19715:19944   */\n      pop\n      jump\t// out\n        /* \"#utility.yul\":19950:20316   */\n    tag_288:\n        /* \"#utility.yul\":20092:20095   */\n      0x00\n        /* \"#utility.yul\":20113:20180   */\n      tag_481\n        /* \"#utility.yul\":20177:20179   */\n      0x2a\n        /* \"#utility.yul\":20172:20175   */\n      dup4\n        /* \"#utility.yul\":20113:20180   */\n      tag_280\n      jump\t// in\n    tag_481:\n        /* \"#utility.yul\":20106:20180   */\n      swap2\n      pop\n        /* \"#utility.yul\":20189:20282   */\n      tag_482\n        /* \"#utility.yul\":20278:20281   */\n      dup3\n        /* \"#utility.yul\":20189:20282   */\n      tag_287\n      jump\t// in\n    tag_482:\n        /* \"#utility.yul\":20307:20309   */\n      0x40\n        /* \"#utility.yul\":20302:20305   */\n      dup3\n        /* \"#utility.yul\":20298:20310   */\n      add\n        /* \"#utility.yul\":20291:20310   */\n      swap1\n      pop\n        /* \"#utility.yul\":19950:20316   */\n      swap2\n      swap1\n      pop\n      jump\t// out\n        /* \"#utility.yul\":20322:20741   */\n    tag_201:\n        /* \"#utility.yul\":20488:20492   */\n      0x00\n        /* \"#utility.yul\":20526:20528   */\n      0x20\n        /* \"#utility.yul\":20515:20524   */\n      dup3\n        /* \"#utility.yul\":20511:20529   */\n      add\n        /* \"#utility.yul\":20503:20529   */\n      swap1\n      pop\n        /* \"#utility.yul\":20575:20584   */\n      dup2\n        /* \"#utility.yul\":20569:20573   */\n      dup2\n        /* \"#utility.yul\":20565:20585   */\n      sub\n        /* \"#utility.yul\":20561:20562   */\n      0x00\n        /* \"#utility.yul\":20550:20559   */\n      dup4\n        /* \"#utility.yul\":20546:20563   */\n      add\n        /* \"#utility.yul\":20539:20586   */\n      mstore\n        /* \"#utility.yul\":20603:20734   */\n      tag_484\n        /* \"#utility.yul\":20729:20733   */\n      dup2\n        /* \"#utility.yul\":20603:20734   */\n      tag_288\n      jump\t// in\n    tag_484:\n        /* \"#utility.yul\":20595:20734   */\n      swap1\n      pop\n        /* \"#utility.yul\":20322:20741   */\n      swap2\n      swap1\n      pop\n      jump\t// out\n        /* \"#utility.yul\":20815:21162   */\n    tag_289:\n        /* \"#utility.yul\":20972:20976   */\n      0x20\n        /* \"#utility.yul\":20967:20970   */\n      dup3\n        /* \"#utility.yul\":20963:20977   */\n      add\n        /* \"#utility.yul\":21063:21067   */\n      0x00\n        /* \"#utility.yul\":21056:21061   */\n      dup3\n        /* \"#utility.yul\":21052:21068   */\n      add\n        /* \"#utility.yul\":21046:21069   */\n      mload\n        /* \"#utility.yul\":21082:21145   */\n      tag_486\n        /* \"#utility.yul\":21139:21143   */\n      0x00\n        /* \"#utility.yul\":21134:21137   */\n      dup6\n        /* \"#utility.yul\":21130:21144   */\n      add\n        /* \"#utility.yul\":21116:21128   */\n      dup3\n        /* \"#utility.yul\":21082:21145   */\n      tag_267\n      jump\t// in\n    tag_486:\n        /* \"#utility.yul\":20987:21155   */\n      pop\n        /* \"#utility.yul\":20941:21162   */\n      pop\n        /* \"#utility.yul\":20815:21162   */\n      pop\n      pop\n      jump\t// out\n        /* \"#utility.yul\":21168:21510   */\n    tag_204:\n        /* \"#utility.yul\":21321:21325   */\n      0x00\n        /* \"#utility.yul\":21359:21361   */\n      0x20\n        /* \"#utility.yul\":21348:21357   */\n      dup3\n        /* \"#utility.yul\":21344:21362   */\n      add\n        /* \"#utility.yul\":21336:21362   */\n      swap1\n      pop\n        /* \"#utility.yul\":21372:21503   */\n      tag_488\n        /* \"#utility.yul\":21500:21501   */\n      0x00\n        /* \"#utility.yul\":21489:21498   */\n      dup4\n        /* \"#utility.yul\":21485:21502   */\n      add\n        /* \"#utility.yul\":21476:21482   */\n      dup5\n        /* \"#utility.yul\":21372:21503   */\n      tag_289\n      jump\t// in\n    tag_488:\n        /* \"#utility.yul\":21168:21510   */\n      swap3\n      swap2\n      pop\n      pop\n      jump\t// out\n        /* \"#utility.yul\":21516:21741   */\n    tag_290:\n        /* \"#utility.yul\":21656:21690   */\n      0x416464726573733a20696e73756666696369656e742062616c616e636520666f\n        /* \"#utility.yul\":21652:21653   */\n      0x00\n        /* \"#utility.yul\":21644:21650   */\n      dup3\n        /* \"#utility.yul\":21640:21654   */\n      add\n        /* \"#utility.yul\":21633:21691   */\n      mstore\n        /* \"#utility.yul\":21725:21733   */\n      0x722063616c6c0000000000000000000000000000000000000000000000000000\n        /* \"#utility.yul\":21720:21722   */\n      0x20\n        /* \"#utility.yul\":21712:21718   */\n      dup3\n        /* \"#utility.yul\":21708:21723   */\n      add\n        /* \"#utility.yul\":21701:21734   */\n      mstore\n        /* \"#utility.yul\":21516:21741   */\n      pop\n      jump\t// out\n        /* \"#utility.yul\":21747:22113   */\n    tag_291:\n        /* \"#utility.yul\":21889:21892   */\n      0x00\n        /* \"#utility.yul\":21910:21977   */\n      tag_491\n        /* \"#utility.yul\":21974:21976   */\n      0x26\n        /* \"#utility.yul\":21969:21972   */\n      dup4\n        /* \"#utility.yul\":21910:21977   */\n      tag_280\n      jump\t// in\n    tag_491:\n        /* \"#utility.yul\":21903:21977   */\n      swap2\n      pop\n        /* \"#utility.yul\":21986:22079   */\n      tag_492\n        /* \"#utility.yul\":22075:22078   */\n      dup3\n        /* \"#utility.yul\":21986:22079   */\n      tag_290\n      jump\t// in\n    tag_492:\n        /* \"#utility.yul\":22104:22106   */\n      0x40\n        /* \"#utility.yul\":22099:22102   */\n      dup3\n        /* \"#utility.yul\":22095:22107   */\n      add\n        /* \"#utility.yul\":22088:22107   */\n      swap1\n      pop\n        /* \"#utility.yul\":21747:22113   */\n      swap2\n      swap1\n      pop\n      jump\t// out\n        /* \"#utility.yul\":22119:22538   */\n    tag_211:\n        /* \"#utility.yul\":22285:22289   */\n      0x00\n        /* \"#utility.yul\":22323:22325   */\n      0x20\n        /* \"#utility.yul\":22312:22321   */\n      dup3\n        /* \"#utility.yul\":22308:22326   */\n      add\n        /* \"#utility.yul\":22300:22326   */\n      swap1\n      pop\n        /* \"#utility.yul\":22372:22381   */\n      dup2\n        /* \"#utility.yul\":22366:22370   */\n      dup2\n        /* \"#utility.yul\":22362:22382   */\n      sub\n        /* \"#utility.yul\":22358:22359   */\n      0x00\n        /* \"#utility.yul\":22347:22356   */\n      dup4\n        /* \"#utility.yul\":22343:22360   */\n      add\n        /* \"#utility.yul\":22336:22383   */\n      mstore\n        /* \"#utility.yul\":22400:22531   */\n      tag_494\n        /* \"#utility.yul\":22526:22530   */\n      dup2\n        /* \"#utility.yul\":22400:22531   */\n      tag_291\n      jump\t// in\n    tag_494:\n        /* \"#utility.yul\":22392:22531   */\n      swap1\n      pop\n        /* \"#utility.yul\":22119:22538   */\n      swap2\n      swap1\n      pop\n      jump\t// out\n        /* \"#utility.yul\":22544:22930   */\n    tag_292:\n        /* \"#utility.yul\":22648:22651   */\n      0x00\n        /* \"#utility.yul\":22676:22714   */\n      tag_496\n        /* \"#utility.yul\":22708:22713   */\n      dup3\n        /* \"#utility.yul\":22676:22714   */\n      tag_258\n      jump\t// in\n    tag_496:\n        /* \"#utility.yul\":22730:22818   */\n      tag_497\n        /* \"#utility.yul\":22811:22817   */\n      dup2\n        /* \"#utility.yul\":22806:22809   */\n      dup6\n        /* \"#utility.yul\":22730:22818   */\n      tag_277\n      jump\t// in\n    tag_497:\n        /* \"#utility.yul\":22723:22818   */\n      swap4\n      pop\n        /* \"#utility.yul\":22827:22892   */\n      tag_498\n        /* \"#utility.yul\":22885:22891   */\n      dup2\n        /* \"#utility.yul\":22880:22883   */\n      dup6\n        /* \"#utility.yul\":22873:22877   */\n      0x20\n        /* \"#utility.yul\":22866:22871   */\n      dup7\n        /* \"#utility.yul\":22862:22878   */\n      add\n        /* \"#utility.yul\":22827:22892   */\n      tag_260\n      jump\t// in\n    tag_498:\n        /* \"#utility.yul\":22917:22923   */\n      dup1\n        /* \"#utility.yul\":22912:22915   */\n      dup5\n        /* \"#utility.yul\":22908:22924   */\n      add\n        /* \"#utility.yul\":22901:22924   */\n      swap2\n      pop\n        /* \"#utility.yul\":22652:22930   */\n      pop\n        /* \"#utility.yul\":22544:22930   */\n      swap3\n      swap2\n      pop\n      pop\n      jump\t// out\n        /* \"#utility.yul\":22936:23207   */\n    tag_213:\n        /* \"#utility.yul\":23066:23069   */\n      0x00\n        /* \"#utility.yul\":23088:23181   */\n      tag_500\n        /* \"#utility.yul\":23177:23180   */\n      dup3\n        /* \"#utility.yul\":23168:23174   */\n      dup5\n        /* \"#utility.yul\":23088:23181   */\n      tag_292\n      jump\t// in\n    tag_500:\n        /* \"#utility.yul\":23081:23181   */\n      swap2\n      pop\n        /* \"#utility.yul\":23198:23201   */\n      dup2\n        /* \"#utility.yul\":23191:23201   */\n      swap1\n      pop\n        /* \"#utility.yul\":22936:23207   */\n      swap3\n      swap2\n      pop\n      pop\n      jump\t// out\n        /* \"#utility.yul\":23213:23392   */\n    tag_293:\n        /* \"#utility.yul\":23353:23384   */\n      0x416464726573733a2063616c6c20746f206e6f6e2d636f6e7472616374000000\n        /* \"#utility.yul\":23349:23350   */\n      0x00\n        /* \"#utility.yul\":23341:23347   */\n      dup3\n        /* \"#utility.yul\":23337:23351   */\n      add\n        /* \"#utility.yul\":23330:23385   */\n      mstore\n        /* \"#utility.yul\":23213:23392   */\n      pop\n      jump\t// out\n        /* \"#utility.yul\":23398:23764   */\n    tag_294:\n        /* \"#utility.yul\":23540:23543   */\n      0x00\n        /* \"#utility.yul\":23561:23628   */\n      tag_503\n        /* \"#utility.yul\":23625:23627   */\n      0x1d\n        /* \"#utility.yul\":23620:23623   */\n      dup4\n        /* \"#utility.yul\":23561:23628   */\n      tag_280\n      jump\t// in\n    tag_503:\n        /* \"#utility.yul\":23554:23628   */\n      swap2\n      pop\n        /* \"#utility.yul\":23637:23730   */\n      tag_504\n        /* \"#utility.yul\":23726:23729   */\n      dup3\n        /* \"#utility.yul\":23637:23730   */\n      tag_293\n      jump\t// in\n    tag_504:\n        /* \"#utility.yul\":23755:23757   */\n      0x20\n        /* \"#utility.yul\":23750:23753   */\n      dup3\n        /* \"#utility.yul\":23746:23758   */\n      add\n        /* \"#utility.yul\":23739:23758   */\n      swap1\n      pop\n        /* \"#utility.yul\":23398:23764   */\n      swap2\n      swap1\n      pop\n      jump\t// out\n        /* \"#utility.yul\":23770:24189   */\n    tag_226:\n        /* \"#utility.yul\":23936:23940   */\n      0x00\n        /* \"#utility.yul\":23974:23976   */\n      0x20\n        /* \"#utility.yul\":23963:23972   */\n      dup3\n        /* \"#utility.yul\":23959:23977   */\n      add\n        /* \"#utility.yul\":23951:23977   */\n      swap1\n      pop\n        /* \"#utility.yul\":24023:24032   */\n      dup2\n        /* \"#utility.yul\":24017:24021   */\n      dup2\n        /* \"#utility.yul\":24013:24033   */\n      sub\n        /* \"#utility.yul\":24009:24010   */\n      0x00\n        /* \"#utility.yul\":23998:24007   */\n      dup4\n        /* \"#utility.yul\":23994:24011   */\n      add\n        /* \"#utility.yul\":23987:24034   */\n      mstore\n        /* \"#utility.yul\":24051:24182   */\n      tag_506\n        /* \"#utility.yul\":24177:24181   */\n      dup2\n        /* \"#utility.yul\":24051:24182   */\n      tag_294\n      jump\t// in\n    tag_506:\n        /* \"#utility.yul\":24043:24182   */\n      swap1\n      pop\n        /* \"#utility.yul\":23770:24189   */\n      swap2\n      swap1\n      pop\n      jump\t// out\n        /* \"#utility.yul\":24195:24294   */\n    tag_295:\n        /* \"#utility.yul\":24247:24253   */\n      0x00\n        /* \"#utility.yul\":24281:24286   */\n      dup2\n        /* \"#utility.yul\":24275:24287   */\n      mload\n        /* \"#utility.yul\":24265:24287   */\n      swap1\n      pop\n        /* \"#utility.yul\":24195:24294   */\n      swap2\n      swap1\n      pop\n      jump\t// out\n        /* \"#utility.yul\":24300:24677   */\n    tag_296:\n        /* \"#utility.yul\":24388:24391   */\n      0x00\n        /* \"#utility.yul\":24416:24455   */\n      tag_509\n        /* \"#utility.yul\":24449:24454   */\n      dup3\n        /* \"#utility.yul\":24416:24455   */\n      tag_295\n      jump\t// in\n    tag_509:\n        /* \"#utility.yul\":24471:24542   */\n      tag_510\n        /* \"#utility.yul\":24535:24541   */\n      dup2\n        /* \"#utility.yul\":24530:24533   */\n      dup6\n        /* \"#utility.yul\":24471:24542   */\n      tag_280\n      jump\t// in\n    tag_510:\n        /* \"#utility.yul\":24464:24542   */\n      swap4\n      pop\n        /* \"#utility.yul\":24551:24616   */\n      tag_511\n        /* \"#utility.yul\":24609:24615   */\n      dup2\n        /* \"#utility.yul\":24604:24607   */\n      dup6\n        /* \"#utility.yul\":24597:24601   */\n      0x20\n        /* \"#utility.yul\":24590:24595   */\n      dup7\n        /* \"#utility.yul\":24586:24602   */\n      add\n        /* \"#utility.yul\":24551:24616   */\n      tag_260\n      jump\t// in\n    tag_511:\n        /* \"#utility.yul\":24641:24670   */\n      tag_512\n        /* \"#utility.yul\":24663:24669   */\n      dup2\n        /* \"#utility.yul\":24641:24670   */\n      tag_261\n      jump\t// in\n    tag_512:\n        /* \"#utility.yul\":24636:24639   */\n      dup5\n        /* \"#utility.yul\":24632:24671   */\n      add\n        /* \"#utility.yul\":24625:24671   */\n      swap2\n      pop\n        /* \"#utility.yul\":24392:24677   */\n      pop\n        /* \"#utility.yul\":24300:24677   */\n      swap3\n      swap2\n      pop\n      pop\n      jump\t// out\n        /* \"#utility.yul\":24683:24996   */\n    tag_235:\n        /* \"#utility.yul\":24796:24800   */\n      0x00\n        /* \"#utility.yul\":24834:24836   */\n      0x20\n        /* \"#utility.yul\":24823:24832   */\n      dup3\n        /* \"#utility.yul\":24819:24837   */\n      add\n        /* \"#utility.yul\":24811:24837   */\n      swap1\n      pop\n        /* \"#utility.yul\":24883:24892   */\n      dup2\n        /* \"#utility.yul\":24877:24881   */\n      dup2\n        /* \"#utility.yul\":24873:24893   */\n      sub\n        /* \"#utility.yul\":24869:24870   */\n      0x00\n        /* \"#utility.yul\":24858:24867   */\n      dup4\n        /* \"#utility.yul\":24854:24871   */\n      add\n        /* \"#utility.yul\":24847:24894   */\n      mstore\n        /* \"#utility.yul\":24911:24989   */\n      tag_514\n        /* \"#utility.yul\":24984:24988   */\n      dup2\n        /* \"#utility.yul\":24975:24981   */\n      dup5\n        /* \"#utility.yul\":24911:24989   */\n      tag_296\n      jump\t// in\n    tag_514:\n        /* \"#utility.yul\":24903:24989   */\n      swap1\n      pop\n        /* \"#utility.yul\":24683:24996   */\n      swap3\n      swap2\n      pop\n      pop\n      jump\t// out\n\n    auxdata: 0xa2646970667358221220916f307e336c0f092f782f34b83a97a566d9b4e4248c881b6dd2b529eded746064736f6c63430008140033\n}\n",
				"bytecode": {
					"linkReferences": {},
					"object": "608060405234801562000010575f80fd5b50604051620025fb380380620025fb83398181016040528101906200003691906200034c565b33805f8073ffffffffffffffffffffffffffffffffffffffff168273ffffffffffffffffffffffffffffffffffffffff1603620000aa576040517f08c379a0000000000000000000000000000000000000000000000000000000008152600401620000a190620003ef565b60405180910390fd5b815f806101000a81548173ffffffffffffffffffffffffffffffffffffffff021916908373ffffffffffffffffffffffffffffffffffffffff1602179055505f73ffffffffffffffffffffffffffffffffffffffff168173ffffffffffffffffffffffffffffffffffffffff16146200012f576200012e81620001ba60201b60201c565b5b5050508160035f6101000a81548173ffffffffffffffffffffffffffffffffffffffff021916908373ffffffffffffffffffffffffffffffffffffffff1602179055508060045f6101000a81548173ffffffffffffffffffffffffffffffffffffffff021916908373ffffffffffffffffffffffffffffffffffffffff16021790555050506200047d565b3373ffffffffffffffffffffffffffffffffffffffff168173ffffffffffffffffffffffffffffffffffffffff16036200022b576040517f08c379a000000000000000000000000000000000000000000000000000000000815260040162000222906200045d565b60405180910390fd5b8060015f6101000a81548173ffffffffffffffffffffffffffffffffffffffff021916908373ffffffffffffffffffffffffffffffffffffffff1602179055508073ffffffffffffffffffffffffffffffffffffffff165f8054906101000a900473ffffffffffffffffffffffffffffffffffffffff1673ffffffffffffffffffffffffffffffffffffffff167fed8889f560326eb138920d842192f0eb3dd22b4f139c87a2c57538e05bae127860405160405180910390a350565b5f80fd5b5f73ffffffffffffffffffffffffffffffffffffffff82169050919050565b5f6200031682620002eb565b9050919050565b62000328816200030a565b811462000333575f80fd5b50565b5f8151905062000346816200031d565b92915050565b5f8060408385031215620003655762000364620002e7565b5b5f620003748582860162000336565b9250506020620003878582860162000336565b9150509250929050565b5f82825260208201905092915050565b7f43616e6e6f7420736574206f776e657220746f207a65726f00000000000000005f82015250565b5f620003d760188362000391565b9150620003e482620003a1565b602082019050919050565b5f6020820190508181035f8301526200040881620003c9565b9050919050565b7f43616e6e6f74207472616e7366657220746f2073656c660000000000000000005f82015250565b5f6200044560178362000391565b915062000452826200040f565b602082019050919050565b5f6020820190508181035f830152620004768162000437565b9050919050565b612170806200048b5f395ff3fe608060405260043610610089575f3560e01c806379ba50971161005857806379ba50971461015c5780638da5cb5b1461017257806395e1402c1461019c57806396d3b83d146101d8578063f2fde38b1461020057610090565b80630bb106eb146100945780633aeac4e1146100d057806351419b4b146100f857806351cff8d91461013457610090565b3661009057005b5f80fd5b34801561009f575f80fd5b506100ba60048036038101906100b5919061166e565b610228565b6040516100c791906116b3565b60405180910390f35b3480156100db575f80fd5b506100f660048036038101906100f19190611726565b610245565b005b348015610103575f80fd5b5061011e60048036038101906101199190611797565b610331565b60405161012b9190611813565b60405180910390f35b34801561013f575f80fd5b5061015a6004803603810190610155919061182c565b61069c565b005b348015610167575f80fd5b50610170610794565b005b34801561017d575f80fd5b50610186610923565b6040516101939190611866565b60405180910390f35b3480156101a7575f80fd5b506101c260048036038101906101bd9190611797565b61094a565b6040516101cf9190611813565b60405180910390f35b3480156101e3575f80fd5b506101fe60048036038101906101f991906118a9565b610ee3565b005b34801561020b575f80fd5b506102266004803603810190610221919061182c565b610f2b565b005b6002602052805f5260405f205f915054906101000a900460ff1681565b61024d610f3f565b5f8173ffffffffffffffffffffffffffffffffffffffff166370a08231306040518263ffffffff1660e01b81526004016102879190611866565b602060405180830381865afa1580156102a2573d5f803e3d5ffd5b505050506040513d601f19601f820116820180604052508101906102c691906118fb565b90505f8103610301576040517fd0d04f6000000000000000000000000000000000000000000000000000000000815260040160405180910390fd5b61032c83828473ffffffffffffffffffffffffffffffffffffffff16610fce9092919063ffffffff16565b505050565b5f61033a610f3f565b8460025f8267ffffffffffffffff1667ffffffffffffffff1681526020019081526020015f205f9054906101000a900460ff166103ae57806040517f0a503cdb0000000000000000000000000000000000000000000000000000000081526004016103a59190611935565b60405180910390fd5b845f73ffffffffffffffffffffffffffffffffffffffff168173ffffffffffffffffffffffffffffffffffffffff1603610414576040517fa05ff47e00000000000000000000000000000000000000000000000000000000815260040160405180910390fd5b5f6104218787875f611054565b90505f60035f9054906101000a900473ffffffffffffffffffffffffffffffffffffffff1673ffffffffffffffffffffffffffffffffffffffff166320487ded8a846040518363ffffffff1660e01b8152600401610480929190611b53565b602060405180830381865afa15801561049b573d5f803e3d5ffd5b505050506040513d601f19601f820116820180604052508101906104bf91906118fb565b9050478111156105085747816040517f8f0f42060000000000000000000000000000000000000000000000000000000081526004016104ff929190611b90565b60405180910390fd5b8673ffffffffffffffffffffffffffffffffffffffff1663095ea7b360035f9054906101000a900473ffffffffffffffffffffffffffffffffffffffff16886040518363ffffffff1660e01b8152600401610564929190611bb7565b6020604051808303815f875af1158015610580573d5f803e3d5ffd5b505050506040513d601f19601f820116820180604052508101906105a49190611bf2565b5060035f9054906101000a900473ffffffffffffffffffffffffffffffffffffffff1673ffffffffffffffffffffffffffffffffffffffff166396f4e9f9828b856040518463ffffffff1660e01b8152600401610602929190611b53565b60206040518083038185885af115801561061e573d5f803e3d5ffd5b50505050506040513d601f19601f820116820180604052508101906106439190611c47565b94508867ffffffffffffffff16857fc15fb748c32ba4eb29c1c311e78533f93b4425eab49ea87c6fe4279ecadca0438a8a8a5f87604051610688959493929190611c72565b60405180910390a350505050949350505050565b6106a4610f3f565b5f4790505f81036106e1576040517fd0d04f6000000000000000000000000000000000000000000000000000000000815260040160405180910390fd5b5f8273ffffffffffffffffffffffffffffffffffffffff168260405161070690611cf0565b5f6040518083038185875af1925050503d805f8114610740576040519150601f19603f3d011682016040523d82523d5f602084013e610745565b606091505b505090508061078f573383836040517f9d11f56300000000000000000000000000000000000000000000000000000000815260040161078693929190611d04565b60405180910390fd5b505050565b60015f9054906101000a900473ffffffffffffffffffffffffffffffffffffffff1673ffffffffffffffffffffffffffffffffffffffff163373ffffffffffffffffffffffffffffffffffffffff1614610823576040517f08c379a000000000000000000000000000000000000000000000000000000000815260040161081a90611d93565b60405180910390fd5b5f805f9054906101000a900473ffffffffffffffffffffffffffffffffffffffff169050335f806101000a81548173ffffffffffffffffffffffffffffffffffffffff021916908373ffffffffffffffffffffffffffffffffffffffff1602179055505f60015f6101000a81548173ffffffffffffffffffffffffffffffffffffffff021916908373ffffffffffffffffffffffffffffffffffffffff1602179055503373ffffffffffffffffffffffffffffffffffffffff168173ffffffffffffffffffffffffffffffffffffffff167f8be0079c531659141344cd1fd0a4f28419497f9722a3daafe3b4186f6b6457e060405160405180910390a350565b5f805f9054906101000a900473ffffffffffffffffffffffffffffffffffffffff16905090565b5f610953610f3f565b8460025f8267ffffffffffffffff1667ffffffffffffffff1681526020019081526020015f205f9054906101000a900460ff166109c757806040517f0a503cdb0000000000000000000000000000000000000000000000000000000081526004016109be9190611935565b60405180910390fd5b845f73ffffffffffffffffffffffffffffffffffffffff168173ffffffffffffffffffffffffffffffffffffffff1603610a2d576040517fa05ff47e00000000000000000000000000000000000000000000000000000000815260040160405180910390fd5b5f610a5b87878760045f9054906101000a900473ffffffffffffffffffffffffffffffffffffffff16611054565b90505f60035f9054906101000a900473ffffffffffffffffffffffffffffffffffffffff1673ffffffffffffffffffffffffffffffffffffffff166320487ded8a846040518363ffffffff1660e01b8152600401610aba929190611b53565b602060405180830381865afa158015610ad5573d5f803e3d5ffd5b505050506040513d601f19601f82011682018060405250810190610af991906118fb565b905060045f9054906101000a900473ffffffffffffffffffffffffffffffffffffffff1673ffffffffffffffffffffffffffffffffffffffff166370a08231306040518263ffffffff1660e01b8152600401610b559190611866565b602060405180830381865afa158015610b70573d5f803e3d5ffd5b505050506040513d601f19601f82011682018060405250810190610b9491906118fb565b811115610c725760045f9054906101000a900473ffffffffffffffffffffffffffffffffffffffff1673ffffffffffffffffffffffffffffffffffffffff166370a08231306040518263ffffffff1660e01b8152600401610bf59190611866565b602060405180830381865afa158015610c10573d5f803e3d5ffd5b505050506040513d601f19601f82011682018060405250810190610c3491906118fb565b816040517f8f0f4206000000000000000000000000000000000000000000000000000000008152600401610c69929190611b90565b60405180910390fd5b60045f9054906101000a900473ffffffffffffffffffffffffffffffffffffffff1673ffffffffffffffffffffffffffffffffffffffff1663095ea7b360035f9054906101000a900473ffffffffffffffffffffffffffffffffffffffff16836040518363ffffffff1660e01b8152600401610cef929190611bb7565b6020604051808303815f875af1158015610d0b573d5f803e3d5ffd5b505050506040513d601f19601f82011682018060405250810190610d2f9190611bf2565b508673ffffffffffffffffffffffffffffffffffffffff1663095ea7b360035f9054906101000a900473ffffffffffffffffffffffffffffffffffffffff16886040518363ffffffff1660e01b8152600401610d8c929190611bb7565b6020604051808303815f875af1158015610da8573d5f803e3d5ffd5b505050506040513d601f19601f82011682018060405250810190610dcc9190611bf2565b5060035f9054906101000a900473ffffffffffffffffffffffffffffffffffffffff1673ffffffffffffffffffffffffffffffffffffffff166396f4e9f98a846040518363ffffffff1660e01b8152600401610e29929190611b53565b6020604051808303815f875af1158015610e45573d5f803e3d5ffd5b505050506040513d601f19601f82011682018060405250810190610e699190611c47565b94508867ffffffffffffffff16857fc15fb748c32ba4eb29c1c311e78533f93b4425eab49ea87c6fe4279ecadca0438a8a8a60045f9054906101000a900473ffffffffffffffffffffffffffffffffffffffff1687604051610ecf959493929190611c72565b60405180910390a350505050949350505050565b610eeb610f3f565b8060025f8467ffffffffffffffff1667ffffffffffffffff1681526020019081526020015f205f6101000a81548160ff0219169083151502179055505050565b610f33610f3f565b610f3c81611188565b50565b5f8054906101000a900473ffffffffffffffffffffffffffffffffffffffff1673ffffffffffffffffffffffffffffffffffffffff163373ffffffffffffffffffffffffffffffffffffffff1614610fcc576040517f08c379a0000000000000000000000000000000000000000000000000000000008152600401610fc390611dfb565b60405180910390fd5b565b61104f8363a9059cbb60e01b8484604051602401610fed929190611bb7565b604051602081830303815290604052907bffffffffffffffffffffffffffffffffffffffffffffffffffffffff19166020820180517bffffffffffffffffffffffffffffffffffffffffffffffffffffffff83818316178352505050506112b2565b505050565b61105c6115bb565b5f600167ffffffffffffffff81111561107857611077611e19565b5b6040519080825280602002602001820160405280156110b157816020015b61109e6115ff565b8152602001906001900390816110965790505b50905060405180604001604052808673ffffffffffffffffffffffffffffffffffffffff16815260200185815250815f815181106110f2576110f1611e46565b5b60200260200101819052506040518060a00160405280876040516020016111199190611866565b604051602081830303815290604052815260200160405180602001604052805f81525081526020018281526020018473ffffffffffffffffffffffffffffffffffffffff16815260200161117a60405180602001604052805f815250611377565b815250915050949350505050565b3373ffffffffffffffffffffffffffffffffffffffff168173ffffffffffffffffffffffffffffffffffffffff16036111f6576040517f08c379a00000000000000000000000000000000000000000000000000000000081526004016111ed90611ebd565b60405180910390fd5b8060015f6101000a81548173ffffffffffffffffffffffffffffffffffffffff021916908373ffffffffffffffffffffffffffffffffffffffff1602179055508073ffffffffffffffffffffffffffffffffffffffff165f8054906101000a900473ffffffffffffffffffffffffffffffffffffffff1673ffffffffffffffffffffffffffffffffffffffff167fed8889f560326eb138920d842192f0eb3dd22b4f139c87a2c57538e05bae127860405160405180910390a350565b5f611313826040518060400160405280602081526020017f5361666545524332303a206c6f772d6c6576656c2063616c6c206661696c65648152508573ffffffffffffffffffffffffffffffffffffffff166113f69092919063ffffffff16565b90505f8151111561137257808060200190518101906113329190611bf2565b611371576040517f08c379a000000000000000000000000000000000000000000000000000000000815260040161136890611f4b565b60405180910390fd5b5b505050565b60606397a657c960e01b826040516024016113929190611f83565b604051602081830303815290604052907bffffffffffffffffffffffffffffffffffffffffffffffffffffffff19166020820180517bffffffffffffffffffffffffffffffffffffffffffffffffffffffff83818316178352505050509050919050565b606061140484845f8561140d565b90509392505050565b606082471015611452576040517f08c379a00000000000000000000000000000000000000000000000000000000081526004016114499061200c565b60405180910390fd5b5f808673ffffffffffffffffffffffffffffffffffffffff16858760405161147a919061205a565b5f6040518083038185875af1925050503d805f81146114b4576040519150601f19603f3d011682016040523d82523d5f602084013e6114b9565b606091505b50915091506114ca878383876114d6565b92505050949350505050565b60608315611537575f83510361152f576114ef8561154a565b61152e576040517f08c379a0000000000000000000000000000000000000000000000000000000008152600401611525906120ba565b60405180910390fd5b5b829050611542565b611541838361156c565b5b949350505050565b5f808273ffffffffffffffffffffffffffffffffffffffff163b119050919050565b5f8251111561157e5781518083602001fd5b806040517f08c379a00000000000000000000000000000000000000000000000000000000081526004016115b2919061211a565b60405180910390fd5b6040518060a001604052806060815260200160608152602001606081526020015f73ffffffffffffffffffffffffffffffffffffffff168152602001606081525090565b60405180604001604052805f73ffffffffffffffffffffffffffffffffffffffff1681526020015f81525090565b5f80fd5b5f67ffffffffffffffff82169050919050565b61164d81611631565b8114611657575f80fd5b50565b5f8135905061166881611644565b92915050565b5f602082840312156116835761168261162d565b5b5f6116908482850161165a565b91505092915050565b5f8115159050919050565b6116ad81611699565b82525050565b5f6020820190506116c65f8301846116a4565b92915050565b5f73ffffffffffffffffffffffffffffffffffffffff82169050919050565b5f6116f5826116cc565b9050919050565b611705816116eb565b811461170f575f80fd5b50565b5f81359050611720816116fc565b92915050565b5f806040838503121561173c5761173b61162d565b5b5f61174985828601611712565b925050602061175a85828601611712565b9150509250929050565b5f819050919050565b61177681611764565b8114611780575f80fd5b50565b5f813590506117918161176d565b92915050565b5f805f80608085870312156117af576117ae61162d565b5b5f6117bc8782880161165a565b94505060206117cd87828801611712565b93505060406117de87828801611712565b92505060606117ef87828801611783565b91505092959194509250565b5f819050919050565b61180d816117fb565b82525050565b5f6020820190506118265f830184611804565b92915050565b5f602082840312156118415761184061162d565b5b5f61184e84828501611712565b91505092915050565b611860816116eb565b82525050565b5f6020820190506118795f830184611857565b92915050565b61188881611699565b8114611892575f80fd5b50565b5f813590506118a38161187f565b92915050565b5f80604083850312156118bf576118be61162d565b5b5f6118cc8582860161165a565b92505060206118dd85828601611895565b9150509250929050565b5f815190506118f58161176d565b92915050565b5f602082840312156119105761190f61162d565b5b5f61191d848285016118e7565b91505092915050565b61192f81611631565b82525050565b5f6020820190506119485f830184611926565b92915050565b5f81519050919050565b5f82825260208201905092915050565b5f5b8381101561198557808201518184015260208101905061196a565b5f8484015250505050565b5f601f19601f8301169050919050565b5f6119aa8261194e565b6119b48185611958565b93506119c4818560208601611968565b6119cd81611990565b840191505092915050565b5f81519050919050565b5f82825260208201905092915050565b5f819050602082019050919050565b611a0a816116eb565b82525050565b611a1981611764565b82525050565b604082015f820151611a335f850182611a01565b506020820151611a466020850182611a10565b50505050565b5f611a578383611a1f565b60408301905092915050565b5f602082019050919050565b5f611a79826119d8565b611a8381856119e2565b9350611a8e836119f2565b805f5b83811015611abe578151611aa58882611a4c565b9750611ab083611a63565b925050600181019050611a91565b5085935050505092915050565b5f60a083015f8301518482035f860152611ae582826119a0565b91505060208301518482036020860152611aff82826119a0565b91505060408301518482036040860152611b198282611a6f565b9150506060830151611b2e6060860182611a01565b5060808301518482036080860152611b4682826119a0565b9150508091505092915050565b5f604082019050611b665f830185611926565b8181036020830152611b788184611acb565b90509392505050565b611b8a81611764565b82525050565b5f604082019050611ba35f830185611b81565b611bb06020830184611b81565b9392505050565b5f604082019050611bca5f830185611857565b611bd76020830184611b81565b9392505050565b5f81519050611bec8161187f565b92915050565b5f60208284031215611c0757611c0661162d565b5b5f611c1484828501611bde565b91505092915050565b611c26816117fb565b8114611c30575f80fd5b50565b5f81519050611c4181611c1d565b92915050565b5f60208284031215611c5c57611c5b61162d565b5b5f611c6984828501611c33565b91505092915050565b5f60a082019050611c855f830188611857565b611c926020830187611857565b611c9f6040830186611b81565b611cac6060830185611857565b611cb96080830184611b81565b9695505050505050565b5f81905092915050565b50565b5f611cdb5f83611cc3565b9150611ce682611ccd565b5f82019050919050565b5f611cfa82611cd0565b9150819050919050565b5f606082019050611d175f830186611857565b611d246020830185611857565b611d316040830184611b81565b949350505050565b5f82825260208201905092915050565b7f4d7573742062652070726f706f736564206f776e6572000000000000000000005f82015250565b5f611d7d601683611d39565b9150611d8882611d49565b602082019050919050565b5f6020820190508181035f830152611daa81611d71565b9050919050565b7f4f6e6c792063616c6c61626c65206279206f776e6572000000000000000000005f82015250565b5f611de5601683611d39565b9150611df082611db1565b602082019050919050565b5f6020820190508181035f830152611e1281611dd9565b9050919050565b7f4e487b71000000000000000000000000000000000000000000000000000000005f52604160045260245ffd5b7f4e487b71000000000000000000000000000000000000000000000000000000005f52603260045260245ffd5b7f43616e6e6f74207472616e7366657220746f2073656c660000000000000000005f82015250565b5f611ea7601783611d39565b9150611eb282611e73565b602082019050919050565b5f6020820190508181035f830152611ed481611e9b565b9050919050565b7f5361666545524332303a204552433230206f7065726174696f6e20646964206e5f8201527f6f74207375636365656400000000000000000000000000000000000000000000602082015250565b5f611f35602a83611d39565b9150611f4082611edb565b604082019050919050565b5f6020820190508181035f830152611f6281611f29565b9050919050565b602082015f820151611f7d5f850182611a10565b50505050565b5f602082019050611f965f830184611f69565b92915050565b7f416464726573733a20696e73756666696369656e742062616c616e636520666f5f8201527f722063616c6c0000000000000000000000000000000000000000000000000000602082015250565b5f611ff6602683611d39565b915061200182611f9c565b604082019050919050565b5f6020820190508181035f83015261202381611fea565b9050919050565b5f6120348261194e565b61203e8185611cc3565b935061204e818560208601611968565b80840191505092915050565b5f612065828461202a565b915081905092915050565b7f416464726573733a2063616c6c20746f206e6f6e2d636f6e74726163740000005f82015250565b5f6120a4601d83611d39565b91506120af82612070565b602082019050919050565b5f6020820190508181035f8301526120d181612098565b9050919050565b5f81519050919050565b5f6120ec826120d8565b6120f68185611d39565b9350612106818560208601611968565b61210f81611990565b840191505092915050565b5f6020820190508181035f83015261213281846120e2565b90509291505056fea2646970667358221220916f307e336c0f092f782f34b83a97a566d9b4e4248c881b6dd2b529eded746064736f6c63430008140033",
					"opcodes": "PUSH1 0x80 PUSH1 0x40 MSTORE CALLVALUE DUP1 ISZERO PUSH3 0x10 JUMPI PUSH0 DUP1 REVERT JUMPDEST POP PUSH1 0x40 MLOAD PUSH3 0x25FB CODESIZE SUB DUP1 PUSH3 0x25FB DUP4 CODECOPY DUP2 DUP2 ADD PUSH1 0x40 MSTORE DUP2 ADD SWAP1 PUSH3 0x36 SWAP2 SWAP1 PUSH3 0x34C JUMP JUMPDEST CALLER DUP1 PUSH0 DUP1 PUSH20 0xFFFFFFFFFFFFFFFFFFFFFFFFFFFFFFFFFFFFFFFF AND DUP3 PUSH20 0xFFFFFFFFFFFFFFFFFFFFFFFFFFFFFFFFFFFFFFFF AND SUB PUSH3 0xAA JUMPI PUSH1 0x40 MLOAD PUSH32 0x8C379A000000000000000000000000000000000000000000000000000000000 DUP2 MSTORE PUSH1 0x4 ADD PUSH3 0xA1 SWAP1 PUSH3 0x3EF JUMP JUMPDEST PUSH1 0x40 MLOAD DUP1 SWAP2 SUB SWAP1 REVERT JUMPDEST DUP2 PUSH0 DUP1 PUSH2 0x100 EXP DUP2 SLOAD DUP2 PUSH20 0xFFFFFFFFFFFFFFFFFFFFFFFFFFFFFFFFFFFFFFFF MUL NOT AND SWAP1 DUP4 PUSH20 0xFFFFFFFFFFFFFFFFFFFFFFFFFFFFFFFFFFFFFFFF AND MUL OR SWAP1 SSTORE POP PUSH0 PUSH20 0xFFFFFFFFFFFFFFFFFFFFFFFFFFFFFFFFFFFFFFFF AND DUP2 PUSH20 0xFFFFFFFFFFFFFFFFFFFFFFFFFFFFFFFFFFFFFFFF AND EQ PUSH3 0x12F JUMPI PUSH3 0x12E DUP2 PUSH3 0x1BA PUSH1 0x20 SHL PUSH1 0x20 SHR JUMP JUMPDEST JUMPDEST POP POP POP DUP2 PUSH1 0x3 PUSH0 PUSH2 0x100 EXP DUP2 SLOAD DUP2 PUSH20 0xFFFFFFFFFFFFFFFFFFFFFFFFFFFFFFFFFFFFFFFF MUL NOT AND SWAP1 DUP4 PUSH20 0xFFFFFFFFFFFFFFFFFFFFFFFFFFFFFFFFFFFFFFFF AND MUL OR SWAP1 SSTORE POP DUP1 PUSH1 0x4 PUSH0 PUSH2 0x100 EXP DUP2 SLOAD DUP2 PUSH20 0xFFFFFFFFFFFFFFFFFFFFFFFFFFFFFFFFFFFFFFFF MUL NOT AND SWAP1 DUP4 PUSH20 0xFFFFFFFFFFFFFFFFFFFFFFFFFFFFFFFFFFFFFFFF AND MUL OR SWAP1 SSTORE POP POP POP PUSH3 0x47D JUMP JUMPDEST CALLER PUSH20 0xFFFFFFFFFFFFFFFFFFFFFFFFFFFFFFFFFFFFFFFF AND DUP2 PUSH20 0xFFFFFFFFFFFFFFFFFFFFFFFFFFFFFFFFFFFFFFFF AND SUB PUSH3 0x22B JUMPI PUSH1 0x40 MLOAD PUSH32 0x8C379A000000000000000000000000000000000000000000000000000000000 DUP2 MSTORE PUSH1 0x4 ADD PUSH3 0x222 SWAP1 PUSH3 0x45D JUMP JUMPDEST PUSH1 0x40 MLOAD DUP1 SWAP2 SUB SWAP1 REVERT JUMPDEST DUP1 PUSH1 0x1 PUSH0 PUSH2 0x100 EXP DUP2 SLOAD DUP2 PUSH20 0xFFFFFFFFFFFFFFFFFFFFFFFFFFFFFFFFFFFFFFFF MUL NOT AND SWAP1 DUP4 PUSH20 0xFFFFFFFFFFFFFFFFFFFFFFFFFFFFFFFFFFFFFFFF AND MUL OR SWAP1 SSTORE POP DUP1 PUSH20 0xFFFFFFFFFFFFFFFFFFFFFFFFFFFFFFFFFFFFFFFF AND PUSH0 DUP1 SLOAD SWAP1 PUSH2 0x100 EXP SWAP1 DIV PUSH20 0xFFFFFFFFFFFFFFFFFFFFFFFFFFFFFFFFFFFFFFFF AND PUSH20 0xFFFFFFFFFFFFFFFFFFFFFFFFFFFFFFFFFFFFFFFF AND PUSH32 0xED8889F560326EB138920D842192F0EB3DD22B4F139C87A2C57538E05BAE1278 PUSH1 0x40 MLOAD PUSH1 0x40 MLOAD DUP1 SWAP2 SUB SWAP1 LOG3 POP JUMP JUMPDEST PUSH0 DUP1 REVERT JUMPDEST PUSH0 PUSH20 0xFFFFFFFFFFFFFFFFFFFFFFFFFFFFFFFFFFFFFFFF DUP3 AND SWAP1 POP SWAP2 SWAP1 POP JUMP JUMPDEST PUSH0 PUSH3 0x316 DUP3 PUSH3 0x2EB JUMP JUMPDEST SWAP1 POP SWAP2 SWAP1 POP JUMP JUMPDEST PUSH3 0x328 DUP2 PUSH3 0x30A JUMP JUMPDEST DUP2 EQ PUSH3 0x333 JUMPI PUSH0 DUP1 REVERT JUMPDEST POP JUMP JUMPDEST PUSH0 DUP2 MLOAD SWAP1 POP PUSH3 0x346 DUP2 PUSH3 0x31D JUMP JUMPDEST SWAP3 SWAP2 POP POP JUMP JUMPDEST PUSH0 DUP1 PUSH1 0x40 DUP4 DUP6 SUB SLT ISZERO PUSH3 0x365 JUMPI PUSH3 0x364 PUSH3 0x2E7 JUMP JUMPDEST JUMPDEST PUSH0 PUSH3 0x374 DUP6 DUP3 DUP7 ADD PUSH3 0x336 JUMP JUMPDEST SWAP3 POP POP PUSH1 0x20 PUSH3 0x387 DUP6 DUP3 DUP7 ADD PUSH3 0x336 JUMP JUMPDEST SWAP2 POP POP SWAP3 POP SWAP3 SWAP1 POP JUMP JUMPDEST PUSH0 DUP3 DUP3 MSTORE PUSH1 0x20 DUP3 ADD SWAP1 POP SWAP3 SWAP2 POP POP JUMP JUMPDEST PUSH32 0x43616E6E6F7420736574206F776E657220746F207A65726F0000000000000000 PUSH0 DUP3 ADD MSTORE POP JUMP JUMPDEST PUSH0 PUSH3 0x3D7 PUSH1 0x18 DUP4 PUSH3 0x391 JUMP JUMPDEST SWAP2 POP PUSH3 0x3E4 DUP3 PUSH3 0x3A1 JUMP JUMPDEST PUSH1 0x20 DUP3 ADD SWAP1 POP SWAP2 SWAP1 POP JUMP JUMPDEST PUSH0 PUSH1 0x20 DUP3 ADD SWAP1 POP DUP2 DUP2 SUB PUSH0 DUP4 ADD MSTORE PUSH3 0x408 DUP2 PUSH3 0x3C9 JUMP JUMPDEST SWAP1 POP SWAP2 SWAP1 POP JUMP JUMPDEST PUSH32 0x43616E6E6F74207472616E7366657220746F2073656C66000000000000000000 PUSH0 DUP3 ADD MSTORE POP JUMP JUMPDEST PUSH0 PUSH3 0x445 PUSH1 0x17 DUP4 PUSH3 0x391 JUMP JUMPDEST SWAP2 POP PUSH3 0x452 DUP3 PUSH3 0x40F JUMP JUMPDEST PUSH1 0x20 DUP3 ADD SWAP1 POP SWAP2 SWAP1 POP JUMP JUMPDEST PUSH0 PUSH1 0x20 DUP3 ADD SWAP1 POP DUP2 DUP2 SUB PUSH0 DUP4 ADD MSTORE PUSH3 0x476 DUP2 PUSH3 0x437 JUMP JUMPDEST SWAP1 POP SWAP2 SWAP1 POP JUMP JUMPDEST PUSH2 0x2170 DUP1 PUSH3 0x48B PUSH0 CODECOPY PUSH0 RETURN INVALID PUSH1 0x80 PUSH1 0x40 MSTORE PUSH1 0x4 CALLDATASIZE LT PUSH2 0x89 JUMPI PUSH0 CALLDATALOAD PUSH1 0xE0 SHR DUP1 PUSH4 0x79BA5097 GT PUSH2 0x58 JUMPI DUP1 PUSH4 0x79BA5097 EQ PUSH2 0x15C JUMPI DUP1 PUSH4 0x8DA5CB5B EQ PUSH2 0x172 JUMPI DUP1 PUSH4 0x95E1402C EQ PUSH2 0x19C JUMPI DUP1 PUSH4 0x96D3B83D EQ PUSH2 0x1D8 JUMPI DUP1 PUSH4 0xF2FDE38B EQ PUSH2 0x200 JUMPI PUSH2 0x90 JUMP JUMPDEST DUP1 PUSH4 0xBB106EB EQ PUSH2 0x94 JUMPI DUP1 PUSH4 0x3AEAC4E1 EQ PUSH2 0xD0 JUMPI DUP1 PUSH4 0x51419B4B EQ PUSH2 0xF8 JUMPI DUP1 PUSH4 0x51CFF8D9 EQ PUSH2 0x134 JUMPI PUSH2 0x90 JUMP JUMPDEST CALLDATASIZE PUSH2 0x90 JUMPI STOP JUMPDEST PUSH0 DUP1 REVERT JUMPDEST CALLVALUE DUP1 ISZERO PUSH2 0x9F JUMPI PUSH0 DUP1 REVERT JUMPDEST POP PUSH2 0xBA PUSH1 0x4 DUP1 CALLDATASIZE SUB DUP2 ADD SWAP1 PUSH2 0xB5 SWAP2 SWAP1 PUSH2 0x166E JUMP JUMPDEST PUSH2 0x228 JUMP JUMPDEST PUSH1 0x40 MLOAD PUSH2 0xC7 SWAP2 SWAP1 PUSH2 0x16B3 JUMP JUMPDEST PUSH1 0x40 MLOAD DUP1 SWAP2 SUB SWAP1 RETURN JUMPDEST CALLVALUE DUP1 ISZERO PUSH2 0xDB JUMPI PUSH0 DUP1 REVERT JUMPDEST POP PUSH2 0xF6 PUSH1 0x4 DUP1 CALLDATASIZE SUB DUP2 ADD SWAP1 PUSH2 0xF1 SWAP2 SWAP1 PUSH2 0x1726 JUMP JUMPDEST PUSH2 0x245 JUMP JUMPDEST STOP JUMPDEST CALLVALUE DUP1 ISZERO PUSH2 0x103 JUMPI PUSH0 DUP1 REVERT JUMPDEST POP PUSH2 0x11E PUSH1 0x4 DUP1 CALLDATASIZE SUB DUP2 ADD SWAP1 PUSH2 0x119 SWAP2 SWAP1 PUSH2 0x1797 JUMP JUMPDEST PUSH2 0x331 JUMP JUMPDEST PUSH1 0x40 MLOAD PUSH2 0x12B SWAP2 SWAP1 PUSH2 0x1813 JUMP JUMPDEST PUSH1 0x40 MLOAD DUP1 SWAP2 SUB SWAP1 RETURN JUMPDEST CALLVALUE DUP1 ISZERO PUSH2 0x13F JUMPI PUSH0 DUP1 REVERT JUMPDEST POP PUSH2 0x15A PUSH1 0x4 DUP1 CALLDATASIZE SUB DUP2 ADD SWAP1 PUSH2 0x155 SWAP2 SWAP1 PUSH2 0x182C JUMP JUMPDEST PUSH2 0x69C JUMP JUMPDEST STOP JUMPDEST CALLVALUE DUP1 ISZERO PUSH2 0x167 JUMPI PUSH0 DUP1 REVERT JUMPDEST POP PUSH2 0x170 PUSH2 0x794 JUMP JUMPDEST STOP JUMPDEST CALLVALUE DUP1 ISZERO PUSH2 0x17D JUMPI PUSH0 DUP1 REVERT JUMPDEST POP PUSH2 0x186 PUSH2 0x923 JUMP JUMPDEST PUSH1 0x40 MLOAD PUSH2 0x193 SWAP2 SWAP1 PUSH2 0x1866 JUMP JUMPDEST PUSH1 0x40 MLOAD DUP1 SWAP2 SUB SWAP1 RETURN JUMPDEST CALLVALUE DUP1 ISZERO PUSH2 0x1A7 JUMPI PUSH0 DUP1 REVERT JUMPDEST POP PUSH2 0x1C2 PUSH1 0x4 DUP1 CALLDATASIZE SUB DUP2 ADD SWAP1 PUSH2 0x1BD SWAP2 SWAP1 PUSH2 0x1797 JUMP JUMPDEST PUSH2 0x94A JUMP JUMPDEST PUSH1 0x40 MLOAD PUSH2 0x1CF SWAP2 SWAP1 PUSH2 0x1813 JUMP JUMPDEST PUSH1 0x40 MLOAD DUP1 SWAP2 SUB SWAP1 RETURN JUMPDEST CALLVALUE DUP1 ISZERO PUSH2 0x1E3 JUMPI PUSH0 DUP1 REVERT JUMPDEST POP PUSH2 0x1FE PUSH1 0x4 DUP1 CALLDATASIZE SUB DUP2 ADD SWAP1 PUSH2 0x1F9 SWAP2 SWAP1 PUSH2 0x18A9 JUMP JUMPDEST PUSH2 0xEE3 JUMP JUMPDEST STOP JUMPDEST CALLVALUE DUP1 ISZERO PUSH2 0x20B JUMPI PUSH0 DUP1 REVERT JUMPDEST POP PUSH2 0x226 PUSH1 0x4 DUP1 CALLDATASIZE SUB DUP2 ADD SWAP1 PUSH2 0x221 SWAP2 SWAP1 PUSH2 0x182C JUMP JUMPDEST PUSH2 0xF2B JUMP JUMPDEST STOP JUMPDEST PUSH1 0x2 PUSH1 0x20 MSTORE DUP1 PUSH0 MSTORE PUSH1 0x40 PUSH0 KECCAK256 PUSH0 SWAP2 POP SLOAD SWAP1 PUSH2 0x100 EXP SWAP1 DIV PUSH1 0xFF AND DUP2 JUMP JUMPDEST PUSH2 0x24D PUSH2 0xF3F JUMP JUMPDEST PUSH0 DUP2 PUSH20 0xFFFFFFFFFFFFFFFFFFFFFFFFFFFFFFFFFFFFFFFF AND PUSH4 0x70A08231 ADDRESS PUSH1 0x40 MLOAD DUP3 PUSH4 0xFFFFFFFF AND PUSH1 0xE0 SHL DUP2 MSTORE PUSH1 0x4 ADD PUSH2 0x287 SWAP2 SWAP1 PUSH2 0x1866 JUMP JUMPDEST PUSH1 0x20 PUSH1 0x40 MLOAD DUP1 DUP4 SUB DUP2 DUP7 GAS STATICCALL ISZERO DUP1 ISZERO PUSH2 0x2A2 JUMPI RETURNDATASIZE PUSH0 DUP1 RETURNDATACOPY RETURNDATASIZE PUSH0 REVERT JUMPDEST POP POP POP POP PUSH1 0x40 MLOAD RETURNDATASIZE PUSH1 0x1F NOT PUSH1 0x1F DUP3 ADD AND DUP3 ADD DUP1 PUSH1 0x40 MSTORE POP DUP2 ADD SWAP1 PUSH2 0x2C6 SWAP2 SWAP1 PUSH2 0x18FB JUMP JUMPDEST SWAP1 POP PUSH0 DUP2 SUB PUSH2 0x301 JUMPI PUSH1 0x40 MLOAD PUSH32 0xD0D04F6000000000000000000000000000000000000000000000000000000000 DUP2 MSTORE PUSH1 0x4 ADD PUSH1 0x40 MLOAD DUP1 SWAP2 SUB SWAP1 REVERT JUMPDEST PUSH2 0x32C DUP4 DUP3 DUP5 PUSH20 0xFFFFFFFFFFFFFFFFFFFFFFFFFFFFFFFFFFFFFFFF AND PUSH2 0xFCE SWAP1 SWAP3 SWAP2 SWAP1 PUSH4 0xFFFFFFFF AND JUMP JUMPDEST POP POP POP JUMP JUMPDEST PUSH0 PUSH2 0x33A PUSH2 0xF3F JUMP JUMPDEST DUP5 PUSH1 0x2 PUSH0 DUP3 PUSH8 0xFFFFFFFFFFFFFFFF AND PUSH8 0xFFFFFFFFFFFFFFFF AND DUP2 MSTORE PUSH1 0x20 ADD SWAP1 DUP2 MSTORE PUSH1 0x20 ADD PUSH0 KECCAK256 PUSH0 SWAP1 SLOAD SWAP1 PUSH2 0x100 EXP SWAP1 DIV PUSH1 0xFF AND PUSH2 0x3AE JUMPI DUP1 PUSH1 0x40 MLOAD PUSH32 0xA503CDB00000000000000000000000000000000000000000000000000000000 DUP2 MSTORE PUSH1 0x4 ADD PUSH2 0x3A5 SWAP2 SWAP1 PUSH2 0x1935 JUMP JUMPDEST PUSH1 0x40 MLOAD DUP1 SWAP2 SUB SWAP1 REVERT JUMPDEST DUP5 PUSH0 PUSH20 0xFFFFFFFFFFFFFFFFFFFFFFFFFFFFFFFFFFFFFFFF AND DUP2 PUSH20 0xFFFFFFFFFFFFFFFFFFFFFFFFFFFFFFFFFFFFFFFF AND SUB PUSH2 0x414 JUMPI PUSH1 0x40 MLOAD PUSH32 0xA05FF47E00000000000000000000000000000000000000000000000000000000 DUP2 MSTORE PUSH1 0x4 ADD PUSH1 0x40 MLOAD DUP1 SWAP2 SUB SWAP1 REVERT JUMPDEST PUSH0 PUSH2 0x421 DUP8 DUP8 DUP8 PUSH0 PUSH2 0x1054 JUMP JUMPDEST SWAP1 POP PUSH0 PUSH1 0x3 PUSH0 SWAP1 SLOAD SWAP1 PUSH2 0x100 EXP SWAP1 DIV PUSH20 0xFFFFFFFFFFFFFFFFFFFFFFFFFFFFFFFFFFFFFFFF AND PUSH20 0xFFFFFFFFFFFFFFFFFFFFFFFFFFFFFFFFFFFFFFFF AND PUSH4 0x20487DED DUP11 DUP5 PUSH1 0x40 MLOAD DUP4 PUSH4 0xFFFFFFFF AND PUSH1 0xE0 SHL DUP2 MSTORE PUSH1 0x4 ADD PUSH2 0x480 SWAP3 SWAP2 SWAP1 PUSH2 0x1B53 JUMP JUMPDEST PUSH1 0x20 PUSH1 0x40 MLOAD DUP1 DUP4 SUB DUP2 DUP7 GAS STATICCALL ISZERO DUP1 ISZERO PUSH2 0x49B JUMPI RETURNDATASIZE PUSH0 DUP1 RETURNDATACOPY RETURNDATASIZE PUSH0 REVERT JUMPDEST POP POP POP POP PUSH1 0x40 MLOAD RETURNDATASIZE PUSH1 0x1F NOT PUSH1 0x1F DUP3 ADD AND DUP3 ADD DUP1 PUSH1 0x40 MSTORE POP DUP2 ADD SWAP1 PUSH2 0x4BF SWAP2 SWAP1 PUSH2 0x18FB JUMP JUMPDEST SWAP1 POP SELFBALANCE DUP2 GT ISZERO PUSH2 0x508 JUMPI SELFBALANCE DUP2 PUSH1 0x40 MLOAD PUSH32 0x8F0F420600000000000000000000000000000000000000000000000000000000 DUP2 MSTORE PUSH1 0x4 ADD PUSH2 0x4FF SWAP3 SWAP2 SWAP1 PUSH2 0x1B90 JUMP JUMPDEST PUSH1 0x40 MLOAD DUP1 SWAP2 SUB SWAP1 REVERT JUMPDEST DUP7 PUSH20 0xFFFFFFFFFFFFFFFFFFFFFFFFFFFFFFFFFFFFFFFF AND PUSH4 0x95EA7B3 PUSH1 0x3 PUSH0 SWAP1 SLOAD SWAP1 PUSH2 0x100 EXP SWAP1 DIV PUSH20 0xFFFFFFFFFFFFFFFFFFFFFFFFFFFFFFFFFFFFFFFF AND DUP9 PUSH1 0x40 MLOAD DUP4 PUSH4 0xFFFFFFFF AND PUSH1 0xE0 SHL DUP2 MSTORE PUSH1 0x4 ADD PUSH2 0x564 SWAP3 SWAP2 SWAP1 PUSH2 0x1BB7 JUMP JUMPDEST PUSH1 0x20 PUSH1 0x40 MLOAD DUP1 DUP4 SUB DUP2 PUSH0 DUP8 GAS CALL ISZERO DUP1 ISZERO PUSH2 0x580 JUMPI RETURNDATASIZE PUSH0 DUP1 RETURNDATACOPY RETURNDATASIZE PUSH0 REVERT JUMPDEST POP POP POP POP PUSH1 0x40 MLOAD RETURNDATASIZE PUSH1 0x1F NOT PUSH1 0x1F DUP3 ADD AND DUP3 ADD DUP1 PUSH1 0x40 MSTORE POP DUP2 ADD SWAP1 PUSH2 0x5A4 SWAP2 SWAP1 PUSH2 0x1BF2 JUMP JUMPDEST POP PUSH1 0x3 PUSH0 SWAP1 SLOAD SWAP1 PUSH2 0x100 EXP SWAP1 DIV PUSH20 0xFFFFFFFFFFFFFFFFFFFFFFFFFFFFFFFFFFFFFFFF AND PUSH20 0xFFFFFFFFFFFFFFFFFFFFFFFFFFFFFFFFFFFFFFFF AND PUSH4 0x96F4E9F9 DUP3 DUP12 DUP6 PUSH1 0x40 MLOAD DUP5 PUSH4 0xFFFFFFFF AND PUSH1 0xE0 SHL DUP2 MSTORE PUSH1 0x4 ADD PUSH2 0x602 SWAP3 SWAP2 SWAP1 PUSH2 0x1B53 JUMP JUMPDEST PUSH1 0x20 PUSH1 0x40 MLOAD DUP1 DUP4 SUB DUP2 DUP6 DUP9 GAS CALL ISZERO DUP1 ISZERO PUSH2 0x61E JUMPI RETURNDATASIZE PUSH0 DUP1 RETURNDATACOPY RETURNDATASIZE PUSH0 REVERT JUMPDEST POP POP POP POP POP PUSH1 0x40 MLOAD RETURNDATASIZE PUSH1 0x1F NOT PUSH1 0x1F DUP3 ADD AND DUP3 ADD DUP1 PUSH1 0x40 MSTORE POP DUP2 ADD SWAP1 PUSH2 0x643 SWAP2 SWAP1 PUSH2 0x1C47 JUMP JUMPDEST SWAP5 POP DUP9 PUSH8 0xFFFFFFFFFFFFFFFF AND DUP6 PUSH32 0xC15FB748C32BA4EB29C1C311E78533F93B4425EAB49EA87C6FE4279ECADCA043 DUP11 DUP11 DUP11 PUSH0 DUP8 PUSH1 0x40 MLOAD PUSH2 0x688 SWAP6 SWAP5 SWAP4 SWAP3 SWAP2 SWAP1 PUSH2 0x1C72 JUMP JUMPDEST PUSH1 0x40 MLOAD DUP1 SWAP2 SUB SWAP1 LOG3 POP POP POP POP SWAP5 SWAP4 POP POP POP POP JUMP JUMPDEST PUSH2 0x6A4 PUSH2 0xF3F JUMP JUMPDEST PUSH0 SELFBALANCE SWAP1 POP PUSH0 DUP2 SUB PUSH2 0x6E1 JUMPI PUSH1 0x40 MLOAD PUSH32 0xD0D04F6000000000000000000000000000000000000000000000000000000000 DUP2 MSTORE PUSH1 0x4 ADD PUSH1 0x40 MLOAD DUP1 SWAP2 SUB SWAP1 REVERT JUMPDEST PUSH0 DUP3 PUSH20 0xFFFFFFFFFFFFFFFFFFFFFFFFFFFFFFFFFFFFFFFF AND DUP3 PUSH1 0x40 MLOAD PUSH2 0x706 SWAP1 PUSH2 0x1CF0 JUMP JUMPDEST PUSH0 PUSH1 0x40 MLOAD DUP1 DUP4 SUB DUP2 DUP6 DUP8 GAS CALL SWAP3 POP POP POP RETURNDATASIZE DUP1 PUSH0 DUP2 EQ PUSH2 0x740 JUMPI PUSH1 0x40 MLOAD SWAP2 POP PUSH1 0x1F NOT PUSH1 0x3F RETURNDATASIZE ADD AND DUP3 ADD PUSH1 0x40 MSTORE RETURNDATASIZE DUP3 MSTORE RETURNDATASIZE PUSH0 PUSH1 0x20 DUP5 ADD RETURNDATACOPY PUSH2 0x745 JUMP JUMPDEST PUSH1 0x60 SWAP2 POP JUMPDEST POP POP SWAP1 POP DUP1 PUSH2 0x78F JUMPI CALLER DUP4 DUP4 PUSH1 0x40 MLOAD PUSH32 0x9D11F56300000000000000000000000000000000000000000000000000000000 DUP2 MSTORE PUSH1 0x4 ADD PUSH2 0x786 SWAP4 SWAP3 SWAP2 SWAP1 PUSH2 0x1D04 JUMP JUMPDEST PUSH1 0x40 MLOAD DUP1 SWAP2 SUB SWAP1 REVERT JUMPDEST POP POP POP JUMP JUMPDEST PUSH1 0x1 PUSH0 SWAP1 SLOAD SWAP1 PUSH2 0x100 EXP SWAP1 DIV PUSH20 0xFFFFFFFFFFFFFFFFFFFFFFFFFFFFFFFFFFFFFFFF AND PUSH20 0xFFFFFFFFFFFFFFFFFFFFFFFFFFFFFFFFFFFFFFFF AND CALLER PUSH20 0xFFFFFFFFFFFFFFFFFFFFFFFFFFFFFFFFFFFFFFFF AND EQ PUSH2 0x823 JUMPI PUSH1 0x40 MLOAD PUSH32 0x8C379A000000000000000000000000000000000000000000000000000000000 DUP2 MSTORE PUSH1 0x4 ADD PUSH2 0x81A SWAP1 PUSH2 0x1D93 JUMP JUMPDEST PUSH1 0x40 MLOAD DUP1 SWAP2 SUB SWAP1 REVERT JUMPDEST PUSH0 DUP1 PUSH0 SWAP1 SLOAD SWAP1 PUSH2 0x100 EXP SWAP1 DIV PUSH20 0xFFFFFFFFFFFFFFFFFFFFFFFFFFFFFFFFFFFFFFFF AND SWAP1 POP CALLER PUSH0 DUP1 PUSH2 0x100 EXP DUP2 SLOAD DUP2 PUSH20 0xFFFFFFFFFFFFFFFFFFFFFFFFFFFFFFFFFFFFFFFF MUL NOT AND SWAP1 DUP4 PUSH20 0xFFFFFFFFFFFFFFFFFFFFFFFFFFFFFFFFFFFFFFFF AND MUL OR SWAP1 SSTORE POP PUSH0 PUSH1 0x1 PUSH0 PUSH2 0x100 EXP DUP2 SLOAD DUP2 PUSH20 0xFFFFFFFFFFFFFFFFFFFFFFFFFFFFFFFFFFFFFFFF MUL NOT AND SWAP1 DUP4 PUSH20 0xFFFFFFFFFFFFFFFFFFFFFFFFFFFFFFFFFFFFFFFF AND MUL OR SWAP1 SSTORE POP CALLER PUSH20 0xFFFFFFFFFFFFFFFFFFFFFFFFFFFFFFFFFFFFFFFF AND DUP2 PUSH20 0xFFFFFFFFFFFFFFFFFFFFFFFFFFFFFFFFFFFFFFFF AND PUSH32 0x8BE0079C531659141344CD1FD0A4F28419497F9722A3DAAFE3B4186F6B6457E0 PUSH1 0x40 MLOAD PUSH1 0x40 MLOAD DUP1 SWAP2 SUB SWAP1 LOG3 POP JUMP JUMPDEST PUSH0 DUP1 PUSH0 SWAP1 SLOAD SWAP1 PUSH2 0x100 EXP SWAP1 DIV PUSH20 0xFFFFFFFFFFFFFFFFFFFFFFFFFFFFFFFFFFFFFFFF AND SWAP1 POP SWAP1 JUMP JUMPDEST PUSH0 PUSH2 0x953 PUSH2 0xF3F JUMP JUMPDEST DUP5 PUSH1 0x2 PUSH0 DUP3 PUSH8 0xFFFFFFFFFFFFFFFF AND PUSH8 0xFFFFFFFFFFFFFFFF AND DUP2 MSTORE PUSH1 0x20 ADD SWAP1 DUP2 MSTORE PUSH1 0x20 ADD PUSH0 KECCAK256 PUSH0 SWAP1 SLOAD SWAP1 PUSH2 0x100 EXP SWAP1 DIV PUSH1 0xFF AND PUSH2 0x9C7 JUMPI DUP1 PUSH1 0x40 MLOAD PUSH32 0xA503CDB00000000000000000000000000000000000000000000000000000000 DUP2 MSTORE PUSH1 0x4 ADD PUSH2 0x9BE SWAP2 SWAP1 PUSH2 0x1935 JUMP JUMPDEST PUSH1 0x40 MLOAD DUP1 SWAP2 SUB SWAP1 REVERT JUMPDEST DUP5 PUSH0 PUSH20 0xFFFFFFFFFFFFFFFFFFFFFFFFFFFFFFFFFFFFFFFF AND DUP2 PUSH20 0xFFFFFFFFFFFFFFFFFFFFFFFFFFFFFFFFFFFFFFFF AND SUB PUSH2 0xA2D JUMPI PUSH1 0x40 MLOAD PUSH32 0xA05FF47E00000000000000000000000000000000000000000000000000000000 DUP2 MSTORE PUSH1 0x4 ADD PUSH1 0x40 MLOAD DUP1 SWAP2 SUB SWAP1 REVERT JUMPDEST PUSH0 PUSH2 0xA5B DUP8 DUP8 DUP8 PUSH1 0x4 PUSH0 SWAP1 SLOAD SWAP1 PUSH2 0x100 EXP SWAP1 DIV PUSH20 0xFFFFFFFFFFFFFFFFFFFFFFFFFFFFFFFFFFFFFFFF AND PUSH2 0x1054 JUMP JUMPDEST SWAP1 POP PUSH0 PUSH1 0x3 PUSH0 SWAP1 SLOAD SWAP1 PUSH2 0x100 EXP SWAP1 DIV PUSH20 0xFFFFFFFFFFFFFFFFFFFFFFFFFFFFFFFFFFFFFFFF AND PUSH20 0xFFFFFFFFFFFFFFFFFFFFFFFFFFFFFFFFFFFFFFFF AND PUSH4 0x20487DED DUP11 DUP5 PUSH1 0x40 MLOAD DUP4 PUSH4 0xFFFFFFFF AND PUSH1 0xE0 SHL DUP2 MSTORE PUSH1 0x4 ADD PUSH2 0xABA SWAP3 SWAP2 SWAP1 PUSH2 0x1B53 JUMP JUMPDEST PUSH1 0x20 PUSH1 0x40 MLOAD DUP1 DUP4 SUB DUP2 DUP7 GAS STATICCALL ISZERO DUP1 ISZERO PUSH2 0xAD5 JUMPI RETURNDATASIZE PUSH0 DUP1 RETURNDATACOPY RETURNDATASIZE PUSH0 REVERT JUMPDEST POP POP POP POP PUSH1 0x40 MLOAD RETURNDATASIZE PUSH1 0x1F NOT PUSH1 0x1F DUP3 ADD AND DUP3 ADD DUP1 PUSH1 0x40 MSTORE POP DUP2 ADD SWAP1 PUSH2 0xAF9 SWAP2 SWAP1 PUSH2 0x18FB JUMP JUMPDEST SWAP1 POP PUSH1 0x4 PUSH0 SWAP1 SLOAD SWAP1 PUSH2 0x100 EXP SWAP1 DIV PUSH20 0xFFFFFFFFFFFFFFFFFFFFFFFFFFFFFFFFFFFFFFFF AND PUSH20 0xFFFFFFFFFFFFFFFFFFFFFFFFFFFFFFFFFFFFFFFF AND PUSH4 0x70A08231 ADDRESS PUSH1 0x40 MLOAD DUP3 PUSH4 0xFFFFFFFF AND PUSH1 0xE0 SHL DUP2 MSTORE PUSH1 0x4 ADD PUSH2 0xB55 SWAP2 SWAP1 PUSH2 0x1866 JUMP JUMPDEST PUSH1 0x20 PUSH1 0x40 MLOAD DUP1 DUP4 SUB DUP2 DUP7 GAS STATICCALL ISZERO DUP1 ISZERO PUSH2 0xB70 JUMPI RETURNDATASIZE PUSH0 DUP1 RETURNDATACOPY RETURNDATASIZE PUSH0 REVERT JUMPDEST POP POP POP POP PUSH1 0x40 MLOAD RETURNDATASIZE PUSH1 0x1F NOT PUSH1 0x1F DUP3 ADD AND DUP3 ADD DUP1 PUSH1 0x40 MSTORE POP DUP2 ADD SWAP1 PUSH2 0xB94 SWAP2 SWAP1 PUSH2 0x18FB JUMP JUMPDEST DUP2 GT ISZERO PUSH2 0xC72 JUMPI PUSH1 0x4 PUSH0 SWAP1 SLOAD SWAP1 PUSH2 0x100 EXP SWAP1 DIV PUSH20 0xFFFFFFFFFFFFFFFFFFFFFFFFFFFFFFFFFFFFFFFF AND PUSH20 0xFFFFFFFFFFFFFFFFFFFFFFFFFFFFFFFFFFFFFFFF AND PUSH4 0x70A08231 ADDRESS PUSH1 0x40 MLOAD DUP3 PUSH4 0xFFFFFFFF AND PUSH1 0xE0 SHL DUP2 MSTORE PUSH1 0x4 ADD PUSH2 0xBF5 SWAP2 SWAP1 PUSH2 0x1866 JUMP JUMPDEST PUSH1 0x20 PUSH1 0x40 MLOAD DUP1 DUP4 SUB DUP2 DUP7 GAS STATICCALL ISZERO DUP1 ISZERO PUSH2 0xC10 JUMPI RETURNDATASIZE PUSH0 DUP1 RETURNDATACOPY RETURNDATASIZE PUSH0 REVERT JUMPDEST POP POP POP POP PUSH1 0x40 MLOAD RETURNDATASIZE PUSH1 0x1F NOT PUSH1 0x1F DUP3 ADD AND DUP3 ADD DUP1 PUSH1 0x40 MSTORE POP DUP2 ADD SWAP1 PUSH2 0xC34 SWAP2 SWAP1 PUSH2 0x18FB JUMP JUMPDEST DUP2 PUSH1 0x40 MLOAD PUSH32 0x8F0F420600000000000000000000000000000000000000000000000000000000 DUP2 MSTORE PUSH1 0x4 ADD PUSH2 0xC69 SWAP3 SWAP2 SWAP1 PUSH2 0x1B90 JUMP JUMPDEST PUSH1 0x40 MLOAD DUP1 SWAP2 SUB SWAP1 REVERT JUMPDEST PUSH1 0x4 PUSH0 SWAP1 SLOAD SWAP1 PUSH2 0x100 EXP SWAP1 DIV PUSH20 0xFFFFFFFFFFFFFFFFFFFFFFFFFFFFFFFFFFFFFFFF AND PUSH20 0xFFFFFFFFFFFFFFFFFFFFFFFFFFFFFFFFFFFFFFFF AND PUSH4 0x95EA7B3 PUSH1 0x3 PUSH0 SWAP1 SLOAD SWAP1 PUSH2 0x100 EXP SWAP1 DIV PUSH20 0xFFFFFFFFFFFFFFFFFFFFFFFFFFFFFFFFFFFFFFFF AND DUP4 PUSH1 0x40 MLOAD DUP4 PUSH4 0xFFFFFFFF AND PUSH1 0xE0 SHL DUP2 MSTORE PUSH1 0x4 ADD PUSH2 0xCEF SWAP3 SWAP2 SWAP1 PUSH2 0x1BB7 JUMP JUMPDEST PUSH1 0x20 PUSH1 0x40 MLOAD DUP1 DUP4 SUB DUP2 PUSH0 DUP8 GAS CALL ISZERO DUP1 ISZERO PUSH2 0xD0B JUMPI RETURNDATASIZE PUSH0 DUP1 RETURNDATACOPY RETURNDATASIZE PUSH0 REVERT JUMPDEST POP POP POP POP PUSH1 0x40 MLOAD RETURNDATASIZE PUSH1 0x1F NOT PUSH1 0x1F DUP3 ADD AND DUP3 ADD DUP1 PUSH1 0x40 MSTORE POP DUP2 ADD SWAP1 PUSH2 0xD2F SWAP2 SWAP1 PUSH2 0x1BF2 JUMP JUMPDEST POP DUP7 PUSH20 0xFFFFFFFFFFFFFFFFFFFFFFFFFFFFFFFFFFFFFFFF AND PUSH4 0x95EA7B3 PUSH1 0x3 PUSH0 SWAP1 SLOAD SWAP1 PUSH2 0x100 EXP SWAP1 DIV PUSH20 0xFFFFFFFFFFFFFFFFFFFFFFFFFFFFFFFFFFFFFFFF AND DUP9 PUSH1 0x40 MLOAD DUP4 PUSH4 0xFFFFFFFF AND PUSH1 0xE0 SHL DUP2 MSTORE PUSH1 0x4 ADD PUSH2 0xD8C SWAP3 SWAP2 SWAP1 PUSH2 0x1BB7 JUMP JUMPDEST PUSH1 0x20 PUSH1 0x40 MLOAD DUP1 DUP4 SUB DUP2 PUSH0 DUP8 GAS CALL ISZERO DUP1 ISZERO PUSH2 0xDA8 JUMPI RETURNDATASIZE PUSH0 DUP1 RETURNDATACOPY RETURNDATASIZE PUSH0 REVERT JUMPDEST POP POP POP POP PUSH1 0x40 MLOAD RETURNDATASIZE PUSH1 0x1F NOT PUSH1 0x1F DUP3 ADD AND DUP3 ADD DUP1 PUSH1 0x40 MSTORE POP DUP2 ADD SWAP1 PUSH2 0xDCC SWAP2 SWAP1 PUSH2 0x1BF2 JUMP JUMPDEST POP PUSH1 0x3 PUSH0 SWAP1 SLOAD SWAP1 PUSH2 0x100 EXP SWAP1 DIV PUSH20 0xFFFFFFFFFFFFFFFFFFFFFFFFFFFFFFFFFFFFFFFF AND PUSH20 0xFFFFFFFFFFFFFFFFFFFFFFFFFFFFFFFFFFFFFFFF AND PUSH4 0x96F4E9F9 DUP11 DUP5 PUSH1 0x40 MLOAD DUP4 PUSH4 0xFFFFFFFF AND PUSH1 0xE0 SHL DUP2 MSTORE PUSH1 0x4 ADD PUSH2 0xE29 SWAP3 SWAP2 SWAP1 PUSH2 0x1B53 JUMP JUMPDEST PUSH1 0x20 PUSH1 0x40 MLOAD DUP1 DUP4 SUB DUP2 PUSH0 DUP8 GAS CALL ISZERO DUP1 ISZERO PUSH2 0xE45 JUMPI RETURNDATASIZE PUSH0 DUP1 RETURNDATACOPY RETURNDATASIZE PUSH0 REVERT JUMPDEST POP POP POP POP PUSH1 0x40 MLOAD RETURNDATASIZE PUSH1 0x1F NOT PUSH1 0x1F DUP3 ADD AND DUP3 ADD DUP1 PUSH1 0x40 MSTORE POP DUP2 ADD SWAP1 PUSH2 0xE69 SWAP2 SWAP1 PUSH2 0x1C47 JUMP JUMPDEST SWAP5 POP DUP9 PUSH8 0xFFFFFFFFFFFFFFFF AND DUP6 PUSH32 0xC15FB748C32BA4EB29C1C311E78533F93B4425EAB49EA87C6FE4279ECADCA043 DUP11 DUP11 DUP11 PUSH1 0x4 PUSH0 SWAP1 SLOAD SWAP1 PUSH2 0x100 EXP SWAP1 DIV PUSH20 0xFFFFFFFFFFFFFFFFFFFFFFFFFFFFFFFFFFFFFFFF AND DUP8 PUSH1 0x40 MLOAD PUSH2 0xECF SWAP6 SWAP5 SWAP4 SWAP3 SWAP2 SWAP1 PUSH2 0x1C72 JUMP JUMPDEST PUSH1 0x40 MLOAD DUP1 SWAP2 SUB SWAP1 LOG3 POP POP POP POP SWAP5 SWAP4 POP POP POP POP JUMP JUMPDEST PUSH2 0xEEB PUSH2 0xF3F JUMP JUMPDEST DUP1 PUSH1 0x2 PUSH0 DUP5 PUSH8 0xFFFFFFFFFFFFFFFF AND PUSH8 0xFFFFFFFFFFFFFFFF AND DUP2 MSTORE PUSH1 0x20 ADD SWAP1 DUP2 MSTORE PUSH1 0x20 ADD PUSH0 KECCAK256 PUSH0 PUSH2 0x100 EXP DUP2 SLOAD DUP2 PUSH1 0xFF MUL NOT AND SWAP1 DUP4 ISZERO ISZERO MUL OR SWAP1 SSTORE POP POP POP JUMP JUMPDEST PUSH2 0xF33 PUSH2 0xF3F JUMP JUMPDEST PUSH2 0xF3C DUP2 PUSH2 0x1188 JUMP JUMPDEST POP JUMP JUMPDEST PUSH0 DUP1 SLOAD SWAP1 PUSH2 0x100 EXP SWAP1 DIV PUSH20 0xFFFFFFFFFFFFFFFFFFFFFFFFFFFFFFFFFFFFFFFF AND PUSH20 0xFFFFFFFFFFFFFFFFFFFFFFFFFFFFFFFFFFFFFFFF AND CALLER PUSH20 0xFFFFFFFFFFFFFFFFFFFFFFFFFFFFFFFFFFFFFFFF AND EQ PUSH2 0xFCC JUMPI PUSH1 0x40 MLOAD PUSH32 0x8C379A000000000000000000000000000000000000000000000000000000000 DUP2 MSTORE PUSH1 0x4 ADD PUSH2 0xFC3 SWAP1 PUSH2 0x1DFB JUMP JUMPDEST PUSH1 0x40 MLOAD DUP1 SWAP2 SUB SWAP1 REVERT JUMPDEST JUMP JUMPDEST PUSH2 0x104F DUP4 PUSH4 0xA9059CBB PUSH1 0xE0 SHL DUP5 DUP5 PUSH1 0x40 MLOAD PUSH1 0x24 ADD PUSH2 0xFED SWAP3 SWAP2 SWAP1 PUSH2 0x1BB7 JUMP JUMPDEST PUSH1 0x40 MLOAD PUSH1 0x20 DUP2 DUP4 SUB SUB DUP2 MSTORE SWAP1 PUSH1 0x40 MSTORE SWAP1 PUSH28 0xFFFFFFFFFFFFFFFFFFFFFFFFFFFFFFFFFFFFFFFFFFFFFFFFFFFFFFFF NOT AND PUSH1 0x20 DUP3 ADD DUP1 MLOAD PUSH28 0xFFFFFFFFFFFFFFFFFFFFFFFFFFFFFFFFFFFFFFFFFFFFFFFFFFFFFFFF DUP4 DUP2 DUP4 AND OR DUP4 MSTORE POP POP POP POP PUSH2 0x12B2 JUMP JUMPDEST POP POP POP JUMP JUMPDEST PUSH2 0x105C PUSH2 0x15BB JUMP JUMPDEST PUSH0 PUSH1 0x1 PUSH8 0xFFFFFFFFFFFFFFFF DUP2 GT ISZERO PUSH2 0x1078 JUMPI PUSH2 0x1077 PUSH2 0x1E19 JUMP JUMPDEST JUMPDEST PUSH1 0x40 MLOAD SWAP1 DUP1 DUP3 MSTORE DUP1 PUSH1 0x20 MUL PUSH1 0x20 ADD DUP3 ADD PUSH1 0x40 MSTORE DUP1 ISZERO PUSH2 0x10B1 JUMPI DUP2 PUSH1 0x20 ADD JUMPDEST PUSH2 0x109E PUSH2 0x15FF JUMP JUMPDEST DUP2 MSTORE PUSH1 0x20 ADD SWAP1 PUSH1 0x1 SWAP1 SUB SWAP1 DUP2 PUSH2 0x1096 JUMPI SWAP1 POP JUMPDEST POP SWAP1 POP PUSH1 0x40 MLOAD DUP1 PUSH1 0x40 ADD PUSH1 0x40 MSTORE DUP1 DUP7 PUSH20 0xFFFFFFFFFFFFFFFFFFFFFFFFFFFFFFFFFFFFFFFF AND DUP2 MSTORE PUSH1 0x20 ADD DUP6 DUP2 MSTORE POP DUP2 PUSH0 DUP2 MLOAD DUP2 LT PUSH2 0x10F2 JUMPI PUSH2 0x10F1 PUSH2 0x1E46 JUMP JUMPDEST JUMPDEST PUSH1 0x20 MUL PUSH1 0x20 ADD ADD DUP2 SWAP1 MSTORE POP PUSH1 0x40 MLOAD DUP1 PUSH1 0xA0 ADD PUSH1 0x40 MSTORE DUP1 DUP8 PUSH1 0x40 MLOAD PUSH1 0x20 ADD PUSH2 0x1119 SWAP2 SWAP1 PUSH2 0x1866 JUMP JUMPDEST PUSH1 0x40 MLOAD PUSH1 0x20 DUP2 DUP4 SUB SUB DUP2 MSTORE SWAP1 PUSH1 0x40 MSTORE DUP2 MSTORE PUSH1 0x20 ADD PUSH1 0x40 MLOAD DUP1 PUSH1 0x20 ADD PUSH1 0x40 MSTORE DUP1 PUSH0 DUP2 MSTORE POP DUP2 MSTORE PUSH1 0x20 ADD DUP3 DUP2 MSTORE PUSH1 0x20 ADD DUP5 PUSH20 0xFFFFFFFFFFFFFFFFFFFFFFFFFFFFFFFFFFFFFFFF AND DUP2 MSTORE PUSH1 0x20 ADD PUSH2 0x117A PUSH1 0x40 MLOAD DUP1 PUSH1 0x20 ADD PUSH1 0x40 MSTORE DUP1 PUSH0 DUP2 MSTORE POP PUSH2 0x1377 JUMP JUMPDEST DUP2 MSTORE POP SWAP2 POP POP SWAP5 SWAP4 POP POP POP POP JUMP JUMPDEST CALLER PUSH20 0xFFFFFFFFFFFFFFFFFFFFFFFFFFFFFFFFFFFFFFFF AND DUP2 PUSH20 0xFFFFFFFFFFFFFFFFFFFFFFFFFFFFFFFFFFFFFFFF AND SUB PUSH2 0x11F6 JUMPI PUSH1 0x40 MLOAD PUSH32 0x8C379A000000000000000000000000000000000000000000000000000000000 DUP2 MSTORE PUSH1 0x4 ADD PUSH2 0x11ED SWAP1 PUSH2 0x1EBD JUMP JUMPDEST PUSH1 0x40 MLOAD DUP1 SWAP2 SUB SWAP1 REVERT JUMPDEST DUP1 PUSH1 0x1 PUSH0 PUSH2 0x100 EXP DUP2 SLOAD DUP2 PUSH20 0xFFFFFFFFFFFFFFFFFFFFFFFFFFFFFFFFFFFFFFFF MUL NOT AND SWAP1 DUP4 PUSH20 0xFFFFFFFFFFFFFFFFFFFFFFFFFFFFFFFFFFFFFFFF AND MUL OR SWAP1 SSTORE POP DUP1 PUSH20 0xFFFFFFFFFFFFFFFFFFFFFFFFFFFFFFFFFFFFFFFF AND PUSH0 DUP1 SLOAD SWAP1 PUSH2 0x100 EXP SWAP1 DIV PUSH20 0xFFFFFFFFFFFFFFFFFFFFFFFFFFFFFFFFFFFFFFFF AND PUSH20 0xFFFFFFFFFFFFFFFFFFFFFFFFFFFFFFFFFFFFFFFF AND PUSH32 0xED8889F560326EB138920D842192F0EB3DD22B4F139C87A2C57538E05BAE1278 PUSH1 0x40 MLOAD PUSH1 0x40 MLOAD DUP1 SWAP2 SUB SWAP1 LOG3 POP JUMP JUMPDEST PUSH0 PUSH2 0x1313 DUP3 PUSH1 0x40 MLOAD DUP1 PUSH1 0x40 ADD PUSH1 0x40 MSTORE DUP1 PUSH1 0x20 DUP2 MSTORE PUSH1 0x20 ADD PUSH32 0x5361666545524332303A206C6F772D6C6576656C2063616C6C206661696C6564 DUP2 MSTORE POP DUP6 PUSH20 0xFFFFFFFFFFFFFFFFFFFFFFFFFFFFFFFFFFFFFFFF AND PUSH2 0x13F6 SWAP1 SWAP3 SWAP2 SWAP1 PUSH4 0xFFFFFFFF AND JUMP JUMPDEST SWAP1 POP PUSH0 DUP2 MLOAD GT ISZERO PUSH2 0x1372 JUMPI DUP1 DUP1 PUSH1 0x20 ADD SWAP1 MLOAD DUP2 ADD SWAP1 PUSH2 0x1332 SWAP2 SWAP1 PUSH2 0x1BF2 JUMP JUMPDEST PUSH2 0x1371 JUMPI PUSH1 0x40 MLOAD PUSH32 0x8C379A000000000000000000000000000000000000000000000000000000000 DUP2 MSTORE PUSH1 0x4 ADD PUSH2 0x1368 SWAP1 PUSH2 0x1F4B JUMP JUMPDEST PUSH1 0x40 MLOAD DUP1 SWAP2 SUB SWAP1 REVERT JUMPDEST JUMPDEST POP POP POP JUMP JUMPDEST PUSH1 0x60 PUSH4 0x97A657C9 PUSH1 0xE0 SHL DUP3 PUSH1 0x40 MLOAD PUSH1 0x24 ADD PUSH2 0x1392 SWAP2 SWAP1 PUSH2 0x1F83 JUMP JUMPDEST PUSH1 0x40 MLOAD PUSH1 0x20 DUP2 DUP4 SUB SUB DUP2 MSTORE SWAP1 PUSH1 0x40 MSTORE SWAP1 PUSH28 0xFFFFFFFFFFFFFFFFFFFFFFFFFFFFFFFFFFFFFFFFFFFFFFFFFFFFFFFF NOT AND PUSH1 0x20 DUP3 ADD DUP1 MLOAD PUSH28 0xFFFFFFFFFFFFFFFFFFFFFFFFFFFFFFFFFFFFFFFFFFFFFFFFFFFFFFFF DUP4 DUP2 DUP4 AND OR DUP4 MSTORE POP POP POP POP SWAP1 POP SWAP2 SWAP1 POP JUMP JUMPDEST PUSH1 0x60 PUSH2 0x1404 DUP5 DUP5 PUSH0 DUP6 PUSH2 0x140D JUMP JUMPDEST SWAP1 POP SWAP4 SWAP3 POP POP POP JUMP JUMPDEST PUSH1 0x60 DUP3 SELFBALANCE LT ISZERO PUSH2 0x1452 JUMPI PUSH1 0x40 MLOAD PUSH32 0x8C379A000000000000000000000000000000000000000000000000000000000 DUP2 MSTORE PUSH1 0x4 ADD PUSH2 0x1449 SWAP1 PUSH2 0x200C JUMP JUMPDEST PUSH1 0x40 MLOAD DUP1 SWAP2 SUB SWAP1 REVERT JUMPDEST PUSH0 DUP1 DUP7 PUSH20 0xFFFFFFFFFFFFFFFFFFFFFFFFFFFFFFFFFFFFFFFF AND DUP6 DUP8 PUSH1 0x40 MLOAD PUSH2 0x147A SWAP2 SWAP1 PUSH2 0x205A JUMP JUMPDEST PUSH0 PUSH1 0x40 MLOAD DUP1 DUP4 SUB DUP2 DUP6 DUP8 GAS CALL SWAP3 POP POP POP RETURNDATASIZE DUP1 PUSH0 DUP2 EQ PUSH2 0x14B4 JUMPI PUSH1 0x40 MLOAD SWAP2 POP PUSH1 0x1F NOT PUSH1 0x3F RETURNDATASIZE ADD AND DUP3 ADD PUSH1 0x40 MSTORE RETURNDATASIZE DUP3 MSTORE RETURNDATASIZE PUSH0 PUSH1 0x20 DUP5 ADD RETURNDATACOPY PUSH2 0x14B9 JUMP JUMPDEST PUSH1 0x60 SWAP2 POP JUMPDEST POP SWAP2 POP SWAP2 POP PUSH2 0x14CA DUP8 DUP4 DUP4 DUP8 PUSH2 0x14D6 JUMP JUMPDEST SWAP3 POP POP POP SWAP5 SWAP4 POP POP POP POP JUMP JUMPDEST PUSH1 0x60 DUP4 ISZERO PUSH2 0x1537 JUMPI PUSH0 DUP4 MLOAD SUB PUSH2 0x152F JUMPI PUSH2 0x14EF DUP6 PUSH2 0x154A JUMP JUMPDEST PUSH2 0x152E JUMPI PUSH1 0x40 MLOAD PUSH32 0x8C379A000000000000000000000000000000000000000000000000000000000 DUP2 MSTORE PUSH1 0x4 ADD PUSH2 0x1525 SWAP1 PUSH2 0x20BA JUMP JUMPDEST PUSH1 0x40 MLOAD DUP1 SWAP2 SUB SWAP1 REVERT JUMPDEST JUMPDEST DUP3 SWAP1 POP PUSH2 0x1542 JUMP JUMPDEST PUSH2 0x1541 DUP4 DUP4 PUSH2 0x156C JUMP JUMPDEST JUMPDEST SWAP5 SWAP4 POP POP POP POP JUMP JUMPDEST PUSH0 DUP1 DUP3 PUSH20 0xFFFFFFFFFFFFFFFFFFFFFFFFFFFFFFFFFFFFFFFF AND EXTCODESIZE GT SWAP1 POP SWAP2 SWAP1 POP JUMP JUMPDEST PUSH0 DUP3 MLOAD GT ISZERO PUSH2 0x157E JUMPI DUP2 MLOAD DUP1 DUP4 PUSH1 0x20 ADD REVERT JUMPDEST DUP1 PUSH1 0x40 MLOAD PUSH32 0x8C379A000000000000000000000000000000000000000000000000000000000 DUP2 MSTORE PUSH1 0x4 ADD PUSH2 0x15B2 SWAP2 SWAP1 PUSH2 0x211A JUMP JUMPDEST PUSH1 0x40 MLOAD DUP1 SWAP2 SUB SWAP1 REVERT JUMPDEST PUSH1 0x40 MLOAD DUP1 PUSH1 0xA0 ADD PUSH1 0x40 MSTORE DUP1 PUSH1 0x60 DUP2 MSTORE PUSH1 0x20 ADD PUSH1 0x60 DUP2 MSTORE PUSH1 0x20 ADD PUSH1 0x60 DUP2 MSTORE PUSH1 0x20 ADD PUSH0 PUSH20 0xFFFFFFFFFFFFFFFFFFFFFFFFFFFFFFFFFFFFFFFF AND DUP2 MSTORE PUSH1 0x20 ADD PUSH1 0x60 DUP2 MSTORE POP SWAP1 JUMP JUMPDEST PUSH1 0x40 MLOAD DUP1 PUSH1 0x40 ADD PUSH1 0x40 MSTORE DUP1 PUSH0 PUSH20 0xFFFFFFFFFFFFFFFFFFFFFFFFFFFFFFFFFFFFFFFF AND DUP2 MSTORE PUSH1 0x20 ADD PUSH0 DUP2 MSTORE POP SWAP1 JUMP JUMPDEST PUSH0 DUP1 REVERT JUMPDEST PUSH0 PUSH8 0xFFFFFFFFFFFFFFFF DUP3 AND SWAP1 POP SWAP2 SWAP1 POP JUMP JUMPDEST PUSH2 0x164D DUP2 PUSH2 0x1631 JUMP JUMPDEST DUP2 EQ PUSH2 0x1657 JUMPI PUSH0 DUP1 REVERT JUMPDEST POP JUMP JUMPDEST PUSH0 DUP2 CALLDATALOAD SWAP1 POP PUSH2 0x1668 DUP2 PUSH2 0x1644 JUMP JUMPDEST SWAP3 SWAP2 POP POP JUMP JUMPDEST PUSH0 PUSH1 0x20 DUP3 DUP5 SUB SLT ISZERO PUSH2 0x1683 JUMPI PUSH2 0x1682 PUSH2 0x162D JUMP JUMPDEST JUMPDEST PUSH0 PUSH2 0x1690 DUP5 DUP3 DUP6 ADD PUSH2 0x165A JUMP JUMPDEST SWAP2 POP POP SWAP3 SWAP2 POP POP JUMP JUMPDEST PUSH0 DUP2 ISZERO ISZERO SWAP1 POP SWAP2 SWAP1 POP JUMP JUMPDEST PUSH2 0x16AD DUP2 PUSH2 0x1699 JUMP JUMPDEST DUP3 MSTORE POP POP JUMP JUMPDEST PUSH0 PUSH1 0x20 DUP3 ADD SWAP1 POP PUSH2 0x16C6 PUSH0 DUP4 ADD DUP5 PUSH2 0x16A4 JUMP JUMPDEST SWAP3 SWAP2 POP POP JUMP JUMPDEST PUSH0 PUSH20 0xFFFFFFFFFFFFFFFFFFFFFFFFFFFFFFFFFFFFFFFF DUP3 AND SWAP1 POP SWAP2 SWAP1 POP JUMP JUMPDEST PUSH0 PUSH2 0x16F5 DUP3 PUSH2 0x16CC JUMP JUMPDEST SWAP1 POP SWAP2 SWAP1 POP JUMP JUMPDEST PUSH2 0x1705 DUP2 PUSH2 0x16EB JUMP JUMPDEST DUP2 EQ PUSH2 0x170F JUMPI PUSH0 DUP1 REVERT JUMPDEST POP JUMP JUMPDEST PUSH0 DUP2 CALLDATALOAD SWAP1 POP PUSH2 0x1720 DUP2 PUSH2 0x16FC JUMP JUMPDEST SWAP3 SWAP2 POP POP JUMP JUMPDEST PUSH0 DUP1 PUSH1 0x40 DUP4 DUP6 SUB SLT ISZERO PUSH2 0x173C JUMPI PUSH2 0x173B PUSH2 0x162D JUMP JUMPDEST JUMPDEST PUSH0 PUSH2 0x1749 DUP6 DUP3 DUP7 ADD PUSH2 0x1712 JUMP JUMPDEST SWAP3 POP POP PUSH1 0x20 PUSH2 0x175A DUP6 DUP3 DUP7 ADD PUSH2 0x1712 JUMP JUMPDEST SWAP2 POP POP SWAP3 POP SWAP3 SWAP1 POP JUMP JUMPDEST PUSH0 DUP2 SWAP1 POP SWAP2 SWAP1 POP JUMP JUMPDEST PUSH2 0x1776 DUP2 PUSH2 0x1764 JUMP JUMPDEST DUP2 EQ PUSH2 0x1780 JUMPI PUSH0 DUP1 REVERT JUMPDEST POP JUMP JUMPDEST PUSH0 DUP2 CALLDATALOAD SWAP1 POP PUSH2 0x1791 DUP2 PUSH2 0x176D JUMP JUMPDEST SWAP3 SWAP2 POP POP JUMP JUMPDEST PUSH0 DUP1 PUSH0 DUP1 PUSH1 0x80 DUP6 DUP8 SUB SLT ISZERO PUSH2 0x17AF JUMPI PUSH2 0x17AE PUSH2 0x162D JUMP JUMPDEST JUMPDEST PUSH0 PUSH2 0x17BC DUP8 DUP3 DUP9 ADD PUSH2 0x165A JUMP JUMPDEST SWAP5 POP POP PUSH1 0x20 PUSH2 0x17CD DUP8 DUP3 DUP9 ADD PUSH2 0x1712 JUMP JUMPDEST SWAP4 POP POP PUSH1 0x40 PUSH2 0x17DE DUP8 DUP3 DUP9 ADD PUSH2 0x1712 JUMP JUMPDEST SWAP3 POP POP PUSH1 0x60 PUSH2 0x17EF DUP8 DUP3 DUP9 ADD PUSH2 0x1783 JUMP JUMPDEST SWAP2 POP POP SWAP3 SWAP6 SWAP2 SWAP5 POP SWAP3 POP JUMP JUMPDEST PUSH0 DUP2 SWAP1 POP SWAP2 SWAP1 POP JUMP JUMPDEST PUSH2 0x180D DUP2 PUSH2 0x17FB JUMP JUMPDEST DUP3 MSTORE POP POP JUMP JUMPDEST PUSH0 PUSH1 0x20 DUP3 ADD SWAP1 POP PUSH2 0x1826 PUSH0 DUP4 ADD DUP5 PUSH2 0x1804 JUMP JUMPDEST SWAP3 SWAP2 POP POP JUMP JUMPDEST PUSH0 PUSH1 0x20 DUP3 DUP5 SUB SLT ISZERO PUSH2 0x1841 JUMPI PUSH2 0x1840 PUSH2 0x162D JUMP JUMPDEST JUMPDEST PUSH0 PUSH2 0x184E DUP5 DUP3 DUP6 ADD PUSH2 0x1712 JUMP JUMPDEST SWAP2 POP POP SWAP3 SWAP2 POP POP JUMP JUMPDEST PUSH2 0x1860 DUP2 PUSH2 0x16EB JUMP JUMPDEST DUP3 MSTORE POP POP JUMP JUMPDEST PUSH0 PUSH1 0x20 DUP3 ADD SWAP1 POP PUSH2 0x1879 PUSH0 DUP4 ADD DUP5 PUSH2 0x1857 JUMP JUMPDEST SWAP3 SWAP2 POP POP JUMP JUMPDEST PUSH2 0x1888 DUP2 PUSH2 0x1699 JUMP JUMPDEST DUP2 EQ PUSH2 0x1892 JUMPI PUSH0 DUP1 REVERT JUMPDEST POP JUMP JUMPDEST PUSH0 DUP2 CALLDATALOAD SWAP1 POP PUSH2 0x18A3 DUP2 PUSH2 0x187F JUMP JUMPDEST SWAP3 SWAP2 POP POP JUMP JUMPDEST PUSH0 DUP1 PUSH1 0x40 DUP4 DUP6 SUB SLT ISZERO PUSH2 0x18BF JUMPI PUSH2 0x18BE PUSH2 0x162D JUMP JUMPDEST JUMPDEST PUSH0 PUSH2 0x18CC DUP6 DUP3 DUP7 ADD PUSH2 0x165A JUMP JUMPDEST SWAP3 POP POP PUSH1 0x20 PUSH2 0x18DD DUP6 DUP3 DUP7 ADD PUSH2 0x1895 JUMP JUMPDEST SWAP2 POP POP SWAP3 POP SWAP3 SWAP1 POP JUMP JUMPDEST PUSH0 DUP2 MLOAD SWAP1 POP PUSH2 0x18F5 DUP2 PUSH2 0x176D JUMP JUMPDEST SWAP3 SWAP2 POP POP JUMP JUMPDEST PUSH0 PUSH1 0x20 DUP3 DUP5 SUB SLT ISZERO PUSH2 0x1910 JUMPI PUSH2 0x190F PUSH2 0x162D JUMP JUMPDEST JUMPDEST PUSH0 PUSH2 0x191D DUP5 DUP3 DUP6 ADD PUSH2 0x18E7 JUMP JUMPDEST SWAP2 POP POP SWAP3 SWAP2 POP POP JUMP JUMPDEST PUSH2 0x192F DUP2 PUSH2 0x1631 JUMP JUMPDEST DUP3 MSTORE POP POP JUMP JUMPDEST PUSH0 PUSH1 0x20 DUP3 ADD SWAP1 POP PUSH2 0x1948 PUSH0 DUP4 ADD DUP5 PUSH2 0x1926 JUMP JUMPDEST SWAP3 SWAP2 POP POP JUMP JUMPDEST PUSH0 DUP2 MLOAD SWAP1 POP SWAP2 SWAP1 POP JUMP JUMPDEST PUSH0 DUP3 DUP3 MSTORE PUSH1 0x20 DUP3 ADD SWAP1 POP SWAP3 SWAP2 POP POP JUMP JUMPDEST PUSH0 JUMPDEST DUP4 DUP2 LT ISZERO PUSH2 0x1985 JUMPI DUP1 DUP3 ADD MLOAD DUP2 DUP5 ADD MSTORE PUSH1 0x20 DUP2 ADD SWAP1 POP PUSH2 0x196A JUMP JUMPDEST PUSH0 DUP5 DUP5 ADD MSTORE POP POP POP POP JUMP JUMPDEST PUSH0 PUSH1 0x1F NOT PUSH1 0x1F DUP4 ADD AND SWAP1 POP SWAP2 SWAP1 POP JUMP JUMPDEST PUSH0 PUSH2 0x19AA DUP3 PUSH2 0x194E JUMP JUMPDEST PUSH2 0x19B4 DUP2 DUP6 PUSH2 0x1958 JUMP JUMPDEST SWAP4 POP PUSH2 0x19C4 DUP2 DUP6 PUSH1 0x20 DUP7 ADD PUSH2 0x1968 JUMP JUMPDEST PUSH2 0x19CD DUP2 PUSH2 0x1990 JUMP JUMPDEST DUP5 ADD SWAP2 POP POP SWAP3 SWAP2 POP POP JUMP JUMPDEST PUSH0 DUP2 MLOAD SWAP1 POP SWAP2 SWAP1 POP JUMP JUMPDEST PUSH0 DUP3 DUP3 MSTORE PUSH1 0x20 DUP3 ADD SWAP1 POP SWAP3 SWAP2 POP POP JUMP JUMPDEST PUSH0 DUP2 SWAP1 POP PUSH1 0x20 DUP3 ADD SWAP1 POP SWAP2 SWAP1 POP JUMP JUMPDEST PUSH2 0x1A0A DUP2 PUSH2 0x16EB JUMP JUMPDEST DUP3 MSTORE POP POP JUMP JUMPDEST PUSH2 0x1A19 DUP2 PUSH2 0x1764 JUMP JUMPDEST DUP3 MSTORE POP POP JUMP JUMPDEST PUSH1 0x40 DUP3 ADD PUSH0 DUP3 ADD MLOAD PUSH2 0x1A33 PUSH0 DUP6 ADD DUP3 PUSH2 0x1A01 JUMP JUMPDEST POP PUSH1 0x20 DUP3 ADD MLOAD PUSH2 0x1A46 PUSH1 0x20 DUP6 ADD DUP3 PUSH2 0x1A10 JUMP JUMPDEST POP POP POP POP JUMP JUMPDEST PUSH0 PUSH2 0x1A57 DUP4 DUP4 PUSH2 0x1A1F JUMP JUMPDEST PUSH1 0x40 DUP4 ADD SWAP1 POP SWAP3 SWAP2 POP POP JUMP JUMPDEST PUSH0 PUSH1 0x20 DUP3 ADD SWAP1 POP SWAP2 SWAP1 POP JUMP JUMPDEST PUSH0 PUSH2 0x1A79 DUP3 PUSH2 0x19D8 JUMP JUMPDEST PUSH2 0x1A83 DUP2 DUP6 PUSH2 0x19E2 JUMP JUMPDEST SWAP4 POP PUSH2 0x1A8E DUP4 PUSH2 0x19F2 JUMP JUMPDEST DUP1 PUSH0 JUMPDEST DUP4 DUP2 LT ISZERO PUSH2 0x1ABE JUMPI DUP2 MLOAD PUSH2 0x1AA5 DUP9 DUP3 PUSH2 0x1A4C JUMP JUMPDEST SWAP8 POP PUSH2 0x1AB0 DUP4 PUSH2 0x1A63 JUMP JUMPDEST SWAP3 POP POP PUSH1 0x1 DUP2 ADD SWAP1 POP PUSH2 0x1A91 JUMP JUMPDEST POP DUP6 SWAP4 POP POP POP POP SWAP3 SWAP2 POP POP JUMP JUMPDEST PUSH0 PUSH1 0xA0 DUP4 ADD PUSH0 DUP4 ADD MLOAD DUP5 DUP3 SUB PUSH0 DUP7 ADD MSTORE PUSH2 0x1AE5 DUP3 DUP3 PUSH2 0x19A0 JUMP JUMPDEST SWAP2 POP POP PUSH1 0x20 DUP4 ADD MLOAD DUP5 DUP3 SUB PUSH1 0x20 DUP7 ADD MSTORE PUSH2 0x1AFF DUP3 DUP3 PUSH2 0x19A0 JUMP JUMPDEST SWAP2 POP POP PUSH1 0x40 DUP4 ADD MLOAD DUP5 DUP3 SUB PUSH1 0x40 DUP7 ADD MSTORE PUSH2 0x1B19 DUP3 DUP3 PUSH2 0x1A6F JUMP JUMPDEST SWAP2 POP POP PUSH1 0x60 DUP4 ADD MLOAD PUSH2 0x1B2E PUSH1 0x60 DUP7 ADD DUP3 PUSH2 0x1A01 JUMP JUMPDEST POP PUSH1 0x80 DUP4 ADD MLOAD DUP5 DUP3 SUB PUSH1 0x80 DUP7 ADD MSTORE PUSH2 0x1B46 DUP3 DUP3 PUSH2 0x19A0 JUMP JUMPDEST SWAP2 POP POP DUP1 SWAP2 POP POP SWAP3 SWAP2 POP POP JUMP JUMPDEST PUSH0 PUSH1 0x40 DUP3 ADD SWAP1 POP PUSH2 0x1B66 PUSH0 DUP4 ADD DUP6 PUSH2 0x1926 JUMP JUMPDEST DUP2 DUP2 SUB PUSH1 0x20 DUP4 ADD MSTORE PUSH2 0x1B78 DUP2 DUP5 PUSH2 0x1ACB JUMP JUMPDEST SWAP1 POP SWAP4 SWAP3 POP POP POP JUMP JUMPDEST PUSH2 0x1B8A DUP2 PUSH2 0x1764 JUMP JUMPDEST DUP3 MSTORE POP POP JUMP JUMPDEST PUSH0 PUSH1 0x40 DUP3 ADD SWAP1 POP PUSH2 0x1BA3 PUSH0 DUP4 ADD DUP6 PUSH2 0x1B81 JUMP JUMPDEST PUSH2 0x1BB0 PUSH1 0x20 DUP4 ADD DUP5 PUSH2 0x1B81 JUMP JUMPDEST SWAP4 SWAP3 POP POP POP JUMP JUMPDEST PUSH0 PUSH1 0x40 DUP3 ADD SWAP1 POP PUSH2 0x1BCA PUSH0 DUP4 ADD DUP6 PUSH2 0x1857 JUMP JUMPDEST PUSH2 0x1BD7 PUSH1 0x20 DUP4 ADD DUP5 PUSH2 0x1B81 JUMP JUMPDEST SWAP4 SWAP3 POP POP POP JUMP JUMPDEST PUSH0 DUP2 MLOAD SWAP1 POP PUSH2 0x1BEC DUP2 PUSH2 0x187F JUMP JUMPDEST SWAP3 SWAP2 POP POP JUMP JUMPDEST PUSH0 PUSH1 0x20 DUP3 DUP5 SUB SLT ISZERO PUSH2 0x1C07 JUMPI PUSH2 0x1C06 PUSH2 0x162D JUMP JUMPDEST JUMPDEST PUSH0 PUSH2 0x1C14 DUP5 DUP3 DUP6 ADD PUSH2 0x1BDE JUMP JUMPDEST SWAP2 POP POP SWAP3 SWAP2 POP POP JUMP JUMPDEST PUSH2 0x1C26 DUP2 PUSH2 0x17FB JUMP JUMPDEST DUP2 EQ PUSH2 0x1C30 JUMPI PUSH0 DUP1 REVERT JUMPDEST POP JUMP JUMPDEST PUSH0 DUP2 MLOAD SWAP1 POP PUSH2 0x1C41 DUP2 PUSH2 0x1C1D JUMP JUMPDEST SWAP3 SWAP2 POP POP JUMP JUMPDEST PUSH0 PUSH1 0x20 DUP3 DUP5 SUB SLT ISZERO PUSH2 0x1C5C JUMPI PUSH2 0x1C5B PUSH2 0x162D JUMP JUMPDEST JUMPDEST PUSH0 PUSH2 0x1C69 DUP5 DUP3 DUP6 ADD PUSH2 0x1C33 JUMP JUMPDEST SWAP2 POP POP SWAP3 SWAP2 POP POP JUMP JUMPDEST PUSH0 PUSH1 0xA0 DUP3 ADD SWAP1 POP PUSH2 0x1C85 PUSH0 DUP4 ADD DUP9 PUSH2 0x1857 JUMP JUMPDEST PUSH2 0x1C92 PUSH1 0x20 DUP4 ADD DUP8 PUSH2 0x1857 JUMP JUMPDEST PUSH2 0x1C9F PUSH1 0x40 DUP4 ADD DUP7 PUSH2 0x1B81 JUMP JUMPDEST PUSH2 0x1CAC PUSH1 0x60 DUP4 ADD DUP6 PUSH2 0x1857 JUMP JUMPDEST PUSH2 0x1CB9 PUSH1 0x80 DUP4 ADD DUP5 PUSH2 0x1B81 JUMP JUMPDEST SWAP7 SWAP6 POP POP POP POP POP POP JUMP JUMPDEST PUSH0 DUP2 SWAP1 POP SWAP3 SWAP2 POP POP JUMP JUMPDEST POP JUMP JUMPDEST PUSH0 PUSH2 0x1CDB PUSH0 DUP4 PUSH2 0x1CC3 JUMP JUMPDEST SWAP2 POP PUSH2 0x1CE6 DUP3 PUSH2 0x1CCD JUMP JUMPDEST PUSH0 DUP3 ADD SWAP1 POP SWAP2 SWAP1 POP JUMP JUMPDEST PUSH0 PUSH2 0x1CFA DUP3 PUSH2 0x1CD0 JUMP JUMPDEST SWAP2 POP DUP2 SWAP1 POP SWAP2 SWAP1 POP JUMP JUMPDEST PUSH0 PUSH1 0x60 DUP3 ADD SWAP1 POP PUSH2 0x1D17 PUSH0 DUP4 ADD DUP7 PUSH2 0x1857 JUMP JUMPDEST PUSH2 0x1D24 PUSH1 0x20 DUP4 ADD DUP6 PUSH2 0x1857 JUMP JUMPDEST PUSH2 0x1D31 PUSH1 0x40 DUP4 ADD DUP5 PUSH2 0x1B81 JUMP JUMPDEST SWAP5 SWAP4 POP POP POP POP JUMP JUMPDEST PUSH0 DUP3 DUP3 MSTORE PUSH1 0x20 DUP3 ADD SWAP1 POP SWAP3 SWAP2 POP POP JUMP JUMPDEST PUSH32 0x4D7573742062652070726F706F736564206F776E657200000000000000000000 PUSH0 DUP3 ADD MSTORE POP JUMP JUMPDEST PUSH0 PUSH2 0x1D7D PUSH1 0x16 DUP4 PUSH2 0x1D39 JUMP JUMPDEST SWAP2 POP PUSH2 0x1D88 DUP3 PUSH2 0x1D49 JUMP JUMPDEST PUSH1 0x20 DUP3 ADD SWAP1 POP SWAP2 SWAP1 POP JUMP JUMPDEST PUSH0 PUSH1 0x20 DUP3 ADD SWAP1 POP DUP2 DUP2 SUB PUSH0 DUP4 ADD MSTORE PUSH2 0x1DAA DUP2 PUSH2 0x1D71 JUMP JUMPDEST SWAP1 POP SWAP2 SWAP1 POP JUMP JUMPDEST PUSH32 0x4F6E6C792063616C6C61626C65206279206F776E657200000000000000000000 PUSH0 DUP3 ADD MSTORE POP JUMP JUMPDEST PUSH0 PUSH2 0x1DE5 PUSH1 0x16 DUP4 PUSH2 0x1D39 JUMP JUMPDEST SWAP2 POP PUSH2 0x1DF0 DUP3 PUSH2 0x1DB1 JUMP JUMPDEST PUSH1 0x20 DUP3 ADD SWAP1 POP SWAP2 SWAP1 POP JUMP JUMPDEST PUSH0 PUSH1 0x20 DUP3 ADD SWAP1 POP DUP2 DUP2 SUB PUSH0 DUP4 ADD MSTORE PUSH2 0x1E12 DUP2 PUSH2 0x1DD9 JUMP JUMPDEST SWAP1 POP SWAP2 SWAP1 POP JUMP JUMPDEST PUSH32 0x4E487B7100000000000000000000000000000000000000000000000000000000 PUSH0 MSTORE PUSH1 0x41 PUSH1 0x4 MSTORE PUSH1 0x24 PUSH0 REVERT JUMPDEST PUSH32 0x4E487B7100000000000000000000000000000000000000000000000000000000 PUSH0 MSTORE PUSH1 0x32 PUSH1 0x4 MSTORE PUSH1 0x24 PUSH0 REVERT JUMPDEST PUSH32 0x43616E6E6F74207472616E7366657220746F2073656C66000000000000000000 PUSH0 DUP3 ADD MSTORE POP JUMP JUMPDEST PUSH0 PUSH2 0x1EA7 PUSH1 0x17 DUP4 PUSH2 0x1D39 JUMP JUMPDEST SWAP2 POP PUSH2 0x1EB2 DUP3 PUSH2 0x1E73 JUMP JUMPDEST PUSH1 0x20 DUP3 ADD SWAP1 POP SWAP2 SWAP1 POP JUMP JUMPDEST PUSH0 PUSH1 0x20 DUP3 ADD SWAP1 POP DUP2 DUP2 SUB PUSH0 DUP4 ADD MSTORE PUSH2 0x1ED4 DUP2 PUSH2 0x1E9B JUMP JUMPDEST SWAP1 POP SWAP2 SWAP1 POP JUMP JUMPDEST PUSH32 0x5361666545524332303A204552433230206F7065726174696F6E20646964206E PUSH0 DUP3 ADD MSTORE PUSH32 0x6F74207375636365656400000000000000000000000000000000000000000000 PUSH1 0x20 DUP3 ADD MSTORE POP JUMP JUMPDEST PUSH0 PUSH2 0x1F35 PUSH1 0x2A DUP4 PUSH2 0x1D39 JUMP JUMPDEST SWAP2 POP PUSH2 0x1F40 DUP3 PUSH2 0x1EDB JUMP JUMPDEST PUSH1 0x40 DUP3 ADD SWAP1 POP SWAP2 SWAP1 POP JUMP JUMPDEST PUSH0 PUSH1 0x20 DUP3 ADD SWAP1 POP DUP2 DUP2 SUB PUSH0 DUP4 ADD MSTORE PUSH2 0x1F62 DUP2 PUSH2 0x1F29 JUMP JUMPDEST SWAP1 POP SWAP2 SWAP1 POP JUMP JUMPDEST PUSH1 0x20 DUP3 ADD PUSH0 DUP3 ADD MLOAD PUSH2 0x1F7D PUSH0 DUP6 ADD DUP3 PUSH2 0x1A10 JUMP JUMPDEST POP POP POP POP JUMP JUMPDEST PUSH0 PUSH1 0x20 DUP3 ADD SWAP1 POP PUSH2 0x1F96 PUSH0 DUP4 ADD DUP5 PUSH2 0x1F69 JUMP JUMPDEST SWAP3 SWAP2 POP POP JUMP JUMPDEST PUSH32 0x416464726573733A20696E73756666696369656E742062616C616E636520666F PUSH0 DUP3 ADD MSTORE PUSH32 0x722063616C6C0000000000000000000000000000000000000000000000000000 PUSH1 0x20 DUP3 ADD MSTORE POP JUMP JUMPDEST PUSH0 PUSH2 0x1FF6 PUSH1 0x26 DUP4 PUSH2 0x1D39 JUMP JUMPDEST SWAP2 POP PUSH2 0x2001 DUP3 PUSH2 0x1F9C JUMP JUMPDEST PUSH1 0x40 DUP3 ADD SWAP1 POP SWAP2 SWAP1 POP JUMP JUMPDEST PUSH0 PUSH1 0x20 DUP3 ADD SWAP1 POP DUP2 DUP2 SUB PUSH0 DUP4 ADD MSTORE PUSH2 0x2023 DUP2 PUSH2 0x1FEA JUMP JUMPDEST SWAP1 POP SWAP2 SWAP1 POP JUMP JUMPDEST PUSH0 PUSH2 0x2034 DUP3 PUSH2 0x194E JUMP JUMPDEST PUSH2 0x203E DUP2 DUP6 PUSH2 0x1CC3 JUMP JUMPDEST SWAP4 POP PUSH2 0x204E DUP2 DUP6 PUSH1 0x20 DUP7 ADD PUSH2 0x1968 JUMP JUMPDEST DUP1 DUP5 ADD SWAP2 POP POP SWAP3 SWAP2 POP POP JUMP JUMPDEST PUSH0 PUSH2 0x2065 DUP3 DUP5 PUSH2 0x202A JUMP JUMPDEST SWAP2 POP DUP2 SWAP1 POP SWAP3 SWAP2 POP POP JUMP JUMPDEST PUSH32 0x416464726573733A2063616C6C20746F206E6F6E2D636F6E7472616374000000 PUSH0 DUP3 ADD MSTORE POP JUMP JUMPDEST PUSH0 PUSH2 0x20A4 PUSH1 0x1D DUP4 PUSH2 0x1D39 JUMP JUMPDEST SWAP2 POP PUSH2 0x20AF DUP3 PUSH2 0x2070 JUMP JUMPDEST PUSH1 0x20 DUP3 ADD SWAP1 POP SWAP2 SWAP1 POP JUMP JUMPDEST PUSH0 PUSH1 0x20 DUP3 ADD SWAP1 POP DUP2 DUP2 SUB PUSH0 DUP4 ADD MSTORE PUSH2 0x20D1 DUP2 PUSH2 0x2098 JUMP JUMPDEST SWAP1 POP SWAP2 SWAP1 POP JUMP JUMPDEST PUSH0 DUP2 MLOAD SWAP1 POP SWAP2 SWAP1 POP JUMP JUMPDEST PUSH0 PUSH2 0x20EC DUP3 PUSH2 0x20D8 JUMP JUMPDEST PUSH2 0x20F6 DUP2 DUP6 PUSH2 0x1D39 JUMP JUMPDEST SWAP4 POP PUSH2 0x2106 DUP2 DUP6 PUSH1 0x20 DUP7 ADD PUSH2 0x1968 JUMP JUMPDEST PUSH2 0x210F DUP2 PUSH2 0x1990 JUMP JUMPDEST DUP5 ADD SWAP2 POP POP SWAP3 SWAP2 POP POP JUMP JUMPDEST PUSH0 PUSH1 0x20 DUP3 ADD SWAP1 POP DUP2 DUP2 SUB PUSH0 DUP4 ADD MSTORE PUSH2 0x2132 DUP2 DUP5 PUSH2 0x20E2 JUMP JUMPDEST SWAP1 POP SWAP3 SWAP2 POP POP JUMP INVALID LOG2 PUSH5 0x6970667358 0x22 SLT KECCAK256 SWAP2 PUSH16 0x307E336C0F092F782F34B83A97A566D9 0xB4 0xE4 0x24 DUP13 DUP9 SHL PUSH14 0xD2B529EDED746064736F6C634300 ADDMOD EQ STOP CALLER "
				},
				"gasEstimates": {
					"creation": {
						"codeDepositCost": "1712000",
						"executionCost": "infinite",
						"totalCost": "infinite"
					},
					"external": {
						"acceptOwnership()": "54533",
						"allowlistDestinationChain(uint64,bool)": "27194",
						"allowlistedChains(uint64)": "2792",
						"owner()": "2537",
						"transferOwnership(address)": "30733",
						"transferTokensPayLINK(uint64,address,address,uint256)": "infinite",
						"transferTokensPayNative(uint64,address,address,uint256)": "infinite",
						"withdraw(address)": "infinite",
						"withdrawToken(address,address)": "infinite"
					},
					"internal": {
						"_buildCCIPMessage(address,address,uint256,address)": "infinite"
					}
				},
				"methodIdentifiers": {
					"acceptOwnership()": "79ba5097",
					"allowlistDestinationChain(uint64,bool)": "96d3b83d",
					"allowlistedChains(uint64)": "0bb106eb",
					"owner()": "8da5cb5b",
					"transferOwnership(address)": "f2fde38b",
					"transferTokensPayLINK(uint64,address,address,uint256)": "95e1402c",
					"transferTokensPayNative(uint64,address,address,uint256)": "51419b4b",
					"withdraw(address)": "51cff8d9",
					"withdrawToken(address,address)": "3aeac4e1"
				}
			},
			"storageLayout": {
				"storage": [
					{
						"astId": 137,
						"contract": "contracts/blockmagic_hackaton/ccip/TokenTransferor.sol:TokenTransferor",
						"label": "s_owner",
						"offset": 0,
						"slot": "0",
						"type": "t_address"
					},
					{
						"astId": 139,
						"contract": "contracts/blockmagic_hackaton/ccip/TokenTransferor.sol:TokenTransferor",
						"label": "s_pendingOwner",
						"offset": 0,
						"slot": "1",
						"type": "t_address"
					},
					{
						"astId": 1108,
						"contract": "contracts/blockmagic_hackaton/ccip/TokenTransferor.sol:TokenTransferor",
						"label": "allowlistedChains",
						"offset": 0,
						"slot": "2",
						"type": "t_mapping(t_uint64,t_bool)"
					},
					{
						"astId": 1111,
						"contract": "contracts/blockmagic_hackaton/ccip/TokenTransferor.sol:TokenTransferor",
						"label": "s_router",
						"offset": 0,
						"slot": "3",
						"type": "t_contract(IRouterClient)51"
					},
					{
						"astId": 1114,
						"contract": "contracts/blockmagic_hackaton/ccip/TokenTransferor.sol:TokenTransferor",
						"label": "s_linkToken",
						"offset": 0,
						"slot": "4",
						"type": "t_contract(IERC20)401"
					}
				],
				"types": {
					"t_address": {
						"encoding": "inplace",
						"label": "address",
						"numberOfBytes": "20"
					},
					"t_bool": {
						"encoding": "inplace",
						"label": "bool",
						"numberOfBytes": "1"
					},
					"t_contract(IERC20)401": {
						"encoding": "inplace",
						"label": "contract IERC20",
						"numberOfBytes": "20"
					},
					"t_contract(IRouterClient)51": {
						"encoding": "inplace",
						"label": "contract IRouterClient",
						"numberOfBytes": "20"
					},
					"t_mapping(t_uint64,t_bool)": {
						"encoding": "mapping",
						"key": "t_uint64",
						"label": "mapping(uint64 => bool)",
						"numberOfBytes": "32",
						"value": "t_bool"
					},
					"t_uint64": {
						"encoding": "inplace",
						"label": "uint64",
						"numberOfBytes": "8"
					}
				}
			},
			"userdoc": {
				"kind": "user",
				"methods": {
					"acceptOwnership()": {
						"notice": "Allows an ownership transfer to be completed by the recipient."
					},
					"owner()": {
						"notice": "Get the current owner"
					},
					"transferOwnership(address)": {
						"notice": "Allows an owner to begin transferring ownership to a new address."
					}
				},
				"version": 1
			}
		}
	}
}